{
  "contractName": "func",
  "abi": [
    {
      "inputs": [
        {
          "internalType": "string",
          "name": "input",
          "type": "string"
        }
      ],
      "name": "removeDuplicateWords",
      "outputs": [
        {
          "internalType": "string",
          "name": "",
          "type": "string"
        }
      ],
      "stateMutability": "pure",
      "type": "function"
    },
    {
      "inputs": [
        {
          "internalType": "string",
          "name": "a",
          "type": "string"
        },
        {
          "internalType": "string",
          "name": "b",
          "type": "string"
        }
      ],
      "name": "concatenate",
      "outputs": [
        {
          "internalType": "string",
          "name": "",
          "type": "string"
        }
      ],
      "stateMutability": "pure",
      "type": "function"
    },
    {
      "inputs": [
        {
          "internalType": "address",
          "name": "_addr",
          "type": "address"
        }
      ],
      "name": "addressToString",
      "outputs": [
        {
          "internalType": "string",
          "name": "",
          "type": "string"
        }
      ],
      "stateMutability": "pure",
      "type": "function"
    },
    {
      "inputs": [
        {
          "internalType": "string",
          "name": "input",
          "type": "string"
        }
      ],
      "name": "splitAddresses",
      "outputs": [
        {
          "internalType": "address[]",
          "name": "",
          "type": "address[]"
        }
      ],
      "stateMutability": "pure",
      "type": "function"
    }
  ],
  "bytecode": "0x611abe610053600b82828239805160001a607314610046577f4e487b7100000000000000000000000000000000000000000000000000000000600052600060045260246000fd5b30600052607381538281f3fe73000000000000000000000000000000000000000030146080604052600436106100565760003560e01c8063266001d31461005b5780635e57966d1461008b5780636abc29f0146100bb57806396ddd53e146100eb575b600080fd5b61007560048036038101906100709190611571565b61011b565b6040516100829190611774565b60405180910390f35b6100a560048036038101906100a09190611507565b610369565b6040516100b29190611774565b60405180910390f35b6100d560048036038101906100d09190611530565b6107ca565b6040516100e29190611752565b60405180910390f35b61010560048036038101906101009190611530565b610933565b6040516101129190611774565b60405180910390f35b6060600083905060008390506000815183516101379190611857565b67ffffffffffffffff811115610176577f4e487b7100000000000000000000000000000000000000000000000000000000600052604160045260246000fd5b6040519080825280601f01601f1916602001820160405280156101a85781602001600182028036833780820191505090505b5090506000805b8451811015610283578481815181106101f1577f4e487b7100000000000000000000000000000000000000000000000000000000600052603260045260246000fd5b602001015160f81c60f81b838380610208906119b9565b945081518110610241577f4e487b7100000000000000000000000000000000000000000000000000000000600052603260045260246000fd5b60200101907effffffffffffffffffffffffffffffffffffffffffffffffffffffffffffff1916908160001a905350808061027b906119b9565b9150506101af565b5060005b835181101561035b578381815181106102c9577f4e487b7100000000000000000000000000000000000000000000000000000000600052603260045260246000fd5b602001015160f81c60f81b8383806102e0906119b9565b945081518110610319577f4e487b7100000000000000000000000000000000000000000000000000000000600052603260045260246000fd5b60200101907effffffffffffffffffffffffffffffffffffffffffffffffffffffffffffff1916908160001a9053508080610353906119b9565b915050610287565b508194505050505092915050565b606060008273ffffffffffffffffffffffffffffffffffffffff1660001b905060006040518060400160405280601081526020017f303132333435363738396162636465660000000000000000000000000000000081525090506000602a67ffffffffffffffff811115610406577f4e487b7100000000000000000000000000000000000000000000000000000000600052604160045260246000fd5b6040519080825280601f01601f1916602001820160405280156104385781602001600182028036833780820191505090505b5090507f300000000000000000000000000000000000000000000000000000000000000081600081518110610496577f4e487b7100000000000000000000000000000000000000000000000000000000600052603260045260246000fd5b60200101907effffffffffffffffffffffffffffffffffffffffffffffffffffffffffffff1916908160001a9053507f780000000000000000000000000000000000000000000000000000000000000081600181518110610520577f4e487b7100000000000000000000000000000000000000000000000000000000600052603260045260246000fd5b60200101907effffffffffffffffffffffffffffffffffffffffffffffffffffffffffffff1916908160001a90535060005b60148110156107be5782600485600c8461056c9190611857565b602081106105a3577f4e487b7100000000000000000000000000000000000000000000000000000000600052603260045260246000fd5b1a60f81b7effffffffffffffffffffffffffffffffffffffffffffffffffffffffffffff1916901c60f81c60ff1681518110610608577f4e487b7100000000000000000000000000000000000000000000000000000000600052603260045260246000fd5b602001015160f81c60f81b8260028361062191906118ad565b600261062d9190611857565b81518110610664577f4e487b7100000000000000000000000000000000000000000000000000000000600052603260045260246000fd5b60200101907effffffffffffffffffffffffffffffffffffffffffffffffffffffffffffff1916908160001a90535082600f60f81b85600c846106a79190611857565b602081106106de577f4e487b7100000000000000000000000000000000000000000000000000000000600052603260045260246000fd5b1a60f81b1660f81c60ff1681518110610720577f4e487b7100000000000000000000000000000000000000000000000000000000600052603260045260246000fd5b602001015160f81c60f81b8260028361073991906118ad565b60036107459190611857565b8151811061077c577f4e487b7100000000000000000000000000000000000000000000000000000000600052603260045260246000fd5b60200101907effffffffffffffffffffffffffffffffffffffffffffffffffffffffffffff1916908160001a90535080806107b6906119b9565b915050610552565b50809350505050919050565b606060006107d783610b1c565b90506000815167ffffffffffffffff81111561081c577f4e487b7100000000000000000000000000000000000000000000000000000000600052604160045260246000fd5b60405190808252806020026020018201604052801561084a5781602001602082028036833780820191505090505b50905060005b8251811015610928576108a2838281518110610895577f4e487b7100000000000000000000000000000000000000000000000000000000600052603260045260246000fd5b6020026020010151610d9f565b8282815181106108db577f4e487b7100000000000000000000000000000000000000000000000000000000600052603260045260246000fd5b602002602001019073ffffffffffffffffffffffffffffffffffffffff16908173ffffffffffffffffffffffffffffffffffffffff16815250508080610920906119b9565b915050610850565b508092505050919050565b60606000610976836040518060400160405280600181526020017f2000000000000000000000000000000000000000000000000000000000000000815250610e5f565b9050606060005b8251811015610b11576000806001836109969190611857565b90505b8451811015610a92578481815181106109db577f4e487b7100000000000000000000000000000000000000000000000000000000600052603260045260246000fd5b60200260200101516040516020016109f3919061170c565b60405160208183030381529060405280519060200120858481518110610a42577f4e487b7100000000000000000000000000000000000000000000000000000000600052603260045260246000fd5b6020026020010151604051602001610a5a919061170c565b604051602081830303815290604052805190602001201415610a7f5760019150610a92565b8080610a8a906119b9565b915050610999565b5080610afd5782848381518110610ad2577f4e487b7100000000000000000000000000000000000000000000000000000000600052603260045260246000fd5b6020026020010151604051602001610aeb929190611723565b60405160208183030381529060405292505b508080610b09906119b9565b91505061097d565b508092505050919050565b6060600082905060006001905060005b8251811015610bc857602060f81b838281518110610b73577f4e487b7100000000000000000000000000000000000000000000000000000000600052603260045260246000fd5b602001015160f81c60f81b7effffffffffffffffffffffffffffffffffffffffffffffffffffffffffffff19161415610bb5578180610bb1906119b9565b9250505b8080610bc0906119b9565b915050610b2c565b5060008167ffffffffffffffff811115610c0b577f4e487b7100000000000000000000000000000000000000000000000000000000600052604160045260246000fd5b604051908082528060200260200182016040528015610c3e57816020015b6060815260200190600190039081610c295790505b50905060008060005b8551811015610d4157602060f81b868281518110610c8e577f4e487b7100000000000000000000000000000000000000000000000000000000600052603260045260246000fd5b602001015160f81c60f81b7effffffffffffffffffffffffffffffffffffffffffffffffffffffffffffff19161415610d2e57610ccc8884836111ae565b848381518110610d05577f4e487b7100000000000000000000000000000000000000000000000000000000600052603260045260246000fd5b6020026020010181905250600181610d1d9190611857565b92508180610d2a906119b9565b9250505b8080610d39906119b9565b915050610c47565b50610d4e878387516111ae565b838281518110610d87577f4e487b7100000000000000000000000000000000000000000000000000000000600052603260045260246000fd5b60200260200101819052508295505050505050919050565b600080829050600080600090505b6014811015610e5157600881610dc391906118ad565b838281518110610dfc577f4e487b7100000000000000000000000000000000000000000000000000000000600052603260045260246000fd5b602001015160f81c60f81b7effffffffffffffffffffffffffffffffffffffffffffffffffffffffffffff19166bffffffffffffffffffffffff1916901c821791508080610e49906119b9565b915050610dad565b508060601c92505050919050565b60606000839050600083905060006001905060005b8351811015610f725782600081518110610eb7577f4e487b7100000000000000000000000000000000000000000000000000000000600052603260045260246000fd5b602001015160f81c60f81b7effffffffffffffffffffffffffffffffffffffffffffffffffffffffffffff1916848281518110610f1d577f4e487b7100000000000000000000000000000000000000000000000000000000600052603260045260246000fd5b602001015160f81c60f81b7effffffffffffffffffffffffffffffffffffffffffffffffffffffffffffff19161415610f5f578180610f5b906119b9565b9250505b8080610f6a906119b9565b915050610e74565b5060008167ffffffffffffffff811115610fb5577f4e487b7100000000000000000000000000000000000000000000000000000000600052604160045260246000fd5b604051908082528060200260200182016040528015610fe857816020015b6060815260200190600190039081610fd35790505b509050600080925060005b855181101561114f5784600081518110611036577f4e487b7100000000000000000000000000000000000000000000000000000000600052603260045260246000fd5b602001015160f81c60f81b7effffffffffffffffffffffffffffffffffffffffffffffffffffffffffffff191686828151811061109c577f4e487b7100000000000000000000000000000000000000000000000000000000600052603260045260246000fd5b602001015160f81c60f81b7effffffffffffffffffffffffffffffffffffffffffffffffffffffffffffff1916141561113c576110da89838361131c565b838581518110611113577f4e487b7100000000000000000000000000000000000000000000000000000000600052603260045260246000fd5b602002602001018190525060018161112b9190611857565b91508380611138906119b9565b9450505b8080611147906119b9565b915050610ff3565b5061115c8882875161131c565b828481518110611195577f4e487b7100000000000000000000000000000000000000000000000000000000600052603260045260246000fd5b6020026020010181905250819550505050505092915050565b60606000849050600084846111c39190611907565b67ffffffffffffffff811115611202577f4e487b7100000000000000000000000000000000000000000000000000000000600052604160045260246000fd5b6040519080825280601f01601f1916602001820160405280156112345781602001600182028036833780820191505090505b50905060008590505b8481101561130f5782818151811061127e577f4e487b7100000000000000000000000000000000000000000000000000000000600052603260045260246000fd5b602001015160f81c60f81b8287836112969190611907565b815181106112cd577f4e487b7100000000000000000000000000000000000000000000000000000000600052603260045260246000fd5b60200101907effffffffffffffffffffffffffffffffffffffffffffffffffffffffffffff1916908160001a9053508080611307906119b9565b91505061123d565b5080925050509392505050565b60606000849050600084846113319190611907565b67ffffffffffffffff811115611370577f4e487b7100000000000000000000000000000000000000000000000000000000600052604160045260246000fd5b6040519080825280601f01601f1916602001820160405280156113a25781602001600182028036833780820191505090505b50905060008590505b8481101561147d578281815181106113ec577f4e487b7100000000000000000000000000000000000000000000000000000000600052603260045260246000fd5b602001015160f81c60f81b8287836114049190611907565b8151811061143b577f4e487b7100000000000000000000000000000000000000000000000000000000600052603260045260246000fd5b60200101907effffffffffffffffffffffffffffffffffffffffffffffffffffffffffffff1916908160001a9053508080611475906119b9565b9150506113ab565b5080925050509392505050565b600061149d611498846117c7565b611796565b9050828152602081018484840111156114b557600080fd5b6114c0848285611977565b509392505050565b6000813590506114d781611a71565b92915050565b600082601f8301126114ee57600080fd5b81356114fe84826020860161148a565b91505092915050565b60006020828403121561151957600080fd5b6000611527848285016114c8565b91505092915050565b60006020828403121561154257600080fd5b600082013567ffffffffffffffff81111561155c57600080fd5b611568848285016114dd565b91505092915050565b6000806040838503121561158457600080fd5b600083013567ffffffffffffffff81111561159e57600080fd5b6115aa858286016114dd565b925050602083013567ffffffffffffffff8111156115c757600080fd5b6115d3858286016114dd565b9150509250929050565b60006115e983836115f5565b60208301905092915050565b6115fe8161193b565b82525050565b600061160f82611807565b611619818561182a565b9350611624836117f7565b8060005b8381101561165557815161163c88826115dd565b97506116478361181d565b925050600181019050611628565b5085935050505092915050565b600061166d82611812565b611677818561183b565b9350611687818560208601611986565b61169081611a60565b840191505092915050565b60006116a682611812565b6116b0818561184c565b93506116c0818560208601611986565b80840191505092915050565b60006116d960018361184c565b91507f20000000000000000000000000000000000000000000000000000000000000006000830152600182019050919050565b6000611718828461169b565b915081905092915050565b600061172f828561169b565b915061173b828461169b565b9150611746826116cc565b91508190509392505050565b6000602082019050818103600083015261176c8184611604565b905092915050565b6000602082019050818103600083015261178e8184611662565b905092915050565b6000604051905081810181811067ffffffffffffffff821117156117bd576117bc611a31565b5b8060405250919050565b600067ffffffffffffffff8211156117e2576117e1611a31565b5b601f19601f8301169050602081019050919050565b6000819050602082019050919050565b600081519050919050565b600081519050919050565b6000602082019050919050565b600082825260208201905092915050565b600082825260208201905092915050565b600081905092915050565b60006118628261196d565b915061186d8361196d565b9250827fffffffffffffffffffffffffffffffffffffffffffffffffffffffffffffffff038211156118a2576118a1611a02565b5b828201905092915050565b60006118b88261196d565b91506118c38361196d565b9250817fffffffffffffffffffffffffffffffffffffffffffffffffffffffffffffffff04831182151516156118fc576118fb611a02565b5b828202905092915050565b60006119128261196d565b915061191d8361196d565b9250828210156119305761192f611a02565b5b828203905092915050565b60006119468261194d565b9050919050565b600073ffffffffffffffffffffffffffffffffffffffff82169050919050565b6000819050919050565b82818337600083830152505050565b60005b838110156119a4578082015181840152602081019050611989565b838111156119b3576000848401525b50505050565b60006119c48261196d565b91507fffffffffffffffffffffffffffffffffffffffffffffffffffffffffffffffff8214156119f7576119f6611a02565b5b600182019050919050565b7f4e487b7100000000000000000000000000000000000000000000000000000000600052601160045260246000fd5b7f4e487b7100000000000000000000000000000000000000000000000000000000600052604160045260246000fd5b6000601f19601f8301169050919050565b611a7a8161193b565b8114611a8557600080fd5b5056fea2646970667358221220d756de4796d10050147b626ddb5c1afd17dffeacc3f3d6d989b4ef3c48e1cb4c64736f6c63430008000033",
  "immutableReferences": {},
  "source": "pragma solidity ^0.8.0;\n//import \"./Marketplace.sol\";\n\nlibrary func {\n\n    //function that returns a * b and the requesting address \n    \n\tfunction toString(uint _i) internal pure returns (string memory _uintAsString) {\n        if (_i == 0) {\n            return \"0\";\n        }\n        uint j = _i;\n        uint len;\n        while (j != 0) {\n            len++;\n            j /= 10;\n        }\n        bytes memory bstr = new bytes(len);\n        uint k = len;\n        while (_i != 0) {\n            k = k-1;\n            uint8 temp = (48 + uint8(_i - _i / 10 * 10));\n            bytes1 b1 = bytes1(temp);\n            bstr[k] = b1;\n            _i /= 10;\n        }\n        return string(bstr);\n    }\n    \n\tfunction removeDuplicateWords(string memory input) public pure returns (string memory) {\n        string[] memory words = split(input, \" \");\n        string memory output;\n        \n        for(uint i = 0; i < words.length; i++) {\n            bool isDuplicate = false;\n            \n            for(uint j = i + 1; j < words.length; j++) {\n                if (keccak256(abi.encodePacked(words[i])) == keccak256(abi.encodePacked(words[j]))) {\n                    isDuplicate = true;\n                    break;\n                }\n            }\n            \n            if (!isDuplicate) {\n                output = string(abi.encodePacked(output, words[i], \" \"));\n            }\n        }\n        \n        return output;\n    }\n    \n    function split(string memory input, string memory delimiter) private pure returns (string[] memory) {\n        bytes memory inputBytes = bytes(input);\n        bytes memory delimiterBytes = bytes(delimiter);\n        uint count = 1;\n        \n        for(uint i = 0; i < inputBytes.length; i++) {\n            if (inputBytes[i] == delimiterBytes[0]) {\n                count++;\n            }\n        }\n        \n        string[] memory parts = new string[](count);\n        uint startIndex = 0;\n        count = 0;\n        \n        for(uint i = 0; i < inputBytes.length; i++) {\n            if (inputBytes[i] == delimiterBytes[0]) {\n                parts[count] = substring(input, startIndex, i);\n                startIndex = i + 1;\n                count++;\n            }\n        }\n        \n        parts[count] = substring(input, startIndex, inputBytes.length);\n        \n        return parts;\n    }\n    \n    function substring(string memory input, uint startIndex, uint endIndex) private pure returns (string memory) {\n        bytes memory inputBytes = bytes(input);\n        bytes memory result = new bytes(endIndex - startIndex);\n        \n        for(uint i = startIndex; i < endIndex; i++) {\n            result[i - startIndex] = inputBytes[i];\n        }\n        \n        return string(result);\n    }\n\n\n\n\n\tfunction concatenate(string memory a, string memory b) public pure returns (string memory) {\n        bytes memory aa = bytes(a);\n        bytes memory bb = bytes(b);\n        bytes memory result = new bytes(aa.length + bb.length);\n        uint k = 0;\n        for (uint i = 0; i < aa.length; i++) {\n            result[k++] = aa[i];\n        }\n        for (uint i = 0; i < bb.length; i++) {\n            result[k++] = bb[i];\n        }\n        return string(result);\n    }\n\n    function addressToString(address _addr) public pure returns (string memory) {\n\t\tbytes32 value = bytes32(uint256(uint160(_addr)));\n\t\tbytes memory alphabet = \"0123456789abcdef\";\n\n\t\tbytes memory str = new bytes(42);\n\t\tstr[0] = '0';\n\t\tstr[1] = 'x';\n\t\tfor (uint i = 0; i < 20; i++) {\n\t\t\tstr[2+i*2] = alphabet[uint8(value[i + 12] >> 4)];\n\t\t\tstr[3+i*2] = alphabet[uint8(value[i + 12] & 0x0f)];\n\t\t}\n\t\treturn string(str);\n\t}\n\n    \n function splitAddresses(string memory input) public pure returns (address[] memory) {\n        string[] memory tempArray = splitString(input);\n        address[] memory addresses = new address[](tempArray.length);\n        \n        for (uint256 i = 0; i < tempArray.length; i++) {\n            addresses[i] = parseAddress(tempArray[i]);\n        }\n        \n        return addresses;\n    }\n    \n    function splitString(string memory input) internal pure returns (string[] memory) {\n        bytes memory bytesInput = bytes(input);\n        uint256 count = 1;\n        \n        for (uint256 i = 0; i < bytesInput.length; i++) {\n            if (bytesInput[i] == 0x20) { // ASCII code for space\n                count++;\n            }\n        }\n        \n        string[] memory result = new string[](count);\n        uint256 lastIndex = 0;\n        uint256 currentIndex = 0;\n        \n        for (uint256 i = 0; i < bytesInput.length; i++) {\n            if (bytesInput[i] == 0x20) { // ASCII code for space\n                result[currentIndex] = substring2(input, lastIndex, i);\n                lastIndex = i + 1;\n                currentIndex++;\n            }\n        }\n        \n        result[currentIndex] = substring2(input, lastIndex, bytesInput.length);\n        \n        return result;\n    }\n    \n    function substring2(string memory input, uint256 startIndex, uint256 endIndex) internal pure returns (string memory) {\n        bytes memory bytesInput = bytes(input);\n        bytes memory substringBytes = new bytes(endIndex - startIndex);\n        \n        for (uint256 i = startIndex; i < endIndex; i++) {\n            substringBytes[i - startIndex] = bytesInput[i];\n        }\n        \n        return string(substringBytes);\n    }\n    \n    function parseAddress(string memory input) internal pure returns (address) {\n        bytes memory addressBytes = bytes(input);\n        bytes20 value;\n        \n        for (uint256 i = 0; i < 20; i++) {\n            value |= bytes20(addressBytes[i]) >> (i * 8);\n        }\n        \n        return address(value);\n    }\n}    \n \n",
  "sourcePath": "C:/Users/shahd/documents/blockchain/corpseNNN/src/contracts/func.sol",
  "compiler": {
    "name": "solc",
    "version": "0.8.0+commit.c7dfd78e.Emscripten.clang"
  },
  "schemaVersion": "3.3.3",
  "updatedAt": "2023-07-04T22:54:46.846Z",
  "devdoc": {
    "kind": "dev",
    "methods": {},
    "version": 1
  },
  "userdoc": {
    "kind": "user",
    "methods": {},
    "version": 1
  }
}