{
  "contractName": "Marketplace",
  "abi": [
    {
      "inputs": [],
      "stateMutability": "nonpayable",
      "type": "constructor"
    },
    {
      "anonymous": false,
      "inputs": [
        {
          "indexed": false,
          "internalType": "uint256",
          "name": "id",
          "type": "uint256"
        },
        {
          "indexed": false,
          "internalType": "string",
          "name": "name",
          "type": "string"
        },
        {
          "indexed": false,
          "internalType": "uint256",
          "name": "price",
          "type": "uint256"
        },
        {
          "indexed": false,
          "internalType": "address payable",
          "name": "owner",
          "type": "address"
        },
        {
          "indexed": false,
          "internalType": "bool",
          "name": "purchased",
          "type": "bool"
        },
        {
          "indexed": false,
          "internalType": "uint256",
          "name": "upvotes",
          "type": "uint256"
        },
        {
          "indexed": false,
          "internalType": "string[5]",
          "name": "contributors",
          "type": "string[5]"
        }
      ],
      "name": "ProductCreated",
      "type": "event"
    },
    {
      "anonymous": false,
      "inputs": [
        {
          "indexed": false,
          "internalType": "uint256",
          "name": "id",
          "type": "uint256"
        },
        {
          "indexed": false,
          "internalType": "string",
          "name": "name",
          "type": "string"
        },
        {
          "indexed": false,
          "internalType": "uint256",
          "name": "price",
          "type": "uint256"
        },
        {
          "indexed": false,
          "internalType": "address payable",
          "name": "owner",
          "type": "address"
        },
        {
          "indexed": false,
          "internalType": "bool",
          "name": "purchased",
          "type": "bool"
        },
        {
          "indexed": false,
          "internalType": "uint256",
          "name": "upvotes",
          "type": "uint256"
        },
        {
          "indexed": false,
          "internalType": "string[5]",
          "name": "contributors",
          "type": "string[5]"
        }
      ],
      "name": "ProductPurchased",
      "type": "event"
    },
    {
      "anonymous": false,
      "inputs": [
        {
          "indexed": false,
          "internalType": "string",
          "name": "name",
          "type": "string"
        },
        {
          "indexed": false,
          "internalType": "address payable[]",
          "name": "authors",
          "type": "address[]"
        }
      ],
      "name": "StoryCreated",
      "type": "event"
    },
    {
      "anonymous": false,
      "inputs": [
        {
          "indexed": false,
          "internalType": "uint256",
          "name": "id",
          "type": "uint256"
        },
        {
          "indexed": false,
          "internalType": "string",
          "name": "fullS",
          "type": "string"
        },
        {
          "indexed": false,
          "internalType": "string",
          "name": "authors",
          "type": "string"
        },
        {
          "indexed": false,
          "internalType": "uint256",
          "name": "price",
          "type": "uint256"
        },
        {
          "indexed": false,
          "internalType": "bool",
          "name": "purchased",
          "type": "bool"
        },
        {
          "indexed": false,
          "internalType": "address payable[]",
          "name": "owner",
          "type": "address[]"
        }
      ],
      "name": "StoryPurchased",
      "type": "event"
    },
    {
      "anonymous": false,
      "inputs": [
        {
          "indexed": false,
          "internalType": "uint256",
          "name": "vote",
          "type": "uint256"
        }
      ],
      "name": "upVote",
      "type": "event"
    },
    {
      "inputs": [],
      "name": "SentenceCount",
      "outputs": [
        {
          "internalType": "uint256",
          "name": "",
          "type": "uint256"
        }
      ],
      "stateMutability": "view",
      "type": "function",
      "constant": true
    },
    {
      "inputs": [
        {
          "internalType": "uint256",
          "name": "",
          "type": "uint256"
        }
      ],
      "name": "authors",
      "outputs": [
        {
          "internalType": "address payable",
          "name": "",
          "type": "address"
        }
      ],
      "stateMutability": "view",
      "type": "function",
      "constant": true
    },
    {
      "inputs": [],
      "name": "historyProdCount",
      "outputs": [
        {
          "internalType": "uint256",
          "name": "",
          "type": "uint256"
        }
      ],
      "stateMutability": "view",
      "type": "function",
      "constant": true
    },
    {
      "inputs": [],
      "name": "name",
      "outputs": [
        {
          "internalType": "string",
          "name": "",
          "type": "string"
        }
      ],
      "stateMutability": "view",
      "type": "function",
      "constant": true
    },
    {
      "inputs": [],
      "name": "num",
      "outputs": [
        {
          "internalType": "uint256",
          "name": "",
          "type": "uint256"
        }
      ],
      "stateMutability": "view",
      "type": "function",
      "constant": true
    },
    {
      "inputs": [],
      "name": "productCount",
      "outputs": [
        {
          "internalType": "uint256",
          "name": "",
          "type": "uint256"
        }
      ],
      "stateMutability": "view",
      "type": "function",
      "constant": true
    },
    {
      "inputs": [
        {
          "internalType": "uint256",
          "name": "",
          "type": "uint256"
        }
      ],
      "name": "products",
      "outputs": [
        {
          "internalType": "uint256",
          "name": "id",
          "type": "uint256"
        },
        {
          "internalType": "string",
          "name": "name",
          "type": "string"
        },
        {
          "internalType": "uint256",
          "name": "price",
          "type": "uint256"
        },
        {
          "internalType": "address payable",
          "name": "owner",
          "type": "address"
        },
        {
          "internalType": "bool",
          "name": "purchased",
          "type": "bool"
        },
        {
          "internalType": "uint256",
          "name": "upvotes",
          "type": "uint256"
        }
      ],
      "stateMutability": "view",
      "type": "function",
      "constant": true
    },
    {
      "inputs": [
        {
          "internalType": "uint256",
          "name": "",
          "type": "uint256"
        }
      ],
      "name": "products_historical",
      "outputs": [
        {
          "internalType": "uint256",
          "name": "id",
          "type": "uint256"
        },
        {
          "internalType": "uint256",
          "name": "sentCount",
          "type": "uint256"
        },
        {
          "internalType": "string",
          "name": "fullS",
          "type": "string"
        },
        {
          "internalType": "string",
          "name": "authors",
          "type": "string"
        },
        {
          "internalType": "uint256",
          "name": "price",
          "type": "uint256"
        },
        {
          "internalType": "bool",
          "name": "purchased",
          "type": "bool"
        }
      ],
      "stateMutability": "view",
      "type": "function",
      "constant": true
    },
    {
      "inputs": [
        {
          "internalType": "uint256",
          "name": "",
          "type": "uint256"
        }
      ],
      "name": "story",
      "outputs": [
        {
          "internalType": "string",
          "name": "",
          "type": "string"
        }
      ],
      "stateMutability": "view",
      "type": "function",
      "constant": true
    },
    {
      "inputs": [],
      "name": "vote_end",
      "outputs": [
        {
          "internalType": "uint256",
          "name": "",
          "type": "uint256"
        }
      ],
      "stateMutability": "view",
      "type": "function",
      "constant": true
    },
    {
      "inputs": [
        {
          "internalType": "uint256",
          "name": "",
          "type": "uint256"
        }
      ],
      "name": "voters_end",
      "outputs": [
        {
          "internalType": "address",
          "name": "",
          "type": "address"
        }
      ],
      "stateMutability": "view",
      "type": "function",
      "constant": true
    },
    {
      "inputs": [
        {
          "internalType": "uint256",
          "name": "_id",
          "type": "uint256"
        }
      ],
      "name": "getArr",
      "outputs": [
        {
          "internalType": "string[5]",
          "name": "",
          "type": "string[5]"
        }
      ],
      "stateMutability": "view",
      "type": "function",
      "constant": true
    },
    {
      "inputs": [
        {
          "internalType": "string",
          "name": "str",
          "type": "string"
        }
      ],
      "name": "stringToArray",
      "outputs": [
        {
          "internalType": "string[]",
          "name": "",
          "type": "string[]"
        }
      ],
      "stateMutability": "pure",
      "type": "function",
      "constant": true
    },
    {
      "inputs": [
        {
          "internalType": "address payable[]",
          "name": "addresses1",
          "type": "address[]"
        },
        {
          "internalType": "address payable[]",
          "name": "addresses2",
          "type": "address[]"
        }
      ],
      "name": "concatAddresses",
      "outputs": [
        {
          "internalType": "address payable[]",
          "name": "",
          "type": "address[]"
        }
      ],
      "stateMutability": "pure",
      "type": "function",
      "constant": true
    },
    {
      "inputs": [
        {
          "internalType": "string",
          "name": "a",
          "type": "string"
        },
        {
          "internalType": "string",
          "name": "b",
          "type": "string"
        }
      ],
      "name": "concatenate",
      "outputs": [
        {
          "internalType": "string",
          "name": "",
          "type": "string"
        }
      ],
      "stateMutability": "pure",
      "type": "function",
      "constant": true
    },
    {
      "inputs": [
        {
          "internalType": "address",
          "name": "_addr",
          "type": "address"
        }
      ],
      "name": "addressToString",
      "outputs": [
        {
          "internalType": "string",
          "name": "",
          "type": "string"
        }
      ],
      "stateMutability": "pure",
      "type": "function",
      "constant": true
    },
    {
      "inputs": [
        {
          "internalType": "uint256",
          "name": "price",
          "type": "uint256"
        }
      ],
      "name": "createVoteEnd",
      "outputs": [],
      "stateMutability": "nonpayable",
      "type": "function"
    },
    {
      "inputs": [],
      "name": "getCurrentVote",
      "outputs": [
        {
          "internalType": "uint256",
          "name": "",
          "type": "uint256"
        }
      ],
      "stateMutability": "view",
      "type": "function",
      "constant": true
    },
    {
      "inputs": [],
      "name": "resetProducts",
      "outputs": [],
      "stateMutability": "view",
      "type": "function",
      "constant": true
    },
    {
      "inputs": [
        {
          "internalType": "string",
          "name": "_name",
          "type": "string"
        },
        {
          "internalType": "uint256",
          "name": "_price",
          "type": "uint256"
        },
        {
          "internalType": "uint256",
          "name": "upvotes",
          "type": "uint256"
        },
        {
          "internalType": "string[5]",
          "name": "contributors",
          "type": "string[5]"
        }
      ],
      "name": "createProduct",
      "outputs": [],
      "stateMutability": "nonpayable",
      "type": "function"
    },
    {
      "inputs": [
        {
          "internalType": "uint256",
          "name": "_id",
          "type": "uint256"
        }
      ],
      "name": "purchaseProduct",
      "outputs": [],
      "stateMutability": "payable",
      "type": "function",
      "payable": true
    },
    {
      "inputs": [
        {
          "internalType": "uint256",
          "name": "_id",
          "type": "uint256"
        }
      ],
      "name": "purchaseStory",
      "outputs": [],
      "stateMutability": "payable",
      "type": "function",
      "payable": true
    }
  ],
  "bytecode": "0x6080604052600060015560006002556000600355600060045560006005553480156200002a57600080fd5b506040518060400160405280601081526020017f65787175697369746520636f7270736500000000000000000000000000000000815250600090805190602001906200007892919062000087565b5060006002819055506200019c565b828054620000959062000137565b90600052602060002090601f016020900481019282620000b9576000855562000105565b82601f10620000d457805160ff191683800117855562000105565b8280016001018555821562000105579182015b8281111562000104578251825591602001919060010190620000e7565b5b50905062000114919062000118565b5090565b5b808211156200013357600081600090555060010162000119565b5090565b600060028204905060018216806200015057607f821691505b602082108114156200016757620001666200016d565b5b50919050565b7f4e487b7100000000000000000000000000000000000000000000000000000000600052602260045260246000fd5b6143e280620001ac6000396000f3fe6080604052600436106101355760003560e01c806364f86ad6116100ab578063beba8bbe1161006f578063beba8bbe14610471578063dc56028d146104ae578063e0f6ef87146104d9578063ea081fa914610504578063edb1dc9c1461052d578063f5f3e5e61461054957610135565b806364f86ad6146103705780636e2a2635146103ad5780637acc0b20146103c45780639cafe91914610406578063ab6d4fbe1461042f57610135565b80633aeb0b8e116100fd5780633aeb0b8e146102385780633db804da146102635780634308cf35146102a05780634e70b1dc146102dd5780635e57966d146103085780635e8a29321461034557610135565b806306fdde031461013a578063120f7b6b146101655780631fb4a24b146101a2578063266001d3146101df57806338e76a031461021c575b600080fd5b34801561014657600080fd5b5061014f610574565b60405161015c9190613b55565b60405180910390f35b34801561017157600080fd5b5061018c6004803603810190610187919061344e565b610602565b6040516101999190613aef565b60405180910390f35b3480156101ae57600080fd5b506101c960048036038101906101c491906135fa565b610848565b6040516101d69190613ab9565b60405180910390f35b3480156101eb57600080fd5b50610206600480360381019061020191906134fb565b61087e565b6040516102139190613b55565b60405180910390f35b610236600480360381019061023191906135fa565b610acc565b005b34801561024457600080fd5b5061024d6111da565b60405161025a9190613c6e565b60405180910390f35b34801561026f57600080fd5b5061028a600480360381019061028591906135fa565b6111e0565b6040516102979190613ad4565b60405180910390f35b3480156102ac57600080fd5b506102c760048036038101906102c291906135fa565b61121f565b6040516102d49190613b11565b60405180910390f35b3480156102e957600080fd5b506102f2611308565b6040516102ff9190613c6e565b60405180910390f35b34801561031457600080fd5b5061032f600480360381019061032a9190613425565b61130e565b60405161033c9190613b55565b60405180910390f35b34801561035157600080fd5b5061035a61176f565b6040516103679190613c6e565b60405180910390f35b34801561037c57600080fd5b50610397600480360381019061039291906134ba565b611775565b6040516103a49190613b33565b60405180910390f35b3480156103b957600080fd5b506103c26119f9565b005b3480156103d057600080fd5b506103eb60048036038101906103e691906135fa565b611c50565b6040516103fd96959493929190613c89565b60405180910390f35b34801561041257600080fd5b5061042d60048036038101906104289190613567565b611d41565b005b34801561043b57600080fd5b50610456600480360381019061045191906135fa565b611f6d565b60405161046896959493929190613de4565b60405180910390f35b34801561047d57600080fd5b50610498600480360381019061049391906135fa565b6120c6565b6040516104a59190613b55565b60405180910390f35b3480156104ba57600080fd5b506104c3612166565b6040516104d09190613c6e565b60405180910390f35b3480156104e557600080fd5b506104ee612170565b6040516104fb9190613c6e565b60405180910390f35b34801561051057600080fd5b5061052b600480360381019061052691906135fa565b612176565b005b610547600480360381019061054291906135fa565b6129e8565b005b34801561055557600080fd5b5061055e612ddc565b60405161056b9190613c6e565b60405180910390f35b60008054610581906141e5565b80601f01602080910402602001604051908101604052809291908181526020018280546105ad906141e5565b80156105fa5780601f106105cf576101008083540402835291602001916105fa565b820191906000526020600020905b8154815290600101906020018083116105dd57829003601f168201915b505050505081565b60606000825184516106149190614014565b905060008167ffffffffffffffff811115610658577f4e487b7100000000000000000000000000000000000000000000000000000000600052604160045260246000fd5b6040519080825280602002602001820160405280156106865781602001602082028036833780820191505090505b50905060005b855181101561075c578581815181106106ce577f4e487b7100000000000000000000000000000000000000000000000000000000600052603260045260246000fd5b602002602001015182828151811061070f577f4e487b7100000000000000000000000000000000000000000000000000000000600052603260045260246000fd5b602002602001019073ffffffffffffffffffffffffffffffffffffffff16908173ffffffffffffffffffffffffffffffffffffffff1681525050808061075490614231565b91505061068c565b60005b855181101561083b578581815181106107a1577f4e487b7100000000000000000000000000000000000000000000000000000000600052603260045260246000fd5b60200260200101518383806107b590614231565b9450815181106107ee577f4e487b7100000000000000000000000000000000000000000000000000000000600052603260045260246000fd5b602002602001019073ffffffffffffffffffffffffffffffffffffffff16908173ffffffffffffffffffffffffffffffffffffffff1681525050808061083390614231565b91505061075f565b5081935050505092915050565b600a81600b811061085857600080fd5b016000915054906101000a900473ffffffffffffffffffffffffffffffffffffffff1681565b60606000839050600083905060008151835161089a9190614014565b67ffffffffffffffff8111156108d9577f4e487b7100000000000000000000000000000000000000000000000000000000600052604160045260246000fd5b6040519080825280601f01601f19166020018201604052801561090b5781602001600182028036833780820191505090505b5090506000805b84518110156109e657848181518110610954577f4e487b7100000000000000000000000000000000000000000000000000000000600052603260045260246000fd5b602001015160f81c60f81b83838061096b90614231565b9450815181106109a4577f4e487b7100000000000000000000000000000000000000000000000000000000600052603260045260246000fd5b60200101907effffffffffffffffffffffffffffffffffffffffffffffffffffffffffffff1916908160001a90535080806109de90614231565b915050610912565b5060005b8351811015610abe57838181518110610a2c577f4e487b7100000000000000000000000000000000000000000000000000000000600052603260045260246000fd5b602001015160f81c60f81b838380610a4390614231565b945081518110610a7c577f4e487b7100000000000000000000000000000000000000000000000000000000600052603260045260246000fd5b60200101907effffffffffffffffffffffffffffffffffffffffffffffffffffffffffffff1916908160001a9053508080610ab690614231565b9150506109ea565b508194505050505092915050565b6000600760008381526020019081526020016000206040518060e001604052908160008201548152602001600182018054610b06906141e5565b80601f0160208091040260200160405190810160405280929190818152602001828054610b32906141e5565b8015610b7f5780601f10610b5457610100808354040283529160200191610b7f565b820191906000526020600020905b815481529060010190602001808311610b6257829003601f168201915b50505050508152602001600282015481526020016003820160009054906101000a900473ffffffffffffffffffffffffffffffffffffffff1673ffffffffffffffffffffffffffffffffffffffff1673ffffffffffffffffffffffffffffffffffffffff1681526020016003820160149054906101000a900460ff161515151581526020016004820154815260200160058201600580602002604051908101604052809291906000905b82821015610ccc578382018054610c3f906141e5565b80601f0160208091040260200160405190810160405280929190818152602001828054610c6b906141e5565b8015610cb85780601f10610c8d57610100808354040283529160200191610cb8565b820191906000526020600020905b815481529060010190602001808311610c9b57829003601f168201915b505050505081526020019060010190610c29565b5050505081525050905060008160600151905060008260000151118015610cf95750600154826000015111155b610d0257600080fd5b8160400151341015610d1357600080fd5b816080015115610d58576040517f08c379a0000000000000000000000000000000000000000000000000000000008152600401610d4f90613c4e565b60405180910390fd5b3373ffffffffffffffffffffffffffffffffffffffff168173ffffffffffffffffffffffffffffffffffffffff161415610dc7576040517f08c379a0000000000000000000000000000000000000000000000000000000008152600401610dbe90613c0e565b60405180910390fd5b8073ffffffffffffffffffffffffffffffffffffffff166108fc349081150290604051600060405180830381858888f19350505050158015610e0d573d6000803e3d6000fd5b5060018260a001818151610e219190614014565b91508181525050610e313361130e565b8260c001518360a0015160058110610e72577f4e487b7100000000000000000000000000000000000000000000000000000000600052603260045260246000fd5b60200201819052508160076000858152602001908152602001600020600082015181600001556020820151816001019080519060200190610eb4929190612f94565b506040820151816002015560608201518160030160006101000a81548173ffffffffffffffffffffffffffffffffffffffff021916908373ffffffffffffffffffffffffffffffffffffffff16021790555060808201518160030160146101000a81548160ff02191690831515021790555060a0820151816004015560c082015181600501906005610f4792919061301a565b5090505060048260a00151106110985760018260800190151590811515815250508160076000858152602001908152602001600020600082015181600001556020820151816001019080519060200190610fa2929190612f94565b506040820151816002015560608201518160030160006101000a81548173ffffffffffffffffffffffffffffffffffffffff021916908373ffffffffffffffffffffffffffffffffffffffff16021790555060808201518160030160146101000a81548160ff02191690831515021790555060a0820151816004015560c08201518160050190600561103592919061301a565b509050507f8188e44b6717f640d11be2fb980a4cffe0c626ea8ab72f1fe68e9f1f22dcea4d60015483602001518460400151856060015160018760a001518860c0015160405161108b9796959493929190613cf1565b60405180910390a16111d5565b600082608001901515908115158152505081600760008581526020019081526020016000206000820151816000015560208201518160010190805190602001906110e3929190612f94565b506040820151816002015560608201518160030160006101000a81548173ffffffffffffffffffffffffffffffffffffffff021916908373ffffffffffffffffffffffffffffffffffffffff16021790555060808201518160030160146101000a81548160ff02191690831515021790555060a0820151816004015560c08201518160050190600561117692919061301a565b509050507f8188e44b6717f640d11be2fb980a4cffe0c626ea8ab72f1fe68e9f1f22dcea4d60015483602001518460400151856060015160008760a001518860c001516040516111cc9796959493929190613cf1565b60405180910390a15b505050565b60035481565b600681815481106111f057600080fd5b906000526020600020016000915054906101000a900473ffffffffffffffffffffffffffffffffffffffff1681565b61122761306d565b600060076000848152602001908152602001600020905080600501600580602002604051908101604052809291906000905b828210156112fc57838201805461126f906141e5565b80601f016020809104026020016040519081016040528092919081815260200182805461129b906141e5565b80156112e85780601f106112bd576101008083540402835291602001916112e8565b820191906000526020600020905b8154815290600101906020018083116112cb57829003601f168201915b505050505081526020019060010190611259565b50505050915050919050565b60045481565b606060008273ffffffffffffffffffffffffffffffffffffffff1660001b905060006040518060400160405280601081526020017f303132333435363738396162636465660000000000000000000000000000000081525090506000602a67ffffffffffffffff8111156113ab577f4e487b7100000000000000000000000000000000000000000000000000000000600052604160045260246000fd5b6040519080825280601f01601f1916602001820160405280156113dd5781602001600182028036833780820191505090505b5090507f30000000000000000000000000000000000000000000000000000000000000008160008151811061143b577f4e487b7100000000000000000000000000000000000000000000000000000000600052603260045260246000fd5b60200101907effffffffffffffffffffffffffffffffffffffffffffffffffffffffffffff1916908160001a9053507f7800000000000000000000000000000000000000000000000000000000000000816001815181106114c5577f4e487b7100000000000000000000000000000000000000000000000000000000600052603260045260246000fd5b60200101907effffffffffffffffffffffffffffffffffffffffffffffffffffffffffffff1916908160001a90535060005b60148110156117635782600485600c846115119190614014565b60208110611548577f4e487b7100000000000000000000000000000000000000000000000000000000600052603260045260246000fd5b1a60f81b7effffffffffffffffffffffffffffffffffffffffffffffffffffffffffffff1916901c60f81c60ff16815181106115ad577f4e487b7100000000000000000000000000000000000000000000000000000000600052603260045260246000fd5b602001015160f81c60f81b826002836115c6919061409b565b60026115d29190614014565b81518110611609577f4e487b7100000000000000000000000000000000000000000000000000000000600052603260045260246000fd5b60200101907effffffffffffffffffffffffffffffffffffffffffffffffffffffffffffff1916908160001a90535082600f60f81b85600c8461164c9190614014565b60208110611683577f4e487b7100000000000000000000000000000000000000000000000000000000600052603260045260246000fd5b1a60f81b1660f81c60ff16815181106116c5577f4e487b7100000000000000000000000000000000000000000000000000000000600052603260045260246000fd5b602001015160f81c60f81b826002836116de919061409b565b60036116ea9190614014565b81518110611721577f4e487b7100000000000000000000000000000000000000000000000000000000600052603260045260246000fd5b60200101907effffffffffffffffffffffffffffffffffffffffffffffffffffffffffffff1916908160001a905350808061175b90614231565b9150506114f7565b50809350505050919050565b60025481565b60606000805b835181101561181757602060f81b8482815181106117c2577f4e487b7100000000000000000000000000000000000000000000000000000000600052603260045260246000fd5b602001015160f81c60f81b7effffffffffffffffffffffffffffffffffffffffffffffffffffffffffffff1916141561180457818061180090614231565b9250505b808061180f90614231565b91505061177b565b5060006001826118279190614014565b67ffffffffffffffff811115611866577f4e487b7100000000000000000000000000000000000000000000000000000000600052604160045260246000fd5b60405190808252806020026020018201604052801561189957816020015b60608152602001906001900390816118845790505b50905060008060005b865181101561199c57602060f81b8782815181106118e9577f4e487b7100000000000000000000000000000000000000000000000000000000600052603260045260246000fd5b602001015160f81c60f81b7effffffffffffffffffffffffffffffffffffffffffffffffffffffffffffff1916141561198957611927878483612de2565b848381518110611960577f4e487b7100000000000000000000000000000000000000000000000000000000600052603260045260246000fd5b60200260200101819052506001816119789190614014565b9250818061198590614231565b9250505b808061199490614231565b9150506118a2565b506119a986838851612de2565b8382815181106119e2577f4e487b7100000000000000000000000000000000000000000000000000000000600052603260045260246000fd5b602002602001018190525082945050505050919050565b611a01613094565b60005b600254811015611c4c57600760008281526020019081526020016000206040518060e001604052908160008201548152602001600182018054611a46906141e5565b80601f0160208091040260200160405190810160405280929190818152602001828054611a72906141e5565b8015611abf5780601f10611a9457610100808354040283529160200191611abf565b820191906000526020600020905b815481529060010190602001808311611aa257829003601f168201915b50505050508152602001600282015481526020016003820160009054906101000a900473ffffffffffffffffffffffffffffffffffffffff1673ffffffffffffffffffffffffffffffffffffffff1673ffffffffffffffffffffffffffffffffffffffff1681526020016003820160149054906101000a900460ff161515151581526020016004820154815260200160058201600580602002604051908101604052809291906000905b82821015611c0c578382018054611b7f906141e5565b80601f0160208091040260200160405190810160405280929190818152602001828054611bab906141e5565b8015611bf85780601f10611bcd57610100808354040283529160200191611bf8565b820191906000526020600020905b815481529060010190602001808311611bdb57829003601f168201915b505050505081526020019060010190611b69565b5050505081525050915060405180602001604052806000815250826020018190525060008260a00181815250508080611c4490614231565b915050611a04565b5050565b6007602052806000526040600020600091509050806000015490806001018054611c79906141e5565b80601f0160208091040260200160405190810160405280929190818152602001828054611ca5906141e5565b8015611cf25780601f10611cc757610100808354040283529160200191611cf2565b820191906000526020600020905b815481529060010190602001808311611cd557829003601f168201915b5050505050908060020154908060030160009054906101000a900473ffffffffffffffffffffffffffffffffffffffff16908060030160149054906101000a900460ff16908060040154905086565b6000845111611d4f57600080fd5b60008311611d5c57600080fd5b60016000815480929190611d6f90614231565b9190505550611d7d3361130e565b818360058110611db6577f4e487b7100000000000000000000000000000000000000000000000000000000600052603260045260246000fd5b602002018190525080600060058110611df8577f4e487b7100000000000000000000000000000000000000000000000000000000600052603260045260246000fd5b6020020160608152506040518060e0016040528060015481526020018581526020018481526020013373ffffffffffffffffffffffffffffffffffffffff16815260200160001515815260200183815260200182815250600760006001548152602001908152602001600020600082015181600001556020820151816001019080519060200190611e8a929190612f94565b506040820151816002015560608201518160030160006101000a81548173ffffffffffffffffffffffffffffffffffffffff021916908373ffffffffffffffffffffffffffffffffffffffff16021790555060808201518160030160146101000a81548160ff02191690831515021790555060a0820151816004015560c082015181600501906005611f1d92919061301a565b509050507fc82765ea43bf0e595f0a19d68b0c7767b21c3fdc9fce2e84cb952ef6dee2fe7860015485853360008787604051611f5f9796959493929190613cf1565b60405180910390a150505050565b6008602052806000526040600020600091509050806000015490806001015490806002018054611f9c906141e5565b80601f0160208091040260200160405190810160405280929190818152602001828054611fc8906141e5565b80156120155780601f10611fea57610100808354040283529160200191612015565b820191906000526020600020905b815481529060010190602001808311611ff857829003601f168201915b50505050509080600301805461202a906141e5565b80601f0160208091040260200160405190810160405280929190818152602001828054612056906141e5565b80156120a35780601f10612078576101008083540402835291602001916120a3565b820191906000526020600020905b81548152906001019060200180831161208657829003601f168201915b5050505050908060040154908060050160009054906101000a900460ff16905086565b600960205280600052604060002060009150905080546120e5906141e5565b80601f0160208091040260200160405190810160405280929190818152602001828054612111906141e5565b801561215e5780601f106121335761010080835404028352916020019161215e565b820191906000526020600020905b81548152906001019060200180831161214157829003601f168201915b505050505081565b6000600254905090565b60015481565b60005b600254811015612230576000600a82600b81106121bf577f4e487b7100000000000000000000000000000000000000000000000000000000600052603260045260246000fd5b0160009054906101000a900473ffffffffffffffffffffffffffffffffffffffff1690503373ffffffffffffffffffffffffffffffffffffffff168173ffffffffffffffffffffffffffffffffffffffff16141561221c57600080fd5b50808061222890614231565b915050612179565b5033600a600254600b811061226e577f4e487b7100000000000000000000000000000000000000000000000000000000600052603260045260246000fd5b0160006101000a81548173ffffffffffffffffffffffffffffffffffffffff021916908373ffffffffffffffffffffffffffffffffffffffff160217905550600260008154809291906122c090614231565b919050555060028054106129ac576122d6613094565b60006003819055506000600190505b600154811161262057600760008281526020019081526020016000206040518060e001604052908160008201548152602001600182018054612326906141e5565b80601f0160208091040260200160405190810160405280929190818152602001828054612352906141e5565b801561239f5780601f106123745761010080835404028352916020019161239f565b820191906000526020600020905b81548152906001019060200180831161238257829003601f168201915b50505050508152602001600282015481526020016003820160009054906101000a900473ffffffffffffffffffffffffffffffffffffffff1673ffffffffffffffffffffffffffffffffffffffff1673ffffffffffffffffffffffffffffffffffffffff1681526020016003820160149054906101000a900460ff161515151581526020016004820154815260200160058201600580602002604051908101604052809291906000905b828210156124ec57838201805461245f906141e5565b80601f016020809104026020016040519081016040528092919081815260200182805461248b906141e5565b80156124d85780601f106124ad576101008083540402835291602001916124d8565b820191906000526020600020905b8154815290600101906020018083116124bb57829003601f168201915b505050505081526020019060010190612449565b5050505081525050915060048260a001511061260257600682606001519080600181540180825580915050600190039060005260206000200160009091909190916101000a81548173ffffffffffffffffffffffffffffffffffffffff021916908373ffffffffffffffffffffffffffffffffffffffff1602179055506003600081548092919061257c90614231565b9190505550816020015160096000600354815260200190815260200160002090805190602001906125ae929190612f94565b507f32bc891e2cac71758fc1750c899669848735162664579c037c290c8cd9918bc060096000600354815260200190815260200160002060066040516125f5929190613b77565b60405180910390a161260d565b61260a613094565b91505b808061261890614231565b9150506122e5565b50600060405180602001604052806000815250905060006040518060400160405280600181526020017f200000000000000000000000000000000000000000000000000000000000000081525090506000600190505b60035481116127425761272d83612728846009600086815260200190815260200160002080546126a5906141e5565b80601f01602080910402602001604051908101604052809291908181526020018280546126d1906141e5565b801561271e5780601f106126f35761010080835404028352916020019161271e565b820191906000526020600020905b81548152906001019060200180831161270157829003601f168201915b505050505061087e565b61087e565b9250808061273a90614231565b915050612676565b50600060405180602001604052806000815250905060005b6006805490508110156127fb576127e6826127e1856127dc600686815481106127ac577f4e487b7100000000000000000000000000000000000000000000000000000000600052603260045260246000fd5b9060005260206000200160009054906101000a900473ffffffffffffffffffffffffffffffffffffffff1661130e565b61087e565b61087e565b915080806127f390614231565b91505061275a565b506005600081548092919061280f90614231565b91905055506040518060e001604052806005548152602001600354815260200184815260200182815260200186815260200160001515815260200160068054806020026020016040519081016040528092919081815260200182805480156128cc57602002820191906000526020600020905b8160009054906101000a900473ffffffffffffffffffffffffffffffffffffffff1673ffffffffffffffffffffffffffffffffffffffff1681526020019060010190808311612882575b505050505081525060086000600554815260200190815260200160002060008201518160000155602082015181600101556040820151816002019080519060200190612919929190612f94565b506060820151816003019080519060200190612936929190612f94565b506080820151816004015560a08201518160050160006101000a81548160ff02191690831515021790555060c082015181600601908051906020019061297d9291906130ef565b509050506129896119f9565b60006002819055506000600181905550600660006129a79190613179565b505050505b7fec859db5a3c1ca3ee301d012a70f0e287a104754cd2f264283bb84531f0eed546002546040516129dd9190613c6e565b60405180910390a150565b6000811180156129fa57506005548111155b612a39576040517f08c379a0000000000000000000000000000000000000000000000000000000008152600401612a3090613c2e565b60405180910390fd5b6008600082815260200190815260200160002060040154341015612a92576040517f08c379a0000000000000000000000000000000000000000000000000000000008152600401612a8990613bee565b60405180910390fd5b6008600082815260200190815260200160002060050160009054906101000a900460ff1615612af6576040517f08c379a0000000000000000000000000000000000000000000000000000000008152600401612aed90613bce565b60405180910390fd5b60016008600083815260200190815260200160002060050160006101000a81548160ff02191690831515021790555060003490506000600860008481526020019081526020016000206001015482612b4e919061406a565b9050600860008481526020019081526020016000206006016006908054612b7692919061319a565b5060005b6008600085815260200190815260200160002060010154811015612c5c57600060068281548110612bd4577f4e487b7100000000000000000000000000000000000000000000000000000000600052603260045260246000fd5b9060005260206000200160009054906101000a900473ffffffffffffffffffffffffffffffffffffffff1690508073ffffffffffffffffffffffffffffffffffffffff166108fc849081150290604051600060405180830381858888f19350505050158015612c47573d6000803e3d6000fd5b50508080612c5490614231565b915050612b7a565b5060066000612c6b9190613179565b600860008481526020019081526020016000206006016000612c8d9190613179565b60086000848152602001908152602001600020600601339080600181540180825580915050600190039060005260206000200160009091909190916101000a81548173ffffffffffffffffffffffffffffffffffffffff021916908373ffffffffffffffffffffffffffffffffffffffff160217905550612d0d3361130e565b600860008581526020019081526020016000206003019080519060200190612d36929190612f94565b507f9056f5e53bed7bb6a15348428f0049261c2b3a32242044179b3ae357e7445b51600860008581526020019081526020016000206000015460086000868152602001908152602001600020600201612d8e3361130e565b60086000888152602001908152602001600020600401546001600860008a8152602001908152602001600020600601604051612dcf96959493929190613d6e565b60405180910390a1505050565b60055481565b606060008490508051831115612e2d576040517f08c379a0000000000000000000000000000000000000000000000000000000008152600401612e2490613bae565b60405180910390fd5b60008484612e3b91906140f5565b67ffffffffffffffff811115612e7a577f4e487b7100000000000000000000000000000000000000000000000000000000600052604160045260246000fd5b6040519080825280601f01601f191660200182016040528015612eac5781602001600182028036833780820191505090505b50905060008590505b84811015612f8757828181518110612ef6577f4e487b7100000000000000000000000000000000000000000000000000000000600052603260045260246000fd5b602001015160f81c60f81b828783612f0e91906140f5565b81518110612f45577f4e487b7100000000000000000000000000000000000000000000000000000000600052603260045260246000fd5b60200101907effffffffffffffffffffffffffffffffffffffffffffffffffffffffffffff1916908160001a9053508080612f7f90614231565b915050612eb5565b5080925050509392505050565b828054612fa0906141e5565b90600052602060002090601f016020900481019282612fc25760008555613009565b82601f10612fdb57805160ff1916838001178555613009565b82800160010185558215613009579182015b82811115613008578251825591602001919060010190612fed565b5b50905061301691906131ec565b5090565b826005810192821561305c579160200282015b8281111561305b57825182908051906020019061304b929190612f94565b509160200191906001019061302d565b5b5090506130699190613209565b5090565b6040518060a001604052806005905b606081526020019060019003908161307c5790505090565b6040518060e00160405280600081526020016060815260200160008152602001600073ffffffffffffffffffffffffffffffffffffffff168152602001600015158152602001600081526020016130e961306d565b81525090565b828054828255906000526020600020908101928215613168579160200282015b828111156131675782518260006101000a81548173ffffffffffffffffffffffffffffffffffffffff021916908373ffffffffffffffffffffffffffffffffffffffff1602179055509160200191906001019061310f565b5b50905061317591906131ec565b5090565b508054600082559060005260206000209081019061319791906131ec565b50565b8280548282559060005260206000209081019282156131db5760005260206000209182015b828111156131da5782548255916001019190600101906131bf565b5b5090506131e891906131ec565b5090565b5b808211156132055760008160009055506001016131ed565b5090565b5b808211156132295760008181613220919061322d565b5060010161320a565b5090565b508054613239906141e5565b6000825580601f1061324b575061326a565b601f01602090049060005260206000209081019061326991906131ec565b5b50565b600061328061327b84613e84565b613e53565b9050808382526020820190508285602086028201111561329f57600080fd5b60005b858110156132cf57816132b58882613380565b8452602084019350602083019250506001810190506132a2565b5050509392505050565b60006132ec6132e784613eb0565b613e53565b9050808260005b85811015613323578135850161330988826133e6565b8452602084019350602083019250506001810190506132f3565b5050509392505050565b600061334061333b84613ed6565b613e53565b90508281526020810184848401111561335857600080fd5b6133638482856141a3565b509392505050565b60008135905061337a81614367565b92915050565b60008135905061338f8161437e565b92915050565b600082601f8301126133a657600080fd5b81356133b684826020860161326d565b91505092915050565b600082601f8301126133d057600080fd5b60056133dd8482856132d9565b91505092915050565b600082601f8301126133f757600080fd5b813561340784826020860161332d565b91505092915050565b60008135905061341f81614395565b92915050565b60006020828403121561343757600080fd5b60006134458482850161336b565b91505092915050565b6000806040838503121561346157600080fd5b600083013567ffffffffffffffff81111561347b57600080fd5b61348785828601613395565b925050602083013567ffffffffffffffff8111156134a457600080fd5b6134b085828601613395565b9150509250929050565b6000602082840312156134cc57600080fd5b600082013567ffffffffffffffff8111156134e657600080fd5b6134f2848285016133e6565b91505092915050565b6000806040838503121561350e57600080fd5b600083013567ffffffffffffffff81111561352857600080fd5b613534858286016133e6565b925050602083013567ffffffffffffffff81111561355157600080fd5b61355d858286016133e6565b9150509250929050565b6000806000806080858703121561357d57600080fd5b600085013567ffffffffffffffff81111561359757600080fd5b6135a3878288016133e6565b94505060206135b487828801613410565b93505060406135c587828801613410565b925050606085013567ffffffffffffffff8111156135e257600080fd5b6135ee878288016133bf565b91505092959194509250565b60006020828403121561360c57600080fd5b600061361a84828501613410565b91505092915050565b600061362f838361364f565b60208301905092915050565b60006136478383613838565b905092915050565b6136588161415b565b82525050565b6136678161415b565b82525050565b61367681614149565b82525050565b600061368782613f5a565b6136918185613fc5565b935061369c83613f06565b8060005b838110156136cd5781516136b48882613623565b97506136bf83613f91565b9250506001810190506136a0565b5085935050505092915050565b60006136e582613f65565b6136ef8185613fc5565b93506136fa83613f16565b8060005b838110156137325761370f82614336565b6137198882613623565b975061372483613f9e565b9250506001810190506136fe565b5085935050505092915050565b600061374a82613f70565b6137548185613fd6565b93508360208202850161376685613f2b565b8060005b858110156137a25784840389528151613783858261363b565b945061378e83613fab565b925060208a0199505060018101905061376a565b50829750879550505050505092915050565b60006137bf82613f7b565b6137c98185613fe1565b9350836020820285016137db85613f35565b8060005b8581101561381757848403895281516137f8858261363b565b945061380383613fb8565b925060208a019950506001810190506137df565b50829750879550505050505092915050565b6138328161416d565b82525050565b600061384382613f86565b61384d8185613ff2565b935061385d8185602086016141b2565b61386681614349565b840191505092915050565b600061387c82613f86565b6138868185614003565b93506138968185602086016141b2565b61389f81614349565b840191505092915050565b600081546138b7816141e5565b6138c18186614003565b945060018216600081146138dc57600181146138ee57613921565b60ff1983168652602086019350613921565b6138f785613f45565b60005b83811015613919578154818901526001820191506020810190506138fa565b808801955050505b50505092915050565b6000613937601083614003565b91507f496e76616c696420656e64496e646578000000000000000000000000000000006000830152602082019050919050565b6000613977601783614003565b91507f53746f727920616c7265616479207075726368617365640000000000000000006000830152602082019050919050565b60006139b7601283614003565b91507f496e73756666696369656e742066756e647300000000000000000000000000006000830152602082019050919050565b60006139f7600f83614003565b91507f416c7265616479207570766f74656400000000000000000000000000000000006000830152602082019050919050565b6000613a37601283614003565b91507f496e76616c69642070726f6475637420494400000000000000000000000000006000830152602082019050919050565b6000613a77601f83614003565b91507f596f752063616e6e6f74207570766f746520796f75722073656e74656e6365006000830152602082019050919050565b613ab381614199565b82525050565b6000602082019050613ace600083018461366d565b92915050565b6000602082019050613ae9600083018461365e565b92915050565b60006020820190508181036000830152613b09818461367c565b905092915050565b60006020820190508181036000830152613b2b818461373f565b905092915050565b60006020820190508181036000830152613b4d81846137b4565b905092915050565b60006020820190508181036000830152613b6f8184613871565b905092915050565b60006040820190508181036000830152613b9181856138aa565b90508181036020830152613ba581846136da565b90509392505050565b60006020820190508181036000830152613bc78161392a565b9050919050565b60006020820190508181036000830152613be78161396a565b9050919050565b60006020820190508181036000830152613c07816139aa565b9050919050565b60006020820190508181036000830152613c27816139ea565b9050919050565b60006020820190508181036000830152613c4781613a2a565b9050919050565b60006020820190508181036000830152613c6781613a6a565b9050919050565b6000602082019050613c836000830184613aaa565b92915050565b600060c082019050613c9e6000830189613aaa565b8181036020830152613cb08188613871565b9050613cbf6040830187613aaa565b613ccc606083018661365e565b613cd96080830185613829565b613ce660a0830184613aaa565b979650505050505050565b600060e082019050613d06600083018a613aaa565b8181036020830152613d188189613871565b9050613d276040830188613aaa565b613d34606083018761365e565b613d416080830186613829565b613d4e60a0830185613aaa565b81810360c0830152613d60818461373f565b905098975050505050505050565b600060c082019050613d836000830189613aaa565b8181036020830152613d9581886138aa565b90508181036040830152613da98187613871565b9050613db86060830186613aaa565b613dc56080830185613829565b81810360a0830152613dd781846136da565b9050979650505050505050565b600060c082019050613df96000830189613aaa565b613e066020830188613aaa565b8181036040830152613e188187613871565b90508181036060830152613e2c8186613871565b9050613e3b6080830185613aaa565b613e4860a0830184613829565b979650505050505050565b6000604051905081810181811067ffffffffffffffff82111715613e7a57613e79614307565b5b8060405250919050565b600067ffffffffffffffff821115613e9f57613e9e614307565b5b602082029050602081019050919050565b600067ffffffffffffffff821115613ecb57613eca614307565b5b602082029050919050565b600067ffffffffffffffff821115613ef157613ef0614307565b5b601f19601f8301169050602081019050919050565b6000819050602082019050919050565b60008190508160005260206000209050919050565b6000819050919050565b6000819050602082019050919050565b60008190508160005260206000209050919050565b600081519050919050565b600081549050919050565b600060059050919050565b600081519050919050565b600081519050919050565b6000602082019050919050565b6000600182019050919050565b6000602082019050919050565b6000602082019050919050565b600082825260208201905092915050565b600081905092915050565b600082825260208201905092915050565b600082825260208201905092915050565b600082825260208201905092915050565b600061401f82614199565b915061402a83614199565b9250827fffffffffffffffffffffffffffffffffffffffffffffffffffffffffffffffff0382111561405f5761405e61427a565b5b828201905092915050565b600061407582614199565b915061408083614199565b9250826140905761408f6142a9565b5b828204905092915050565b60006140a682614199565b91506140b183614199565b9250817fffffffffffffffffffffffffffffffffffffffffffffffffffffffffffffffff04831182151516156140ea576140e961427a565b5b828202905092915050565b600061410082614199565b915061410b83614199565b92508282101561411e5761411d61427a565b5b828203905092915050565b600073ffffffffffffffffffffffffffffffffffffffff82169050919050565b600061415482614179565b9050919050565b600061416682614179565b9050919050565b60008115159050919050565b600073ffffffffffffffffffffffffffffffffffffffff82169050919050565b6000819050919050565b82818337600083830152505050565b60005b838110156141d05780820151818401526020810190506141b5565b838111156141df576000848401525b50505050565b600060028204905060018216806141fd57607f821691505b60208210811415614211576142106142d8565b5b50919050565b600061422a6142258361435a565b614129565b9050919050565b600061423c82614199565b91507fffffffffffffffffffffffffffffffffffffffffffffffffffffffffffffffff82141561426f5761426e61427a565b5b600182019050919050565b7f4e487b7100000000000000000000000000000000000000000000000000000000600052601160045260246000fd5b7f4e487b7100000000000000000000000000000000000000000000000000000000600052601260045260246000fd5b7f4e487b7100000000000000000000000000000000000000000000000000000000600052602260045260246000fd5b7f4e487b7100000000000000000000000000000000000000000000000000000000600052604160045260246000fd5b60006143428254614217565b9050919050565b6000601f19601f8301169050919050565b60008160001c9050919050565b61437081614149565b811461437b57600080fd5b50565b6143878161415b565b811461439257600080fd5b50565b61439e81614199565b81146143a957600080fd5b5056fea2646970667358221220c71579091631d42adb0b46fe367cea222aeaa0236a8fa1e876e0bd3b5df017dc64736f6c63430008000033",
  "immutableReferences": {},
  "source": "pragma solidity ^0.8.0;\r\n\r\n\r\n//TODO\r\n//Add another table with stories, authors, buy button\r\n//convert contributors to string array and get the size\r\n//get the buyer address\r\n//transfer the ownership\r\n//split the sale\r\n//display the buy button\r\ncontract Marketplace {\r\n\tstring public name;\r\n\tuint public productCount = 0;\r\n\tuint public vote_end = 0;\r\n\tuint public SentenceCount = 0;\r\n\tuint public num = 0;\r\n\tuint public historyProdCount = 0;\r\n\taddress payable [] public authors;\r\n\tmapping(uint => Product) public products;\r\n\tmapping(uint => CompleteStory) public products_historical;\r\n\t//link story in historical to the contributors\r\n\t//string public authors;\r\n\tmapping(uint => string) public story;\r\n\taddress[11] public voters_end;\r\n\tstruct Product {\r\n\t\tuint id;\r\n\t\tstring name;\r\n\t\tuint price;\r\n\t\taddress payable owner;\r\n\t\tbool purchased;\r\n\t\tuint upvotes;\r\n\t\tstring[5] contributors;\r\n\t}\r\n\t// struct Sentence {\r\n\t// \tstring name;\r\n\t// \t//address payable [] authors;\r\n\t// }\r\n\tstruct CompleteStory {\r\n\t\tuint id;\r\n\t\tuint sentCount;\r\n\t\tstring fullS;\r\n\t\tstring authors;\r\n\t\tuint price;\r\n\t\tbool purchased;\r\n\t\taddress payable [] owner;\r\n\t\t//address  payable [] authors;\r\n\t}\r\n\r\n\tevent StoryCreated(\r\n\t\tstring name,\r\n\t\taddress payable [] authors\t\r\n\t);\r\n\r\n\tevent StoryPurchased(\r\n\t\tuint id,\r\n\t\tstring fullS,\r\n\t\tstring authors,\r\n\t\tuint price,\r\n\t\tbool purchased,\r\n\t\taddress payable [] owner\r\n\t);\r\n\r\n\tevent ProductCreated(\r\n\t\tuint id,\r\n\t\tstring name,\r\n\t\tuint price,\r\n\t\taddress payable owner,\r\n\t\tbool purchased,\r\n\t\tuint upvotes,\r\n\t\tstring[5] contributors\t\r\n\t);\r\n\r\n\tevent upVote(\r\n\t\tuint vote\r\n\t);\r\n\r\n\tevent ProductPurchased(\r\n\t\tuint id,\r\n\t\tstring name,\r\n\t\tuint price,\r\n\t\taddress payable owner,\r\n\t\tbool purchased,\r\n\t\tuint upvotes,\r\n\t\tstring[5] contributors\r\n\t);\r\n\r\n\tstruct voteEnd{\r\n\t\tuint votes;\r\n\t}\r\n\t\r\n\t\r\n\tconstructor() {\r\n\t\tname = \"exquisite corpse\";\r\n\t\t//products_historical ='';\r\n\t\tvote_end = 0;\r\n\t}\r\n\r\n\tfunction getArr(uint _id) public view returns (string[5] memory) {\r\n\t\tProduct storage myProduct = products[_id];\r\n    \treturn myProduct.contributors;\r\n\t}\r\n\r\n\tfunction stringToArray(string memory str) public pure returns (string[] memory) {\r\n        // Count the number of spaces in the input string\r\n        uint spaceCount = 0;\r\n        for (uint i = 0; i < bytes(str).length; i++) {\r\n            if (bytes(str)[i] == 0x20) { // ASCII value of space is 0x20\r\n                spaceCount++;\r\n            }\r\n        }\r\n\r\n        // Create a new dynamic string array with the number of spaces + 1 elements\r\n        string[] memory stringArr = new string[](spaceCount + 1);\r\n        uint startIndex = 0;\r\n        uint arrayIndex = 0;\r\n\r\n        // Iterate over the input string and split it by space\r\n        for (uint i = 0; i < bytes(str).length; i++) {\r\n            if (bytes(str)[i] == 0x20) {\r\n                stringArr[arrayIndex] = substring(str, startIndex, i);\r\n                startIndex = i + 1;\r\n                arrayIndex++;\r\n            }\r\n        }\r\n\r\n        // Add the remaining part of the input string to the array\r\n        stringArr[arrayIndex] = substring(str, startIndex, bytes(str).length);\r\n\r\n        return stringArr;\r\n    }\r\n\r\n\tfunction substring(string memory str, uint startIndex, uint endIndex) internal pure returns (string memory) {\r\n        bytes memory strBytes = bytes(str);\r\n        require(endIndex <= strBytes.length, \"Invalid endIndex\");\r\n\r\n        bytes memory result = new bytes(endIndex - startIndex);\r\n        for (uint i = startIndex; i < endIndex; i++) {\r\n            result[i - startIndex] = strBytes[i];\r\n        }\r\n\r\n        return string(result);\r\n    }\r\n\t\r\n\r\n\r\n\tfunction stringToAddress(string memory _input) internal pure returns (address) {\r\n\t\tbytes32 hash = keccak256(bytes(_input));\r\n\t\taddress addr = address(uint160(uint256(hash)));\r\n\t\treturn addr;\r\n\t}\r\n\tfunction concatAddresses(address payable [] memory addresses1, address payable [] memory addresses2) public pure returns(address payable [] memory) {\r\n\t\tuint totalLength = addresses1.length + addresses2.length;\r\n\t\taddress payable [] memory concatenatedArray = new address payable [](totalLength);\r\n\t\t\r\n\t\tuint i;\r\n\t\tfor (i = 0; i < addresses1.length; i++) {\r\n\t\t\tconcatenatedArray[i] = addresses1[i];\r\n\t\t}\r\n\t\tfor (uint j = 0; j < addresses2.length; j++) {\r\n\t\t\tconcatenatedArray[i++] = addresses2[j];\r\n\t\t}\r\n\t\t\r\n\t\treturn concatenatedArray;\r\n\t}\r\n\tfunction concatenate(string memory a, string memory b) public pure returns (string memory) {\r\n        bytes memory aa = bytes(a);\r\n        bytes memory bb = bytes(b);\r\n        bytes memory result = new bytes(aa.length + bb.length);\r\n        uint k = 0;\r\n        for (uint i = 0; i < aa.length; i++) {\r\n            result[k++] = aa[i];\r\n        }\r\n        for (uint i = 0; i < bb.length; i++) {\r\n            result[k++] = bb[i];\r\n        }\r\n        return string(result);\r\n    }\r\n\tfunction toString(uint _i) internal pure returns (string memory _uintAsString) {\r\n        if (_i == 0) {\r\n            return \"0\";\r\n        }\r\n        uint j = _i;\r\n        uint len;\r\n        while (j != 0) {\r\n            len++;\r\n            j /= 10;\r\n        }\r\n        bytes memory bstr = new bytes(len);\r\n        uint k = len;\r\n        while (_i != 0) {\r\n            k = k-1;\r\n            uint8 temp = (48 + uint8(_i - _i / 10 * 10));\r\n            bytes1 b1 = bytes1(temp);\r\n            bstr[k] = b1;\r\n            _i /= 10;\r\n        }\r\n        return string(bstr);\r\n    }\r\n\tfunction addressToString(address _addr) public pure returns (string memory) {\r\n\t\tbytes32 value = bytes32(uint256(uint160(_addr)));\r\n\t\tbytes memory alphabet = \"0123456789abcdef\";\r\n\r\n\t\tbytes memory str = new bytes(42);\r\n\t\tstr[0] = '0';\r\n\t\tstr[1] = 'x';\r\n\t\tfor (uint i = 0; i < 20; i++) {\r\n\t\t\tstr[2+i*2] = alphabet[uint8(value[i + 12] >> 4)];\r\n\t\t\tstr[3+i*2] = alphabet[uint8(value[i + 12] & 0x0f)];\r\n\t\t}\r\n\t\treturn string(str);\r\n\t}\r\n\r\n\t\r\n\tfunction createVoteEnd(uint price) public {\r\n    //string storage senderString = toString(msg.sender);\r\n\t//check not similar voters\r\n    for (uint i = 0; i < vote_end; i++) {\r\n\t\taddress voterA = voters_end[i];\r\n        require( voterA != msg.sender);\r\n    }\r\n\t\tvoters_end[vote_end] = msg.sender;\r\n\t\tvote_end++;\r\n\r\n\t\t//transfer to past stories\r\n\t\tif(vote_end >=2){\r\n\t\t\tProduct memory _product;\r\n\t\t\tSentenceCount = 0;\r\n\t\t\t//address payable tempaddr;\r\n\t\t\tfor(uint i = 1; i <= productCount; i++){\r\n\t\t\t\t_product = products[i];\r\n\t\t\t\tif(_product.upvotes >= 4){\r\n\t\t\t\t\tauthors.push(_product.owner);\r\n\t\t\t\t\t//_sentence.name = _product.name;\r\n\t\t\t\t\tSentenceCount++;\r\n\t\t\t\t\tstory[SentenceCount]= _product.name;\r\n\t\t\t\t\t\r\n\t\t\t\t\t//make the first sentence have all the authors\r\n\t\t\t\t\temit StoryCreated(story[SentenceCount], authors);\r\n\t\t\t\t}\r\n\t\t\t\telse {\r\n\t\t\t\t\tdelete _product;\r\n\t\t\t\t\t\r\n\t\t\t\t}\r\n\r\n\t\t\t}\r\n\t\t\t// //concate all sentences in one string\r\n\t\t\tstring memory full_story = \"\";\r\n\t\t\tstring memory space = \" \";\r\n\t\t\t//string memory full_story;\r\n\t\t\tfor (uint j = 1; j <= SentenceCount; j++) {\r\n\t\t\t\tfull_story = concatenate(full_story, concatenate(space, story[j]));\r\n\t\t\t}\r\n\t\t\t//add the authors strings\r\n\t\t\tstring memory authstring = \"\";\r\n\t\t\tfor (uint j = 0; j < authors.length; j++) {\r\n\t\t\t\tauthstring =  concatenate(authstring, concatenate(space, addressToString(authors[j])));\r\n\t\t\t}\r\n\t\t\thistoryProdCount++; \r\n\t\t\tproducts_historical[historyProdCount] = CompleteStory(historyProdCount, SentenceCount, \r\n\t\t\tfull_story, authstring, price , false, authors);\r\n\t\t\tresetProducts();\r\n\t\t\tvote_end = 0;\r\n\t\t\tproductCount = 0;\r\n\t\t\tdelete authors;\r\n\t\t\r\n\t\t} \r\n\t\t\r\n\t\temit upVote(vote_end);\r\n\t}\r\n\r\n\tfunction getCurrentVote() public view returns (uint) {\r\n\t\t// portion where we plug in tufts account\r\n\t\t// address(_seller).transfer(msg.value);\r\n\t\treturn vote_end;\r\n\t}\r\n\t\r\n\tfunction resetProducts() public view{\r\n\t\tProduct memory _product;\r\n\t\tfor(uint i = 0; i < vote_end; i++){\r\n\t\t\t_product = products[i];\r\n\t\t\t_product.name = \"\";\r\n\t\t\t_product.upvotes = 0;\r\n\t\t}\r\n\t}\r\n\r\n\r\n\tfunction createProduct(string memory _name, uint _price, uint upvotes, string[5] memory contributors) public {\r\n\t\t// require a name\r\n\t\trequire(bytes(_name).length > 0);\r\n\t\t// require a valid price\r\n\t\trequire(_price > 0);\r\n\t\t// make sure params good\r\n\t\t// inc products count\r\n\t\tproductCount++;\r\n\t\t//add owner to contributors\r\n\t\tcontributors[upvotes] = addressToString(msg.sender);\r\n\t\tdelete contributors[0];\r\n\t\t// create the product\r\n\t\tproducts[productCount] = Product(productCount, _name, _price, payable(msg.sender), false, upvotes, contributors);\r\n\t\t// trigger an event\t\r\n\t\temit ProductCreated(productCount, _name, _price, payable(msg.sender), false, upvotes, contributors);\r\n\t}\r\n\r\n\tfunction purchaseProduct(uint _id) public payable{\r\n\t\t// fetch product\r\n\t\tProduct memory _product = products[_id];\t\r\n\t\t// fetch the owner\r\n\t\taddress payable _seller = _product.owner;\r\n\t\t\r\n\t\t// make sure the product has a valid id\r\n\t\trequire(_product.id > 0 && _product.id <= productCount);\r\n\t\t// make sure they sent enough ether\r\n\t\trequire(msg.value >= _product.price);\r\n\t\t// require product has not already been purchased\r\n\t\trequire(!_product.purchased, \"You cannot upvote your sentence\");\r\n\t\t// require that the buyer is not the seller\r\n\t\trequire(_seller != msg.sender, \"Already upvoted\");\r\n\t\t// require that the buyer is not a previous contributor (i.e already upvoted)\r\n\t\t\r\n\t\t\r\n\t\tpayable(_seller).transfer(msg.value);\r\n\t\t// mark as purchased\r\n\t\t// increment upvotes of product\r\n\t\t_product.upvotes += 1;\r\n\t\t//add purchaser to contributors\r\n\t\t_product.contributors[_product.upvotes] = addressToString(msg.sender);\r\n\t\t//update the product\r\n\t\tproducts[_id] = _product;\r\n\t\t\r\n\t\tif(_product.upvotes >= 4){\r\n\t\t\t_product.purchased = true;\r\n\t\t\tproducts[_id] = _product;\r\n\t\t\temit ProductPurchased(productCount, _product.name, _product.price, _product.owner, true, _product.upvotes, _product.contributors);\r\n\t\t}\r\n\t\telse {\r\n\t\t\t_product.purchased = false;\r\n\t\t\tproducts[_id] = _product;\r\n\t\t\temit ProductPurchased(productCount, _product.name, _product.price, _product.owner, false, _product.upvotes, _product.contributors);\r\n\t\t}\t\r\n\t}\r\n\r\n\r\n   function purchaseStory(uint _id) public payable {\r\n\t\t// Fetch the product\r\n\t\trequire(_id > 0 && _id <= historyProdCount, \"Invalid product ID\");\r\n\r\n\t\trequire(msg.value >= products_historical[_id].price, \"Insufficient funds\");\r\n\r\n\t\trequire(!products_historical[_id].purchased, \"Story already purchased\");\r\n\r\n\t\tproducts_historical[_id].purchased = true;\r\n\r\n\t\t// Transfer funds to sellers\r\n\t\tuint fullprice = msg.value;\r\n\t\tuint paidPrice = fullprice/products_historical[_id].sentCount;\r\n\t\tauthors = products_historical[_id].owner;\r\n\t\tfor (uint i = 0; i < products_historical[_id].sentCount; i++) {\r\n\t\t\taddress payable seller = authors[i];\r\n\t\t\tseller.transfer(paidPrice);\r\n\t\t}\r\n\r\n\t\t// Update product ownership\r\n\t\tdelete authors;\r\n\t\tdelete products_historical[_id].owner;\r\n\t\tproducts_historical[_id].owner.push(payable(msg.sender)); \r\n\t\tproducts_historical[_id].authors = addressToString(msg.sender);\r\n\t\t// Trigger an event\r\n\t\temit StoryPurchased(products_historical[_id].id,products_historical[_id].fullS, addressToString(msg.sender), products_historical[_id].price, true,  products_historical[_id].owner);\r\n\t}\r\n\r\n\r\n}\r\n",
  "sourcePath": "C:/Users/shahd/documents/blockchain/corpseNNN/src/contracts/Marketplace.sol",
  "compiler": {
    "name": "solc",
    "version": "0.8.0+commit.c7dfd78e.Emscripten.clang"
  },
  "schemaVersion": "3.3.3",
  "updatedAt": "2023-07-22T16:37:50.349Z",
  "networkType": "ethereum",
  "devdoc": {
    "kind": "dev",
    "methods": {},
    "version": 1
  },
  "userdoc": {
    "kind": "user",
    "methods": {},
    "version": 1
  }
}