{
  "contractName": "Marketplace",
  "abi": [
    {
      "inputs": [],
      "stateMutability": "nonpayable",
      "type": "constructor"
    },
    {
      "anonymous": false,
      "inputs": [
        {
          "indexed": false,
          "internalType": "string",
          "name": "fullS",
          "type": "string"
        },
        {
          "indexed": false,
          "internalType": "uint256",
          "name": "price",
          "type": "uint256"
        },
        {
          "indexed": false,
          "internalType": "bool",
          "name": "purchased",
          "type": "bool"
        },
        {
          "indexed": false,
          "internalType": "string",
          "name": "authors",
          "type": "string"
        }
      ],
      "name": "PriceAdded",
      "type": "event"
    },
    {
      "anonymous": false,
      "inputs": [
        {
          "indexed": false,
          "internalType": "uint256",
          "name": "id",
          "type": "uint256"
        },
        {
          "indexed": false,
          "internalType": "string",
          "name": "name",
          "type": "string"
        },
        {
          "indexed": false,
          "internalType": "uint256",
          "name": "price",
          "type": "uint256"
        },
        {
          "indexed": false,
          "internalType": "address payable",
          "name": "owner",
          "type": "address"
        },
        {
          "indexed": false,
          "internalType": "bool",
          "name": "purchased",
          "type": "bool"
        },
        {
          "indexed": false,
          "internalType": "uint256",
          "name": "upvotes",
          "type": "uint256"
        },
        {
          "indexed": false,
          "internalType": "string[3]",
          "name": "contributors",
          "type": "string[3]"
        }
      ],
      "name": "ProductCreated",
      "type": "event"
    },
    {
      "anonymous": false,
      "inputs": [
        {
          "indexed": false,
          "internalType": "uint256",
          "name": "id",
          "type": "uint256"
        },
        {
          "indexed": false,
          "internalType": "string",
          "name": "name",
          "type": "string"
        },
        {
          "indexed": false,
          "internalType": "uint256",
          "name": "price",
          "type": "uint256"
        },
        {
          "indexed": false,
          "internalType": "address payable",
          "name": "owner",
          "type": "address"
        },
        {
          "indexed": false,
          "internalType": "bool",
          "name": "purchased",
          "type": "bool"
        },
        {
          "indexed": false,
          "internalType": "uint256",
          "name": "upvotes",
          "type": "uint256"
        },
        {
          "indexed": false,
          "internalType": "string[3]",
          "name": "contributors",
          "type": "string[3]"
        }
      ],
      "name": "ProductPurchased",
      "type": "event"
    },
    {
      "anonymous": false,
      "inputs": [
        {
          "indexed": false,
          "internalType": "string",
          "name": "name",
          "type": "string"
        },
        {
          "indexed": false,
          "internalType": "string[3]",
          "name": "authors",
          "type": "string[3]"
        }
      ],
      "name": "StoryCreated",
      "type": "event"
    },
    {
      "anonymous": false,
      "inputs": [
        {
          "indexed": false,
          "internalType": "uint256",
          "name": "vote",
          "type": "uint256"
        }
      ],
      "name": "upVote",
      "type": "event"
    },
    {
      "inputs": [],
      "name": "SentenceCount",
      "outputs": [
        {
          "internalType": "uint256",
          "name": "",
          "type": "uint256"
        }
      ],
      "stateMutability": "view",
      "type": "function",
      "constant": true
    },
    {
      "inputs": [],
      "name": "historyProdCount",
      "outputs": [
        {
          "internalType": "uint256",
          "name": "",
          "type": "uint256"
        }
      ],
      "stateMutability": "view",
      "type": "function",
      "constant": true
    },
    {
      "inputs": [],
      "name": "name",
      "outputs": [
        {
          "internalType": "string",
          "name": "",
          "type": "string"
        }
      ],
      "stateMutability": "view",
      "type": "function",
      "constant": true
    },
    {
      "inputs": [],
      "name": "num",
      "outputs": [
        {
          "internalType": "uint256",
          "name": "",
          "type": "uint256"
        }
      ],
      "stateMutability": "view",
      "type": "function",
      "constant": true
    },
    {
      "inputs": [],
      "name": "productCount",
      "outputs": [
        {
          "internalType": "uint256",
          "name": "",
          "type": "uint256"
        }
      ],
      "stateMutability": "view",
      "type": "function",
      "constant": true
    },
    {
      "inputs": [
        {
          "internalType": "uint256",
          "name": "",
          "type": "uint256"
        }
      ],
      "name": "products",
      "outputs": [
        {
          "internalType": "uint256",
          "name": "id",
          "type": "uint256"
        },
        {
          "internalType": "string",
          "name": "name",
          "type": "string"
        },
        {
          "internalType": "uint256",
          "name": "price",
          "type": "uint256"
        },
        {
          "internalType": "address payable",
          "name": "owner",
          "type": "address"
        },
        {
          "internalType": "bool",
          "name": "purchased",
          "type": "bool"
        },
        {
          "internalType": "uint256",
          "name": "upvotes",
          "type": "uint256"
        }
      ],
      "stateMutability": "view",
      "type": "function",
      "constant": true
    },
    {
      "inputs": [
        {
          "internalType": "uint256",
          "name": "",
          "type": "uint256"
        }
      ],
      "name": "products_historical",
      "outputs": [
        {
          "internalType": "string",
          "name": "fullS",
          "type": "string"
        },
        {
          "internalType": "uint256",
          "name": "price",
          "type": "uint256"
        },
        {
          "internalType": "bool",
          "name": "purchased",
          "type": "bool"
        },
        {
          "internalType": "string",
          "name": "authors",
          "type": "string"
        }
      ],
      "stateMutability": "view",
      "type": "function",
      "constant": true
    },
    {
      "inputs": [
        {
          "internalType": "uint256",
          "name": "",
          "type": "uint256"
        }
      ],
      "name": "story",
      "outputs": [
        {
          "internalType": "string",
          "name": "name",
          "type": "string"
        }
      ],
      "stateMutability": "view",
      "type": "function",
      "constant": true
    },
    {
      "inputs": [],
      "name": "storyCount",
      "outputs": [
        {
          "internalType": "uint256",
          "name": "",
          "type": "uint256"
        }
      ],
      "stateMutability": "view",
      "type": "function",
      "constant": true
    },
    {
      "inputs": [],
      "name": "vote_end",
      "outputs": [
        {
          "internalType": "uint256",
          "name": "",
          "type": "uint256"
        }
      ],
      "stateMutability": "view",
      "type": "function",
      "constant": true
    },
    {
      "inputs": [
        {
          "internalType": "uint256",
          "name": "",
          "type": "uint256"
        }
      ],
      "name": "voters_end",
      "outputs": [
        {
          "internalType": "address",
          "name": "",
          "type": "address"
        }
      ],
      "stateMutability": "view",
      "type": "function",
      "constant": true
    },
    {
      "inputs": [
        {
          "internalType": "uint256",
          "name": "_id",
          "type": "uint256"
        }
      ],
      "name": "getArr",
      "outputs": [
        {
          "internalType": "string[3]",
          "name": "",
          "type": "string[3]"
        }
      ],
      "stateMutability": "view",
      "type": "function",
      "constant": true
    },
    {
      "inputs": [
        {
          "internalType": "string",
          "name": "a",
          "type": "string"
        },
        {
          "internalType": "string",
          "name": "b",
          "type": "string"
        }
      ],
      "name": "concatenate",
      "outputs": [
        {
          "internalType": "string",
          "name": "",
          "type": "string"
        }
      ],
      "stateMutability": "pure",
      "type": "function",
      "constant": true
    },
    {
      "inputs": [
        {
          "internalType": "address",
          "name": "_addr",
          "type": "address"
        }
      ],
      "name": "addressToString",
      "outputs": [
        {
          "internalType": "string",
          "name": "",
          "type": "string"
        }
      ],
      "stateMutability": "pure",
      "type": "function",
      "constant": true
    },
    {
      "inputs": [],
      "name": "createVoteEnd",
      "outputs": [],
      "stateMutability": "payable",
      "type": "function",
      "payable": true
    },
    {
      "inputs": [],
      "name": "getAuthors",
      "outputs": [],
      "stateMutability": "view",
      "type": "function",
      "constant": true
    },
    {
      "inputs": [],
      "name": "getCurrentVote",
      "outputs": [
        {
          "internalType": "uint256",
          "name": "",
          "type": "uint256"
        }
      ],
      "stateMutability": "view",
      "type": "function",
      "constant": true
    },
    {
      "inputs": [],
      "name": "resetProducts",
      "outputs": [],
      "stateMutability": "view",
      "type": "function",
      "constant": true
    },
    {
      "inputs": [
        {
          "internalType": "string",
          "name": "_name",
          "type": "string"
        },
        {
          "internalType": "uint256",
          "name": "_price",
          "type": "uint256"
        },
        {
          "internalType": "uint256",
          "name": "upvotes",
          "type": "uint256"
        },
        {
          "internalType": "string[3]",
          "name": "contributors",
          "type": "string[3]"
        }
      ],
      "name": "createProduct",
      "outputs": [],
      "stateMutability": "nonpayable",
      "type": "function"
    },
    {
      "inputs": [
        {
          "internalType": "uint256",
          "name": "_id",
          "type": "uint256"
        }
      ],
      "name": "purchaseProduct",
      "outputs": [],
      "stateMutability": "payable",
      "type": "function",
      "payable": true
    }
  ],
  "bytecode": "0x60806040526000600155600060025560006003556000600455600060055560006006553480156200002f57600080fd5b506040518060400160405280601081526020017f65787175697369746520636f7270736500000000000000000000000000000000815250600090805190602001906200007d9291906200008c565b506000600381905550620001a1565b8280546200009a906200013c565b90600052602060002090601f016020900481019282620000be57600085556200010a565b82601f10620000d957805160ff19168380011785556200010a565b828001600101855582156200010a579182015b8281111562000109578251825591602001919060010190620000ec565b5b5090506200011991906200011d565b5090565b5b80821115620001385760008160009055506001016200011e565b5090565b600060028204905060018216806200015557607f821691505b602082108114156200016c576200016b62000172565b5b50919050565b7f4e487b7100000000000000000000000000000000000000000000000000000000600052602260045260246000fd5b612f8980620001b16000396000f3fe60806040526004361061011f5760003560e01c80636e2a2635116100a0578063beba8bbe11610064578063beba8bbe146103c5578063dc56028d14610402578063de6950e81461042d578063e0f6ef8714610456578063f5f3e5e6146104815761011f565b80636e2a26351461030b5780637acc0b20146103225780637fc622f414610364578063a71ce3ea1461037b578063ab6d4fbe146103855761011f565b80634308cf35116100e75780634308cf35146102105780634c7e9ecc1461024d5780634e70b1dc146102785780635e57966d146102a35780635e8a2932146102e05761011f565b806306fdde03146101245780631fb4a24b1461014f578063266001d31461018c57806338e76a03146101c95780633aeb0b8e146101e5575b600080fd5b34801561013057600080fd5b506101396104ac565b60405161014691906129f3565b60405180910390f35b34801561015b57600080fd5b50610176600480360381019061017191906127d6565b61053a565b60405161018391906129b6565b60405180910390f35b34801561019857600080fd5b506101b360048036038101906101ae91906126d7565b610570565b6040516101c091906129f3565b60405180910390f35b6101e360048036038101906101de91906127d6565b6107be565b005b3480156101f157600080fd5b506101fa610ec1565b6040516102079190612adf565b60405180910390f35b34801561021c57600080fd5b50610237600480360381019061023291906127d6565b610ec7565b60405161024491906129d1565b60405180910390f35b34801561025957600080fd5b50610262610fb0565b60405161026f9190612adf565b60405180910390f35b34801561028457600080fd5b5061028d610fb6565b60405161029a9190612adf565b60405180910390f35b3480156102af57600080fd5b506102ca60048036038101906102c591906126ae565b610fbc565b6040516102d791906129f3565b60405180910390f35b3480156102ec57600080fd5b506102f561141d565b6040516103029190612adf565b60405180910390f35b34801561031757600080fd5b50610320611423565b005b34801561032e57600080fd5b50610349600480360381019061034491906127d6565b61167a565b60405161035b96959493929190612afa565b60405180910390f35b34801561037057600080fd5b5061037961176b565b005b61038361176d565b005b34801561039157600080fd5b506103ac60048036038101906103a791906127d6565b611fb3565b6040516103bc9493929190612a4c565b60405180910390f35b3480156103d157600080fd5b506103ec60048036038101906103e791906127d6565b612100565b6040516103f991906129f3565b60405180910390f35b34801561040e57600080fd5b506104176121a6565b6040516104249190612adf565b60405180910390f35b34801561043957600080fd5b50610454600480360381019061044f9190612743565b6121b0565b005b34801561046257600080fd5b5061046b612399565b6040516104789190612adf565b60405180910390f35b34801561048d57600080fd5b5061049661239f565b6040516104a39190612adf565b60405180910390f35b600080546104b990612e0c565b80601f01602080910402602001604051908101604052809291908181526020018280546104e590612e0c565b80156105325780601f1061050757610100808354040283529160200191610532565b820191906000526020600020905b81548152906001019060200180831161051557829003601f168201915b505050505081565b600a816003811061054a57600080fd5b016000915054906101000a900473ffffffffffffffffffffffffffffffffffffffff1681565b60606000839050600083905060008151835161058c9190612cc0565b67ffffffffffffffff8111156105cb577f4e487b7100000000000000000000000000000000000000000000000000000000600052604160045260246000fd5b6040519080825280601f01601f1916602001820160405280156105fd5781602001600182028036833780820191505090505b5090506000805b84518110156106d857848181518110610646577f4e487b7100000000000000000000000000000000000000000000000000000000600052603260045260246000fd5b602001015160f81c60f81b83838061065d90612e3e565b945081518110610696577f4e487b7100000000000000000000000000000000000000000000000000000000600052603260045260246000fd5b60200101907effffffffffffffffffffffffffffffffffffffffffffffffffffffffffffff1916908160001a90535080806106d090612e3e565b915050610604565b5060005b83518110156107b05783818151811061071e577f4e487b7100000000000000000000000000000000000000000000000000000000600052603260045260246000fd5b602001015160f81c60f81b83838061073590612e3e565b94508151811061076e577f4e487b7100000000000000000000000000000000000000000000000000000000600052603260045260246000fd5b60200101907effffffffffffffffffffffffffffffffffffffffffffffffffffffffffffff1916908160001a90535080806107a890612e3e565b9150506106dc565b508194505050505092915050565b6000600760008381526020019081526020016000206040518060e0016040529081600082015481526020016001820180546107f890612e0c565b80601f016020809104026020016040519081016040528092919081815260200182805461082490612e0c565b80156108715780601f1061084657610100808354040283529160200191610871565b820191906000526020600020905b81548152906001019060200180831161085457829003601f168201915b50505050508152602001600282015481526020016003820160009054906101000a900473ffffffffffffffffffffffffffffffffffffffff1673ffffffffffffffffffffffffffffffffffffffff1673ffffffffffffffffffffffffffffffffffffffff1681526020016003820160149054906101000a900460ff161515151581526020016004820154815260200160058201600380602002604051908101604052809291906000905b828210156109be57838201805461093190612e0c565b80601f016020809104026020016040519081016040528092919081815260200182805461095d90612e0c565b80156109aa5780601f1061097f576101008083540402835291602001916109aa565b820191906000526020600020905b81548152906001019060200180831161098d57829003601f168201915b50505050508152602001906001019061091b565b50505050815250509050600081606001519050600082600001511180156109eb5750600154826000015111155b6109f457600080fd5b8160400151341015610a0557600080fd5b816080015115610a4a576040517f08c379a0000000000000000000000000000000000000000000000000000000008152600401610a4190612abf565b60405180910390fd5b3373ffffffffffffffffffffffffffffffffffffffff168173ffffffffffffffffffffffffffffffffffffffff161415610ab9576040517f08c379a0000000000000000000000000000000000000000000000000000000008152600401610ab090612a9f565b60405180910390fd5b33826060019073ffffffffffffffffffffffffffffffffffffffff16908173ffffffffffffffffffffffffffffffffffffffff168152505060018260a001818151610b049190612cc0565b91508181525050610b188260600151610fbc565b8260c001518360a0015160038110610b59577f4e487b7100000000000000000000000000000000000000000000000000000000600052603260045260246000fd5b60200201819052508160076000858152602001908152602001600020600082015181600001556020820151816001019080519060200190610b9b9291906123a5565b506040820151816002015560608201518160030160006101000a81548173ffffffffffffffffffffffffffffffffffffffff021916908373ffffffffffffffffffffffffffffffffffffffff16021790555060808201518160030160146101000a81548160ff02191690831515021790555060a0820151816004015560c082015181600501906003610c2e92919061242b565b5090505060028260a0015110610d7f5760018260800190151590811515815250508160076000858152602001908152602001600020600082015181600001556020820151816001019080519060200190610c899291906123a5565b506040820151816002015560608201518160030160006101000a81548173ffffffffffffffffffffffffffffffffffffffff021916908373ffffffffffffffffffffffffffffffffffffffff16021790555060808201518160030160146101000a81548160ff02191690831515021790555060a0820151816004015560c082015181600501906003610d1c92919061242b565b509050507fcbe37aac5d4b7f4123ead5b25660f15fc35685375eec76ab442b278c9d26aec060015483602001518460400151856060015160018760a001518860c00151604051610d729796959493929190612b62565b60405180910390a1610ebc565b60008260800190151590811515815250508160076000858152602001908152602001600020600082015181600001556020820151816001019080519060200190610dca9291906123a5565b506040820151816002015560608201518160030160006101000a81548173ffffffffffffffffffffffffffffffffffffffff021916908373ffffffffffffffffffffffffffffffffffffffff16021790555060808201518160030160146101000a81548160ff02191690831515021790555060a0820151816004015560c082015181600501906003610e5d92919061242b565b509050507fcbe37aac5d4b7f4123ead5b25660f15fc35685375eec76ab442b278c9d26aec060015483602001518460400151856060015160008760a001518860c00151604051610eb39796959493929190612b62565b60405180910390a15b505050565b60045481565b610ecf61247e565b600060076000848152602001908152602001600020905080600501600380602002604051908101604052809291906000905b82821015610fa4578382018054610f1790612e0c565b80601f0160208091040260200160405190810160405280929190818152602001828054610f4390612e0c565b8015610f905780601f10610f6557610100808354040283529160200191610f90565b820191906000526020600020905b815481529060010190602001808311610f7357829003601f168201915b505050505081526020019060010190610f01565b50505050915050919050565b60025481565b60055481565b606060008273ffffffffffffffffffffffffffffffffffffffff1660001b905060006040518060400160405280601081526020017f303132333435363738396162636465660000000000000000000000000000000081525090506000602a67ffffffffffffffff811115611059577f4e487b7100000000000000000000000000000000000000000000000000000000600052604160045260246000fd5b6040519080825280601f01601f19166020018201604052801561108b5781602001600182028036833780820191505090505b5090507f3000000000000000000000000000000000000000000000000000000000000000816000815181106110e9577f4e487b7100000000000000000000000000000000000000000000000000000000600052603260045260246000fd5b60200101907effffffffffffffffffffffffffffffffffffffffffffffffffffffffffffff1916908160001a9053507f780000000000000000000000000000000000000000000000000000000000000081600181518110611173577f4e487b7100000000000000000000000000000000000000000000000000000000600052603260045260246000fd5b60200101907effffffffffffffffffffffffffffffffffffffffffffffffffffffffffffff1916908160001a90535060005b60148110156114115782600485600c846111bf9190612cc0565b602081106111f6577f4e487b7100000000000000000000000000000000000000000000000000000000600052603260045260246000fd5b1a60f81b7effffffffffffffffffffffffffffffffffffffffffffffffffffffffffffff1916901c60f81c60ff168151811061125b577f4e487b7100000000000000000000000000000000000000000000000000000000600052603260045260246000fd5b602001015160f81c60f81b826002836112749190612d16565b60026112809190612cc0565b815181106112b7577f4e487b7100000000000000000000000000000000000000000000000000000000600052603260045260246000fd5b60200101907effffffffffffffffffffffffffffffffffffffffffffffffffffffffffffff1916908160001a90535082600f60f81b85600c846112fa9190612cc0565b60208110611331577f4e487b7100000000000000000000000000000000000000000000000000000000600052603260045260246000fd5b1a60f81b1660f81c60ff1681518110611373577f4e487b7100000000000000000000000000000000000000000000000000000000600052603260045260246000fd5b602001015160f81c60f81b8260028361138c9190612d16565b60036113989190612cc0565b815181106113cf577f4e487b7100000000000000000000000000000000000000000000000000000000600052603260045260246000fd5b60200101907effffffffffffffffffffffffffffffffffffffffffffffffffffffffffffff1916908160001a905350808061140990612e3e565b9150506111a5565b50809350505050919050565b60035481565b61142b6124a5565b60005b60035481101561167657600760008281526020019081526020016000206040518060e00160405290816000820154815260200160018201805461147090612e0c565b80601f016020809104026020016040519081016040528092919081815260200182805461149c90612e0c565b80156114e95780601f106114be576101008083540402835291602001916114e9565b820191906000526020600020905b8154815290600101906020018083116114cc57829003601f168201915b50505050508152602001600282015481526020016003820160009054906101000a900473ffffffffffffffffffffffffffffffffffffffff1673ffffffffffffffffffffffffffffffffffffffff1673ffffffffffffffffffffffffffffffffffffffff1681526020016003820160149054906101000a900460ff161515151581526020016004820154815260200160058201600380602002604051908101604052809291906000905b828210156116365783820180546115a990612e0c565b80601f01602080910402602001604051908101604052809291908181526020018280546115d590612e0c565b80156116225780601f106115f757610100808354040283529160200191611622565b820191906000526020600020905b81548152906001019060200180831161160557829003601f168201915b505050505081526020019060010190611593565b5050505081525050915060405180602001604052806000815250826020018190525060008260a0018181525050808061166e90612e3e565b91505061142e565b5050565b60076020528060005260406000206000915090508060000154908060010180546116a390612e0c565b80601f01602080910402602001604051908101604052809291908181526020018280546116cf90612e0c565b801561171c5780601f106116f15761010080835404028352916020019161171c565b820191906000526020600020905b8154815290600101906020018083116116ff57829003601f168201915b5050505050908060020154908060030160009054906101000a900473ffffffffffffffffffffffffffffffffffffffff16908060030160149054906101000a900460ff16908060040154905086565b565b60005b600354811015611827576000600a82600381106117b6577f4e487b7100000000000000000000000000000000000000000000000000000000600052603260045260246000fd5b0160009054906101000a900473ffffffffffffffffffffffffffffffffffffffff1690503373ffffffffffffffffffffffffffffffffffffffff168173ffffffffffffffffffffffffffffffffffffffff16141561181357600080fd5b50808061181f90612e3e565b915050611770565b5033600a60035460038110611865577f4e487b7100000000000000000000000000000000000000000000000000000000600052603260045260246000fd5b0160006101000a81548173ffffffffffffffffffffffffffffffffffffffff021916908373ffffffffffffffffffffffffffffffffffffffff160217905550600360008154809291906118b790612e3e565b91905055506118c4612500565b600160035410611f77576118d66124a5565b60006004819055506000600190505b6001548111611be657600760008281526020019081526020016000206040518060e00160405290816000820154815260200160018201805461192690612e0c565b80601f016020809104026020016040519081016040528092919081815260200182805461195290612e0c565b801561199f5780601f106119745761010080835404028352916020019161199f565b820191906000526020600020905b81548152906001019060200180831161198257829003601f168201915b50505050508152602001600282015481526020016003820160009054906101000a900473ffffffffffffffffffffffffffffffffffffffff1673ffffffffffffffffffffffffffffffffffffffff1673ffffffffffffffffffffffffffffffffffffffff1681526020016003820160149054906101000a900460ff161515151581526020016004820154815260200160058201600380602002604051908101604052809291906000905b82821015611aec578382018054611a5f90612e0c565b80601f0160208091040260200160405190810160405280929190818152602001828054611a8b90612e0c565b8015611ad85780601f10611aad57610100808354040283529160200191611ad8565b820191906000526020600020905b815481529060010190602001808311611abb57829003601f168201915b505050505081526020019060010190611a49565b5050505081525050915060028260a0015110611bc857816020015183600001819052508160c00151836020018190525060046000815480929190611b2f90612e3e565b9190505550826009600060045481526020019081526020016000206000820151816000019080519060200190611b669291906123a5565b50602082015181600101906003611b7e92919061242b565b509050507f797fcd15847b5f626aa2d0cd1724efae5dd87d749b6ebeef9949df672b422aeb83600001518460200151604051611bbb929190612a15565b60405180910390a1611bd3565b611bd06124a5565b91505b8080611bde90612e3e565b9150506118e5565b506000604051806020016040528060008152509050611c0361247e565b6000600190505b6004548111611da35760096000828152602001908152602001600020600101600380602002604051908101604052809291906000905b82821015611ce3578382018054611c5690612e0c565b80601f0160208091040260200160405190810160405280929190818152602001828054611c8290612e0c565b8015611ccf5780601f10611ca457610100808354040283529160200191611ccf565b820191906000526020600020905b815481529060010190602001808311611cb257829003601f168201915b505050505081526020019060010190611c40565b50505050915060005b6003811015611d8f57611d7a84611d756040518060400160405280600181526020017f2000000000000000000000000000000000000000000000000000000000000000815250868560038110611d6b577f4e487b7100000000000000000000000000000000000000000000000000000000600052603260045260246000fd5b6020020151610570565b610570565b93508080611d8790612e3e565b915050611cec565b508080611d9b90612e3e565b915050611c0a565b50600060405180602001604052806000815250905060006040518060400160405280600181526020017f200000000000000000000000000000000000000000000000000000000000000081525090506000600190505b6004548111611ec857611eb383611eae84600960008681526020019081526020016000206000018054611e2b90612e0c565b80601f0160208091040260200160405190810160405280929190818152602001828054611e5790612e0c565b8015611ea45780601f10611e7957610100808354040283529160200191611ea4565b820191906000526020600020905b815481529060010190602001808311611e8757829003601f168201915b5050505050610570565b610570565b92508080611ec090612e3e565b915050611df9565b50816008600060065481526020019081526020016000206000019080519060200190611ef59291906123a5565b50836008600060065481526020019081526020016000206003019080519060200190611f229291906123a5565b5060026008600060065481526020019081526020016000206001018190555060066000815480929190611f5490612e3e565b9190505550611f61611423565b6000600381905550600060018190555050505050505b7fec859db5a3c1ca3ee301d012a70f0e287a104754cd2f264283bb84531f0eed54600354604051611fa89190612adf565b60405180910390a150565b6008602052806000526040600020600091509050806000018054611fd690612e0c565b80601f016020809104026020016040519081016040528092919081815260200182805461200290612e0c565b801561204f5780601f106120245761010080835404028352916020019161204f565b820191906000526020600020905b81548152906001019060200180831161203257829003601f168201915b5050505050908060010154908060020160009054906101000a900460ff169080600301805461207d90612e0c565b80601f01602080910402602001604051908101604052809291908181526020018280546120a990612e0c565b80156120f65780601f106120cb576101008083540402835291602001916120f6565b820191906000526020600020905b8154815290600101906020018083116120d957829003601f168201915b5050505050905084565b600960205280600052604060002060009150905080600001805461212390612e0c565b80601f016020809104026020016040519081016040528092919081815260200182805461214f90612e0c565b801561219c5780601f106121715761010080835404028352916020019161219c565b820191906000526020600020905b81548152906001019060200180831161217f57829003601f168201915b5050505050905081565b6000600354905090565b60008451116121be57600080fd5b600083116121cb57600080fd5b600160008154809291906121de90612e3e565b91905055506121ec33610fbc565b818360038110612225577f4e487b7100000000000000000000000000000000000000000000000000000000600052603260045260246000fd5b60200201819052506040518060e0016040528060015481526020018581526020018481526020013373ffffffffffffffffffffffffffffffffffffffff168152602001600015158152602001838152602001828152506007600060015481526020019081526020016000206000820151816000015560208201518160010190805190602001906122b69291906123a5565b506040820151816002015560608201518160030160006101000a81548173ffffffffffffffffffffffffffffffffffffffff021916908373ffffffffffffffffffffffffffffffffffffffff16021790555060808201518160030160146101000a81548160ff02191690831515021790555060a0820151816004015560c08201518160050190600361234992919061242b565b509050507f724a7f3b7bc135399b5ba2a1305c52ce76299c03071123034f67acddc3becef16001548585336000878760405161238b9796959493929190612b62565b60405180910390a150505050565b60015481565b60065481565b8280546123b190612e0c565b90600052602060002090601f0160209004810192826123d3576000855561241a565b82601f106123ec57805160ff191683800117855561241a565b8280016001018555821561241a579182015b828111156124195782518255916020019190600101906123fe565b5b5090506124279190612520565b5090565b826003810192821561246d579160200282015b8281111561246c57825182908051906020019061245c9291906123a5565b509160200191906001019061243e565b5b50905061247a919061253d565b5090565b60405180606001604052806003905b606081526020019060019003908161248d5790505090565b6040518060e00160405280600081526020016060815260200160008152602001600073ffffffffffffffffffffffffffffffffffffffff168152602001600015158152602001600081526020016124fa61247e565b81525090565b60405180604001604052806060815260200161251a61247e565b81525090565b5b80821115612539576000816000905550600101612521565b5090565b5b8082111561255d57600081816125549190612561565b5060010161253e565b5090565b50805461256d90612e0c565b6000825580601f1061257f575061259e565b601f01602090049060005260206000209081019061259d9190612520565b5b50565b60006125b46125af84612c10565b612bdf565b9050808260005b858110156125eb57813585016125d1888261266f565b8452602084019350602083019250506001810190506125bb565b5050509392505050565b600061260861260384612c36565b612bdf565b90508281526020810184848401111561262057600080fd5b61262b848285612dca565b509392505050565b60008135905061264281612f25565b92915050565b600082601f83011261265957600080fd5b60036126668482856125a1565b91505092915050565b600082601f83011261268057600080fd5b81356126908482602086016125f5565b91505092915050565b6000813590506126a881612f3c565b92915050565b6000602082840312156126c057600080fd5b60006126ce84828501612633565b91505092915050565b600080604083850312156126ea57600080fd5b600083013567ffffffffffffffff81111561270457600080fd5b6127108582860161266f565b925050602083013567ffffffffffffffff81111561272d57600080fd5b6127398582860161266f565b9150509250929050565b6000806000806080858703121561275957600080fd5b600085013567ffffffffffffffff81111561277357600080fd5b61277f8782880161266f565b945050602061279087828801612699565b93505060406127a187828801612699565b925050606085013567ffffffffffffffff8111156127be57600080fd5b6127ca87828801612648565b91505092959194509250565b6000602082840312156127e857600080fd5b60006127f684828501612699565b91505092915050565b600061280b83836128b5565b905092915050565b61281c81612d82565b82525050565b61282b81612d70565b82525050565b600061283c82612c70565b6128468185612c93565b93508360208202850161285885612c66565b8060005b85811015612894578484038952815161287585826127ff565b945061288083612c86565b925060208a0199505060018101905061285c565b50829750879550505050505092915050565b6128af81612d94565b82525050565b60006128c082612c7b565b6128ca8185612c9e565b93506128da818560208601612dd9565b6128e381612f14565b840191505092915050565b60006128f982612c7b565b6129038185612caf565b9350612913818560208601612dd9565b61291c81612f14565b840191505092915050565b6000612934600f83612caf565b91507f416c7265616479207570766f74656400000000000000000000000000000000006000830152602082019050919050565b6000612974601f83612caf565b91507f596f752063616e6e6f74207570766f746520796f75722073656e74656e6365006000830152602082019050919050565b6129b081612dc0565b82525050565b60006020820190506129cb6000830184612822565b92915050565b600060208201905081810360008301526129eb8184612831565b905092915050565b60006020820190508181036000830152612a0d81846128ee565b905092915050565b60006040820190508181036000830152612a2f81856128ee565b90508181036020830152612a438184612831565b90509392505050565b60006080820190508181036000830152612a6681876128ee565b9050612a7560208301866129a7565b612a8260408301856128a6565b8181036060830152612a9481846128ee565b905095945050505050565b60006020820190508181036000830152612ab881612927565b9050919050565b60006020820190508181036000830152612ad881612967565b9050919050565b6000602082019050612af460008301846129a7565b92915050565b600060c082019050612b0f60008301896129a7565b8181036020830152612b2181886128ee565b9050612b3060408301876129a7565b612b3d6060830186612813565b612b4a60808301856128a6565b612b5760a08301846129a7565b979650505050505050565b600060e082019050612b77600083018a6129a7565b8181036020830152612b8981896128ee565b9050612b9860408301886129a7565b612ba56060830187612813565b612bb260808301866128a6565b612bbf60a08301856129a7565b81810360c0830152612bd18184612831565b905098975050505050505050565b6000604051905081810181811067ffffffffffffffff82111715612c0657612c05612ee5565b5b8060405250919050565b600067ffffffffffffffff821115612c2b57612c2a612ee5565b5b602082029050919050565b600067ffffffffffffffff821115612c5157612c50612ee5565b5b601f19601f8301169050602081019050919050565b6000819050919050565b600060039050919050565b600081519050919050565b6000602082019050919050565b600081905092915050565b600082825260208201905092915050565b600082825260208201905092915050565b6000612ccb82612dc0565b9150612cd683612dc0565b9250827fffffffffffffffffffffffffffffffffffffffffffffffffffffffffffffffff03821115612d0b57612d0a612e87565b5b828201905092915050565b6000612d2182612dc0565b9150612d2c83612dc0565b9250817fffffffffffffffffffffffffffffffffffffffffffffffffffffffffffffffff0483118215151615612d6557612d64612e87565b5b828202905092915050565b6000612d7b82612da0565b9050919050565b6000612d8d82612da0565b9050919050565b60008115159050919050565b600073ffffffffffffffffffffffffffffffffffffffff82169050919050565b6000819050919050565b82818337600083830152505050565b60005b83811015612df7578082015181840152602081019050612ddc565b83811115612e06576000848401525b50505050565b60006002820490506001821680612e2457607f821691505b60208210811415612e3857612e37612eb6565b5b50919050565b6000612e4982612dc0565b91507fffffffffffffffffffffffffffffffffffffffffffffffffffffffffffffffff821415612e7c57612e7b612e87565b5b600182019050919050565b7f4e487b7100000000000000000000000000000000000000000000000000000000600052601160045260246000fd5b7f4e487b7100000000000000000000000000000000000000000000000000000000600052602260045260246000fd5b7f4e487b7100000000000000000000000000000000000000000000000000000000600052604160045260246000fd5b6000601f19601f8301169050919050565b612f2e81612d70565b8114612f3957600080fd5b50565b612f4581612dc0565b8114612f5057600080fd5b5056fea2646970667358221220601103363698160c6d980d38eda2de319e50e969933d76d3e99291771e59da6264736f6c63430008000033",
  "immutableReferences": {},
  "source": "pragma solidity ^0.8.0;\r\n\r\n\r\n//TODO\r\n//Add another table with stories, authors, buy button\r\n//convert contributors to string array and get the size\r\n//get the buyer address\r\n//transfer the ownership\r\n//split the sale\r\n//display the buy button\r\ncontract Marketplace {\r\n\tstring public name;\r\n\tuint public productCount = 0;\r\n\tuint public storyCount = 0;\r\n\tuint public vote_end = 0;\r\n\tuint public SentenceCount = 0;\r\n\tuint public num = 0;\r\n\tuint public historyProdCount = 0;\r\n\tmapping(uint => Product) public products;\r\n\tmapping(uint => CompleteStory) public products_historical;\r\n\t//link story in historical to the contributors\r\n\t//string public authors;\r\n\tmapping(uint => Sentence) public story;\r\n\taddress[3] public voters_end;\r\n\tstruct Product {\r\n\t\tuint id;\r\n\t\tstring name;\r\n\t\tuint price;\r\n\t\taddress payable owner;\r\n\t\tbool purchased;\r\n\t\tuint upvotes;\r\n\t\tstring[3] contributors;\r\n\t}\r\n\tstruct Sentence {\r\n\t\tstring name;\r\n\t\tstring [3] authors;\r\n\t}\r\n\tstruct CompleteStory {\r\n\t\tstring fullS;\r\n\t\tuint price;\r\n\t\tbool purchased;\r\n\t\tstring authors;\r\n\t}\r\n\r\n\tevent StoryCreated(\r\n\t\t\r\n\t\tstring name,\r\n\t\tstring[3] authors\t\r\n\t);\r\n\r\n\tevent PriceAdded(\r\n\t\tstring fullS,\r\n\t\tuint price,\r\n\t\tbool purchased,\r\n\t\tstring authors\r\n\t\t);\r\n\r\n\tevent ProductCreated(\r\n\t\tuint id,\r\n\t\tstring name,\r\n\t\tuint price,\r\n\t\taddress payable owner,\r\n\t\tbool purchased,\r\n\t\tuint upvotes,\r\n\t\tstring[3] contributors\t\r\n\t);\r\n\r\n\tevent upVote(\r\n\t\tuint vote\r\n\t);\r\n\r\n\tevent ProductPurchased(\r\n\t\tuint id,\r\n\t\tstring name,\r\n\t\tuint price,\r\n\t\taddress payable owner,\r\n\t\tbool purchased,\r\n\t\tuint upvotes,\r\n\t\tstring[3] contributors\r\n\t);\r\n\r\n\tstruct voteEnd{\r\n\t\tuint votes;\r\n\t}\r\n\t\r\n\r\n\tconstructor() {\r\n\t\tname = \"exquisite corpse\";\r\n\t\t//products_historical ='';\r\n\t\tvote_end = 0;\r\n\t}\r\n\r\n\tfunction getArr(uint _id) public view returns (string[3] memory) {\r\n\t\tProduct storage myProduct = products[_id];\r\n    \treturn myProduct.contributors;\r\n\t}\r\n\r\n// \tfunction strConcat(string memory _a, string memory _b, string memory _c, string memory _d, string memory _e) internal pure returns (string memory){\r\n//     bytes memory _ba = bytes(_a);\r\n//     bytes memory _bb = bytes(_b);\r\n//     bytes memory _bc = bytes(_c);\r\n//     bytes memory _bd = bytes(_d);\r\n//     bytes memory _be = bytes(_e);\r\n//     string memory abcde = new string(_ba.length + _bb.length + _bc.length + _bd.length + _be.length);\r\n//     bytes memory babcde = bytes(abcde);\r\n//     uint k = 0;\r\n// \tuint i = 0;\r\n//     for (i = 0; i < _ba.length; i++) babcde[k++] = _ba[i];\r\n//     for (i = 0; i < _bb.length; i++) babcde[k++] = _bb[i];\r\n//     for (i = 0; i < _bc.length; i++) babcde[k++] = _bc[i];\r\n//     for (i = 0; i < _bd.length; i++) babcde[k++] = _bd[i];\r\n//     for (i = 0; i < _be.length; i++) babcde[k++] = _be[i];\r\n//     return string(babcde);\r\n// \t}\r\n\r\n// \tfunction strConcat(string memory _a, string memory _b) internal pure returns (string memory) {\r\n//     return strConcat(_a, _b, \"\", \"\", \"\");\r\n// }\r\n\r\n\tfunction concatenate(string memory a, string memory b) public pure returns (string memory) {\r\n        bytes memory aa = bytes(a);\r\n        bytes memory bb = bytes(b);\r\n        bytes memory result = new bytes(aa.length + bb.length);\r\n        uint k = 0;\r\n        for (uint i = 0; i < aa.length; i++) {\r\n            result[k++] = aa[i];\r\n        }\r\n        for (uint i = 0; i < bb.length; i++) {\r\n            result[k++] = bb[i];\r\n        }\r\n        return string(result);\r\n    }\r\n\tfunction toString(uint _i) internal pure returns (string memory _uintAsString) {\r\n        if (_i == 0) {\r\n            return \"0\";\r\n        }\r\n        uint j = _i;\r\n        uint len;\r\n        while (j != 0) {\r\n            len++;\r\n            j /= 10;\r\n        }\r\n        bytes memory bstr = new bytes(len);\r\n        uint k = len;\r\n        while (_i != 0) {\r\n            k = k-1;\r\n            uint8 temp = (48 + uint8(_i - _i / 10 * 10));\r\n            bytes1 b1 = bytes1(temp);\r\n            bstr[k] = b1;\r\n            _i /= 10;\r\n        }\r\n        return string(bstr);\r\n    }\r\n\tfunction addressToString(address _addr) public pure returns (string memory) {\r\n\t\tbytes32 value = bytes32(uint256(uint160(_addr)));\r\n\t\tbytes memory alphabet = \"0123456789abcdef\";\r\n\r\n\t\tbytes memory str = new bytes(42);\r\n\t\tstr[0] = '0';\r\n\t\tstr[1] = 'x';\r\n\t\tfor (uint i = 0; i < 20; i++) {\r\n\t\t\tstr[2+i*2] = alphabet[uint8(value[i + 12] >> 4)];\r\n\t\t\tstr[3+i*2] = alphabet[uint8(value[i + 12] & 0x0f)];\r\n\t\t}\r\n\t\treturn string(str);\r\n\t}\r\n\r\n\tfunction createVoteEnd() public payable {\r\n    //string storage senderString = toString(msg.sender);\r\n\t//check not similar voters\r\n    for (uint i = 0; i < vote_end; i++) {\r\n\t\taddress voterA = voters_end[i];\r\n        require( voterA != msg.sender);\r\n    }\r\n\t\tvoters_end[vote_end] = msg.sender;\r\n\t\tvote_end++;\r\n\t\tSentence memory _sentence;\r\n\t\t//transfer to past stories\r\n\t\tif(vote_end >= 1){\r\n\t\t\tProduct memory _product;\r\n\t\t\tSentenceCount = 0;\r\n\t\t\tfor(uint i = 1; i <= productCount; i++){\r\n\t\t\t\t_product = products[i];\r\n\t\t\t\tif(_product.upvotes >= 2){\r\n\t\t\t\t\t//move products as sentences in the story\r\n\t\t\t\t\t_sentence.name = _product.name;\r\n\t\t\t\t\t_sentence.authors = _product.contributors;\r\n\t\t\t\t\tSentenceCount++;\r\n\t\t\t\t\tstory[SentenceCount] = _sentence;\r\n\t\t\t\t\t\r\n\t\t\t\t\t//make the first sentence have all the authors\r\n\t\t\t\t\temit StoryCreated(_sentence.name, _sentence.authors);\r\n\t\t\t\t}\r\n\t\t\t\telse {\r\n\t\t\t\t\tdelete _product;\r\n\t\t\t\t\t\r\n\t\t\t\t}\r\n\r\n\t\t\t}\r\n\t\t\t//store the authors in one address array\r\n\t\t\tstring memory store_authors = \"\";\r\n\t\t\tstring[3] memory temp;\r\n\t\t\tfor(uint i = 1; i <= SentenceCount; i++) {\r\n\t\t\t\ttemp = story[i].authors;\r\n\t\t\t\tfor(uint j = 0; j < 3; j++) {\r\n\t\t\t\t\tstore_authors = concatenate(store_authors, concatenate(\" \", temp[j]));\r\n\t\t\t\t}\r\n\t\t\t}\r\n\t\t\t// //concate all sentences in one string\r\n\t\t\tstring memory full_story = \"\";\r\n\t\t\tstring memory space = \" \";\r\n\t\t\t//string memory full_story;\r\n\t\t\tfor (uint j = 1; j <= SentenceCount; j++) {\r\n\t\t\t\tfull_story = concatenate(full_story, concatenate(space, story[j].name));\r\n\t\t\t}\r\n\t\t\t\r\n\t\t\t//add the story string\r\n\t\t\tproducts_historical[historyProdCount].fullS = full_story;\r\n\t\t\tproducts_historical[historyProdCount].authors = store_authors;\r\n\t\t\tproducts_historical[historyProdCount].price = 2;\r\n\r\n\t\t\t//add the authors\r\n\t\t\thistoryProdCount++; \r\n\t\t\t\r\n\t\t\t//products_historical = strConcat(products_historical, \"\\n\\n\");\r\n\t\t\tresetProducts();\r\n\t\t\tvote_end = 0;\r\n\t\t\tproductCount = 0;\r\n\t\t\r\n\t\t} \r\n\t\t\r\n\t\temit upVote(vote_end);\r\n\t}\r\n\tfunction getAuthors() public view {\r\n\r\n\r\n\t}\r\n\r\n\tfunction getCurrentVote() public view returns (uint) {\r\n\t\t// portion where we plug in tufts account\r\n\t\t// address(_seller).transfer(msg.value);\r\n\t\treturn vote_end;\r\n\t}\r\n\t\r\n\t// function checkVotesLoad() public{\r\n\t// \tProduct memory _product;\r\n\t// \tfor(uint i = 0; i < vote_end; i++){\r\n\t// \t\t_product = products[i];\r\n\t// \t\tif(_product.upvotes >= 2){\r\n\t// \t\t\t\thistoryProdCount++;\r\n\t// \t\t\t\t_product = products[i];\r\n \t// \t\t\t\tproducts_historical[historyProdCount] = _product;\r\n\t// \t\t}\r\n\t// \t}\r\n\t// }\r\n\r\n\tfunction resetProducts() public view{\r\n\t\tProduct memory _product;\r\n\t\tfor(uint i = 0; i < vote_end; i++){\r\n\t\t\t_product = products[i];\r\n\t\t\t_product.name = \"\";\r\n\t\t\t_product.upvotes = 0;\r\n\t\t}\r\n\t}\r\n\r\n\r\n\tfunction createProduct(string memory _name, uint _price, uint upvotes, string[3] memory contributors) public {\r\n\t\t// require a name\r\n\t\trequire(bytes(_name).length > 0);\r\n\t\t// require a valid price\r\n\t\trequire(_price > 0);\r\n\t\t// make sure params good\r\n\t\t// inc products count\r\n\t\tproductCount++;\r\n\t\t//add owner to contributors\r\n\t\tcontributors[upvotes] = addressToString(msg.sender);\r\n\t\t// create the product\r\n\t\tproducts[productCount] = Product(productCount, _name, _price, payable(msg.sender), false, upvotes, contributors);\r\n\t\t// trigger an event\t\r\n\t\temit ProductCreated(productCount, _name, _price, payable(msg.sender), false, upvotes, contributors);\r\n\t}\r\n\r\n\tfunction purchaseProduct(uint _id) public payable {\r\n\t\t// fetch product\r\n\t\tProduct memory _product = products[_id];\t\r\n\t\t// fetch the owner\r\n\t\taddress _seller = _product.owner;\r\n\t\t\r\n\t\t// make sure the product has a valid id\r\n\t\trequire(_product.id > 0 && _product.id <= productCount);\r\n\t\t// make sure they sent enough ether\r\n\t\trequire(msg.value >= _product.price);\r\n\t\t// require product has not already been purchased\r\n\t\trequire(!_product.purchased, \"You cannot upvote your sentence\");\r\n\t\t// require that the buyer is not the seller\r\n\t\trequire(_seller != msg.sender, \"Already upvoted\");\r\n\t\t// require that the buyer is not a previous contributor (i.e already upvoted)\r\n\t\t\r\n\r\n\t\t// purchase it -> transfer ownership to buyer\r\n\t\t_product.owner = payable(msg.sender);\r\n\t\t// mark as purchased\r\n\t\t// increment upvotes of product\r\n\t\t_product.upvotes += 1;\r\n\t\t//add purchaser to contributors\r\n\t\t_product.contributors[_product.upvotes] = addressToString(_product.owner);\r\n\t\t//update the product\r\n\t\tproducts[_id] = _product;\r\n\t\t\r\n\t\t// products[_id] = Product(productCount,\r\n\t\t// _product.name, _product.price, \r\n\t\t// _product.owner, false, \r\n\t\t// _product.upvotes, \r\n\t\t// _product.contributors);\r\n\r\n\t\tif(_product.upvotes >= 2){\r\n\t\t\t_product.purchased = true;\r\n\t\t\t// products[_id] = Product(productCount,\r\n\t\t\t// _product.name, _product.price, \r\n\t\t\t// _product.owner, true, \r\n\t\t\t// _product.upvotes, \r\n\t\t\t// _product.contributors);\r\n\t\t\tproducts[_id] = _product;\r\n\t\t\temit ProductPurchased(productCount, _product.name, _product.price, _product.owner, true, _product.upvotes, _product.contributors);\r\n\t\t}\r\n\t\telse {\r\n\t\t\t_product.purchased = false;\r\n\t\t\tproducts[_id] = _product;\r\n\t\t\temit ProductPurchased(productCount, _product.name, _product.price, _product.owner, false, _product.upvotes, _product.contributors);\r\n\t\t\t//emit ProductCreated(productCount, _product.name, _product.price, _product.owner, false, _product.upvotes, _product.contributors);\r\n\t\t}\t\r\n\t}\r\n\r\n\r\n\r\n\r\n// function sellStory(string memory _name, uint _price,string memory authors) public {\r\n// \trequire(bytes(_name).length > 0);\r\n// \t\t// require a valid price\r\n// \trequire(_price > 0);\r\n\r\n// // }\r\n// function createStory(uint id, uint _price) public {\r\n// \t\t// require a name\r\n// \t\t//require(bytes(_name).length > 0);\r\n// \t\t// require a valid price\r\n// \t\trequire(_price > 0);\r\n// \t\t// make sure params good\r\n// \t\t// inc products count\r\n// \t\t//storyCount++;\r\n// \t\t// //add owner to contributors\r\n// \t\t// contributors[upvotes] = addressToString(msg.sender);\r\n// \t\t// create the product\r\n// \t\tproducts_historical[id].price = _price;\r\n// \t\t// trigger an event\t\r\n// \t\temit PriceAdded(products_historical[id].fullS, _price, false, products_historical[id].authors);\r\n// \t}\r\n }",
  "sourcePath": "C:/Users/baran/blockchain/corpse_a/corpseNNN/src/contracts/Marketplace.sol",
  "compiler": {
    "name": "solc",
    "version": "0.8.0+commit.c7dfd78e.Emscripten.clang"
  },
  "schemaVersion": "3.3.3",
  "updatedAt": "2023-07-01T19:55:07.077Z",
  "networkType": "ethereum",
  "devdoc": {
    "kind": "dev",
    "methods": {},
    "version": 1
  },
  "userdoc": {
    "kind": "user",
    "methods": {},
    "version": 1
  }
}