{
  "contractName": "Marketplace",
  "abi": [
    {
      "inputs": [],
      "stateMutability": "nonpayable",
      "type": "constructor"
    },
    {
      "anonymous": false,
      "inputs": [
        {
          "indexed": false,
          "internalType": "uint256",
          "name": "id",
          "type": "uint256"
        },
        {
          "indexed": false,
          "internalType": "string",
          "name": "name",
          "type": "string"
        },
        {
          "indexed": false,
          "internalType": "uint256",
          "name": "price",
          "type": "uint256"
        },
        {
          "indexed": false,
          "internalType": "address payable",
          "name": "owner",
          "type": "address"
        },
        {
          "indexed": false,
          "internalType": "bool",
          "name": "purchased",
          "type": "bool"
        },
        {
          "indexed": false,
          "internalType": "uint256",
          "name": "upvotes",
          "type": "uint256"
        },
        {
          "indexed": false,
          "internalType": "string[3]",
          "name": "contributors",
          "type": "string[3]"
        }
      ],
      "name": "ProductCreated",
      "type": "event"
    },
    {
      "anonymous": false,
      "inputs": [
        {
          "indexed": false,
          "internalType": "uint256",
          "name": "id",
          "type": "uint256"
        },
        {
          "indexed": false,
          "internalType": "string",
          "name": "name",
          "type": "string"
        },
        {
          "indexed": false,
          "internalType": "uint256",
          "name": "price",
          "type": "uint256"
        },
        {
          "indexed": false,
          "internalType": "address payable",
          "name": "owner",
          "type": "address"
        },
        {
          "indexed": false,
          "internalType": "bool",
          "name": "purchased",
          "type": "bool"
        },
        {
          "indexed": false,
          "internalType": "uint256",
          "name": "upvotes",
          "type": "uint256"
        },
        {
          "indexed": false,
          "internalType": "string[3]",
          "name": "contributors",
          "type": "string[3]"
        }
      ],
      "name": "ProductPurchased",
      "type": "event"
    },
    {
      "anonymous": false,
      "inputs": [
        {
          "indexed": false,
          "internalType": "string",
          "name": "name",
          "type": "string"
        },
        {
          "indexed": false,
          "internalType": "string[3]",
          "name": "authors",
          "type": "string[3]"
        }
      ],
      "name": "StoryCreated",
      "type": "event"
    },
    {
      "anonymous": false,
      "inputs": [
        {
          "indexed": false,
          "internalType": "uint256",
          "name": "vote",
          "type": "uint256"
        }
      ],
      "name": "upVote",
      "type": "event"
    },
    {
      "inputs": [],
      "name": "SentenceCount",
      "outputs": [
        {
          "internalType": "uint256",
          "name": "",
          "type": "uint256"
        }
      ],
      "stateMutability": "view",
      "type": "function",
      "constant": true
    },
    {
      "inputs": [],
      "name": "historyProdCount",
      "outputs": [
        {
          "internalType": "uint256",
          "name": "",
          "type": "uint256"
        }
      ],
      "stateMutability": "view",
      "type": "function",
      "constant": true
    },
    {
      "inputs": [],
      "name": "name",
      "outputs": [
        {
          "internalType": "string",
          "name": "",
          "type": "string"
        }
      ],
      "stateMutability": "view",
      "type": "function",
      "constant": true
    },
    {
      "inputs": [],
      "name": "num",
      "outputs": [
        {
          "internalType": "uint256",
          "name": "",
          "type": "uint256"
        }
      ],
      "stateMutability": "view",
      "type": "function",
      "constant": true
    },
    {
      "inputs": [],
      "name": "productCount",
      "outputs": [
        {
          "internalType": "uint256",
          "name": "",
          "type": "uint256"
        }
      ],
      "stateMutability": "view",
      "type": "function",
      "constant": true
    },
    {
      "inputs": [
        {
          "internalType": "uint256",
          "name": "",
          "type": "uint256"
        }
      ],
      "name": "products",
      "outputs": [
        {
          "internalType": "uint256",
          "name": "id",
          "type": "uint256"
        },
        {
          "internalType": "string",
          "name": "name",
          "type": "string"
        },
        {
          "internalType": "uint256",
          "name": "price",
          "type": "uint256"
        },
        {
          "internalType": "address payable",
          "name": "owner",
          "type": "address"
        },
        {
          "internalType": "bool",
          "name": "purchased",
          "type": "bool"
        },
        {
          "internalType": "uint256",
          "name": "upvotes",
          "type": "uint256"
        }
      ],
      "stateMutability": "view",
      "type": "function",
      "constant": true
    },
    {
      "inputs": [
        {
          "internalType": "uint256",
          "name": "",
          "type": "uint256"
        }
      ],
      "name": "products_historical",
      "outputs": [
        {
          "internalType": "string",
          "name": "fullS",
          "type": "string"
        },
        {
          "internalType": "string",
          "name": "authors",
          "type": "string"
        }
      ],
      "stateMutability": "view",
      "type": "function",
      "constant": true
    },
    {
      "inputs": [
        {
          "internalType": "uint256",
          "name": "",
          "type": "uint256"
        }
      ],
      "name": "story",
      "outputs": [
        {
          "internalType": "string",
          "name": "name",
          "type": "string"
        }
      ],
      "stateMutability": "view",
      "type": "function",
      "constant": true
    },
    {
      "inputs": [],
      "name": "vote_end",
      "outputs": [
        {
          "internalType": "uint256",
          "name": "",
          "type": "uint256"
        }
      ],
      "stateMutability": "view",
      "type": "function",
      "constant": true
    },
    {
      "inputs": [
        {
          "internalType": "uint256",
          "name": "",
          "type": "uint256"
        }
      ],
      "name": "voters_end",
      "outputs": [
        {
          "internalType": "address",
          "name": "",
          "type": "address"
        }
      ],
      "stateMutability": "view",
      "type": "function",
      "constant": true
    },
    {
      "inputs": [
        {
          "internalType": "uint256",
          "name": "_id",
          "type": "uint256"
        }
      ],
      "name": "getArr",
      "outputs": [
        {
          "internalType": "string[3]",
          "name": "",
          "type": "string[3]"
        }
      ],
      "stateMutability": "view",
      "type": "function",
      "constant": true
    },
    {
      "inputs": [
        {
          "internalType": "string",
          "name": "a",
          "type": "string"
        },
        {
          "internalType": "string",
          "name": "b",
          "type": "string"
        }
      ],
      "name": "concatenate",
      "outputs": [
        {
          "internalType": "string",
          "name": "",
          "type": "string"
        }
      ],
      "stateMutability": "pure",
      "type": "function",
      "constant": true
    },
    {
      "inputs": [
        {
          "internalType": "address",
          "name": "_addr",
          "type": "address"
        }
      ],
      "name": "addressToString",
      "outputs": [
        {
          "internalType": "string",
          "name": "",
          "type": "string"
        }
      ],
      "stateMutability": "pure",
      "type": "function",
      "constant": true
    },
    {
      "inputs": [],
      "name": "createVoteEnd",
      "outputs": [],
      "stateMutability": "payable",
      "type": "function",
      "payable": true
    },
    {
      "inputs": [],
      "name": "getAuthors",
      "outputs": [],
      "stateMutability": "view",
      "type": "function",
      "constant": true
    },
    {
      "inputs": [],
      "name": "getCurrentVote",
      "outputs": [
        {
          "internalType": "uint256",
          "name": "",
          "type": "uint256"
        }
      ],
      "stateMutability": "view",
      "type": "function",
      "constant": true
    },
    {
      "inputs": [],
      "name": "resetProducts",
      "outputs": [],
      "stateMutability": "view",
      "type": "function",
      "constant": true
    },
    {
      "inputs": [
        {
          "internalType": "string",
          "name": "_name",
          "type": "string"
        },
        {
          "internalType": "uint256",
          "name": "_price",
          "type": "uint256"
        },
        {
          "internalType": "uint256",
          "name": "upvotes",
          "type": "uint256"
        },
        {
          "internalType": "string[3]",
          "name": "contributors",
          "type": "string[3]"
        }
      ],
      "name": "createProduct",
      "outputs": [],
      "stateMutability": "nonpayable",
      "type": "function"
    },
    {
      "inputs": [
        {
          "internalType": "uint256",
          "name": "_id",
          "type": "uint256"
        }
      ],
      "name": "purchaseProduct",
      "outputs": [],
      "stateMutability": "payable",
      "type": "function",
      "payable": true
    }
  ],
  "bytecode": "0x6080604052600060015560006002556000600355600060045560006005553480156200002a57600080fd5b506040518060400160405280601081526020017f65787175697369746520636f7270736500000000000000000000000000000000815250600090805190602001906200007892919062000087565b5060006002819055506200019c565b828054620000959062000137565b90600052602060002090601f016020900481019282620000b9576000855562000105565b82601f10620000d457805160ff191683800117855562000105565b8280016001018555821562000105579182015b8281111562000104578251825591602001919060010190620000e7565b5b50905062000114919062000118565b5090565b5b808211156200013357600081600090555060010162000119565b5090565b600060028204905060018216806200015057607f821691505b602082108114156200016757620001666200016d565b5b50919050565b7f4e487b7100000000000000000000000000000000000000000000000000000000600052602260045260246000fd5b612edf80620001ac6000396000f3fe6080604052600436106101145760003560e01c80636e2a2635116100a0578063beba8bbe11610064578063beba8bbe1461038d578063dc56028d146103ca578063de6950e8146103f5578063e0f6ef871461041e578063f5f3e5e61461044957610114565b80636e2a2635146102d55780637acc0b20146102ec5780637fc622f41461032e578063a71ce3ea14610345578063ab6d4fbe1461034f57610114565b80633aeb0b8e116100e75780633aeb0b8e146101da5780634308cf35146102055780634e70b1dc146102425780635e57966d1461026d5780635e8a2932146102aa57610114565b806306fdde03146101195780631fb4a24b14610144578063266001d31461018157806338e76a03146101be575b600080fd5b34801561012557600080fd5b5061012e610474565b60405161013b9190612965565b60405180910390f35b34801561015057600080fd5b5061016b60048036038101906101669190612748565b610502565b6040516101789190612928565b60405180910390f35b34801561018d57600080fd5b506101a860048036038101906101a39190612649565b610538565b6040516101b59190612965565b60405180910390f35b6101d860048036038101906101d39190612748565b610786565b005b3480156101e657600080fd5b506101ef610e89565b6040516101fc9190612a35565b60405180910390f35b34801561021157600080fd5b5061022c60048036038101906102279190612748565b610e8f565b6040516102399190612943565b60405180910390f35b34801561024e57600080fd5b50610257610f78565b6040516102649190612a35565b60405180910390f35b34801561027957600080fd5b50610294600480360381019061028f9190612620565b610f7e565b6040516102a19190612965565b60405180910390f35b3480156102b657600080fd5b506102bf6113df565b6040516102cc9190612a35565b60405180910390f35b3480156102e157600080fd5b506102ea6113e5565b005b3480156102f857600080fd5b50610313600480360381019061030e9190612748565b61163c565b60405161032596959493929190612a50565b60405180910390f35b34801561033a57600080fd5b5061034361172d565b005b61034d61172f565b005b34801561035b57600080fd5b5061037660048036038101906103719190612748565b611f3e565b6040516103849291906129be565b60405180910390f35b34801561039957600080fd5b506103b460048036038101906103af9190612748565b612072565b6040516103c19190612965565b60405180910390f35b3480156103d657600080fd5b506103df612118565b6040516103ec9190612a35565b60405180910390f35b34801561040157600080fd5b5061041c600480360381019061041791906126b5565b612122565b005b34801561042a57600080fd5b5061043361230b565b6040516104409190612a35565b60405180910390f35b34801561045557600080fd5b5061045e612311565b60405161046b9190612a35565b60405180910390f35b6000805461048190612d62565b80601f01602080910402602001604051908101604052809291908181526020018280546104ad90612d62565b80156104fa5780601f106104cf576101008083540402835291602001916104fa565b820191906000526020600020905b8154815290600101906020018083116104dd57829003601f168201915b505050505081565b6009816003811061051257600080fd5b016000915054906101000a900473ffffffffffffffffffffffffffffffffffffffff1681565b6060600083905060008390506000815183516105549190612c16565b67ffffffffffffffff811115610593577f4e487b7100000000000000000000000000000000000000000000000000000000600052604160045260246000fd5b6040519080825280601f01601f1916602001820160405280156105c55781602001600182028036833780820191505090505b5090506000805b84518110156106a05784818151811061060e577f4e487b7100000000000000000000000000000000000000000000000000000000600052603260045260246000fd5b602001015160f81c60f81b83838061062590612d94565b94508151811061065e577f4e487b7100000000000000000000000000000000000000000000000000000000600052603260045260246000fd5b60200101907effffffffffffffffffffffffffffffffffffffffffffffffffffffffffffff1916908160001a905350808061069890612d94565b9150506105cc565b5060005b8351811015610778578381815181106106e6577f4e487b7100000000000000000000000000000000000000000000000000000000600052603260045260246000fd5b602001015160f81c60f81b8383806106fd90612d94565b945081518110610736577f4e487b7100000000000000000000000000000000000000000000000000000000600052603260045260246000fd5b60200101907effffffffffffffffffffffffffffffffffffffffffffffffffffffffffffff1916908160001a905350808061077090612d94565b9150506106a4565b508194505050505092915050565b6000600660008381526020019081526020016000206040518060e0016040529081600082015481526020016001820180546107c090612d62565b80601f01602080910402602001604051908101604052809291908181526020018280546107ec90612d62565b80156108395780601f1061080e57610100808354040283529160200191610839565b820191906000526020600020905b81548152906001019060200180831161081c57829003601f168201915b50505050508152602001600282015481526020016003820160009054906101000a900473ffffffffffffffffffffffffffffffffffffffff1673ffffffffffffffffffffffffffffffffffffffff1673ffffffffffffffffffffffffffffffffffffffff1681526020016003820160149054906101000a900460ff161515151581526020016004820154815260200160058201600380602002604051908101604052809291906000905b828210156109865783820180546108f990612d62565b80601f016020809104026020016040519081016040528092919081815260200182805461092590612d62565b80156109725780601f1061094757610100808354040283529160200191610972565b820191906000526020600020905b81548152906001019060200180831161095557829003601f168201915b5050505050815260200190600101906108e3565b50505050815250509050600081606001519050600082600001511180156109b35750600154826000015111155b6109bc57600080fd5b81604001513410156109cd57600080fd5b816080015115610a12576040517f08c379a0000000000000000000000000000000000000000000000000000000008152600401610a0990612a15565b60405180910390fd5b3373ffffffffffffffffffffffffffffffffffffffff168173ffffffffffffffffffffffffffffffffffffffff161415610a81576040517f08c379a0000000000000000000000000000000000000000000000000000000008152600401610a78906129f5565b60405180910390fd5b33826060019073ffffffffffffffffffffffffffffffffffffffff16908173ffffffffffffffffffffffffffffffffffffffff168152505060018260a001818151610acc9190612c16565b91508181525050610ae08260600151610f7e565b8260c001518360a0015160038110610b21577f4e487b7100000000000000000000000000000000000000000000000000000000600052603260045260246000fd5b60200201819052508160066000858152602001908152602001600020600082015181600001556020820151816001019080519060200190610b63929190612317565b506040820151816002015560608201518160030160006101000a81548173ffffffffffffffffffffffffffffffffffffffff021916908373ffffffffffffffffffffffffffffffffffffffff16021790555060808201518160030160146101000a81548160ff02191690831515021790555060a0820151816004015560c082015181600501906003610bf692919061239d565b5090505060028260a0015110610d475760018260800190151590811515815250508160066000858152602001908152602001600020600082015181600001556020820151816001019080519060200190610c51929190612317565b506040820151816002015560608201518160030160006101000a81548173ffffffffffffffffffffffffffffffffffffffff021916908373ffffffffffffffffffffffffffffffffffffffff16021790555060808201518160030160146101000a81548160ff02191690831515021790555060a0820151816004015560c082015181600501906003610ce492919061239d565b509050507fcbe37aac5d4b7f4123ead5b25660f15fc35685375eec76ab442b278c9d26aec060015483602001518460400151856060015160018760a001518860c00151604051610d3a9796959493929190612ab8565b60405180910390a1610e84565b60008260800190151590811515815250508160066000858152602001908152602001600020600082015181600001556020820151816001019080519060200190610d92929190612317565b506040820151816002015560608201518160030160006101000a81548173ffffffffffffffffffffffffffffffffffffffff021916908373ffffffffffffffffffffffffffffffffffffffff16021790555060808201518160030160146101000a81548160ff02191690831515021790555060a0820151816004015560c082015181600501906003610e2592919061239d565b509050507fcbe37aac5d4b7f4123ead5b25660f15fc35685375eec76ab442b278c9d26aec060015483602001518460400151856060015160008760a001518860c00151604051610e7b9796959493929190612ab8565b60405180910390a15b505050565b60035481565b610e976123f0565b600060066000848152602001908152602001600020905080600501600380602002604051908101604052809291906000905b82821015610f6c578382018054610edf90612d62565b80601f0160208091040260200160405190810160405280929190818152602001828054610f0b90612d62565b8015610f585780601f10610f2d57610100808354040283529160200191610f58565b820191906000526020600020905b815481529060010190602001808311610f3b57829003601f168201915b505050505081526020019060010190610ec9565b50505050915050919050565b60045481565b606060008273ffffffffffffffffffffffffffffffffffffffff1660001b905060006040518060400160405280601081526020017f303132333435363738396162636465660000000000000000000000000000000081525090506000602a67ffffffffffffffff81111561101b577f4e487b7100000000000000000000000000000000000000000000000000000000600052604160045260246000fd5b6040519080825280601f01601f19166020018201604052801561104d5781602001600182028036833780820191505090505b5090507f3000000000000000000000000000000000000000000000000000000000000000816000815181106110ab577f4e487b7100000000000000000000000000000000000000000000000000000000600052603260045260246000fd5b60200101907effffffffffffffffffffffffffffffffffffffffffffffffffffffffffffff1916908160001a9053507f780000000000000000000000000000000000000000000000000000000000000081600181518110611135577f4e487b7100000000000000000000000000000000000000000000000000000000600052603260045260246000fd5b60200101907effffffffffffffffffffffffffffffffffffffffffffffffffffffffffffff1916908160001a90535060005b60148110156113d35782600485600c846111819190612c16565b602081106111b8577f4e487b7100000000000000000000000000000000000000000000000000000000600052603260045260246000fd5b1a60f81b7effffffffffffffffffffffffffffffffffffffffffffffffffffffffffffff1916901c60f81c60ff168151811061121d577f4e487b7100000000000000000000000000000000000000000000000000000000600052603260045260246000fd5b602001015160f81c60f81b826002836112369190612c6c565b60026112429190612c16565b81518110611279577f4e487b7100000000000000000000000000000000000000000000000000000000600052603260045260246000fd5b60200101907effffffffffffffffffffffffffffffffffffffffffffffffffffffffffffff1916908160001a90535082600f60f81b85600c846112bc9190612c16565b602081106112f3577f4e487b7100000000000000000000000000000000000000000000000000000000600052603260045260246000fd5b1a60f81b1660f81c60ff1681518110611335577f4e487b7100000000000000000000000000000000000000000000000000000000600052603260045260246000fd5b602001015160f81c60f81b8260028361134e9190612c6c565b600361135a9190612c16565b81518110611391577f4e487b7100000000000000000000000000000000000000000000000000000000600052603260045260246000fd5b60200101907effffffffffffffffffffffffffffffffffffffffffffffffffffffffffffff1916908160001a90535080806113cb90612d94565b915050611167565b50809350505050919050565b60025481565b6113ed612417565b60005b60025481101561163857600660008281526020019081526020016000206040518060e00160405290816000820154815260200160018201805461143290612d62565b80601f016020809104026020016040519081016040528092919081815260200182805461145e90612d62565b80156114ab5780601f10611480576101008083540402835291602001916114ab565b820191906000526020600020905b81548152906001019060200180831161148e57829003601f168201915b50505050508152602001600282015481526020016003820160009054906101000a900473ffffffffffffffffffffffffffffffffffffffff1673ffffffffffffffffffffffffffffffffffffffff1673ffffffffffffffffffffffffffffffffffffffff1681526020016003820160149054906101000a900460ff161515151581526020016004820154815260200160058201600380602002604051908101604052809291906000905b828210156115f857838201805461156b90612d62565b80601f016020809104026020016040519081016040528092919081815260200182805461159790612d62565b80156115e45780601f106115b9576101008083540402835291602001916115e4565b820191906000526020600020905b8154815290600101906020018083116115c757829003601f168201915b505050505081526020019060010190611555565b5050505081525050915060405180602001604052806000815250826020018190525060008260a0018181525050808061163090612d94565b9150506113f0565b5050565b600660205280600052604060002060009150905080600001549080600101805461166590612d62565b80601f016020809104026020016040519081016040528092919081815260200182805461169190612d62565b80156116de5780601f106116b3576101008083540402835291602001916116de565b820191906000526020600020905b8154815290600101906020018083116116c157829003601f168201915b5050505050908060020154908060030160009054906101000a900473ffffffffffffffffffffffffffffffffffffffff16908060030160149054906101000a900460ff16908060040154905086565b565b60005b6002548110156117e957600060098260038110611778577f4e487b7100000000000000000000000000000000000000000000000000000000600052603260045260246000fd5b0160009054906101000a900473ffffffffffffffffffffffffffffffffffffffff1690503373ffffffffffffffffffffffffffffffffffffffff168173ffffffffffffffffffffffffffffffffffffffff1614156117d557600080fd5b5080806117e190612d94565b915050611732565b5033600960025460038110611827577f4e487b7100000000000000000000000000000000000000000000000000000000600052603260045260246000fd5b0160006101000a81548173ffffffffffffffffffffffffffffffffffffffff021916908373ffffffffffffffffffffffffffffffffffffffff1602179055506002600081548092919061187990612d94565b9190505550611886612472565b600154600381905550600160025410611f02576118a1612417565b6000600190505b6003548111611b8f57600660008281526020019081526020016000206040518060e0016040529081600082015481526020016001820180546118e990612d62565b80601f016020809104026020016040519081016040528092919081815260200182805461191590612d62565b80156119625780601f1061193757610100808354040283529160200191611962565b820191906000526020600020905b81548152906001019060200180831161194557829003601f168201915b50505050508152602001600282015481526020016003820160009054906101000a900473ffffffffffffffffffffffffffffffffffffffff1673ffffffffffffffffffffffffffffffffffffffff1673ffffffffffffffffffffffffffffffffffffffff1681526020016003820160149054906101000a900460ff161515151581526020016004820154815260200160058201600380602002604051908101604052809291906000905b82821015611aaf578382018054611a2290612d62565b80601f0160208091040260200160405190810160405280929190818152602001828054611a4e90612d62565b8015611a9b5780601f10611a7057610100808354040283529160200191611a9b565b820191906000526020600020905b815481529060010190602001808311611a7e57829003601f168201915b505050505081526020019060010190611a0c565b5050505081525050915060028260a0015110611b7157816020015183600001819052508160c00151836020018190525082600860008381526020019081526020016000206000820151816000019080519060200190611b0f929190612317565b50602082015181600101906003611b2792919061239d565b509050507f797fcd15847b5f626aa2d0cd1724efae5dd87d749b6ebeef9949df672b422aeb83600001518460200151604051611b64929190612987565b60405180910390a1611b7c565b611b79612417565b91505b8080611b8790612d94565b9150506118a8565b506000604051806020016040528060008152509050611bac6123f0565b6000600190505b6003548111611d4c5760086000828152602001908152602001600020600101600380602002604051908101604052809291906000905b82821015611c8c578382018054611bff90612d62565b80601f0160208091040260200160405190810160405280929190818152602001828054611c2b90612d62565b8015611c785780601f10611c4d57610100808354040283529160200191611c78565b820191906000526020600020905b815481529060010190602001808311611c5b57829003601f168201915b505050505081526020019060010190611be9565b50505050915060005b6003811015611d3857611d2384611d1e6040518060400160405280600181526020017f2000000000000000000000000000000000000000000000000000000000000000815250868560038110611d14577f4e487b7100000000000000000000000000000000000000000000000000000000600052603260045260246000fd5b6020020151610538565b610538565b93508080611d3090612d94565b915050611c95565b508080611d4490612d94565b915050611bb3565b50600060405180602001604052806000815250905060006040518060400160405280600181526020017f200000000000000000000000000000000000000000000000000000000000000081525090506000600190505b6003548111611e7157611e5c83611e5784600860008681526020019081526020016000206000018054611dd490612d62565b80601f0160208091040260200160405190810160405280929190818152602001828054611e0090612d62565b8015611e4d5780601f10611e2257610100808354040283529160200191611e4d565b820191906000526020600020905b815481529060010190602001808311611e3057829003601f168201915b5050505050610538565b610538565b92508080611e6990612d94565b915050611da2565b50816007600060055481526020019081526020016000206000019080519060200190611e9e929190612317565b50836007600060055481526020019081526020016000206001019080519060200190611ecb929190612317565b5060056000815480929190611edf90612d94565b9190505550611eec6113e5565b6000600281905550600060018190555050505050505b7fec859db5a3c1ca3ee301d012a70f0e287a104754cd2f264283bb84531f0eed54600254604051611f339190612a35565b60405180910390a150565b6007602052806000526040600020600091509050806000018054611f6190612d62565b80601f0160208091040260200160405190810160405280929190818152602001828054611f8d90612d62565b8015611fda5780601f10611faf57610100808354040283529160200191611fda565b820191906000526020600020905b815481529060010190602001808311611fbd57829003601f168201915b505050505090806001018054611fef90612d62565b80601f016020809104026020016040519081016040528092919081815260200182805461201b90612d62565b80156120685780601f1061203d57610100808354040283529160200191612068565b820191906000526020600020905b81548152906001019060200180831161204b57829003601f168201915b5050505050905082565b600860205280600052604060002060009150905080600001805461209590612d62565b80601f01602080910402602001604051908101604052809291908181526020018280546120c190612d62565b801561210e5780601f106120e35761010080835404028352916020019161210e565b820191906000526020600020905b8154815290600101906020018083116120f157829003601f168201915b5050505050905081565b6000600254905090565b600084511161213057600080fd5b6000831161213d57600080fd5b6001600081548092919061215090612d94565b919050555061215e33610f7e565b818360038110612197577f4e487b7100000000000000000000000000000000000000000000000000000000600052603260045260246000fd5b60200201819052506040518060e0016040528060015481526020018581526020018481526020013373ffffffffffffffffffffffffffffffffffffffff16815260200160001515815260200183815260200182815250600660006001548152602001908152602001600020600082015181600001556020820151816001019080519060200190612228929190612317565b506040820151816002015560608201518160030160006101000a81548173ffffffffffffffffffffffffffffffffffffffff021916908373ffffffffffffffffffffffffffffffffffffffff16021790555060808201518160030160146101000a81548160ff02191690831515021790555060a0820151816004015560c0820151816005019060036122bb92919061239d565b509050507f724a7f3b7bc135399b5ba2a1305c52ce76299c03071123034f67acddc3becef1600154858533600087876040516122fd9796959493929190612ab8565b60405180910390a150505050565b60015481565b60055481565b82805461232390612d62565b90600052602060002090601f016020900481019282612345576000855561238c565b82601f1061235e57805160ff191683800117855561238c565b8280016001018555821561238c579182015b8281111561238b578251825591602001919060010190612370565b5b5090506123999190612492565b5090565b82600381019282156123df579160200282015b828111156123de5782518290805190602001906123ce929190612317565b50916020019190600101906123b0565b5b5090506123ec91906124af565b5090565b60405180606001604052806003905b60608152602001906001900390816123ff5790505090565b6040518060e00160405280600081526020016060815260200160008152602001600073ffffffffffffffffffffffffffffffffffffffff1681526020016000151581526020016000815260200161246c6123f0565b81525090565b60405180604001604052806060815260200161248c6123f0565b81525090565b5b808211156124ab576000816000905550600101612493565b5090565b5b808211156124cf57600081816124c691906124d3565b506001016124b0565b5090565b5080546124df90612d62565b6000825580601f106124f15750612510565b601f01602090049060005260206000209081019061250f9190612492565b5b50565b600061252661252184612b66565b612b35565b9050808260005b8581101561255d578135850161254388826125e1565b84526020840193506020830192505060018101905061252d565b5050509392505050565b600061257a61257584612b8c565b612b35565b90508281526020810184848401111561259257600080fd5b61259d848285612d20565b509392505050565b6000813590506125b481612e7b565b92915050565b600082601f8301126125cb57600080fd5b60036125d8848285612513565b91505092915050565b600082601f8301126125f257600080fd5b8135612602848260208601612567565b91505092915050565b60008135905061261a81612e92565b92915050565b60006020828403121561263257600080fd5b6000612640848285016125a5565b91505092915050565b6000806040838503121561265c57600080fd5b600083013567ffffffffffffffff81111561267657600080fd5b612682858286016125e1565b925050602083013567ffffffffffffffff81111561269f57600080fd5b6126ab858286016125e1565b9150509250929050565b600080600080608085870312156126cb57600080fd5b600085013567ffffffffffffffff8111156126e557600080fd5b6126f1878288016125e1565b94505060206127028782880161260b565b93505060406127138782880161260b565b925050606085013567ffffffffffffffff81111561273057600080fd5b61273c878288016125ba565b91505092959194509250565b60006020828403121561275a57600080fd5b60006127688482850161260b565b91505092915050565b600061277d8383612827565b905092915050565b61278e81612cd8565b82525050565b61279d81612cc6565b82525050565b60006127ae82612bc6565b6127b88185612be9565b9350836020820285016127ca85612bbc565b8060005b8581101561280657848403895281516127e78582612771565b94506127f283612bdc565b925060208a019950506001810190506127ce565b50829750879550505050505092915050565b61282181612cea565b82525050565b600061283282612bd1565b61283c8185612bf4565b935061284c818560208601612d2f565b61285581612e6a565b840191505092915050565b600061286b82612bd1565b6128758185612c05565b9350612885818560208601612d2f565b61288e81612e6a565b840191505092915050565b60006128a6600f83612c05565b91507f416c7265616479207570766f74656400000000000000000000000000000000006000830152602082019050919050565b60006128e6601f83612c05565b91507f596f752063616e6e6f74207570766f746520796f75722073656e74656e6365006000830152602082019050919050565b61292281612d16565b82525050565b600060208201905061293d6000830184612794565b92915050565b6000602082019050818103600083015261295d81846127a3565b905092915050565b6000602082019050818103600083015261297f8184612860565b905092915050565b600060408201905081810360008301526129a18185612860565b905081810360208301526129b581846127a3565b90509392505050565b600060408201905081810360008301526129d88185612860565b905081810360208301526129ec8184612860565b90509392505050565b60006020820190508181036000830152612a0e81612899565b9050919050565b60006020820190508181036000830152612a2e816128d9565b9050919050565b6000602082019050612a4a6000830184612919565b92915050565b600060c082019050612a656000830189612919565b8181036020830152612a778188612860565b9050612a866040830187612919565b612a936060830186612785565b612aa06080830185612818565b612aad60a0830184612919565b979650505050505050565b600060e082019050612acd600083018a612919565b8181036020830152612adf8189612860565b9050612aee6040830188612919565b612afb6060830187612785565b612b086080830186612818565b612b1560a0830185612919565b81810360c0830152612b2781846127a3565b905098975050505050505050565b6000604051905081810181811067ffffffffffffffff82111715612b5c57612b5b612e3b565b5b8060405250919050565b600067ffffffffffffffff821115612b8157612b80612e3b565b5b602082029050919050565b600067ffffffffffffffff821115612ba757612ba6612e3b565b5b601f19601f8301169050602081019050919050565b6000819050919050565b600060039050919050565b600081519050919050565b6000602082019050919050565b600081905092915050565b600082825260208201905092915050565b600082825260208201905092915050565b6000612c2182612d16565b9150612c2c83612d16565b9250827fffffffffffffffffffffffffffffffffffffffffffffffffffffffffffffffff03821115612c6157612c60612ddd565b5b828201905092915050565b6000612c7782612d16565b9150612c8283612d16565b9250817fffffffffffffffffffffffffffffffffffffffffffffffffffffffffffffffff0483118215151615612cbb57612cba612ddd565b5b828202905092915050565b6000612cd182612cf6565b9050919050565b6000612ce382612cf6565b9050919050565b60008115159050919050565b600073ffffffffffffffffffffffffffffffffffffffff82169050919050565b6000819050919050565b82818337600083830152505050565b60005b83811015612d4d578082015181840152602081019050612d32565b83811115612d5c576000848401525b50505050565b60006002820490506001821680612d7a57607f821691505b60208210811415612d8e57612d8d612e0c565b5b50919050565b6000612d9f82612d16565b91507fffffffffffffffffffffffffffffffffffffffffffffffffffffffffffffffff821415612dd257612dd1612ddd565b5b600182019050919050565b7f4e487b7100000000000000000000000000000000000000000000000000000000600052601160045260246000fd5b7f4e487b7100000000000000000000000000000000000000000000000000000000600052602260045260246000fd5b7f4e487b7100000000000000000000000000000000000000000000000000000000600052604160045260246000fd5b6000601f19601f8301169050919050565b612e8481612cc6565b8114612e8f57600080fd5b50565b612e9b81612d16565b8114612ea657600080fd5b5056fea2646970667358221220047c0a19a076516db479542c37badbaf4174b17461304f5b27fa1ca5840b40bc64736f6c63430008000033",
  "immutableReferences": {},
  "source": "pragma solidity ^0.8.0;\r\n\r\ncontract Marketplace {\r\n\tstring public name;\r\n\tuint public productCount = 0;\r\n\tuint public vote_end = 0;\r\n\tuint public SentenceCount = 0;\r\n\tuint public num = 0;\r\n\tuint public historyProdCount = 0;\r\n\tmapping(uint => Product) public products;\r\n\tmapping(uint => CompleteStory) public products_historical;\r\n\t//link story in historical to the contributors\r\n\t//string public authors;\r\n\tmapping(uint => Sentence) public story;\r\n\taddress[3] public voters_end;\r\n\tstruct Product {\r\n\t\tuint id;\r\n\t\tstring name;\r\n\t\tuint price;\r\n\t\taddress payable owner;\r\n\t\tbool purchased;\r\n\t\tuint upvotes;\r\n\t\tstring[3] contributors;\r\n\t}\r\n\tstruct Sentence {\r\n\t\tstring name;\r\n\t\tstring [3] authors;\r\n\t}\r\n\tstruct CompleteStory {\r\n\t\tstring fullS;\r\n\t\tstring authors;\r\n\t}\r\n\r\n\tevent StoryCreated(\r\n\t\t\r\n\t\tstring name,\r\n\t\tstring[3] authors\t\r\n\t);\r\n\tevent ProductCreated(\r\n\t\tuint id,\r\n\t\tstring name,\r\n\t\tuint price,\r\n\t\taddress payable owner,\r\n\t\tbool purchased,\r\n\t\tuint upvotes,\r\n\t\tstring[3] contributors\t\r\n\t);\r\n\r\n\tevent upVote(\r\n\t\tuint vote\r\n\t);\r\n\r\n\tevent ProductPurchased(\r\n\t\tuint id,\r\n\t\tstring name,\r\n\t\tuint price,\r\n\t\taddress payable owner,\r\n\t\tbool purchased,\r\n\t\tuint upvotes,\r\n\t\tstring[3] contributors\r\n\t);\r\n\r\n\tstruct voteEnd{\r\n\t\tuint votes;\r\n\t}\r\n\t\r\n\r\n\tconstructor() {\r\n\t\tname = \"exquisite corpse\";\r\n\t\t//products_historical ='';\r\n\t\tvote_end = 0;\r\n\t}\r\n\r\n\tfunction getArr(uint _id) public view returns (string[3] memory) {\r\n\t\tProduct storage myProduct = products[_id];\r\n    \treturn myProduct.contributors;\r\n\t}\r\n\r\n// \tfunction strConcat(string memory _a, string memory _b, string memory _c, string memory _d, string memory _e) internal pure returns (string memory){\r\n//     bytes memory _ba = bytes(_a);\r\n//     bytes memory _bb = bytes(_b);\r\n//     bytes memory _bc = bytes(_c);\r\n//     bytes memory _bd = bytes(_d);\r\n//     bytes memory _be = bytes(_e);\r\n//     string memory abcde = new string(_ba.length + _bb.length + _bc.length + _bd.length + _be.length);\r\n//     bytes memory babcde = bytes(abcde);\r\n//     uint k = 0;\r\n// \tuint i = 0;\r\n//     for (i = 0; i < _ba.length; i++) babcde[k++] = _ba[i];\r\n//     for (i = 0; i < _bb.length; i++) babcde[k++] = _bb[i];\r\n//     for (i = 0; i < _bc.length; i++) babcde[k++] = _bc[i];\r\n//     for (i = 0; i < _bd.length; i++) babcde[k++] = _bd[i];\r\n//     for (i = 0; i < _be.length; i++) babcde[k++] = _be[i];\r\n//     return string(babcde);\r\n// \t}\r\n\r\n// \tfunction strConcat(string memory _a, string memory _b) internal pure returns (string memory) {\r\n//     return strConcat(_a, _b, \"\", \"\", \"\");\r\n// }\r\n\r\n\tfunction concatenate(string memory a, string memory b) public pure returns (string memory) {\r\n        bytes memory aa = bytes(a);\r\n        bytes memory bb = bytes(b);\r\n        bytes memory result = new bytes(aa.length + bb.length);\r\n        uint k = 0;\r\n        for (uint i = 0; i < aa.length; i++) {\r\n            result[k++] = aa[i];\r\n        }\r\n        for (uint i = 0; i < bb.length; i++) {\r\n            result[k++] = bb[i];\r\n        }\r\n        return string(result);\r\n    }\r\n\tfunction toString(uint _i) internal pure returns (string memory _uintAsString) {\r\n        if (_i == 0) {\r\n            return \"0\";\r\n        }\r\n        uint j = _i;\r\n        uint len;\r\n        while (j != 0) {\r\n            len++;\r\n            j /= 10;\r\n        }\r\n        bytes memory bstr = new bytes(len);\r\n        uint k = len;\r\n        while (_i != 0) {\r\n            k = k-1;\r\n            uint8 temp = (48 + uint8(_i - _i / 10 * 10));\r\n            bytes1 b1 = bytes1(temp);\r\n            bstr[k] = b1;\r\n            _i /= 10;\r\n        }\r\n        return string(bstr);\r\n    }\r\n\tfunction addressToString(address _addr) public pure returns (string memory) {\r\n\t\tbytes32 value = bytes32(uint256(uint160(_addr)));\r\n\t\tbytes memory alphabet = \"0123456789abcdef\";\r\n\r\n\t\tbytes memory str = new bytes(42);\r\n\t\tstr[0] = '0';\r\n\t\tstr[1] = 'x';\r\n\t\tfor (uint i = 0; i < 20; i++) {\r\n\t\t\tstr[2+i*2] = alphabet[uint8(value[i + 12] >> 4)];\r\n\t\t\tstr[3+i*2] = alphabet[uint8(value[i + 12] & 0x0f)];\r\n\t\t}\r\n\t\treturn string(str);\r\n\t}\r\n\r\n\tfunction createVoteEnd() public payable {\r\n    //string storage senderString = toString(msg.sender);\r\n\t//check not similar voters\r\n    for (uint i = 0; i < vote_end; i++) {\r\n\t\taddress voterA = voters_end[i];\r\n        require( voterA != msg.sender);\r\n    }\r\n\t\tvoters_end[vote_end] = msg.sender;\r\n\t\tvote_end++;\r\n\t\tSentence memory _sentence;\r\n\t\tSentenceCount = productCount;\r\n\t\t//transfer to past stories\r\n\t\tif(vote_end >= 1){\r\n\t\t\tProduct memory _product;\r\n\t\t\tfor(uint i = 1; i <= SentenceCount; i++){\r\n\t\t\t\t_product = products[i];\r\n\t\t\t\tif(_product.upvotes >= 2){\r\n\t\t\t\t\t//move products as sentences in the story\r\n\t\t\t\t\t_sentence.name = _product.name;\r\n\t\t\t\t\t_sentence.authors = _product.contributors;\r\n\t\t\t\t\tstory[i] = _sentence;\r\n\t\t\t\t\t//make the first sentence have all the authors\r\n\t\t\t\t\temit StoryCreated(_sentence.name, _sentence.authors);\r\n\t\t\t\t}\r\n\t\t\t\telse {\r\n\t\t\t\t\tdelete _product;\r\n\t\t\t\t\t\r\n\t\t\t\t}\r\n\r\n\t\t\t}\r\n\t\t\t//store the authors in one address array\r\n\t\t\tstring memory store_authors = \"\";\r\n\t\t\tstring[3] memory temp;\r\n\t\t\tfor(uint i = 1; i <= SentenceCount; i++) {\r\n\t\t\t\ttemp = story[i].authors;\r\n\t\t\t\tfor(uint j = 0; j < 3; j++) {\r\n\t\t\t\t\tstore_authors = concatenate(store_authors, concatenate(\" \", temp[j]));\r\n\t\t\t\t}\r\n\t\t\t}\r\n\t\t\t// //return unrepeated addresses\r\n\t\t\t// const size = 3*SentenceCount ; \r\n\t\t\t// string [size] memory array_authors = authors;\r\n\t\t\t// = getUniqueStrings(authors);\r\n\r\n\t\t\t// //concate all sentences in one string\r\n\t\t\tstring memory full_story = \"\";\r\n\t\t\tstring memory space = \" \";\r\n\t\t\t//string memory full_story;\r\n\t\t\tfor (uint j = 1; j <= SentenceCount; j++) {\r\n\t\t\t\tfull_story = concatenate(full_story, concatenate(space, story[j].name));\r\n\t\t\t}\r\n\t\t\t\r\n\t\t\t//add the story string\r\n\t\t\tproducts_historical[historyProdCount].fullS = full_story;\r\n\t\t\tproducts_historical[historyProdCount].authors = store_authors;\r\n\t\t\t//add the authors\r\n\t\t\thistoryProdCount++; \r\n\t\t\t\r\n\t\t\t//products_historical = strConcat(products_historical, \"\\n\\n\");\r\n\t\t\tresetProducts();\r\n\t\t\tvote_end = 0;\r\n\t\t\tproductCount = 0;\r\n\t\t\r\n\t\t} \r\n\t\t\r\n\t\temit upVote(vote_end);\r\n\t}\r\n\tfunction getAuthors() public view {\r\n\r\n\r\n\t}\r\n\r\n\tfunction getCurrentVote() public view returns (uint) {\r\n\t\t// portion where we plug in tufts account\r\n\t\t// address(_seller).transfer(msg.value);\r\n\t\treturn vote_end;\r\n\t}\r\n\t\r\n\t// function checkVotesLoad() public{\r\n\t// \tProduct memory _product;\r\n\t// \tfor(uint i = 0; i < vote_end; i++){\r\n\t// \t\t_product = products[i];\r\n\t// \t\tif(_product.upvotes >= 2){\r\n\t// \t\t\t\thistoryProdCount++;\r\n\t// \t\t\t\t_product = products[i];\r\n \t// \t\t\t\tproducts_historical[historyProdCount] = _product;\r\n\t// \t\t}\r\n\t// \t}\r\n\t// }\r\n\r\n\tfunction resetProducts() public view{\r\n\t\tProduct memory _product;\r\n\t\tfor(uint i = 0; i < vote_end; i++){\r\n\t\t\t_product = products[i];\r\n\t\t\t_product.name = \"\";\r\n\t\t\t_product.upvotes = 0;\r\n\t\t}\r\n\t}\r\n\r\n\r\n\tfunction createProduct(string memory _name, uint _price, uint upvotes, string[3] memory contributors) public {\r\n\t\t// require a name\r\n\t\trequire(bytes(_name).length > 0);\r\n\t\t// require a valid price\r\n\t\trequire(_price > 0);\r\n\t\t// make sure params good\r\n\t\t// inc products count\r\n\t\tproductCount++;\r\n\t\t//add owner to contributors\r\n\t\tcontributors[upvotes] = addressToString(msg.sender);\r\n\t\t// create the product\r\n\t\tproducts[productCount] = Product(productCount, _name, _price, payable(msg.sender), false, upvotes, contributors);\r\n\t\t// trigger an event\t\r\n\t\temit ProductCreated(productCount, _name, _price, payable(msg.sender), false, upvotes, contributors);\r\n\t}\r\n\r\n\tfunction purchaseProduct(uint _id) public payable {\r\n\t\t// fetch product\r\n\t\tProduct memory _product = products[_id];\t\r\n\t\t// fetch the owner\r\n\t\taddress _seller = _product.owner;\r\n\t\t\r\n\t\t// make sure the product has a valid id\r\n\t\trequire(_product.id > 0 && _product.id <= productCount);\r\n\t\t// make sure they sent enough ether\r\n\t\trequire(msg.value >= _product.price);\r\n\t\t// require product has not already been purchased\r\n\t\trequire(!_product.purchased, \"You cannot upvote your sentence\");\r\n\t\t// require that the buyer is not the seller\r\n\t\trequire(_seller != msg.sender, \"Already upvoted\");\r\n\t\t// require that the buyer is not a previous contributor (i.e already upvoted)\r\n\t\t\r\n\r\n\t\t// purchase it -> transfer ownership to buyer\r\n\t\t_product.owner = payable(msg.sender);\r\n\t\t// mark as purchased\r\n\t\t// increment upvotes of product\r\n\t\t_product.upvotes += 1;\r\n\t\t//add purchaser to contributors\r\n\t\t_product.contributors[_product.upvotes] = addressToString(_product.owner);\r\n\t\t//update the product\r\n\t\tproducts[_id] = _product;\r\n\t\t\r\n\t\t// products[_id] = Product(productCount,\r\n\t\t// _product.name, _product.price, \r\n\t\t// _product.owner, false, \r\n\t\t// _product.upvotes, \r\n\t\t// _product.contributors);\r\n\r\n\t\tif(_product.upvotes >= 2){\r\n\t\t\t_product.purchased = true;\r\n\t\t\t// products[_id] = Product(productCount,\r\n\t\t\t// _product.name, _product.price, \r\n\t\t\t// _product.owner, true, \r\n\t\t\t// _product.upvotes, \r\n\t\t\t// _product.contributors);\r\n\t\t\tproducts[_id] = _product;\r\n\t\t\temit ProductPurchased(productCount, _product.name, _product.price, _product.owner, true, _product.upvotes, _product.contributors);\r\n\t\t}\r\n\t\telse {\r\n\t\t\t_product.purchased = false;\r\n\t\t\tproducts[_id] = _product;\r\n\t\t\temit ProductPurchased(productCount, _product.name, _product.price, _product.owner, false, _product.upvotes, _product.contributors);\r\n\t\t\t//emit ProductCreated(productCount, _product.name, _product.price, _product.owner, false, _product.upvotes, _product.contributors);\r\n\t\t}\t\r\n\t\t// pay the seller by sending them ether\r\n\t\t//address(_seller).transfer(msg.value);\r\n\t\t// trigger an event\r\n\t\t//emit prodict(productCount, _product.name, _product.price, _product.owner, false, _product.upvotes, _product.contributors);\r\n\t\t//createProduct(_product.name, _product.price, _product.upvotes, _product.contributors);\r\n\t\r\n\t\t// if(_product.upvotes < 2){\r\n\t\t// \tcreateProduct(_product.name, _product.price, _product.upvotes, _product.contributors);\r\n\t\t// }\r\n\t\t//products[_id] = _product;\r\n\t}\r\n\r\n}",
  "sourcePath": "C:/Users/shahd/Documents/blockchain/cN/corpse_new/src/contracts/Marketplace.sol",
  "compiler": {
    "name": "solc",
    "version": "0.8.0+commit.c7dfd78e.Emscripten.clang"
  },
  "schemaVersion": "3.3.3",
  "updatedAt": "2023-06-20T08:23:07.047Z",
  "networkType": "ethereum",
  "devdoc": {
    "kind": "dev",
    "methods": {},
    "version": 1
  },
  "userdoc": {
    "kind": "user",
    "methods": {},
    "version": 1
  }
}