{
  "contractName": "Marketplace",
  "abi": [
    {
      "inputs": [],
      "stateMutability": "nonpayable",
      "type": "constructor"
    },
    {
      "anonymous": false,
      "inputs": [
        {
          "indexed": false,
          "internalType": "uint256",
          "name": "id",
          "type": "uint256"
        },
        {
          "indexed": false,
          "internalType": "string",
          "name": "name",
          "type": "string"
        },
        {
          "indexed": false,
          "internalType": "uint256",
          "name": "price",
          "type": "uint256"
        },
        {
          "indexed": false,
          "internalType": "address payable",
          "name": "owner",
          "type": "address"
        },
        {
          "indexed": false,
          "internalType": "bool",
          "name": "purchased",
          "type": "bool"
        },
        {
          "indexed": false,
          "internalType": "uint256",
          "name": "upvotes",
          "type": "uint256"
        },
        {
          "indexed": false,
          "internalType": "string[5]",
          "name": "contributors",
          "type": "string[5]"
        }
      ],
      "name": "ProductCreated",
      "type": "event"
    },
    {
      "anonymous": false,
      "inputs": [
        {
          "indexed": false,
          "internalType": "uint256",
          "name": "id",
          "type": "uint256"
        },
        {
          "indexed": false,
          "internalType": "string",
          "name": "name",
          "type": "string"
        },
        {
          "indexed": false,
          "internalType": "uint256",
          "name": "price",
          "type": "uint256"
        },
        {
          "indexed": false,
          "internalType": "address payable",
          "name": "owner",
          "type": "address"
        },
        {
          "indexed": false,
          "internalType": "bool",
          "name": "purchased",
          "type": "bool"
        },
        {
          "indexed": false,
          "internalType": "uint256",
          "name": "upvotes",
          "type": "uint256"
        },
        {
          "indexed": false,
          "internalType": "string[5]",
          "name": "contributors",
          "type": "string[5]"
        }
      ],
      "name": "ProductPurchased",
      "type": "event"
    },
    {
      "anonymous": false,
      "inputs": [
        {
          "indexed": false,
          "internalType": "string",
          "name": "name",
          "type": "string"
        },
        {
          "indexed": false,
          "internalType": "address payable[]",
          "name": "authors",
          "type": "address[]"
        }
      ],
      "name": "StoryCreated",
      "type": "event"
    },
    {
      "anonymous": false,
      "inputs": [
        {
          "indexed": false,
          "internalType": "uint256",
          "name": "id",
          "type": "uint256"
        },
        {
          "indexed": false,
          "internalType": "string",
          "name": "fullS",
          "type": "string"
        },
        {
          "indexed": false,
          "internalType": "string",
          "name": "authors",
          "type": "string"
        },
        {
          "indexed": false,
          "internalType": "uint256",
          "name": "price",
          "type": "uint256"
        },
        {
          "indexed": false,
          "internalType": "bool",
          "name": "purchased",
          "type": "bool"
        },
        {
          "indexed": false,
          "internalType": "address payable[]",
          "name": "owner",
          "type": "address[]"
        }
      ],
      "name": "StoryPurchased",
      "type": "event"
    },
    {
      "anonymous": false,
      "inputs": [
        {
          "indexed": false,
          "internalType": "uint256",
          "name": "vote",
          "type": "uint256"
        }
      ],
      "name": "upVote",
      "type": "event"
    },
    {
      "inputs": [],
      "name": "SentenceCount",
      "outputs": [
        {
          "internalType": "uint256",
          "name": "",
          "type": "uint256"
        }
      ],
      "stateMutability": "view",
      "type": "function",
      "constant": true
    },
    {
      "inputs": [
        {
          "internalType": "uint256",
          "name": "",
          "type": "uint256"
        }
      ],
      "name": "authors",
      "outputs": [
        {
          "internalType": "address payable",
          "name": "",
          "type": "address"
        }
      ],
      "stateMutability": "view",
      "type": "function",
      "constant": true
    },
    {
      "inputs": [],
      "name": "historyProdCount",
      "outputs": [
        {
          "internalType": "uint256",
          "name": "",
          "type": "uint256"
        }
      ],
      "stateMutability": "view",
      "type": "function",
      "constant": true
    },
    {
      "inputs": [],
      "name": "name",
      "outputs": [
        {
          "internalType": "string",
          "name": "",
          "type": "string"
        }
      ],
      "stateMutability": "view",
      "type": "function",
      "constant": true
    },
    {
      "inputs": [],
      "name": "num",
      "outputs": [
        {
          "internalType": "uint256",
          "name": "",
          "type": "uint256"
        }
      ],
      "stateMutability": "view",
      "type": "function",
      "constant": true
    },
    {
      "inputs": [],
      "name": "productCount",
      "outputs": [
        {
          "internalType": "uint256",
          "name": "",
          "type": "uint256"
        }
      ],
      "stateMutability": "view",
      "type": "function",
      "constant": true
    },
    {
      "inputs": [
        {
          "internalType": "uint256",
          "name": "",
          "type": "uint256"
        }
      ],
      "name": "products",
      "outputs": [
        {
          "internalType": "uint256",
          "name": "id",
          "type": "uint256"
        },
        {
          "internalType": "string",
          "name": "name",
          "type": "string"
        },
        {
          "internalType": "uint256",
          "name": "price",
          "type": "uint256"
        },
        {
          "internalType": "address payable",
          "name": "owner",
          "type": "address"
        },
        {
          "internalType": "bool",
          "name": "purchased",
          "type": "bool"
        },
        {
          "internalType": "uint256",
          "name": "upvotes",
          "type": "uint256"
        }
      ],
      "stateMutability": "view",
      "type": "function",
      "constant": true
    },
    {
      "inputs": [
        {
          "internalType": "uint256",
          "name": "",
          "type": "uint256"
        }
      ],
      "name": "products_historical",
      "outputs": [
        {
          "internalType": "uint256",
          "name": "id",
          "type": "uint256"
        },
        {
          "internalType": "uint256",
          "name": "sentCount",
          "type": "uint256"
        },
        {
          "internalType": "string",
          "name": "fullS",
          "type": "string"
        },
        {
          "internalType": "string",
          "name": "authors",
          "type": "string"
        },
        {
          "internalType": "uint256",
          "name": "price",
          "type": "uint256"
        },
        {
          "internalType": "bool",
          "name": "purchased",
          "type": "bool"
        }
      ],
      "stateMutability": "view",
      "type": "function",
      "constant": true
    },
    {
      "inputs": [
        {
          "internalType": "uint256",
          "name": "",
          "type": "uint256"
        }
      ],
      "name": "story",
      "outputs": [
        {
          "internalType": "string",
          "name": "",
          "type": "string"
        }
      ],
      "stateMutability": "view",
      "type": "function",
      "constant": true
    },
    {
      "inputs": [],
      "name": "vote_end",
      "outputs": [
        {
          "internalType": "uint256",
          "name": "",
          "type": "uint256"
        }
      ],
      "stateMutability": "view",
      "type": "function",
      "constant": true
    },
    {
      "inputs": [
        {
          "internalType": "uint256",
          "name": "",
          "type": "uint256"
        }
      ],
      "name": "voters_end",
      "outputs": [
        {
          "internalType": "address",
          "name": "",
          "type": "address"
        }
      ],
      "stateMutability": "view",
      "type": "function",
      "constant": true
    },
    {
      "inputs": [
        {
          "internalType": "uint256",
          "name": "_id",
          "type": "uint256"
        }
      ],
      "name": "getArr",
      "outputs": [
        {
          "internalType": "string[5]",
          "name": "",
          "type": "string[5]"
        }
      ],
      "stateMutability": "view",
      "type": "function",
      "constant": true
    },
    {
      "inputs": [
        {
          "internalType": "string",
          "name": "str",
          "type": "string"
        }
      ],
      "name": "stringToArray",
      "outputs": [
        {
          "internalType": "string[]",
          "name": "",
          "type": "string[]"
        }
      ],
      "stateMutability": "pure",
      "type": "function",
      "constant": true
    },
    {
      "inputs": [
        {
          "internalType": "address payable[]",
          "name": "addresses1",
          "type": "address[]"
        },
        {
          "internalType": "address payable[]",
          "name": "addresses2",
          "type": "address[]"
        }
      ],
      "name": "concatAddresses",
      "outputs": [
        {
          "internalType": "address payable[]",
          "name": "",
          "type": "address[]"
        }
      ],
      "stateMutability": "pure",
      "type": "function",
      "constant": true
    },
    {
      "inputs": [
        {
          "internalType": "string",
          "name": "a",
          "type": "string"
        },
        {
          "internalType": "string",
          "name": "b",
          "type": "string"
        }
      ],
      "name": "concatenate",
      "outputs": [
        {
          "internalType": "string",
          "name": "",
          "type": "string"
        }
      ],
      "stateMutability": "pure",
      "type": "function",
      "constant": true
    },
    {
      "inputs": [
        {
          "internalType": "address",
          "name": "_addr",
          "type": "address"
        }
      ],
      "name": "addressToString",
      "outputs": [
        {
          "internalType": "string",
          "name": "",
          "type": "string"
        }
      ],
      "stateMutability": "pure",
      "type": "function",
      "constant": true
    },
    {
      "inputs": [
        {
          "internalType": "address[]",
          "name": "addr",
          "type": "address[]"
        }
      ],
      "name": "addressArraytoString",
      "outputs": [
        {
          "internalType": "string",
          "name": "",
          "type": "string"
        }
      ],
      "stateMutability": "nonpayable",
      "type": "function"
    },
    {
      "inputs": [
        {
          "internalType": "uint256",
          "name": "price",
          "type": "uint256"
        }
      ],
      "name": "createVoteEnd",
      "outputs": [],
      "stateMutability": "nonpayable",
      "type": "function"
    },
    {
      "inputs": [],
      "name": "getCurrentVote",
      "outputs": [
        {
          "internalType": "uint256",
          "name": "",
          "type": "uint256"
        }
      ],
      "stateMutability": "view",
      "type": "function",
      "constant": true
    },
    {
      "inputs": [],
      "name": "resetProducts",
      "outputs": [],
      "stateMutability": "view",
      "type": "function",
      "constant": true
    },
    {
      "inputs": [
        {
          "internalType": "string",
          "name": "_name",
          "type": "string"
        },
        {
          "internalType": "uint256",
          "name": "_price",
          "type": "uint256"
        },
        {
          "internalType": "uint256",
          "name": "upvotes",
          "type": "uint256"
        },
        {
          "internalType": "string[5]",
          "name": "contributors",
          "type": "string[5]"
        }
      ],
      "name": "createProduct",
      "outputs": [],
      "stateMutability": "nonpayable",
      "type": "function"
    },
    {
      "inputs": [
        {
          "internalType": "uint256",
          "name": "_id",
          "type": "uint256"
        }
      ],
      "name": "purchaseProduct",
      "outputs": [],
      "stateMutability": "payable",
      "type": "function",
      "payable": true
    },
    {
      "inputs": [
        {
          "internalType": "uint256",
          "name": "_id",
          "type": "uint256"
        }
      ],
      "name": "purchaseStory",
      "outputs": [],
      "stateMutability": "payable",
      "type": "function",
      "payable": true
    }
  ],
  "bytecode": "0x6080604052600060015560006002556000600355600060045560006005553480156200002a57600080fd5b506040518060400160405280601081526020017f65787175697369746520636f7270736500000000000000000000000000000000815250600090805190602001906200007892919062000087565b5060006002819055506200019c565b828054620000959062000137565b90600052602060002090601f016020900481019282620000b9576000855562000105565b82601f10620000d457805160ff191683800117855562000105565b8280016001018555821562000105579182015b8281111562000104578251825591602001919060010190620000e7565b5b50905062000114919062000118565b5090565b5b808211156200013357600081600090555060010162000119565b5090565b600060028204905060018216806200015057607f821691505b602082108114156200016757620001666200016d565b5b50919050565b7f4e487b7100000000000000000000000000000000000000000000000000000000600052602260045260246000fd5b61458b80620001ac6000396000f3fe6080604052600436106101405760003560e01c806364f86ad6116100b6578063beba8bbe1161006f578063beba8bbe146104b9578063dc56028d146104f6578063e0f6ef8714610521578063ea081fa91461054c578063edb1dc9c14610575578063f5f3e5e61461059157610140565b806364f86ad61461037b5780636e2a2635146103b85780637acc0b20146103cf5780638edc4bfc146104115780639cafe9191461044e578063ab6d4fbe1461047757610140565b80633aeb0b8e116101085780633aeb0b8e146102435780633db804da1461026e5780634308cf35146102ab5780634e70b1dc146102e85780635e57966d146103135780635e8a29321461035057610140565b806306fdde0314610145578063120f7b6b146101705780631fb4a24b146101ad578063266001d3146101ea57806338e76a0314610227575b600080fd5b34801561015157600080fd5b5061015a6105bc565b6040516101679190613cd2565b60405180910390f35b34801561017c57600080fd5b50610197600480360381019061019291906135cb565b61064a565b6040516101a49190613c6c565b60405180910390f35b3480156101b957600080fd5b506101d460048036038101906101cf9190613777565b610890565b6040516101e19190613c36565b60405180910390f35b3480156101f657600080fd5b50610211600480360381019061020c9190613678565b6108c6565b60405161021e9190613cd2565b60405180910390f35b610241600480360381019061023c9190613777565b610b14565b005b34801561024f57600080fd5b50610258611222565b6040516102659190613deb565b60405180910390f35b34801561027a57600080fd5b5061029560048036038101906102909190613777565b611228565b6040516102a29190613c51565b60405180910390f35b3480156102b757600080fd5b506102d260048036038101906102cd9190613777565b611267565b6040516102df9190613c8e565b60405180910390f35b3480156102f457600080fd5b506102fd611350565b60405161030a9190613deb565b60405180910390f35b34801561031f57600080fd5b5061033a60048036038101906103359190613561565b611356565b6040516103479190613cd2565b60405180910390f35b34801561035c57600080fd5b506103656117b7565b6040516103729190613deb565b60405180910390f35b34801561038757600080fd5b506103a2600480360381019061039d9190613637565b6117bd565b6040516103af9190613cb0565b60405180910390f35b3480156103c457600080fd5b506103cd611a41565b005b3480156103db57600080fd5b506103f660048036038101906103f19190613777565b611c98565b60405161040896959493929190613e06565b60405180910390f35b34801561041d57600080fd5b506104386004803603810190610433919061358a565b611d89565b6040516104459190613cd2565b60405180910390f35b34801561045a57600080fd5b50610475600480360381019061047091906136e4565b611e4f565b005b34801561048357600080fd5b5061049e60048036038101906104999190613777565b612038565b6040516104b096959493929190613f61565b60405180910390f35b3480156104c557600080fd5b506104e060048036038101906104db9190613777565b612191565b6040516104ed9190613cd2565b60405180910390f35b34801561050257600080fd5b5061050b612231565b6040516105189190613deb565b60405180910390f35b34801561052d57600080fd5b5061053661223b565b6040516105439190613deb565b60405180910390f35b34801561055857600080fd5b50610573600480360381019061056e9190613777565b612241565b005b61058f600480360381019061058a9190613777565b612ab4565b005b34801561059d57600080fd5b506105a6612e82565b6040516105b39190613deb565b60405180910390f35b600080546105c99061438e565b80601f01602080910402602001604051908101604052809291908181526020018280546105f59061438e565b80156106425780601f1061061757610100808354040283529160200191610642565b820191906000526020600020905b81548152906001019060200180831161062557829003601f168201915b505050505081565b606060008251845161065c91906141bd565b905060008167ffffffffffffffff8111156106a0577f4e487b7100000000000000000000000000000000000000000000000000000000600052604160045260246000fd5b6040519080825280602002602001820160405280156106ce5781602001602082028036833780820191505090505b50905060005b85518110156107a457858181518110610716577f4e487b7100000000000000000000000000000000000000000000000000000000600052603260045260246000fd5b6020026020010151828281518110610757577f4e487b7100000000000000000000000000000000000000000000000000000000600052603260045260246000fd5b602002602001019073ffffffffffffffffffffffffffffffffffffffff16908173ffffffffffffffffffffffffffffffffffffffff1681525050808061079c906143da565b9150506106d4565b60005b8551811015610883578581815181106107e9577f4e487b7100000000000000000000000000000000000000000000000000000000600052603260045260246000fd5b60200260200101518383806107fd906143da565b945081518110610836577f4e487b7100000000000000000000000000000000000000000000000000000000600052603260045260246000fd5b602002602001019073ffffffffffffffffffffffffffffffffffffffff16908173ffffffffffffffffffffffffffffffffffffffff1681525050808061087b906143da565b9150506107a7565b5081935050505092915050565b600a81600881106108a057600080fd5b016000915054906101000a900473ffffffffffffffffffffffffffffffffffffffff1681565b6060600083905060008390506000815183516108e291906141bd565b67ffffffffffffffff811115610921577f4e487b7100000000000000000000000000000000000000000000000000000000600052604160045260246000fd5b6040519080825280601f01601f1916602001820160405280156109535781602001600182028036833780820191505090505b5090506000805b8451811015610a2e5784818151811061099c577f4e487b7100000000000000000000000000000000000000000000000000000000600052603260045260246000fd5b602001015160f81c60f81b8383806109b3906143da565b9450815181106109ec577f4e487b7100000000000000000000000000000000000000000000000000000000600052603260045260246000fd5b60200101907effffffffffffffffffffffffffffffffffffffffffffffffffffffffffffff1916908160001a9053508080610a26906143da565b91505061095a565b5060005b8351811015610b0657838181518110610a74577f4e487b7100000000000000000000000000000000000000000000000000000000600052603260045260246000fd5b602001015160f81c60f81b838380610a8b906143da565b945081518110610ac4577f4e487b7100000000000000000000000000000000000000000000000000000000600052603260045260246000fd5b60200101907effffffffffffffffffffffffffffffffffffffffffffffffffffffffffffff1916908160001a9053508080610afe906143da565b915050610a32565b508194505050505092915050565b6000600760008381526020019081526020016000206040518060e001604052908160008201548152602001600182018054610b4e9061438e565b80601f0160208091040260200160405190810160405280929190818152602001828054610b7a9061438e565b8015610bc75780601f10610b9c57610100808354040283529160200191610bc7565b820191906000526020600020905b815481529060010190602001808311610baa57829003601f168201915b50505050508152602001600282015481526020016003820160009054906101000a900473ffffffffffffffffffffffffffffffffffffffff1673ffffffffffffffffffffffffffffffffffffffff1673ffffffffffffffffffffffffffffffffffffffff1681526020016003820160149054906101000a900460ff161515151581526020016004820154815260200160058201600580602002604051908101604052809291906000905b82821015610d14578382018054610c879061438e565b80601f0160208091040260200160405190810160405280929190818152602001828054610cb39061438e565b8015610d005780601f10610cd557610100808354040283529160200191610d00565b820191906000526020600020905b815481529060010190602001808311610ce357829003601f168201915b505050505081526020019060010190610c71565b5050505081525050905060008160600151905060008260000151118015610d415750600154826000015111155b610d4a57600080fd5b8160400151341015610d5b57600080fd5b816080015115610da0576040517f08c379a0000000000000000000000000000000000000000000000000000000008152600401610d9790613dcb565b60405180910390fd5b3373ffffffffffffffffffffffffffffffffffffffff168173ffffffffffffffffffffffffffffffffffffffff161415610e0f576040517f08c379a0000000000000000000000000000000000000000000000000000000008152600401610e0690613d8b565b60405180910390fd5b8073ffffffffffffffffffffffffffffffffffffffff166108fc349081150290604051600060405180830381858888f19350505050158015610e55573d6000803e3d6000fd5b5060018260a001818151610e6991906141bd565b91508181525050610e7933611356565b8260c001518360a0015160058110610eba577f4e487b7100000000000000000000000000000000000000000000000000000000600052603260045260246000fd5b60200201819052508160076000858152602001908152602001600020600082015181600001556020820151816001019080519060200190610efc92919061303a565b506040820151816002015560608201518160030160006101000a81548173ffffffffffffffffffffffffffffffffffffffff021916908373ffffffffffffffffffffffffffffffffffffffff16021790555060808201518160030160146101000a81548160ff02191690831515021790555060a0820151816004015560c082015181600501906005610f8f9291906130c0565b5090505060048260a00151106110e05760018260800190151590811515815250508160076000858152602001908152602001600020600082015181600001556020820151816001019080519060200190610fea92919061303a565b506040820151816002015560608201518160030160006101000a81548173ffffffffffffffffffffffffffffffffffffffff021916908373ffffffffffffffffffffffffffffffffffffffff16021790555060808201518160030160146101000a81548160ff02191690831515021790555060a0820151816004015560c08201518160050190600561107d9291906130c0565b509050507f8188e44b6717f640d11be2fb980a4cffe0c626ea8ab72f1fe68e9f1f22dcea4d60015483602001518460400151856060015160018760a001518860c001516040516110d39796959493929190613e6e565b60405180910390a161121d565b6000826080019015159081151581525050816007600085815260200190815260200160002060008201518160000155602082015181600101908051906020019061112b92919061303a565b506040820151816002015560608201518160030160006101000a81548173ffffffffffffffffffffffffffffffffffffffff021916908373ffffffffffffffffffffffffffffffffffffffff16021790555060808201518160030160146101000a81548160ff02191690831515021790555060a0820151816004015560c0820151816005019060056111be9291906130c0565b509050507f8188e44b6717f640d11be2fb980a4cffe0c626ea8ab72f1fe68e9f1f22dcea4d60015483602001518460400151856060015160008760a001518860c001516040516112149796959493929190613e6e565b60405180910390a15b505050565b60035481565b6006818154811061123857600080fd5b906000526020600020016000915054906101000a900473ffffffffffffffffffffffffffffffffffffffff1681565b61126f613113565b600060076000848152602001908152602001600020905080600501600580602002604051908101604052809291906000905b828210156113445783820180546112b79061438e565b80601f01602080910402602001604051908101604052809291908181526020018280546112e39061438e565b80156113305780601f1061130557610100808354040283529160200191611330565b820191906000526020600020905b81548152906001019060200180831161131357829003601f168201915b5050505050815260200190600101906112a1565b50505050915050919050565b60045481565b606060008273ffffffffffffffffffffffffffffffffffffffff1660001b905060006040518060400160405280601081526020017f303132333435363738396162636465660000000000000000000000000000000081525090506000602a67ffffffffffffffff8111156113f3577f4e487b7100000000000000000000000000000000000000000000000000000000600052604160045260246000fd5b6040519080825280601f01601f1916602001820160405280156114255781602001600182028036833780820191505090505b5090507f300000000000000000000000000000000000000000000000000000000000000081600081518110611483577f4e487b7100000000000000000000000000000000000000000000000000000000600052603260045260246000fd5b60200101907effffffffffffffffffffffffffffffffffffffffffffffffffffffffffffff1916908160001a9053507f78000000000000000000000000000000000000000000000000000000000000008160018151811061150d577f4e487b7100000000000000000000000000000000000000000000000000000000600052603260045260246000fd5b60200101907effffffffffffffffffffffffffffffffffffffffffffffffffffffffffffff1916908160001a90535060005b60148110156117ab5782600485600c8461155991906141bd565b60208110611590577f4e487b7100000000000000000000000000000000000000000000000000000000600052603260045260246000fd5b1a60f81b7effffffffffffffffffffffffffffffffffffffffffffffffffffffffffffff1916901c60f81c60ff16815181106115f5577f4e487b7100000000000000000000000000000000000000000000000000000000600052603260045260246000fd5b602001015160f81c60f81b8260028361160e9190614244565b600261161a91906141bd565b81518110611651577f4e487b7100000000000000000000000000000000000000000000000000000000600052603260045260246000fd5b60200101907effffffffffffffffffffffffffffffffffffffffffffffffffffffffffffff1916908160001a90535082600f60f81b85600c8461169491906141bd565b602081106116cb577f4e487b7100000000000000000000000000000000000000000000000000000000600052603260045260246000fd5b1a60f81b1660f81c60ff168151811061170d577f4e487b7100000000000000000000000000000000000000000000000000000000600052603260045260246000fd5b602001015160f81c60f81b826002836117269190614244565b600361173291906141bd565b81518110611769577f4e487b7100000000000000000000000000000000000000000000000000000000600052603260045260246000fd5b60200101907effffffffffffffffffffffffffffffffffffffffffffffffffffffffffffff1916908160001a90535080806117a3906143da565b91505061153f565b50809350505050919050565b60025481565b60606000805b835181101561185f57602060f81b84828151811061180a577f4e487b7100000000000000000000000000000000000000000000000000000000600052603260045260246000fd5b602001015160f81c60f81b7effffffffffffffffffffffffffffffffffffffffffffffffffffffffffffff1916141561184c578180611848906143da565b9250505b8080611857906143da565b9150506117c3565b50600060018261186f91906141bd565b67ffffffffffffffff8111156118ae577f4e487b7100000000000000000000000000000000000000000000000000000000600052604160045260246000fd5b6040519080825280602002602001820160405280156118e157816020015b60608152602001906001900390816118cc5790505b50905060008060005b86518110156119e457602060f81b878281518110611931577f4e487b7100000000000000000000000000000000000000000000000000000000600052603260045260246000fd5b602001015160f81c60f81b7effffffffffffffffffffffffffffffffffffffffffffffffffffffffffffff191614156119d15761196f878483612e88565b8483815181106119a8577f4e487b7100000000000000000000000000000000000000000000000000000000600052603260045260246000fd5b60200260200101819052506001816119c091906141bd565b925081806119cd906143da565b9250505b80806119dc906143da565b9150506118ea565b506119f186838851612e88565b838281518110611a2a577f4e487b7100000000000000000000000000000000000000000000000000000000600052603260045260246000fd5b602002602001018190525082945050505050919050565b611a4961313a565b60005b600254811015611c9457600760008281526020019081526020016000206040518060e001604052908160008201548152602001600182018054611a8e9061438e565b80601f0160208091040260200160405190810160405280929190818152602001828054611aba9061438e565b8015611b075780601f10611adc57610100808354040283529160200191611b07565b820191906000526020600020905b815481529060010190602001808311611aea57829003601f168201915b50505050508152602001600282015481526020016003820160009054906101000a900473ffffffffffffffffffffffffffffffffffffffff1673ffffffffffffffffffffffffffffffffffffffff1673ffffffffffffffffffffffffffffffffffffffff1681526020016003820160149054906101000a900460ff161515151581526020016004820154815260200160058201600580602002604051908101604052809291906000905b82821015611c54578382018054611bc79061438e565b80601f0160208091040260200160405190810160405280929190818152602001828054611bf39061438e565b8015611c405780601f10611c1557610100808354040283529160200191611c40565b820191906000526020600020905b815481529060010190602001808311611c2357829003601f168201915b505050505081526020019060010190611bb1565b5050505081525050915060405180602001604052806000815250826020018190525060008260a00181815250508080611c8c906143da565b915050611a4c565b5050565b6007602052806000526040600020600091509050806000015490806001018054611cc19061438e565b80601f0160208091040260200160405190810160405280929190818152602001828054611ced9061438e565b8015611d3a5780601f10611d0f57610100808354040283529160200191611d3a565b820191906000526020600020905b815481529060010190602001808311611d1d57829003601f168201915b5050505050908060020154908060030160009054906101000a900473ffffffffffffffffffffffffffffffffffffffff16908060030160149054906101000a900460ff16908060040154905086565b6060600060405180602001604052806000815250905060006040518060200160405280600081525090506000600190505b84518111611e4457611e0b858281518110611dfe577f4e487b7100000000000000000000000000000000000000000000000000000000600052603260045260246000fd5b6020026020010151611356565b9250611e2f82611e2a85604051806020016040528060008152506108c6565b6108c6565b91508080611e3c906143da565b915050611dba565b508092505050919050565b6000845111611e5d57600080fd5b60008311611e6a57600080fd5b60016000815480929190611e7d906143da565b9190505550611e8b33611356565b818360058110611ec4577f4e487b7100000000000000000000000000000000000000000000000000000000600052603260045260246000fd5b60200201819052506040518060e0016040528060015481526020018581526020018481526020013373ffffffffffffffffffffffffffffffffffffffff16815260200160001515815260200183815260200182815250600760006001548152602001908152602001600020600082015181600001556020820151816001019080519060200190611f5592919061303a565b506040820151816002015560608201518160030160006101000a81548173ffffffffffffffffffffffffffffffffffffffff021916908373ffffffffffffffffffffffffffffffffffffffff16021790555060808201518160030160146101000a81548160ff02191690831515021790555060a0820151816004015560c082015181600501906005611fe89291906130c0565b509050507fc82765ea43bf0e595f0a19d68b0c7767b21c3fdc9fce2e84cb952ef6dee2fe786001548585336000878760405161202a9796959493929190613e6e565b60405180910390a150505050565b60086020528060005260406000206000915090508060000154908060010154908060020180546120679061438e565b80601f01602080910402602001604051908101604052809291908181526020018280546120939061438e565b80156120e05780601f106120b5576101008083540402835291602001916120e0565b820191906000526020600020905b8154815290600101906020018083116120c357829003601f168201915b5050505050908060030180546120f59061438e565b80601f01602080910402602001604051908101604052809291908181526020018280546121219061438e565b801561216e5780601f106121435761010080835404028352916020019161216e565b820191906000526020600020905b81548152906001019060200180831161215157829003601f168201915b5050505050908060040154908060050160009054906101000a900460ff16905086565b600960205280600052604060002060009150905080546121b09061438e565b80601f01602080910402602001604051908101604052809291908181526020018280546121dc9061438e565b80156122295780601f106121fe57610100808354040283529160200191612229565b820191906000526020600020905b81548152906001019060200180831161220c57829003601f168201915b505050505081565b6000600254905090565b60015481565b60005b6002548110156122fb576000600a826008811061228a577f4e487b7100000000000000000000000000000000000000000000000000000000600052603260045260246000fd5b0160009054906101000a900473ffffffffffffffffffffffffffffffffffffffff1690503373ffffffffffffffffffffffffffffffffffffffff168173ffffffffffffffffffffffffffffffffffffffff1614156122e757600080fd5b5080806122f3906143da565b915050612244565b5033600a60025460088110612339577f4e487b7100000000000000000000000000000000000000000000000000000000600052603260045260246000fd5b0160006101000a81548173ffffffffffffffffffffffffffffffffffffffff021916908373ffffffffffffffffffffffffffffffffffffffff1602179055506002600081548092919061238b906143da565b9190505550600760025410612a78576123a261313a565b60006003819055506000600190505b60015481116126ec57600760008281526020019081526020016000206040518060e0016040529081600082015481526020016001820180546123f29061438e565b80601f016020809104026020016040519081016040528092919081815260200182805461241e9061438e565b801561246b5780601f106124405761010080835404028352916020019161246b565b820191906000526020600020905b81548152906001019060200180831161244e57829003601f168201915b50505050508152602001600282015481526020016003820160009054906101000a900473ffffffffffffffffffffffffffffffffffffffff1673ffffffffffffffffffffffffffffffffffffffff1673ffffffffffffffffffffffffffffffffffffffff1681526020016003820160149054906101000a900460ff161515151581526020016004820154815260200160058201600580602002604051908101604052809291906000905b828210156125b857838201805461252b9061438e565b80601f01602080910402602001604051908101604052809291908181526020018280546125579061438e565b80156125a45780601f10612579576101008083540402835291602001916125a4565b820191906000526020600020905b81548152906001019060200180831161258757829003601f168201915b505050505081526020019060010190612515565b5050505081525050915060048260a00151106126ce57600682606001519080600181540180825580915050600190039060005260206000200160009091909190916101000a81548173ffffffffffffffffffffffffffffffffffffffff021916908373ffffffffffffffffffffffffffffffffffffffff16021790555060036000815480929190612648906143da565b91905055508160200151600960006003548152602001908152602001600020908051906020019061267a92919061303a565b507f32bc891e2cac71758fc1750c899669848735162664579c037c290c8cd9918bc060096000600354815260200190815260200160002060066040516126c1929190613cf4565b60405180910390a16126d9565b6126d661313a565b91505b80806126e4906143da565b9150506123b1565b50600060405180602001604052806000815250905060006040518060400160405280600181526020017f200000000000000000000000000000000000000000000000000000000000000081525090506000600190505b600354811161280e576127f9836127f4846009600086815260200190815260200160002080546127719061438e565b80601f016020809104026020016040519081016040528092919081815260200182805461279d9061438e565b80156127ea5780601f106127bf576101008083540402835291602001916127ea565b820191906000526020600020905b8154815290600101906020018083116127cd57829003601f168201915b50505050506108c6565b6108c6565b92508080612806906143da565b915050612742565b50600060405180602001604052806000815250905060005b6006805490508110156128c7576128b2826128ad856128a860068681548110612878577f4e487b7100000000000000000000000000000000000000000000000000000000600052603260045260246000fd5b9060005260206000200160009054906101000a900473ffffffffffffffffffffffffffffffffffffffff16611356565b6108c6565b6108c6565b915080806128bf906143da565b915050612826565b50600560008154809291906128db906143da565b91905055506040518060e0016040528060055481526020016003548152602001848152602001828152602001868152602001600015158152602001600680548060200260200160405190810160405280929190818152602001828054801561299857602002820191906000526020600020905b8160009054906101000a900473ffffffffffffffffffffffffffffffffffffffff1673ffffffffffffffffffffffffffffffffffffffff168152602001906001019080831161294e575b5050505050815250600860006005548152602001908152602001600020600082015181600001556020820151816001015560408201518160020190805190602001906129e592919061303a565b506060820151816003019080519060200190612a0292919061303a565b506080820151816004015560a08201518160050160006101000a81548160ff02191690831515021790555060c0820151816006019080519060200190612a49929190613195565b50905050612a55611a41565b6000600281905550600060018190555060066000612a73919061321f565b505050505b7fec859db5a3c1ca3ee301d012a70f0e287a104754cd2f264283bb84531f0eed54600254604051612aa99190613deb565b60405180910390a150565b600081118015612ac657506005548111155b612b05576040517f08c379a0000000000000000000000000000000000000000000000000000000008152600401612afc90613dab565b60405180910390fd5b6008600082815260200190815260200160002060040154341015612b5e576040517f08c379a0000000000000000000000000000000000000000000000000000000008152600401612b5590613d6b565b60405180910390fd5b6008600082815260200190815260200160002060050160009054906101000a900460ff1615612bc2576040517f08c379a0000000000000000000000000000000000000000000000000000000008152600401612bb990613d4b565b60405180910390fd5b60016008600083815260200190815260200160002060050160006101000a81548160ff02191690831515021790555060003490506000600860008481526020019081526020016000206001015482612c1a9190614213565b9050600860008481526020019081526020016000206006016006908054612c42929190613240565b5060005b6008600085815260200190815260200160002060010154811015612d2857600060068281548110612ca0577f4e487b7100000000000000000000000000000000000000000000000000000000600052603260045260246000fd5b9060005260206000200160009054906101000a900473ffffffffffffffffffffffffffffffffffffffff1690508073ffffffffffffffffffffffffffffffffffffffff166108fc849081150290604051600060405180830381858888f19350505050158015612d13573d6000803e3d6000fd5b50508080612d20906143da565b915050612c46565b5060066000612d37919061321f565b600860008481526020019081526020016000206006016000612d59919061321f565b60086000848152602001908152602001600020600601339080600181540180825580915050600190039060005260206000200160009091909190916101000a81548173ffffffffffffffffffffffffffffffffffffffff021916908373ffffffffffffffffffffffffffffffffffffffff1602179055507f9056f5e53bed7bb6a15348428f0049261c2b3a32242044179b3ae357e7445b516008600085815260200190815260200160002060000154600860008681526020019081526020016000206002016008600087815260200190815260200160002060030160086000888152602001908152602001600020600401546001600860008a8152602001908152602001600020600601604051612e7596959493929190613eeb565b60405180910390a1505050565b60055481565b606060008490508051831115612ed3576040517f08c379a0000000000000000000000000000000000000000000000000000000008152600401612eca90613d2b565b60405180910390fd5b60008484612ee1919061429e565b67ffffffffffffffff811115612f20577f4e487b7100000000000000000000000000000000000000000000000000000000600052604160045260246000fd5b6040519080825280601f01601f191660200182016040528015612f525781602001600182028036833780820191505090505b50905060008590505b8481101561302d57828181518110612f9c577f4e487b7100000000000000000000000000000000000000000000000000000000600052603260045260246000fd5b602001015160f81c60f81b828783612fb4919061429e565b81518110612feb577f4e487b7100000000000000000000000000000000000000000000000000000000600052603260045260246000fd5b60200101907effffffffffffffffffffffffffffffffffffffffffffffffffffffffffffff1916908160001a9053508080613025906143da565b915050612f5b565b5080925050509392505050565b8280546130469061438e565b90600052602060002090601f01602090048101928261306857600085556130af565b82601f1061308157805160ff19168380011785556130af565b828001600101855582156130af579182015b828111156130ae578251825591602001919060010190613093565b5b5090506130bc9190613292565b5090565b8260058101928215613102579160200282015b828111156131015782518290805190602001906130f192919061303a565b50916020019190600101906130d3565b5b50905061310f91906132af565b5090565b6040518060a001604052806005905b60608152602001906001900390816131225790505090565b6040518060e00160405280600081526020016060815260200160008152602001600073ffffffffffffffffffffffffffffffffffffffff1681526020016000151581526020016000815260200161318f613113565b81525090565b82805482825590600052602060002090810192821561320e579160200282015b8281111561320d5782518260006101000a81548173ffffffffffffffffffffffffffffffffffffffff021916908373ffffffffffffffffffffffffffffffffffffffff160217905550916020019190600101906131b5565b5b50905061321b9190613292565b5090565b508054600082559060005260206000209081019061323d9190613292565b50565b8280548282559060005260206000209081019282156132815760005260206000209182015b82811115613280578254825591600101919060010190613265565b5b50905061328e9190613292565b5090565b5b808211156132ab576000816000905550600101613293565b5090565b5b808211156132cf57600081816132c691906132d3565b506001016132b0565b5090565b5080546132df9061438e565b6000825580601f106132f15750613310565b601f01602090049060005260206000209081019061330f9190613292565b5b50565b600061332661332184614001565b613fd0565b9050808382526020820190508285602086028201111561334557600080fd5b60005b85811015613375578161335b888261347d565b845260208401935060208301925050600181019050613348565b5050509392505050565b600061339261338d8461402d565b613fd0565b905080838252602082019050828560208602820111156133b157600080fd5b60005b858110156133e157816133c78882613492565b8452602084019350602083019250506001810190506133b4565b5050509392505050565b60006133fe6133f984614059565b613fd0565b9050808260005b85811015613435578135850161341b8882613522565b845260208401935060208301925050600181019050613405565b5050509392505050565b600061345261344d8461407f565b613fd0565b90508281526020810184848401111561346a57600080fd5b61347584828561434c565b509392505050565b60008135905061348c81614510565b92915050565b6000813590506134a181614527565b92915050565b600082601f8301126134b857600080fd5b81356134c8848260208601613313565b91505092915050565b600082601f8301126134e257600080fd5b81356134f284826020860161337f565b91505092915050565b600082601f83011261350c57600080fd5b60056135198482856133eb565b91505092915050565b600082601f83011261353357600080fd5b813561354384826020860161343f565b91505092915050565b60008135905061355b8161453e565b92915050565b60006020828403121561357357600080fd5b60006135818482850161347d565b91505092915050565b60006020828403121561359c57600080fd5b600082013567ffffffffffffffff8111156135b657600080fd5b6135c2848285016134a7565b91505092915050565b600080604083850312156135de57600080fd5b600083013567ffffffffffffffff8111156135f857600080fd5b613604858286016134d1565b925050602083013567ffffffffffffffff81111561362157600080fd5b61362d858286016134d1565b9150509250929050565b60006020828403121561364957600080fd5b600082013567ffffffffffffffff81111561366357600080fd5b61366f84828501613522565b91505092915050565b6000806040838503121561368b57600080fd5b600083013567ffffffffffffffff8111156136a557600080fd5b6136b185828601613522565b925050602083013567ffffffffffffffff8111156136ce57600080fd5b6136da85828601613522565b9150509250929050565b600080600080608085870312156136fa57600080fd5b600085013567ffffffffffffffff81111561371457600080fd5b61372087828801613522565b94505060206137318782880161354c565b93505060406137428782880161354c565b925050606085013567ffffffffffffffff81111561375f57600080fd5b61376b878288016134fb565b91505092959194509250565b60006020828403121561378957600080fd5b60006137978482850161354c565b91505092915050565b60006137ac83836137cc565b60208301905092915050565b60006137c483836139b5565b905092915050565b6137d581614304565b82525050565b6137e481614304565b82525050565b6137f3816142f2565b82525050565b600061380482614103565b61380e818561416e565b9350613819836140af565b8060005b8381101561384a57815161383188826137a0565b975061383c8361413a565b92505060018101905061381d565b5085935050505092915050565b60006138628261410e565b61386c818561416e565b9350613877836140bf565b8060005b838110156138af5761388c826144df565b61389688826137a0565b97506138a183614147565b92505060018101905061387b565b5085935050505092915050565b60006138c782614119565b6138d1818561417f565b9350836020820285016138e3856140d4565b8060005b8581101561391f578484038952815161390085826137b8565b945061390b83614154565b925060208a019950506001810190506138e7565b50829750879550505050505092915050565b600061393c82614124565b613946818561418a565b935083602082028501613958856140de565b8060005b85811015613994578484038952815161397585826137b8565b945061398083614161565b925060208a0199505060018101905061395c565b50829750879550505050505092915050565b6139af81614316565b82525050565b60006139c08261412f565b6139ca818561419b565b93506139da81856020860161435b565b6139e3816144f2565b840191505092915050565b60006139f98261412f565b613a0381856141ac565b9350613a1381856020860161435b565b613a1c816144f2565b840191505092915050565b60008154613a348161438e565b613a3e81866141ac565b94506001821660008114613a595760018114613a6b57613a9e565b60ff1983168652602086019350613a9e565b613a74856140ee565b60005b83811015613a9657815481890152600182019150602081019050613a77565b808801955050505b50505092915050565b6000613ab46010836141ac565b91507f496e76616c696420656e64496e646578000000000000000000000000000000006000830152602082019050919050565b6000613af46017836141ac565b91507f53746f727920616c7265616479207075726368617365640000000000000000006000830152602082019050919050565b6000613b346012836141ac565b91507f496e73756666696369656e742066756e647300000000000000000000000000006000830152602082019050919050565b6000613b74600f836141ac565b91507f416c7265616479207570766f74656400000000000000000000000000000000006000830152602082019050919050565b6000613bb46012836141ac565b91507f496e76616c69642070726f6475637420494400000000000000000000000000006000830152602082019050919050565b6000613bf4601f836141ac565b91507f596f752063616e6e6f74207570766f746520796f75722073656e74656e6365006000830152602082019050919050565b613c3081614342565b82525050565b6000602082019050613c4b60008301846137ea565b92915050565b6000602082019050613c6660008301846137db565b92915050565b60006020820190508181036000830152613c8681846137f9565b905092915050565b60006020820190508181036000830152613ca881846138bc565b905092915050565b60006020820190508181036000830152613cca8184613931565b905092915050565b60006020820190508181036000830152613cec81846139ee565b905092915050565b60006040820190508181036000830152613d0e8185613a27565b90508181036020830152613d228184613857565b90509392505050565b60006020820190508181036000830152613d4481613aa7565b9050919050565b60006020820190508181036000830152613d6481613ae7565b9050919050565b60006020820190508181036000830152613d8481613b27565b9050919050565b60006020820190508181036000830152613da481613b67565b9050919050565b60006020820190508181036000830152613dc481613ba7565b9050919050565b60006020820190508181036000830152613de481613be7565b9050919050565b6000602082019050613e006000830184613c27565b92915050565b600060c082019050613e1b6000830189613c27565b8181036020830152613e2d81886139ee565b9050613e3c6040830187613c27565b613e4960608301866137db565b613e5660808301856139a6565b613e6360a0830184613c27565b979650505050505050565b600060e082019050613e83600083018a613c27565b8181036020830152613e9581896139ee565b9050613ea46040830188613c27565b613eb160608301876137db565b613ebe60808301866139a6565b613ecb60a0830185613c27565b81810360c0830152613edd81846138bc565b905098975050505050505050565b600060c082019050613f006000830189613c27565b8181036020830152613f128188613a27565b90508181036040830152613f268187613a27565b9050613f356060830186613c27565b613f4260808301856139a6565b81810360a0830152613f548184613857565b9050979650505050505050565b600060c082019050613f766000830189613c27565b613f836020830188613c27565b8181036040830152613f9581876139ee565b90508181036060830152613fa981866139ee565b9050613fb86080830185613c27565b613fc560a08301846139a6565b979650505050505050565b6000604051905081810181811067ffffffffffffffff82111715613ff757613ff66144b0565b5b8060405250919050565b600067ffffffffffffffff82111561401c5761401b6144b0565b5b602082029050602081019050919050565b600067ffffffffffffffff821115614048576140476144b0565b5b602082029050602081019050919050565b600067ffffffffffffffff821115614074576140736144b0565b5b602082029050919050565b600067ffffffffffffffff82111561409a576140996144b0565b5b601f19601f8301169050602081019050919050565b6000819050602082019050919050565b60008190508160005260206000209050919050565b6000819050919050565b6000819050602082019050919050565b60008190508160005260206000209050919050565b600081519050919050565b600081549050919050565b600060059050919050565b600081519050919050565b600081519050919050565b6000602082019050919050565b6000600182019050919050565b6000602082019050919050565b6000602082019050919050565b600082825260208201905092915050565b600081905092915050565b600082825260208201905092915050565b600082825260208201905092915050565b600082825260208201905092915050565b60006141c882614342565b91506141d383614342565b9250827fffffffffffffffffffffffffffffffffffffffffffffffffffffffffffffffff0382111561420857614207614423565b5b828201905092915050565b600061421e82614342565b915061422983614342565b92508261423957614238614452565b5b828204905092915050565b600061424f82614342565b915061425a83614342565b9250817fffffffffffffffffffffffffffffffffffffffffffffffffffffffffffffffff048311821515161561429357614292614423565b5b828202905092915050565b60006142a982614342565b91506142b483614342565b9250828210156142c7576142c6614423565b5b828203905092915050565b600073ffffffffffffffffffffffffffffffffffffffff82169050919050565b60006142fd82614322565b9050919050565b600061430f82614322565b9050919050565b60008115159050919050565b600073ffffffffffffffffffffffffffffffffffffffff82169050919050565b6000819050919050565b82818337600083830152505050565b60005b8381101561437957808201518184015260208101905061435e565b83811115614388576000848401525b50505050565b600060028204905060018216806143a657607f821691505b602082108114156143ba576143b9614481565b5b50919050565b60006143d36143ce83614503565b6142d2565b9050919050565b60006143e582614342565b91507fffffffffffffffffffffffffffffffffffffffffffffffffffffffffffffffff82141561441857614417614423565b5b600182019050919050565b7f4e487b7100000000000000000000000000000000000000000000000000000000600052601160045260246000fd5b7f4e487b7100000000000000000000000000000000000000000000000000000000600052601260045260246000fd5b7f4e487b7100000000000000000000000000000000000000000000000000000000600052602260045260246000fd5b7f4e487b7100000000000000000000000000000000000000000000000000000000600052604160045260246000fd5b60006144eb82546143c0565b9050919050565b6000601f19601f8301169050919050565b60008160001c9050919050565b614519816142f2565b811461452457600080fd5b50565b61453081614304565b811461453b57600080fd5b50565b61454781614342565b811461455257600080fd5b5056fea2646970667358221220752c1ff373fe01434868328b1b2c4fa36052efd50681d9f71ac76a724910fd9764736f6c63430008000033",
  "immutableReferences": {},
  "source": "pragma solidity ^0.8.0;\r\n\r\n\r\n//TODO\r\n//Add another table with stories, authors, buy button\r\n//convert contributors to string array and get the size\r\n//get the buyer address\r\n//transfer the ownership\r\n//split the sale\r\n//display the buy button\r\ncontract Marketplace {\r\n\tstring public name;\r\n\tuint public productCount = 0;\r\n\tuint public vote_end = 0;\r\n\tuint public SentenceCount = 0;\r\n\tuint public num = 0;\r\n\tuint public historyProdCount = 0;\r\n\taddress payable [] public authors;\r\n\tmapping(uint => Product) public products;\r\n\tmapping(uint => CompleteStory) public products_historical;\r\n\t//link story in historical to the contributors\r\n\t//string public authors;\r\n\tmapping(uint => string) public story;\r\n\taddress[8] public voters_end;\r\n\tstruct Product {\r\n\t\tuint id;\r\n\t\tstring name;\r\n\t\tuint price;\r\n\t\taddress payable owner;\r\n\t\tbool purchased;\r\n\t\tuint upvotes;\r\n\t\tstring[5] contributors;\r\n\t}\r\n\t// struct Sentence {\r\n\t// \tstring name;\r\n\t// \t//address payable [] authors;\r\n\t// }\r\n\tstruct CompleteStory {\r\n\t\tuint id;\r\n\t\tuint sentCount;\r\n\t\tstring fullS;\r\n\t\tstring authors;\r\n\t\tuint price;\r\n\t\tbool purchased;\r\n\t\taddress payable [] owner;\r\n\t\t//address  payable [] authors;\r\n\t}\r\n\r\n\tevent StoryCreated(\r\n\t\tstring name,\r\n\t\taddress payable [] authors\t\r\n\t);\r\n\r\n\tevent StoryPurchased(\r\n\t\tuint id,\r\n\t\tstring fullS,\r\n\t\tstring authors,\r\n\t\tuint price,\r\n\t\tbool purchased,\r\n\t\taddress payable [] owner\r\n\t);\r\n\r\n\tevent ProductCreated(\r\n\t\tuint id,\r\n\t\tstring name,\r\n\t\tuint price,\r\n\t\taddress payable owner,\r\n\t\tbool purchased,\r\n\t\tuint upvotes,\r\n\t\tstring[5] contributors\t\r\n\t);\r\n\r\n\tevent upVote(\r\n\t\tuint vote\r\n\t);\r\n\r\n\tevent ProductPurchased(\r\n\t\tuint id,\r\n\t\tstring name,\r\n\t\tuint price,\r\n\t\taddress payable owner,\r\n\t\tbool purchased,\r\n\t\tuint upvotes,\r\n\t\tstring[5] contributors\r\n\t);\r\n\r\n\tstruct voteEnd{\r\n\t\tuint votes;\r\n\t}\r\n\t\r\n\t\r\n\tconstructor() {\r\n\t\tname = \"exquisite corpse\";\r\n\t\t//products_historical ='';\r\n\t\tvote_end = 0;\r\n\t}\r\n\r\n\tfunction getArr(uint _id) public view returns (string[5] memory) {\r\n\t\tProduct storage myProduct = products[_id];\r\n    \treturn myProduct.contributors;\r\n\t}\r\n\r\n\tfunction stringToArray(string memory str) public pure returns (string[] memory) {\r\n        // Count the number of spaces in the input string\r\n        uint spaceCount = 0;\r\n        for (uint i = 0; i < bytes(str).length; i++) {\r\n            if (bytes(str)[i] == 0x20) { // ASCII value of space is 0x20\r\n                spaceCount++;\r\n            }\r\n        }\r\n\r\n        // Create a new dynamic string array with the number of spaces + 1 elements\r\n        string[] memory stringArr = new string[](spaceCount + 1);\r\n        uint startIndex = 0;\r\n        uint arrayIndex = 0;\r\n\r\n        // Iterate over the input string and split it by space\r\n        for (uint i = 0; i < bytes(str).length; i++) {\r\n            if (bytes(str)[i] == 0x20) {\r\n                stringArr[arrayIndex] = substring(str, startIndex, i);\r\n                startIndex = i + 1;\r\n                arrayIndex++;\r\n            }\r\n        }\r\n\r\n        // Add the remaining part of the input string to the array\r\n        stringArr[arrayIndex] = substring(str, startIndex, bytes(str).length);\r\n\r\n        return stringArr;\r\n    }\r\n\r\n\tfunction substring(string memory str, uint startIndex, uint endIndex) internal pure returns (string memory) {\r\n        bytes memory strBytes = bytes(str);\r\n        require(endIndex <= strBytes.length, \"Invalid endIndex\");\r\n\r\n        bytes memory result = new bytes(endIndex - startIndex);\r\n        for (uint i = startIndex; i < endIndex; i++) {\r\n            result[i - startIndex] = strBytes[i];\r\n        }\r\n\r\n        return string(result);\r\n    }\r\n\t\r\n\r\n\r\n\tfunction stringToAddress(string memory _input) internal pure returns (address) {\r\n\t\tbytes32 hash = keccak256(bytes(_input));\r\n\t\taddress addr = address(uint160(uint256(hash)));\r\n\t\treturn addr;\r\n\t}\r\n\tfunction concatAddresses(address payable [] memory addresses1, address payable [] memory addresses2) public pure returns(address payable [] memory) {\r\n\t\tuint totalLength = addresses1.length + addresses2.length;\r\n\t\taddress payable [] memory concatenatedArray = new address payable [](totalLength);\r\n\t\t\r\n\t\tuint i;\r\n\t\tfor (i = 0; i < addresses1.length; i++) {\r\n\t\t\tconcatenatedArray[i] = addresses1[i];\r\n\t\t}\r\n\t\tfor (uint j = 0; j < addresses2.length; j++) {\r\n\t\t\tconcatenatedArray[i++] = addresses2[j];\r\n\t\t}\r\n\t\t\r\n\t\treturn concatenatedArray;\r\n\t}\r\n\tfunction concatenate(string memory a, string memory b) public pure returns (string memory) {\r\n        bytes memory aa = bytes(a);\r\n        bytes memory bb = bytes(b);\r\n        bytes memory result = new bytes(aa.length + bb.length);\r\n        uint k = 0;\r\n        for (uint i = 0; i < aa.length; i++) {\r\n            result[k++] = aa[i];\r\n        }\r\n        for (uint i = 0; i < bb.length; i++) {\r\n            result[k++] = bb[i];\r\n        }\r\n        return string(result);\r\n    }\r\n\tfunction toString(uint _i) internal pure returns (string memory _uintAsString) {\r\n        if (_i == 0) {\r\n            return \"0\";\r\n        }\r\n        uint j = _i;\r\n        uint len;\r\n        while (j != 0) {\r\n            len++;\r\n            j /= 10;\r\n        }\r\n        bytes memory bstr = new bytes(len);\r\n        uint k = len;\r\n        while (_i != 0) {\r\n            k = k-1;\r\n            uint8 temp = (48 + uint8(_i - _i / 10 * 10));\r\n            bytes1 b1 = bytes1(temp);\r\n            bstr[k] = b1;\r\n            _i /= 10;\r\n        }\r\n        return string(bstr);\r\n    }\r\n\tfunction addressToString(address _addr) public pure returns (string memory) {\r\n\t\tbytes32 value = bytes32(uint256(uint160(_addr)));\r\n\t\tbytes memory alphabet = \"0123456789abcdef\";\r\n\r\n\t\tbytes memory str = new bytes(42);\r\n\t\tstr[0] = '0';\r\n\t\tstr[1] = 'x';\r\n\t\tfor (uint i = 0; i < 20; i++) {\r\n\t\t\tstr[2+i*2] = alphabet[uint8(value[i + 12] >> 4)];\r\n\t\t\tstr[3+i*2] = alphabet[uint8(value[i + 12] & 0x0f)];\r\n\t\t}\r\n\t\treturn string(str);\r\n\t}\r\n\r\n\tfunction addressArraytoString(address [] memory addr) public returns (string memory)  {\r\n\t\tstring memory stringAddr1 = \"\";\r\n\t\tstring memory stringAddr2 = \"\";\r\n\t\tfor(uint i = 1; i <= addr.length; i++) {\r\n\t\t\tstringAddr1 = addressToString(addr[i]);\r\n\t\t\tstringAddr2 = concatenate(stringAddr2, concatenate(stringAddr1, \"\"));\r\n\t\t}\r\n\r\n\t\treturn stringAddr2;\r\n\t}\r\n\r\n\tfunction createVoteEnd(uint price) public {\r\n    //string storage senderString = toString(msg.sender);\r\n\t//check not similar voters\r\n    for (uint i = 0; i < vote_end; i++) {\r\n\t\taddress voterA = voters_end[i];\r\n        require( voterA != msg.sender);\r\n    }\r\n\t\tvoters_end[vote_end] = msg.sender;\r\n\t\tvote_end++;\r\n\r\n\t\t//transfer to past stories\r\n\t\tif(vote_end >= 7){\r\n\t\t\tProduct memory _product;\r\n\t\t\tSentenceCount = 0;\r\n\t\t\t//address payable tempaddr;\r\n\t\t\tfor(uint i = 1; i <= productCount; i++){\r\n\t\t\t\t_product = products[i];\r\n\t\t\t\tif(_product.upvotes >= 4){\r\n\t\t\t\t\tauthors.push(_product.owner);\r\n\t\t\t\t\t//_sentence.name = _product.name;\r\n\t\t\t\t\tSentenceCount++;\r\n\t\t\t\t\tstory[SentenceCount]= _product.name;\r\n\t\t\t\t\t\r\n\t\t\t\t\t//make the first sentence have all the authors\r\n\t\t\t\t\temit StoryCreated(story[SentenceCount], authors);\r\n\t\t\t\t}\r\n\t\t\t\telse {\r\n\t\t\t\t\tdelete _product;\r\n\t\t\t\t\t\r\n\t\t\t\t}\r\n\r\n\t\t\t}\r\n\t\t\t// //concate all sentences in one string\r\n\t\t\tstring memory full_story = \"\";\r\n\t\t\tstring memory space = \" \";\r\n\t\t\t//string memory full_story;\r\n\t\t\tfor (uint j = 1; j <= SentenceCount; j++) {\r\n\t\t\t\tfull_story = concatenate(full_story, concatenate(space, story[j]));\r\n\t\t\t}\r\n\t\t\t//add the authors strings\r\n\t\t\tstring memory authstring = \"\";\r\n\t\t\tfor (uint j = 0; j < authors.length; j++) {\r\n\t\t\t\tauthstring =  concatenate(authstring, concatenate(space, addressToString(authors[j])));\r\n\t\t\t}\r\n\t\t\thistoryProdCount++; \r\n\t\t\tproducts_historical[historyProdCount] = CompleteStory(historyProdCount, SentenceCount, \r\n\t\t\tfull_story, authstring, price , false, authors);\r\n\t\t\tresetProducts();\r\n\t\t\tvote_end = 0;\r\n\t\t\tproductCount = 0;\r\n\t\t\tdelete authors;\r\n\t\t\r\n\t\t} \r\n\t\t\r\n\t\temit upVote(vote_end);\r\n\t}\r\n\r\n\tfunction getCurrentVote() public view returns (uint) {\r\n\t\t// portion where we plug in tufts account\r\n\t\t// address(_seller).transfer(msg.value);\r\n\t\treturn vote_end;\r\n\t}\r\n\t\r\n\tfunction resetProducts() public view{\r\n\t\tProduct memory _product;\r\n\t\tfor(uint i = 0; i < vote_end; i++){\r\n\t\t\t_product = products[i];\r\n\t\t\t_product.name = \"\";\r\n\t\t\t_product.upvotes = 0;\r\n\t\t}\r\n\t}\r\n\r\n\r\n\tfunction createProduct(string memory _name, uint _price, uint upvotes, string[5] memory contributors) public {\r\n\t\t// require a name\r\n\t\trequire(bytes(_name).length > 0);\r\n\t\t// require a valid price\r\n\t\trequire(_price > 0);\r\n\t\t// make sure params good\r\n\t\t// inc products count\r\n\t\tproductCount++;\r\n\t\t//add owner to contributors\r\n\t\tcontributors[upvotes] = addressToString(msg.sender);\r\n\t\t//address payable [] memory owner;\r\n\t\t//owner[1] = payable(msg.sender);\r\n\t\t// create the product\r\n\t\tproducts[productCount] = Product(productCount, _name, _price, payable(msg.sender), false, upvotes, contributors);\r\n\t\t// trigger an event\t\r\n\t\temit ProductCreated(productCount, _name, _price, payable(msg.sender), false, upvotes, contributors);\r\n\t}\r\n\r\n\tfunction purchaseProduct(uint _id) public payable{\r\n\t\t// fetch product\r\n\t\tProduct memory _product = products[_id];\t\r\n\t\t// fetch the owner\r\n\t\taddress payable _seller = _product.owner;\r\n\t\t\r\n\t\t// make sure the product has a valid id\r\n\t\trequire(_product.id > 0 && _product.id <= productCount);\r\n\t\t// make sure they sent enough ether\r\n\t\trequire(msg.value >= _product.price);\r\n\t\t// require product has not already been purchased\r\n\t\trequire(!_product.purchased, \"You cannot upvote your sentence\");\r\n\t\t// require that the buyer is not the seller\r\n\t\trequire(_seller != msg.sender, \"Already upvoted\");\r\n\t\t// require that the buyer is not a previous contributor (i.e already upvoted)\r\n\t\t\r\n\t\t\r\n\t\tpayable(_seller).transfer(msg.value);\r\n\t\t// mark as purchased\r\n\t\t// increment upvotes of product\r\n\t\t_product.upvotes += 1;\r\n\t\t//add purchaser to contributors\r\n\t\t_product.contributors[_product.upvotes] = addressToString(msg.sender);\r\n\t\t//update the product\r\n\t\tproducts[_id] = _product;\r\n\t\t\r\n\t\tif(_product.upvotes >= 4){\r\n\t\t\t_product.purchased = true;\r\n\t\t\tproducts[_id] = _product;\r\n\t\t\temit ProductPurchased(productCount, _product.name, _product.price, _product.owner, true, _product.upvotes, _product.contributors);\r\n\t\t}\r\n\t\telse {\r\n\t\t\t_product.purchased = false;\r\n\t\t\tproducts[_id] = _product;\r\n\t\t\temit ProductPurchased(productCount, _product.name, _product.price, _product.owner, false, _product.upvotes, _product.contributors);\r\n\t\t}\t\r\n\t}\r\n\r\n\r\n   function purchaseStory(uint _id) public payable {\r\n\t\t// Fetch the product\r\n\t\trequire(_id > 0 && _id <= historyProdCount, \"Invalid product ID\");\r\n\r\n\t\trequire(msg.value >= products_historical[_id].price, \"Insufficient funds\");\r\n\r\n\t\trequire(!products_historical[_id].purchased, \"Story already purchased\");\r\n\r\n\t\tproducts_historical[_id].purchased = true;\r\n\r\n\t\t// Transfer funds to sellers\r\n\t\tuint fullprice = msg.value;\r\n\t\tuint paidPrice = fullprice/products_historical[_id].sentCount;\r\n\t\tauthors = products_historical[_id].owner;\r\n\t\tfor (uint i = 0; i < products_historical[_id].sentCount; i++) {\r\n\t\t\taddress payable seller = authors[i];\r\n\t\t\tseller.transfer(paidPrice);\r\n\t\t}\r\n\r\n\t\t// Update product ownership\r\n\t\tdelete authors;\r\n\t\tdelete products_historical[_id].owner;\r\n\t\tproducts_historical[_id].owner.push(payable(msg.sender)); \r\n\r\n\t\t// Trigger an event\r\n\t\temit StoryPurchased(products_historical[_id].id,products_historical[_id].fullS, products_historical[_id].authors, products_historical[_id].price, true,  products_historical[_id].owner);\r\n\t}\r\n\r\n\r\n}\r\n",
  "sourcePath": "C:/Users/shahd/documents/blockchain/corpseNNN/src/contracts/Marketplace.sol",
  "compiler": {
    "name": "solc",
    "version": "0.8.0+commit.c7dfd78e.Emscripten.clang"
  },
  "schemaVersion": "3.3.3",
  "updatedAt": "2023-07-17T22:44:31.534Z",
  "networkType": "ethereum",
  "devdoc": {
    "kind": "dev",
    "methods": {},
    "version": 1
  },
  "userdoc": {
    "kind": "user",
    "methods": {},
    "version": 1
  }
}