{
  "contractName": "Marketplace",
  "abi": [
    {
      "inputs": [],
      "stateMutability": "nonpayable",
      "type": "constructor"
    },
    {
      "anonymous": false,
      "inputs": [
        {
          "indexed": false,
          "internalType": "uint256",
          "name": "id",
          "type": "uint256"
        },
        {
          "indexed": false,
          "internalType": "string",
          "name": "name",
          "type": "string"
        },
        {
          "indexed": false,
          "internalType": "uint256",
          "name": "price",
          "type": "uint256"
        },
        {
          "indexed": false,
          "internalType": "address payable",
          "name": "owner",
          "type": "address"
        },
        {
          "indexed": false,
          "internalType": "bool",
          "name": "purchased",
          "type": "bool"
        },
        {
          "indexed": false,
          "internalType": "uint256",
          "name": "upvotes",
          "type": "uint256"
        },
        {
          "indexed": false,
          "internalType": "string[3]",
          "name": "contributors",
          "type": "string[3]"
        }
      ],
      "name": "ProductCreated",
      "type": "event"
    },
    {
      "anonymous": false,
      "inputs": [
        {
          "indexed": false,
          "internalType": "uint256",
          "name": "id",
          "type": "uint256"
        },
        {
          "indexed": false,
          "internalType": "string",
          "name": "name",
          "type": "string"
        },
        {
          "indexed": false,
          "internalType": "uint256",
          "name": "price",
          "type": "uint256"
        },
        {
          "indexed": false,
          "internalType": "address payable",
          "name": "owner",
          "type": "address"
        },
        {
          "indexed": false,
          "internalType": "bool",
          "name": "purchased",
          "type": "bool"
        },
        {
          "indexed": false,
          "internalType": "uint256",
          "name": "upvotes",
          "type": "uint256"
        },
        {
          "indexed": false,
          "internalType": "string[3]",
          "name": "contributors",
          "type": "string[3]"
        }
      ],
      "name": "ProductPurchased",
      "type": "event"
    },
    {
      "anonymous": false,
      "inputs": [
        {
          "indexed": false,
          "internalType": "string",
          "name": "name",
          "type": "string"
        },
        {
          "indexed": false,
          "internalType": "string[3]",
          "name": "authors",
          "type": "string[3]"
        }
      ],
      "name": "StoryCreated",
      "type": "event"
    },
    {
      "anonymous": false,
      "inputs": [
        {
          "indexed": false,
          "internalType": "uint256",
          "name": "id",
          "type": "uint256"
        },
        {
          "indexed": false,
          "internalType": "string",
          "name": "fullS",
          "type": "string"
        },
        {
          "indexed": false,
          "internalType": "uint256",
          "name": "price",
          "type": "uint256"
        },
        {
          "indexed": false,
          "internalType": "bool",
          "name": "purchased",
          "type": "bool"
        },
        {
          "indexed": false,
          "internalType": "address payable",
          "name": "owner",
          "type": "address"
        },
        {
          "indexed": false,
          "internalType": "string",
          "name": "authors",
          "type": "string"
        }
      ],
      "name": "StoryPurchased",
      "type": "event"
    },
    {
      "anonymous": false,
      "inputs": [
        {
          "indexed": false,
          "internalType": "uint256",
          "name": "vote",
          "type": "uint256"
        }
      ],
      "name": "upVote",
      "type": "event"
    },
    {
      "inputs": [],
      "name": "SentenceCount",
      "outputs": [
        {
          "internalType": "uint256",
          "name": "",
          "type": "uint256"
        }
      ],
      "stateMutability": "view",
      "type": "function",
      "constant": true
    },
    {
      "inputs": [],
      "name": "historyProdCount",
      "outputs": [
        {
          "internalType": "uint256",
          "name": "",
          "type": "uint256"
        }
      ],
      "stateMutability": "view",
      "type": "function",
      "constant": true
    },
    {
      "inputs": [],
      "name": "name",
      "outputs": [
        {
          "internalType": "string",
          "name": "",
          "type": "string"
        }
      ],
      "stateMutability": "view",
      "type": "function",
      "constant": true
    },
    {
      "inputs": [],
      "name": "num",
      "outputs": [
        {
          "internalType": "uint256",
          "name": "",
          "type": "uint256"
        }
      ],
      "stateMutability": "view",
      "type": "function",
      "constant": true
    },
    {
      "inputs": [],
      "name": "productCount",
      "outputs": [
        {
          "internalType": "uint256",
          "name": "",
          "type": "uint256"
        }
      ],
      "stateMutability": "view",
      "type": "function",
      "constant": true
    },
    {
      "inputs": [
        {
          "internalType": "uint256",
          "name": "",
          "type": "uint256"
        }
      ],
      "name": "products",
      "outputs": [
        {
          "internalType": "uint256",
          "name": "id",
          "type": "uint256"
        },
        {
          "internalType": "string",
          "name": "name",
          "type": "string"
        },
        {
          "internalType": "uint256",
          "name": "price",
          "type": "uint256"
        },
        {
          "internalType": "address payable",
          "name": "owner",
          "type": "address"
        },
        {
          "internalType": "bool",
          "name": "purchased",
          "type": "bool"
        },
        {
          "internalType": "uint256",
          "name": "upvotes",
          "type": "uint256"
        }
      ],
      "stateMutability": "view",
      "type": "function",
      "constant": true
    },
    {
      "inputs": [
        {
          "internalType": "uint256",
          "name": "",
          "type": "uint256"
        }
      ],
      "name": "products_historical",
      "outputs": [
        {
          "internalType": "uint256",
          "name": "id",
          "type": "uint256"
        },
        {
          "internalType": "string",
          "name": "fullS",
          "type": "string"
        },
        {
          "internalType": "uint256",
          "name": "price",
          "type": "uint256"
        },
        {
          "internalType": "bool",
          "name": "purchased",
          "type": "bool"
        },
        {
          "internalType": "address payable",
          "name": "owner",
          "type": "address"
        },
        {
          "internalType": "string",
          "name": "authors",
          "type": "string"
        }
      ],
      "stateMutability": "view",
      "type": "function",
      "constant": true
    },
    {
      "inputs": [
        {
          "internalType": "uint256",
          "name": "",
          "type": "uint256"
        }
      ],
      "name": "story",
      "outputs": [
        {
          "internalType": "string",
          "name": "name",
          "type": "string"
        }
      ],
      "stateMutability": "view",
      "type": "function",
      "constant": true
    },
    {
      "inputs": [],
      "name": "vote_end",
      "outputs": [
        {
          "internalType": "uint256",
          "name": "",
          "type": "uint256"
        }
      ],
      "stateMutability": "view",
      "type": "function",
      "constant": true
    },
    {
      "inputs": [
        {
          "internalType": "uint256",
          "name": "",
          "type": "uint256"
        }
      ],
      "name": "voters_end",
      "outputs": [
        {
          "internalType": "address",
          "name": "",
          "type": "address"
        }
      ],
      "stateMutability": "view",
      "type": "function",
      "constant": true
    },
    {
      "inputs": [
        {
          "internalType": "uint256",
          "name": "_id",
          "type": "uint256"
        }
      ],
      "name": "getArr",
      "outputs": [
        {
          "internalType": "string[3]",
          "name": "",
          "type": "string[3]"
        }
      ],
      "stateMutability": "view",
      "type": "function",
      "constant": true
    },
    {
      "inputs": [
        {
          "internalType": "string",
          "name": "input",
          "type": "string"
        }
      ],
      "name": "removeDuplicateWords",
      "outputs": [
        {
          "internalType": "string",
          "name": "",
          "type": "string"
        }
      ],
      "stateMutability": "pure",
      "type": "function",
      "constant": true
    },
    {
      "inputs": [
        {
          "internalType": "string",
          "name": "a",
          "type": "string"
        },
        {
          "internalType": "string",
          "name": "b",
          "type": "string"
        }
      ],
      "name": "concatenate",
      "outputs": [
        {
          "internalType": "string",
          "name": "",
          "type": "string"
        }
      ],
      "stateMutability": "pure",
      "type": "function",
      "constant": true
    },
    {
      "inputs": [
        {
          "internalType": "address",
          "name": "_addr",
          "type": "address"
        }
      ],
      "name": "addressToString",
      "outputs": [
        {
          "internalType": "string",
          "name": "",
          "type": "string"
        }
      ],
      "stateMutability": "pure",
      "type": "function",
      "constant": true
    },
    {
      "inputs": [
        {
          "internalType": "uint256",
          "name": "price",
          "type": "uint256"
        }
      ],
      "name": "createVoteEnd",
      "outputs": [],
      "stateMutability": "nonpayable",
      "type": "function"
    },
    {
      "inputs": [],
      "name": "getCurrentVote",
      "outputs": [
        {
          "internalType": "uint256",
          "name": "",
          "type": "uint256"
        }
      ],
      "stateMutability": "view",
      "type": "function",
      "constant": true
    },
    {
      "inputs": [],
      "name": "resetProducts",
      "outputs": [],
      "stateMutability": "view",
      "type": "function",
      "constant": true
    },
    {
      "inputs": [
        {
          "internalType": "string",
          "name": "_name",
          "type": "string"
        },
        {
          "internalType": "uint256",
          "name": "_price",
          "type": "uint256"
        },
        {
          "internalType": "uint256",
          "name": "upvotes",
          "type": "uint256"
        },
        {
          "internalType": "string[3]",
          "name": "contributors",
          "type": "string[3]"
        }
      ],
      "name": "createProduct",
      "outputs": [],
      "stateMutability": "nonpayable",
      "type": "function"
    },
    {
      "inputs": [
        {
          "internalType": "uint256",
          "name": "_id",
          "type": "uint256"
        }
      ],
      "name": "purchaseProduct",
      "outputs": [],
      "stateMutability": "payable",
      "type": "function",
      "payable": true
    },
    {
      "inputs": [
        {
          "internalType": "uint256",
          "name": "_id",
          "type": "uint256"
        }
      ],
      "name": "purchaseStory",
      "outputs": [],
      "stateMutability": "payable",
      "type": "function",
      "payable": true
    }
  ],
  "bytecode": "0x6080604052600060015560006002556000600355600060045560006005553480156200002a57600080fd5b506040518060400160405280601081526020017f65787175697369746520636f7270736500000000000000000000000000000000815250600090805190602001906200007892919062000087565b5060006002819055506200019c565b828054620000959062000137565b90600052602060002090601f016020900481019282620000b9576000855562000105565b82601f10620000d457805160ff191683800117855562000105565b8280016001018555821562000105579182015b8281111562000104578251825591602001919060010190620000e7565b5b50905062000114919062000118565b5090565b5b808211156200013357600081600090555060010162000119565b5090565b600060028204905060018216806200015057607f821691505b602082108114156200016757620001666200016d565b5b50919050565b7f4e487b7100000000000000000000000000000000000000000000000000000000600052602260045260246000fd5b613cf680620001ac6000396000f3fe60806040526004361061011f5760003560e01c80637acc0b20116100a0578063de6950e811610064578063de6950e814610420578063e0f6ef8714610449578063ea081fa914610474578063edb1dc9c1461049d578063f5f3e5e6146104b95761011f565b80637acc0b20146102f757806396ddd53e14610339578063ab6d4fbe14610376578063beba8bbe146103b8578063dc56028d146103f55761011f565b80634308cf35116100e75780634308cf35146102105780634e70b1dc1461024d5780635e57966d146102785780635e8a2932146102b55780636e2a2635146102e05761011f565b806306fdde03146101245780631fb4a24b1461014f578063266001d31461018c57806338e76a03146101c95780633aeb0b8e146101e5575b600080fd5b34801561013057600080fd5b506101396104e4565b6040516101469190613705565b60405180910390f35b34801561015b57600080fd5b5061017660048036038101906101719190613431565b610572565b60405161018391906136c8565b60405180910390f35b34801561019857600080fd5b506101b360048036038101906101ae9190613332565b6105a8565b6040516101c09190613705565b60405180910390f35b6101e360048036038101906101de9190613431565b6107f6565b005b3480156101f157600080fd5b506101fa610ef9565b604051610207919061379e565b60405180910390f35b34801561021c57600080fd5b5061023760048036038101906102329190613431565b610eff565b60405161024491906136e3565b60405180910390f35b34801561025957600080fd5b50610262610fe8565b60405161026f919061379e565b60405180910390f35b34801561028457600080fd5b5061029f600480360381019061029a91906132c8565b610fee565b6040516102ac9190613705565b60405180910390f35b3480156102c157600080fd5b506102ca61144f565b6040516102d7919061379e565b60405180910390f35b3480156102ec57600080fd5b506102f5611455565b005b34801561030357600080fd5b5061031e60048036038101906103199190613431565b6116ac565b604051610330969594939291906137b9565b60405180910390f35b34801561034557600080fd5b50610360600480360381019061035b91906132f1565b61179d565b60405161036d9190613705565b60405180910390f35b34801561038257600080fd5b5061039d60048036038101906103989190613431565b611986565b6040516103af9695949392919061389e565b60405180910390f35b3480156103c457600080fd5b506103df60048036038101906103da9190613431565b611aff565b6040516103ec9190613705565b60405180910390f35b34801561040157600080fd5b5061040a611ba5565b604051610417919061379e565b60405180910390f35b34801561042c57600080fd5b506104476004803603810190610442919061339e565b611baf565b005b34801561045557600080fd5b5061045e611d98565b60405161046b919061379e565b60405180910390f35b34801561048057600080fd5b5061049b60048036038101906104969190613431565b611d9e565b005b6104b760048036038101906104b29190613431565b6126a4565b005b3480156104c557600080fd5b506104ce612afc565b6040516104db919061379e565b60405180910390f35b600080546104f190613b79565b80601f016020809104026020016040519081016040528092919081815260200182805461051d90613b79565b801561056a5780601f1061053f5761010080835404028352916020019161056a565b820191906000526020600020905b81548152906001019060200180831161054d57829003601f168201915b505050505081565b6009816003811061058257600080fd5b016000915054906101000a900473ffffffffffffffffffffffffffffffffffffffff1681565b6060600083905060008390506000815183516105c491906139f9565b67ffffffffffffffff811115610603577f4e487b7100000000000000000000000000000000000000000000000000000000600052604160045260246000fd5b6040519080825280601f01601f1916602001820160405280156106355781602001600182028036833780820191505090505b5090506000805b84518110156107105784818151811061067e577f4e487b7100000000000000000000000000000000000000000000000000000000600052603260045260246000fd5b602001015160f81c60f81b83838061069590613bab565b9450815181106106ce577f4e487b7100000000000000000000000000000000000000000000000000000000600052603260045260246000fd5b60200101907effffffffffffffffffffffffffffffffffffffffffffffffffffffffffffff1916908160001a905350808061070890613bab565b91505061063c565b5060005b83518110156107e857838181518110610756577f4e487b7100000000000000000000000000000000000000000000000000000000600052603260045260246000fd5b602001015160f81c60f81b83838061076d90613bab565b9450815181106107a6577f4e487b7100000000000000000000000000000000000000000000000000000000600052603260045260246000fd5b60200101907effffffffffffffffffffffffffffffffffffffffffffffffffffffffffffff1916908160001a90535080806107e090613bab565b915050610714565b508194505050505092915050565b6000600660008381526020019081526020016000206040518060e00160405290816000820154815260200160018201805461083090613b79565b80601f016020809104026020016040519081016040528092919081815260200182805461085c90613b79565b80156108a95780601f1061087e576101008083540402835291602001916108a9565b820191906000526020600020905b81548152906001019060200180831161088c57829003601f168201915b50505050508152602001600282015481526020016003820160009054906101000a900473ffffffffffffffffffffffffffffffffffffffff1673ffffffffffffffffffffffffffffffffffffffff1673ffffffffffffffffffffffffffffffffffffffff1681526020016003820160149054906101000a900460ff161515151581526020016004820154815260200160058201600380602002604051908101604052809291906000905b828210156109f657838201805461096990613b79565b80601f016020809104026020016040519081016040528092919081815260200182805461099590613b79565b80156109e25780601f106109b7576101008083540402835291602001916109e2565b820191906000526020600020905b8154815290600101906020018083116109c557829003601f168201915b505050505081526020019060010190610953565b5050505081525050905060008160600151905060008260000151118015610a235750600154826000015111155b610a2c57600080fd5b8160400151341015610a3d57600080fd5b816080015115610a82576040517f08c379a0000000000000000000000000000000000000000000000000000000008152600401610a799061377e565b60405180910390fd5b3373ffffffffffffffffffffffffffffffffffffffff168173ffffffffffffffffffffffffffffffffffffffff161415610af1576040517f08c379a0000000000000000000000000000000000000000000000000000000008152600401610ae89061375e565b60405180910390fd5b33826060019073ffffffffffffffffffffffffffffffffffffffff16908173ffffffffffffffffffffffffffffffffffffffff168152505060018260a001818151610b3c91906139f9565b91508181525050610b508260600151610fee565b8260c001518360a0015160038110610b91577f4e487b7100000000000000000000000000000000000000000000000000000000600052603260045260246000fd5b60200201819052508160066000858152602001908152602001600020600082015181600001556020820151816001019080519060200190610bd3929190612fbf565b506040820151816002015560608201518160030160006101000a81548173ffffffffffffffffffffffffffffffffffffffff021916908373ffffffffffffffffffffffffffffffffffffffff16021790555060808201518160030160146101000a81548160ff02191690831515021790555060a0820151816004015560c082015181600501906003610c66929190613045565b5090505060028260a0015110610db75760018260800190151590811515815250508160066000858152602001908152602001600020600082015181600001556020820151816001019080519060200190610cc1929190612fbf565b506040820151816002015560608201518160030160006101000a81548173ffffffffffffffffffffffffffffffffffffffff021916908373ffffffffffffffffffffffffffffffffffffffff16021790555060808201518160030160146101000a81548160ff02191690831515021790555060a0820151816004015560c082015181600501906003610d54929190613045565b509050507fcbe37aac5d4b7f4123ead5b25660f15fc35685375eec76ab442b278c9d26aec060015483602001518460400151856060015160018760a001518860c00151604051610daa9796959493929190613821565b60405180910390a1610ef4565b60008260800190151590811515815250508160066000858152602001908152602001600020600082015181600001556020820151816001019080519060200190610e02929190612fbf565b506040820151816002015560608201518160030160006101000a81548173ffffffffffffffffffffffffffffffffffffffff021916908373ffffffffffffffffffffffffffffffffffffffff16021790555060808201518160030160146101000a81548160ff02191690831515021790555060a0820151816004015560c082015181600501906003610e95929190613045565b509050507fcbe37aac5d4b7f4123ead5b25660f15fc35685375eec76ab442b278c9d26aec060015483602001518460400151856060015160008760a001518860c00151604051610eeb9796959493929190613821565b60405180910390a15b505050565b60035481565b610f07613098565b600060066000848152602001908152602001600020905080600501600380602002604051908101604052809291906000905b82821015610fdc578382018054610f4f90613b79565b80601f0160208091040260200160405190810160405280929190818152602001828054610f7b90613b79565b8015610fc85780601f10610f9d57610100808354040283529160200191610fc8565b820191906000526020600020905b815481529060010190602001808311610fab57829003601f168201915b505050505081526020019060010190610f39565b50505050915050919050565b60045481565b606060008273ffffffffffffffffffffffffffffffffffffffff1660001b905060006040518060400160405280601081526020017f303132333435363738396162636465660000000000000000000000000000000081525090506000602a67ffffffffffffffff81111561108b577f4e487b7100000000000000000000000000000000000000000000000000000000600052604160045260246000fd5b6040519080825280601f01601f1916602001820160405280156110bd5781602001600182028036833780820191505090505b5090507f30000000000000000000000000000000000000000000000000000000000000008160008151811061111b577f4e487b7100000000000000000000000000000000000000000000000000000000600052603260045260246000fd5b60200101907effffffffffffffffffffffffffffffffffffffffffffffffffffffffffffff1916908160001a9053507f7800000000000000000000000000000000000000000000000000000000000000816001815181106111a5577f4e487b7100000000000000000000000000000000000000000000000000000000600052603260045260246000fd5b60200101907effffffffffffffffffffffffffffffffffffffffffffffffffffffffffffff1916908160001a90535060005b60148110156114435782600485600c846111f191906139f9565b60208110611228577f4e487b7100000000000000000000000000000000000000000000000000000000600052603260045260246000fd5b1a60f81b7effffffffffffffffffffffffffffffffffffffffffffffffffffffffffffff1916901c60f81c60ff168151811061128d577f4e487b7100000000000000000000000000000000000000000000000000000000600052603260045260246000fd5b602001015160f81c60f81b826002836112a69190613a4f565b60026112b291906139f9565b815181106112e9577f4e487b7100000000000000000000000000000000000000000000000000000000600052603260045260246000fd5b60200101907effffffffffffffffffffffffffffffffffffffffffffffffffffffffffffff1916908160001a90535082600f60f81b85600c8461132c91906139f9565b60208110611363577f4e487b7100000000000000000000000000000000000000000000000000000000600052603260045260246000fd5b1a60f81b1660f81c60ff16815181106113a5577f4e487b7100000000000000000000000000000000000000000000000000000000600052603260045260246000fd5b602001015160f81c60f81b826002836113be9190613a4f565b60036113ca91906139f9565b81518110611401577f4e487b7100000000000000000000000000000000000000000000000000000000600052603260045260246000fd5b60200101907effffffffffffffffffffffffffffffffffffffffffffffffffffffffffffff1916908160001a905350808061143b90613bab565b9150506111d7565b50809350505050919050565b60025481565b61145d6130bf565b60005b6002548110156116a857600660008281526020019081526020016000206040518060e0016040529081600082015481526020016001820180546114a290613b79565b80601f01602080910402602001604051908101604052809291908181526020018280546114ce90613b79565b801561151b5780601f106114f05761010080835404028352916020019161151b565b820191906000526020600020905b8154815290600101906020018083116114fe57829003601f168201915b50505050508152602001600282015481526020016003820160009054906101000a900473ffffffffffffffffffffffffffffffffffffffff1673ffffffffffffffffffffffffffffffffffffffff1673ffffffffffffffffffffffffffffffffffffffff1681526020016003820160149054906101000a900460ff161515151581526020016004820154815260200160058201600380602002604051908101604052809291906000905b828210156116685783820180546115db90613b79565b80601f016020809104026020016040519081016040528092919081815260200182805461160790613b79565b80156116545780601f1061162957610100808354040283529160200191611654565b820191906000526020600020905b81548152906001019060200180831161163757829003601f168201915b5050505050815260200190600101906115c5565b5050505081525050915060405180602001604052806000815250826020018190525060008260a001818152505080806116a090613bab565b915050611460565b5050565b60066020528060005260406000206000915090508060000154908060010180546116d590613b79565b80601f016020809104026020016040519081016040528092919081815260200182805461170190613b79565b801561174e5780601f106117235761010080835404028352916020019161174e565b820191906000526020600020905b81548152906001019060200180831161173157829003601f168201915b5050505050908060020154908060030160009054906101000a900473ffffffffffffffffffffffffffffffffffffffff16908060030160149054906101000a900460ff16908060040154905086565b606060006117e0836040518060400160405280600181526020017f2000000000000000000000000000000000000000000000000000000000000000815250612b02565b9050606060005b825181101561197b5760008060018361180091906139f9565b90505b84518110156118fc57848181518110611845577f4e487b7100000000000000000000000000000000000000000000000000000000600052603260045260246000fd5b602002602001015160405160200161185d9190613682565b604051602081830303815290604052805190602001208584815181106118ac577f4e487b7100000000000000000000000000000000000000000000000000000000600052603260045260246000fd5b60200260200101516040516020016118c49190613682565b6040516020818303038152906040528051906020012014156118e957600191506118fc565b80806118f490613bab565b915050611803565b5080611967578284838151811061193c577f4e487b7100000000000000000000000000000000000000000000000000000000600052603260045260246000fd5b6020026020010151604051602001611955929190613699565b60405160208183030381529060405292505b50808061197390613bab565b9150506117e7565b508092505050919050565b60076020528060005260406000206000915090508060000154908060010180546119af90613b79565b80601f01602080910402602001604051908101604052809291908181526020018280546119db90613b79565b8015611a285780601f106119fd57610100808354040283529160200191611a28565b820191906000526020600020905b815481529060010190602001808311611a0b57829003601f168201915b5050505050908060020154908060030160009054906101000a900460ff16908060030160019054906101000a900473ffffffffffffffffffffffffffffffffffffffff1690806004018054611a7c90613b79565b80601f0160208091040260200160405190810160405280929190818152602001828054611aa890613b79565b8015611af55780601f10611aca57610100808354040283529160200191611af5565b820191906000526020600020905b815481529060010190602001808311611ad857829003601f168201915b5050505050905086565b6008602052806000526040600020600091509050806000018054611b2290613b79565b80601f0160208091040260200160405190810160405280929190818152602001828054611b4e90613b79565b8015611b9b5780601f10611b7057610100808354040283529160200191611b9b565b820191906000526020600020905b815481529060010190602001808311611b7e57829003601f168201915b5050505050905081565b6000600254905090565b6000845111611bbd57600080fd5b60008311611bca57600080fd5b60016000815480929190611bdd90613bab565b9190505550611beb33610fee565b818360038110611c24577f4e487b7100000000000000000000000000000000000000000000000000000000600052603260045260246000fd5b60200201819052506040518060e0016040528060015481526020018581526020018481526020013373ffffffffffffffffffffffffffffffffffffffff16815260200160001515815260200183815260200182815250600660006001548152602001908152602001600020600082015181600001556020820151816001019080519060200190611cb5929190612fbf565b506040820151816002015560608201518160030160006101000a81548173ffffffffffffffffffffffffffffffffffffffff021916908373ffffffffffffffffffffffffffffffffffffffff16021790555060808201518160030160146101000a81548160ff02191690831515021790555060a0820151816004015560c082015181600501906003611d48929190613045565b509050507f724a7f3b7bc135399b5ba2a1305c52ce76299c03071123034f67acddc3becef160015485853360008787604051611d8a9796959493929190613821565b60405180910390a150505050565b60015481565b60005b600254811015611e5857600060098260038110611de7577f4e487b7100000000000000000000000000000000000000000000000000000000600052603260045260246000fd5b0160009054906101000a900473ffffffffffffffffffffffffffffffffffffffff1690503373ffffffffffffffffffffffffffffffffffffffff168173ffffffffffffffffffffffffffffffffffffffff161415611e4457600080fd5b508080611e5090613bab565b915050611da1565b5033600960025460038110611e96577f4e487b7100000000000000000000000000000000000000000000000000000000600052603260045260246000fd5b0160006101000a81548173ffffffffffffffffffffffffffffffffffffffff021916908373ffffffffffffffffffffffffffffffffffffffff16021790555060026000815480929190611ee890613bab565b9190505550611ef561311a565b60016002541061266757611f076130bf565b60006003819055506000600190505b600154811161221757600660008281526020019081526020016000206040518060e001604052908160008201548152602001600182018054611f5790613b79565b80601f0160208091040260200160405190810160405280929190818152602001828054611f8390613b79565b8015611fd05780601f10611fa557610100808354040283529160200191611fd0565b820191906000526020600020905b815481529060010190602001808311611fb357829003601f168201915b50505050508152602001600282015481526020016003820160009054906101000a900473ffffffffffffffffffffffffffffffffffffffff1673ffffffffffffffffffffffffffffffffffffffff1673ffffffffffffffffffffffffffffffffffffffff1681526020016003820160149054906101000a900460ff161515151581526020016004820154815260200160058201600380602002604051908101604052809291906000905b8282101561211d57838201805461209090613b79565b80601f01602080910402602001604051908101604052809291908181526020018280546120bc90613b79565b80156121095780601f106120de57610100808354040283529160200191612109565b820191906000526020600020905b8154815290600101906020018083116120ec57829003601f168201915b50505050508152602001906001019061207a565b5050505081525050915060028260a00151106121f957816020015183600001819052508160c0015183602001819052506003600081548092919061216090613bab565b9190505550826008600060035481526020019081526020016000206000820151816000019080519060200190612197929190612fbf565b506020820151816001019060036121af929190613045565b509050507f797fcd15847b5f626aa2d0cd1724efae5dd87d749b6ebeef9949df672b422aeb836000015184602001516040516121ec929190613727565b60405180910390a1612204565b6122016130bf565b91505b808061220f90613bab565b915050611f16565b506000604051806020016040528060008152509050612234613098565b6000600190505b60035481116123d45760086000828152602001908152602001600020600101600380602002604051908101604052809291906000905b8282101561231457838201805461228790613b79565b80601f01602080910402602001604051908101604052809291908181526020018280546122b390613b79565b80156123005780601f106122d557610100808354040283529160200191612300565b820191906000526020600020905b8154815290600101906020018083116122e357829003601f168201915b505050505081526020019060010190612271565b50505050915060005b60038110156123c0576123ab846123a66040518060400160405280600181526020017f200000000000000000000000000000000000000000000000000000000000000081525086856003811061239c577f4e487b7100000000000000000000000000000000000000000000000000000000600052603260045260246000fd5b60200201516105a8565b6105a8565b935080806123b890613bab565b91505061231d565b5080806123cc90613bab565b91505061223b565b50600060405180602001604052806000815250905060006040518060400160405280600181526020017f200000000000000000000000000000000000000000000000000000000000000081525090506000600190505b60035481116124f9576124e4836124df8460086000868152602001908152602001600020600001805461245c90613b79565b80601f016020809104026020016040519081016040528092919081815260200182805461248890613b79565b80156124d55780601f106124aa576101008083540402835291602001916124d5565b820191906000526020600020905b8154815290600101906020018083116124b857829003601f168201915b50505050506105a8565b6105a8565b925080806124f190613bab565b91505061242a565b506005600081548092919061250d90613bab565b919050555060007359c5505100f8107e9b59ae0b7977c10d27a0476e90506040518060c0016040528060055481526020018481526020018981526020016000151581526020018273ffffffffffffffffffffffffffffffffffffffff1681526020016125788761179d565b8152506007600060055481526020019081526020016000206000820151816000015560208201518160010190805190602001906125b6929190612fbf565b506040820151816002015560608201518160030160006101000a81548160ff02191690831515021790555060808201518160030160016101000a81548173ffffffffffffffffffffffffffffffffffffffff021916908373ffffffffffffffffffffffffffffffffffffffff16021790555060a0820151816004019080519060200190612644929190612fbf565b50905050612650611455565b600060028190555060006001819055505050505050505b7fec859db5a3c1ca3ee301d012a70f0e287a104754cd2f264283bb84531f0eed54600254604051612698919061379e565b60405180910390a15050565b6000600760008381526020019081526020016000206040518060c0016040529081600082015481526020016001820180546126de90613b79565b80601f016020809104026020016040519081016040528092919081815260200182805461270a90613b79565b80156127575780601f1061272c57610100808354040283529160200191612757565b820191906000526020600020905b81548152906001019060200180831161273a57829003601f168201915b50505050508152602001600282015481526020016003820160009054906101000a900460ff161515151581526020016003820160019054906101000a900473ffffffffffffffffffffffffffffffffffffffff1673ffffffffffffffffffffffffffffffffffffffff1673ffffffffffffffffffffffffffffffffffffffff1681526020016004820180546127eb90613b79565b80601f016020809104026020016040519081016040528092919081815260200182805461281790613b79565b80156128645780601f1061283957610100808354040283529160200191612864565b820191906000526020600020905b81548152906001019060200180831161284757829003601f168201915b505050505081525050905060008160800151905033826080019073ffffffffffffffffffffffffffffffffffffffff16908173ffffffffffffffffffffffffffffffffffffffff1681525050600082600001511180156128ca5750600554826000015111155b6128d357600080fd5b81604001513410156128e457600080fd5b8160600151156128f357600080fd5b3373ffffffffffffffffffffffffffffffffffffffff168173ffffffffffffffffffffffffffffffffffffffff16141561292c57600080fd5b60018260600190151590811515815250508073ffffffffffffffffffffffffffffffffffffffff166108fc349081150290604051600060405180830381858888f19350505050158015612983573d6000803e3d6000fd5b506040518060c001604052808481526020018360200151815260200183604001518152602001600115158152602001836080015173ffffffffffffffffffffffffffffffffffffffff1681526020018360a0015181525060076000858152602001908152602001600020600082015181600001556020820151816001019080519060200190612a13929190612fbf565b506040820151816002015560608201518160030160006101000a81548160ff02191690831515021790555060808201518160030160016101000a81548173ffffffffffffffffffffffffffffffffffffffff021916908373ffffffffffffffffffffffffffffffffffffffff16021790555060a0820151816004019080519060200190612aa1929190612fbf565b509050507f47877993bedd6b076bf8f45878e093bf562cae6a9a4c718ad7771e241d28d3058383602001518460400151600186608001518760a00151604051612aef9695949392919061389e565b60405180910390a1505050565b60055481565b60606000839050600083905060006001905060005b8351811015612c155782600081518110612b5a577f4e487b7100000000000000000000000000000000000000000000000000000000600052603260045260246000fd5b602001015160f81c60f81b7effffffffffffffffffffffffffffffffffffffffffffffffffffffffffffff1916848281518110612bc0577f4e487b7100000000000000000000000000000000000000000000000000000000600052603260045260246000fd5b602001015160f81c60f81b7effffffffffffffffffffffffffffffffffffffffffffffffffffffffffffff19161415612c02578180612bfe90613bab565b9250505b8080612c0d90613bab565b915050612b17565b5060008167ffffffffffffffff811115612c58577f4e487b7100000000000000000000000000000000000000000000000000000000600052604160045260246000fd5b604051908082528060200260200182016040528015612c8b57816020015b6060815260200190600190039081612c765790505b509050600080925060005b8551811015612df25784600081518110612cd9577f4e487b7100000000000000000000000000000000000000000000000000000000600052603260045260246000fd5b602001015160f81c60f81b7effffffffffffffffffffffffffffffffffffffffffffffffffffffffffffff1916868281518110612d3f577f4e487b7100000000000000000000000000000000000000000000000000000000600052603260045260246000fd5b602001015160f81c60f81b7effffffffffffffffffffffffffffffffffffffffffffffffffffffffffffff19161415612ddf57612d7d898383612e51565b838581518110612db6577f4e487b7100000000000000000000000000000000000000000000000000000000600052603260045260246000fd5b6020026020010181905250600181612dce91906139f9565b91508380612ddb90613bab565b9450505b8080612dea90613bab565b915050612c96565b50612dff88828751612e51565b828481518110612e38577f4e487b7100000000000000000000000000000000000000000000000000000000600052603260045260246000fd5b6020026020010181905250819550505050505092915050565b6060600084905060008484612e669190613aa9565b67ffffffffffffffff811115612ea5577f4e487b7100000000000000000000000000000000000000000000000000000000600052604160045260246000fd5b6040519080825280601f01601f191660200182016040528015612ed75781602001600182028036833780820191505090505b50905060008590505b84811015612fb257828181518110612f21577f4e487b7100000000000000000000000000000000000000000000000000000000600052603260045260246000fd5b602001015160f81c60f81b828783612f399190613aa9565b81518110612f70577f4e487b7100000000000000000000000000000000000000000000000000000000600052603260045260246000fd5b60200101907effffffffffffffffffffffffffffffffffffffffffffffffffffffffffffff1916908160001a9053508080612faa90613bab565b915050612ee0565b5080925050509392505050565b828054612fcb90613b79565b90600052602060002090601f016020900481019282612fed5760008555613034565b82601f1061300657805160ff1916838001178555613034565b82800160010185558215613034579182015b82811115613033578251825591602001919060010190613018565b5b509050613041919061313a565b5090565b8260038101928215613087579160200282015b82811115613086578251829080519060200190613076929190612fbf565b5091602001919060010190613058565b5b5090506130949190613157565b5090565b60405180606001604052806003905b60608152602001906001900390816130a75790505090565b6040518060e00160405280600081526020016060815260200160008152602001600073ffffffffffffffffffffffffffffffffffffffff16815260200160001515815260200160008152602001613114613098565b81525090565b604051806040016040528060608152602001613134613098565b81525090565b5b8082111561315357600081600090555060010161313b565b5090565b5b80821115613177576000818161316e919061317b565b50600101613158565b5090565b50805461318790613b79565b6000825580601f1061319957506131b8565b601f0160209004906000526020600020908101906131b7919061313a565b5b50565b60006131ce6131c98461393e565b61390d565b9050808260005b8581101561320557813585016131eb8882613289565b8452602084019350602083019250506001810190506131d5565b5050509392505050565b600061322261321d84613964565b61390d565b90508281526020810184848401111561323a57600080fd5b613245848285613b37565b509392505050565b60008135905061325c81613c92565b92915050565b600082601f83011261327357600080fd5b60036132808482856131bb565b91505092915050565b600082601f83011261329a57600080fd5b81356132aa84826020860161320f565b91505092915050565b6000813590506132c281613ca9565b92915050565b6000602082840312156132da57600080fd5b60006132e88482850161324d565b91505092915050565b60006020828403121561330357600080fd5b600082013567ffffffffffffffff81111561331d57600080fd5b61332984828501613289565b91505092915050565b6000806040838503121561334557600080fd5b600083013567ffffffffffffffff81111561335f57600080fd5b61336b85828601613289565b925050602083013567ffffffffffffffff81111561338857600080fd5b61339485828601613289565b9150509250929050565b600080600080608085870312156133b457600080fd5b600085013567ffffffffffffffff8111156133ce57600080fd5b6133da87828801613289565b94505060206133eb878288016132b3565b93505060406133fc878288016132b3565b925050606085013567ffffffffffffffff81111561341957600080fd5b61342587828801613262565b91505092959194509250565b60006020828403121561344357600080fd5b6000613451848285016132b3565b91505092915050565b60006134668383613510565b905092915050565b61347781613aef565b82525050565b61348681613add565b82525050565b60006134978261399e565b6134a181856139c1565b9350836020820285016134b385613994565b8060005b858110156134ef57848403895281516134d0858261345a565b94506134db836139b4565b925060208a019950506001810190506134b7565b50829750879550505050505092915050565b61350a81613b01565b82525050565b600061351b826139a9565b61352581856139cc565b9350613535818560208601613b46565b61353e81613c81565b840191505092915050565b6000613554826139a9565b61355e81856139dd565b935061356e818560208601613b46565b61357781613c81565b840191505092915050565b600061358d826139a9565b61359781856139ee565b93506135a7818560208601613b46565b80840191505092915050565b60006135c06001836139ee565b91507f20000000000000000000000000000000000000000000000000000000000000006000830152600182019050919050565b6000613600600f836139dd565b91507f416c7265616479207570766f74656400000000000000000000000000000000006000830152602082019050919050565b6000613640601f836139dd565b91507f596f752063616e6e6f74207570766f746520796f75722073656e74656e6365006000830152602082019050919050565b61367c81613b2d565b82525050565b600061368e8284613582565b915081905092915050565b60006136a58285613582565b91506136b18284613582565b91506136bc826135b3565b91508190509392505050565b60006020820190506136dd600083018461347d565b92915050565b600060208201905081810360008301526136fd818461348c565b905092915050565b6000602082019050818103600083015261371f8184613549565b905092915050565b600060408201905081810360008301526137418185613549565b90508181036020830152613755818461348c565b90509392505050565b60006020820190508181036000830152613777816135f3565b9050919050565b6000602082019050818103600083015261379781613633565b9050919050565b60006020820190506137b36000830184613673565b92915050565b600060c0820190506137ce6000830189613673565b81810360208301526137e08188613549565b90506137ef6040830187613673565b6137fc606083018661346e565b6138096080830185613501565b61381660a0830184613673565b979650505050505050565b600060e082019050613836600083018a613673565b81810360208301526138488189613549565b90506138576040830188613673565b613864606083018761346e565b6138716080830186613501565b61387e60a0830185613673565b81810360c0830152613890818461348c565b905098975050505050505050565b600060c0820190506138b36000830189613673565b81810360208301526138c58188613549565b90506138d46040830187613673565b6138e16060830186613501565b6138ee608083018561346e565b81810360a08301526139008184613549565b9050979650505050505050565b6000604051905081810181811067ffffffffffffffff8211171561393457613933613c52565b5b8060405250919050565b600067ffffffffffffffff82111561395957613958613c52565b5b602082029050919050565b600067ffffffffffffffff82111561397f5761397e613c52565b5b601f19601f8301169050602081019050919050565b6000819050919050565b600060039050919050565b600081519050919050565b6000602082019050919050565b600081905092915050565b600082825260208201905092915050565b600082825260208201905092915050565b600081905092915050565b6000613a0482613b2d565b9150613a0f83613b2d565b9250827fffffffffffffffffffffffffffffffffffffffffffffffffffffffffffffffff03821115613a4457613a43613bf4565b5b828201905092915050565b6000613a5a82613b2d565b9150613a6583613b2d565b9250817fffffffffffffffffffffffffffffffffffffffffffffffffffffffffffffffff0483118215151615613a9e57613a9d613bf4565b5b828202905092915050565b6000613ab482613b2d565b9150613abf83613b2d565b925082821015613ad257613ad1613bf4565b5b828203905092915050565b6000613ae882613b0d565b9050919050565b6000613afa82613b0d565b9050919050565b60008115159050919050565b600073ffffffffffffffffffffffffffffffffffffffff82169050919050565b6000819050919050565b82818337600083830152505050565b60005b83811015613b64578082015181840152602081019050613b49565b83811115613b73576000848401525b50505050565b60006002820490506001821680613b9157607f821691505b60208210811415613ba557613ba4613c23565b5b50919050565b6000613bb682613b2d565b91507fffffffffffffffffffffffffffffffffffffffffffffffffffffffffffffffff821415613be957613be8613bf4565b5b600182019050919050565b7f4e487b7100000000000000000000000000000000000000000000000000000000600052601160045260246000fd5b7f4e487b7100000000000000000000000000000000000000000000000000000000600052602260045260246000fd5b7f4e487b7100000000000000000000000000000000000000000000000000000000600052604160045260246000fd5b6000601f19601f8301169050919050565b613c9b81613add565b8114613ca657600080fd5b50565b613cb281613b2d565b8114613cbd57600080fd5b5056fea2646970667358221220f83174b2360babe77fd5acf351c312fb6e63ab90b378c2307410d7d4814ab3ab64736f6c63430008000033",
  "immutableReferences": {},
  "source": "pragma solidity ^0.8.0;\r\n\r\n\r\n//TODO\r\n//Add another table with stories, authors, buy button\r\n//convert contributors to string array and get the size\r\n//get the buyer address\r\n//transfer the ownership\r\n//split the sale\r\n//display the buy button\r\ncontract Marketplace {\r\n\tstring public name;\r\n\tuint public productCount = 0;\r\n\tuint public vote_end = 0;\r\n\tuint public SentenceCount = 0;\r\n\tuint public num = 0;\r\n\tuint public historyProdCount = 0;\r\n\tmapping(uint => Product) public products;\r\n\tmapping(uint => CompleteStory) public products_historical;\r\n\t//link story in historical to the contributors\r\n\t//string public authors;\r\n\tmapping(uint => Sentence) public story;\r\n\taddress[3] public voters_end;\r\n\tstruct Product {\r\n\t\tuint id;\r\n\t\tstring name;\r\n\t\tuint price;\r\n\t\taddress payable owner;\r\n\t\tbool purchased;\r\n\t\tuint upvotes;\r\n\t\tstring[3] contributors;\r\n\t}\r\n\tstruct Sentence {\r\n\t\tstring name;\r\n\t\tstring [3] authors;\r\n\t}\r\n\tstruct CompleteStory {\r\n\t\tuint id;\r\n\t\tstring fullS;\r\n\t\tuint price;\r\n\t\tbool purchased;\r\n\t\taddress payable owner;\r\n\t\tstring authors;\r\n\t}\r\n\r\n\tevent StoryCreated(\r\n\t\tstring name,\r\n\t\tstring[3] authors\t\r\n\t);\r\n\r\n\tevent StoryPurchased(\r\n\t\tuint id,\r\n\t\tstring fullS,\r\n\t\tuint price,\r\n\t\tbool purchased,\r\n\t\taddress payable owner,\r\n\t\tstring authors\r\n\t);\r\n\r\n\tevent ProductCreated(\r\n\t\tuint id,\r\n\t\tstring name,\r\n\t\tuint price,\r\n\t\taddress payable owner,\r\n\t\tbool purchased,\r\n\t\tuint upvotes,\r\n\t\tstring[3] contributors\t\r\n\t);\r\n\r\n\tevent upVote(\r\n\t\tuint vote\r\n\t);\r\n\r\n\tevent ProductPurchased(\r\n\t\tuint id,\r\n\t\tstring name,\r\n\t\tuint price,\r\n\t\taddress payable owner,\r\n\t\tbool purchased,\r\n\t\tuint upvotes,\r\n\t\tstring[3] contributors\r\n\t);\r\n\r\n\tstruct voteEnd{\r\n\t\tuint votes;\r\n\t}\r\n\t\r\n\r\n\tconstructor() {\r\n\t\tname = \"exquisite corpse\";\r\n\t\t//products_historical ='';\r\n\t\tvote_end = 0;\r\n\t}\r\n\r\n\tfunction getArr(uint _id) public view returns (string[3] memory) {\r\n\t\tProduct storage myProduct = products[_id];\r\n    \treturn myProduct.contributors;\r\n\t}\r\n\r\n// \tfunction strConcat(string memory _a, string memory _b, string memory _c, string memory _d, string memory _e) internal pure returns (string memory){\r\n//     bytes memory _ba = bytes(_a);\r\n//     bytes memory _bb = bytes(_b);\r\n//     bytes memory _bc = bytes(_c);\r\n//     bytes memory _bd = bytes(_d);\r\n//     bytes memory _be = bytes(_e);\r\n//     string memory abcde = new string(_ba.length + _bb.length + _bc.length + _bd.length + _be.length);\r\n//     bytes memory babcde = bytes(abcde);\r\n//     uint k = 0;\r\n// \tuint i = 0;\r\n//     for (i = 0; i < _ba.length; i++) babcde[k++] = _ba[i];\r\n//     for (i = 0; i < _bb.length; i++) babcde[k++] = _bb[i];\r\n//     for (i = 0; i < _bc.length; i++) babcde[k++] = _bc[i];\r\n//     for (i = 0; i < _bd.length; i++) babcde[k++] = _bd[i];\r\n//     for (i = 0; i < _be.length; i++) babcde[k++] = _be[i];\r\n//     return string(babcde);\r\n// \t}\r\n\r\n// \tfunction strConcat(string memory _a, string memory _b) internal pure returns (string memory) {\r\n//     return strConcat(_a, _b, \"\", \"\", \"\");\r\n// }\r\n\r\n\tfunction removeDuplicateWords(string memory input) public pure returns (string memory) {\r\n        string[] memory words = split(input, \" \");\r\n        string memory output;\r\n        \r\n        for(uint i = 0; i < words.length; i++) {\r\n            bool isDuplicate = false;\r\n            \r\n            for(uint j = i + 1; j < words.length; j++) {\r\n                if (keccak256(abi.encodePacked(words[i])) == keccak256(abi.encodePacked(words[j]))) {\r\n                    isDuplicate = true;\r\n                    break;\r\n                }\r\n            }\r\n            \r\n            if (!isDuplicate) {\r\n                output = string(abi.encodePacked(output, words[i], \" \"));\r\n            }\r\n        }\r\n        \r\n        return output;\r\n    }\r\n    \r\n    function split(string memory input, string memory delimiter) private pure returns (string[] memory) {\r\n        bytes memory inputBytes = bytes(input);\r\n        bytes memory delimiterBytes = bytes(delimiter);\r\n        uint count = 1;\r\n        \r\n        for(uint i = 0; i < inputBytes.length; i++) {\r\n            if (inputBytes[i] == delimiterBytes[0]) {\r\n                count++;\r\n            }\r\n        }\r\n        \r\n        string[] memory parts = new string[](count);\r\n        uint startIndex = 0;\r\n        count = 0;\r\n        \r\n        for(uint i = 0; i < inputBytes.length; i++) {\r\n            if (inputBytes[i] == delimiterBytes[0]) {\r\n                parts[count] = substring(input, startIndex, i);\r\n                startIndex = i + 1;\r\n                count++;\r\n            }\r\n        }\r\n        \r\n        parts[count] = substring(input, startIndex, inputBytes.length);\r\n        \r\n        return parts;\r\n    }\r\n    \r\n    function substring(string memory input, uint startIndex, uint endIndex) private pure returns (string memory) {\r\n        bytes memory inputBytes = bytes(input);\r\n        bytes memory result = new bytes(endIndex - startIndex);\r\n        \r\n        for(uint i = startIndex; i < endIndex; i++) {\r\n            result[i - startIndex] = inputBytes[i];\r\n        }\r\n        \r\n        return string(result);\r\n    }\r\n\r\n\r\n\r\n\r\n\tfunction concatenate(string memory a, string memory b) public pure returns (string memory) {\r\n        bytes memory aa = bytes(a);\r\n        bytes memory bb = bytes(b);\r\n        bytes memory result = new bytes(aa.length + bb.length);\r\n        uint k = 0;\r\n        for (uint i = 0; i < aa.length; i++) {\r\n            result[k++] = aa[i];\r\n        }\r\n        for (uint i = 0; i < bb.length; i++) {\r\n            result[k++] = bb[i];\r\n        }\r\n        return string(result);\r\n    }\r\n\tfunction toString(uint _i) internal pure returns (string memory _uintAsString) {\r\n        if (_i == 0) {\r\n            return \"0\";\r\n        }\r\n        uint j = _i;\r\n        uint len;\r\n        while (j != 0) {\r\n            len++;\r\n            j /= 10;\r\n        }\r\n        bytes memory bstr = new bytes(len);\r\n        uint k = len;\r\n        while (_i != 0) {\r\n            k = k-1;\r\n            uint8 temp = (48 + uint8(_i - _i / 10 * 10));\r\n            bytes1 b1 = bytes1(temp);\r\n            bstr[k] = b1;\r\n            _i /= 10;\r\n        }\r\n        return string(bstr);\r\n    }\r\n\tfunction addressToString(address _addr) public pure returns (string memory) {\r\n\t\tbytes32 value = bytes32(uint256(uint160(_addr)));\r\n\t\tbytes memory alphabet = \"0123456789abcdef\";\r\n\r\n\t\tbytes memory str = new bytes(42);\r\n\t\tstr[0] = '0';\r\n\t\tstr[1] = 'x';\r\n\t\tfor (uint i = 0; i < 20; i++) {\r\n\t\t\tstr[2+i*2] = alphabet[uint8(value[i + 12] >> 4)];\r\n\t\t\tstr[3+i*2] = alphabet[uint8(value[i + 12] & 0x0f)];\r\n\t\t}\r\n\t\treturn string(str);\r\n\t}\r\n\r\n\tfunction createVoteEnd(uint price) public {\r\n    //string storage senderString = toString(msg.sender);\r\n\t//check not similar voters\r\n    for (uint i = 0; i < vote_end; i++) {\r\n\t\taddress voterA = voters_end[i];\r\n        require( voterA != msg.sender);\r\n    }\r\n\t\tvoters_end[vote_end] = msg.sender;\r\n\t\tvote_end++;\r\n\t\tSentence memory _sentence;\r\n\t\t//transfer to past stories\r\n\t\tif(vote_end >= 1){\r\n\t\t\tProduct memory _product;\r\n\t\t\tSentenceCount = 0;\r\n\t\t\tfor(uint i = 1; i <= productCount; i++){\r\n\t\t\t\t_product = products[i];\r\n\t\t\t\tif(_product.upvotes >= 2){\r\n\t\t\t\t\t//move products as sentences in the story\r\n\t\t\t\t\t_sentence.name = _product.name;\r\n\t\t\t\t\t_sentence.authors = _product.contributors;\r\n\t\t\t\t\tSentenceCount++;\r\n\t\t\t\t\tstory[SentenceCount] = _sentence;\r\n\t\t\t\t\t\r\n\t\t\t\t\t//make the first sentence have all the authors\r\n\t\t\t\t\temit StoryCreated(_sentence.name, _sentence.authors);\r\n\t\t\t\t}\r\n\t\t\t\telse {\r\n\t\t\t\t\tdelete _product;\r\n\t\t\t\t\t\r\n\t\t\t\t}\r\n\r\n\t\t\t}\r\n\t\t\t//store the authors in one address array\r\n\t\t\tstring memory store_authors = \"\";\r\n\t\t\tstring[3] memory temp;\r\n\t\t\tfor(uint i = 1; i <= SentenceCount; i++) {\r\n\t\t\t\ttemp = story[i].authors;\r\n\t\t\t\tfor(uint j = 0; j < 3; j++) {\r\n\t\t\t\t\tstore_authors = concatenate(store_authors, concatenate(\" \", temp[j]));\r\n\t\t\t\t}\r\n\t\t\t}\r\n\t\t\t// //concate all sentences in one string\r\n\t\t\tstring memory full_story = \"\";\r\n\t\t\tstring memory space = \" \";\r\n\t\t\t//string memory full_story;\r\n\t\t\tfor (uint j = 1; j <= SentenceCount; j++) {\r\n\t\t\t\tfull_story = concatenate(full_story, concatenate(space, story[j].name));\r\n\t\t\t}\r\n\t\t\t//add the authors\r\n\t\t\thistoryProdCount++; \r\n\t\t\t//add the story string\r\n\t\t\taddress addr = address(0x59c5505100F8107E9b59AE0B7977c10D27A0476E);\r\n\r\n\t\t\tproducts_historical[historyProdCount] = CompleteStory(historyProdCount,\r\n\t\t\tfull_story, price , false, payable(addr), removeDuplicateWords(store_authors));\r\n\t\t\t\r\n\t\t\t\r\n\t\t\t//products_historical = strConcat(products_historical, \"\\n\\n\");\r\n\t\t\tresetProducts();\r\n\t\t\tvote_end = 0;\r\n\t\t\tproductCount = 0;\r\n\t\t\r\n\t\t} \r\n\t\t\r\n\t\temit upVote(vote_end);\r\n\t}\r\n\r\n\tfunction getCurrentVote() public view returns (uint) {\r\n\t\t// portion where we plug in tufts account\r\n\t\t// address(_seller).transfer(msg.value);\r\n\t\treturn vote_end;\r\n\t}\r\n\t\r\n\t// function checkVotesLoad() public{\r\n\t// \tProduct memory _product;\r\n\t// \tfor(uint i = 0; i < vote_end; i++){\r\n\t// \t\t_product = products[i];\r\n\t// \t\tif(_product.upvotes >= 2){\r\n\t// \t\t\t\thistoryProdCount++;\r\n\t// \t\t\t\t_product = products[i];\r\n \t// \t\t\t\tproducts_historical[historyProdCount] = _product;\r\n\t// \t\t}\r\n\t// \t}\r\n\t// }\r\n\r\n\tfunction resetProducts() public view{\r\n\t\tProduct memory _product;\r\n\t\tfor(uint i = 0; i < vote_end; i++){\r\n\t\t\t_product = products[i];\r\n\t\t\t_product.name = \"\";\r\n\t\t\t_product.upvotes = 0;\r\n\t\t}\r\n\t}\r\n\r\n\r\n\tfunction createProduct(string memory _name, uint _price, uint upvotes, string[3] memory contributors) public {\r\n\t\t// require a name\r\n\t\trequire(bytes(_name).length > 0);\r\n\t\t// require a valid price\r\n\t\trequire(_price > 0);\r\n\t\t// make sure params good\r\n\t\t// inc products count\r\n\t\tproductCount++;\r\n\t\t//add owner to contributors\r\n\t\tcontributors[upvotes] = addressToString(msg.sender);\r\n\t\t// create the product\r\n\t\tproducts[productCount] = Product(productCount, _name, _price, payable(msg.sender), false, upvotes, contributors);\r\n\t\t// trigger an event\t\r\n\t\temit ProductCreated(productCount, _name, _price, payable(msg.sender), false, upvotes, contributors);\r\n\t}\r\n\r\n\tfunction purchaseProduct(uint _id) public payable {\r\n\t\t// fetch product\r\n\t\tProduct memory _product = products[_id];\t\r\n\t\t// fetch the owner\r\n\t\taddress _seller = _product.owner;\r\n\t\t\r\n\t\t// make sure the product has a valid id\r\n\t\trequire(_product.id > 0 && _product.id <= productCount);\r\n\t\t// make sure they sent enough ether\r\n\t\trequire(msg.value >= _product.price);\r\n\t\t// require product has not already been purchased\r\n\t\trequire(!_product.purchased, \"You cannot upvote your sentence\");\r\n\t\t// require that the buyer is not the seller\r\n\t\trequire(_seller != msg.sender, \"Already upvoted\");\r\n\t\t// require that the buyer is not a previous contributor (i.e already upvoted)\r\n\t\t\r\n\r\n\t\t// purchase it -> transfer ownership to buyer\r\n\t\t_product.owner = payable(msg.sender);\r\n\t\t// mark as purchased\r\n\t\t// increment upvotes of product\r\n\t\t_product.upvotes += 1;\r\n\t\t//add purchaser to contributors\r\n\t\t_product.contributors[_product.upvotes] = addressToString(_product.owner);\r\n\t\t//update the product\r\n\t\tproducts[_id] = _product;\r\n\t\t\r\n\t\t// products[_id] = Product(productCount,\r\n\t\t// _product.name, _product.price, \r\n\t\t// _product.owner, false, \r\n\t\t// _product.upvotes, \r\n\t\t// _product.contributors);\r\n\r\n\t\tif(_product.upvotes >= 2){\r\n\t\t\t_product.purchased = true;\r\n\t\t\t// products[_id] = Product(productCount,\r\n\t\t\t// _product.name, _product.price, \r\n\t\t\t// _product.owner, true, \r\n\t\t\t// _product.upvotes, \r\n\t\t\t// _product.contributors);\r\n\t\t\tproducts[_id] = _product;\r\n\t\t\temit ProductPurchased(productCount, _product.name, _product.price, _product.owner, true, _product.upvotes, _product.contributors);\r\n\t\t}\r\n\t\telse {\r\n\t\t\t_product.purchased = false;\r\n\t\t\tproducts[_id] = _product;\r\n\t\t\temit ProductPurchased(productCount, _product.name, _product.price, _product.owner, false, _product.upvotes, _product.contributors);\r\n\t\t\t//emit ProductCreated(productCount, _product.name, _product.price, _product.owner, false, _product.upvotes, _product.contributors);\r\n\t\t}\t\r\n\t}\r\n\r\n\r\n\r\n\r\n// function sellStory(string memory _name, uint _price,string memory authors) public {\r\n// \trequire(bytes(_name).length > 0);\r\n// \t\t// require a valid price\r\n// \trequire(_price > 0);\r\n\r\n// // // }\r\n// function createStory(string memory storyname, uint price) public {\r\n// \t\t// require a name\r\n// \t\trequire(bytes(name).length > 0);\r\n// \t\t// require a valid price\r\n// \t\trequire(price > 0);\r\n// \t\tstoryCount++;\r\n// \t\t// //add owner to contributors\r\n// \t\t// contributors[upvotes] = addressToString(msg.sender);\r\n// \t\t// create the product\r\n\t\t\r\n// \t\t//products_historical[storyCount].price = msg.sender;\r\n// \t\tproducts_historical[storyCount].purchased = false;\r\n// \t\t// trigger an event\t\r\n// \t\temit StoryCreatedwPrice(products_historical[storyCount].fullS, price, false);\r\n// }\r\n\r\n\r\n    function purchaseStory(uint _id) public payable {\r\n    // Fetch the product\r\n\t\tCompleteStory memory H_story = products_historical[_id];\r\n\t\t\r\n\t\t// Fetch the owner\r\n\t\t//ddress payable _seller = payable(msg.sender); // Assign msg.sender to _seller\r\n\t\taddress payable _seller = H_story.owner;\r\n        H_story.owner = payable(msg.sender);\r\n\t\t// Require that there is enough Ether in the transaction\r\n\t\trequire(H_story.id > 0 && H_story.id <= historyProdCount);\r\n\t\trequire(msg.value >= H_story.price);\r\n\t\t// Require that the product has not been purchased already\r\n\t\trequire(!H_story.purchased);\r\n\t\t// Require that the buyer is not the seller\r\n\t\trequire(_seller != msg.sender);\r\n\t\t// Mark as purchased\r\n\t\tH_story.purchased = true;\r\n\t\t// Pay the seller by sending them Ether\r\n\t\t_seller.transfer(msg.value);\r\n\t\t//H_story.owner = payable(msg.sender);\r\n\t\t// Update the product\r\n\t\tproducts_historical[_id] = CompleteStory(_id, H_story.fullS, H_story.price, true,  H_story.owner, H_story.authors);\r\n\t\r\n\t\t\r\n\t\t// Trigger an event\r\n\t\temit StoryPurchased(_id, H_story.fullS, H_story.price, true,  H_story.owner, H_story.authors);\r\n}\r\n\r\n}",
  "sourcePath": "C:/Users/baran/blockchain/corpse7/corpseNNN/src/contracts/Marketplace.sol",
  "compiler": {
    "name": "solc",
    "version": "0.8.0+commit.c7dfd78e.Emscripten.clang"
  },
  "schemaVersion": "3.3.3",
  "updatedAt": "2023-07-04T21:29:25.241Z",
  "networkType": "ethereum",
  "devdoc": {
    "kind": "dev",
    "methods": {},
    "version": 1
  },
  "userdoc": {
    "kind": "user",
    "methods": {},
    "version": 1
  }
}