{
  "contractName": "Marketplace",
  "abi": [
    {
      "inputs": [],
      "stateMutability": "nonpayable",
      "type": "constructor"
    },
    {
      "anonymous": false,
      "inputs": [
        {
          "indexed": false,
          "internalType": "uint256",
          "name": "id",
          "type": "uint256"
        },
        {
          "indexed": false,
          "internalType": "string",
          "name": "name",
          "type": "string"
        },
        {
          "indexed": false,
          "internalType": "uint256",
          "name": "price",
          "type": "uint256"
        },
        {
          "indexed": false,
          "internalType": "address payable",
          "name": "owner",
          "type": "address"
        },
        {
          "indexed": false,
          "internalType": "bool",
          "name": "purchased",
          "type": "bool"
        },
        {
          "indexed": false,
          "internalType": "uint256",
          "name": "upvotes",
          "type": "uint256"
        },
        {
          "indexed": false,
          "internalType": "string[5]",
          "name": "contributors",
          "type": "string[5]"
        }
      ],
      "name": "ProductCreated",
      "type": "event"
    },
    {
      "anonymous": false,
      "inputs": [
        {
          "indexed": false,
          "internalType": "uint256",
          "name": "id",
          "type": "uint256"
        },
        {
          "indexed": false,
          "internalType": "string",
          "name": "name",
          "type": "string"
        },
        {
          "indexed": false,
          "internalType": "uint256",
          "name": "price",
          "type": "uint256"
        },
        {
          "indexed": false,
          "internalType": "address payable",
          "name": "owner",
          "type": "address"
        },
        {
          "indexed": false,
          "internalType": "bool",
          "name": "purchased",
          "type": "bool"
        },
        {
          "indexed": false,
          "internalType": "uint256",
          "name": "upvotes",
          "type": "uint256"
        },
        {
          "indexed": false,
          "internalType": "string[5]",
          "name": "contributors",
          "type": "string[5]"
        }
      ],
      "name": "ProductPurchased",
      "type": "event"
    },
    {
      "anonymous": false,
      "inputs": [
        {
          "indexed": false,
          "internalType": "string",
          "name": "name",
          "type": "string"
        },
        {
          "indexed": false,
          "internalType": "address payable[]",
          "name": "authors",
          "type": "address[]"
        }
      ],
      "name": "StoryCreated",
      "type": "event"
    },
    {
      "anonymous": false,
      "inputs": [
        {
          "indexed": false,
          "internalType": "uint256",
          "name": "id",
          "type": "uint256"
        },
        {
          "indexed": false,
          "internalType": "string",
          "name": "fullS",
          "type": "string"
        },
        {
          "indexed": false,
          "internalType": "string",
          "name": "authors",
          "type": "string"
        },
        {
          "indexed": false,
          "internalType": "uint256",
          "name": "price",
          "type": "uint256"
        },
        {
          "indexed": false,
          "internalType": "bool",
          "name": "purchased",
          "type": "bool"
        },
        {
          "indexed": false,
          "internalType": "address payable[]",
          "name": "owner",
          "type": "address[]"
        }
      ],
      "name": "StoryPurchased",
      "type": "event"
    },
    {
      "anonymous": false,
      "inputs": [
        {
          "indexed": false,
          "internalType": "uint256",
          "name": "vote",
          "type": "uint256"
        }
      ],
      "name": "upVote",
      "type": "event"
    },
    {
      "inputs": [],
      "name": "SentenceCount",
      "outputs": [
        {
          "internalType": "uint256",
          "name": "",
          "type": "uint256"
        }
      ],
      "stateMutability": "view",
      "type": "function",
      "constant": true
    },
    {
      "inputs": [
        {
          "internalType": "uint256",
          "name": "",
          "type": "uint256"
        }
      ],
      "name": "authors",
      "outputs": [
        {
          "internalType": "address payable",
          "name": "",
          "type": "address"
        }
      ],
      "stateMutability": "view",
      "type": "function",
      "constant": true
    },
    {
      "inputs": [],
      "name": "historyProdCount",
      "outputs": [
        {
          "internalType": "uint256",
          "name": "",
          "type": "uint256"
        }
      ],
      "stateMutability": "view",
      "type": "function",
      "constant": true
    },
    {
      "inputs": [],
      "name": "name",
      "outputs": [
        {
          "internalType": "string",
          "name": "",
          "type": "string"
        }
      ],
      "stateMutability": "view",
      "type": "function",
      "constant": true
    },
    {
      "inputs": [],
      "name": "num",
      "outputs": [
        {
          "internalType": "uint256",
          "name": "",
          "type": "uint256"
        }
      ],
      "stateMutability": "view",
      "type": "function",
      "constant": true
    },
    {
      "inputs": [],
      "name": "productCount",
      "outputs": [
        {
          "internalType": "uint256",
          "name": "",
          "type": "uint256"
        }
      ],
      "stateMutability": "view",
      "type": "function",
      "constant": true
    },
    {
      "inputs": [
        {
          "internalType": "uint256",
          "name": "",
          "type": "uint256"
        }
      ],
      "name": "products",
      "outputs": [
        {
          "internalType": "uint256",
          "name": "id",
          "type": "uint256"
        },
        {
          "internalType": "string",
          "name": "name",
          "type": "string"
        },
        {
          "internalType": "uint256",
          "name": "price",
          "type": "uint256"
        },
        {
          "internalType": "address payable",
          "name": "owner",
          "type": "address"
        },
        {
          "internalType": "bool",
          "name": "purchased",
          "type": "bool"
        },
        {
          "internalType": "uint256",
          "name": "upvotes",
          "type": "uint256"
        }
      ],
      "stateMutability": "view",
      "type": "function",
      "constant": true
    },
    {
      "inputs": [
        {
          "internalType": "uint256",
          "name": "",
          "type": "uint256"
        }
      ],
      "name": "products_historical",
      "outputs": [
        {
          "internalType": "uint256",
          "name": "id",
          "type": "uint256"
        },
        {
          "internalType": "uint256",
          "name": "sentCount",
          "type": "uint256"
        },
        {
          "internalType": "string",
          "name": "fullS",
          "type": "string"
        },
        {
          "internalType": "string",
          "name": "authors",
          "type": "string"
        },
        {
          "internalType": "uint256",
          "name": "price",
          "type": "uint256"
        },
        {
          "internalType": "bool",
          "name": "purchased",
          "type": "bool"
        }
      ],
      "stateMutability": "view",
      "type": "function",
      "constant": true
    },
    {
      "inputs": [
        {
          "internalType": "uint256",
          "name": "",
          "type": "uint256"
        }
      ],
      "name": "story",
      "outputs": [
        {
          "internalType": "string",
          "name": "",
          "type": "string"
        }
      ],
      "stateMutability": "view",
      "type": "function",
      "constant": true
    },
    {
      "inputs": [],
      "name": "vote_end",
      "outputs": [
        {
          "internalType": "uint256",
          "name": "",
          "type": "uint256"
        }
      ],
      "stateMutability": "view",
      "type": "function",
      "constant": true
    },
    {
      "inputs": [
        {
          "internalType": "uint256",
          "name": "",
          "type": "uint256"
        }
      ],
      "name": "voters_end",
      "outputs": [
        {
          "internalType": "address",
          "name": "",
          "type": "address"
        }
      ],
      "stateMutability": "view",
      "type": "function",
      "constant": true
    },
    {
      "inputs": [
        {
          "internalType": "uint256",
          "name": "_id",
          "type": "uint256"
        }
      ],
      "name": "getArr",
      "outputs": [
        {
          "internalType": "string[5]",
          "name": "",
          "type": "string[5]"
        }
      ],
      "stateMutability": "view",
      "type": "function",
      "constant": true
    },
    {
      "inputs": [
        {
          "internalType": "string",
          "name": "str",
          "type": "string"
        }
      ],
      "name": "stringToArray",
      "outputs": [
        {
          "internalType": "string[]",
          "name": "",
          "type": "string[]"
        }
      ],
      "stateMutability": "pure",
      "type": "function",
      "constant": true
    },
    {
      "inputs": [
        {
          "internalType": "address payable[]",
          "name": "addresses1",
          "type": "address[]"
        },
        {
          "internalType": "address payable[]",
          "name": "addresses2",
          "type": "address[]"
        }
      ],
      "name": "concatAddresses",
      "outputs": [
        {
          "internalType": "address payable[]",
          "name": "",
          "type": "address[]"
        }
      ],
      "stateMutability": "pure",
      "type": "function",
      "constant": true
    },
    {
      "inputs": [
        {
          "internalType": "string",
          "name": "a",
          "type": "string"
        },
        {
          "internalType": "string",
          "name": "b",
          "type": "string"
        }
      ],
      "name": "concatenate",
      "outputs": [
        {
          "internalType": "string",
          "name": "",
          "type": "string"
        }
      ],
      "stateMutability": "pure",
      "type": "function",
      "constant": true
    },
    {
      "inputs": [
        {
          "internalType": "address",
          "name": "_addr",
          "type": "address"
        }
      ],
      "name": "addressToString",
      "outputs": [
        {
          "internalType": "string",
          "name": "",
          "type": "string"
        }
      ],
      "stateMutability": "pure",
      "type": "function",
      "constant": true
    },
    {
      "inputs": [
        {
          "internalType": "address[]",
          "name": "addr",
          "type": "address[]"
        }
      ],
      "name": "addressArraytoString",
      "outputs": [
        {
          "internalType": "string",
          "name": "",
          "type": "string"
        }
      ],
      "stateMutability": "nonpayable",
      "type": "function"
    },
    {
      "inputs": [
        {
          "internalType": "uint256",
          "name": "price",
          "type": "uint256"
        }
      ],
      "name": "createVoteEnd",
      "outputs": [],
      "stateMutability": "nonpayable",
      "type": "function"
    },
    {
      "inputs": [],
      "name": "getCurrentVote",
      "outputs": [
        {
          "internalType": "uint256",
          "name": "",
          "type": "uint256"
        }
      ],
      "stateMutability": "view",
      "type": "function",
      "constant": true
    },
    {
      "inputs": [],
      "name": "resetProducts",
      "outputs": [],
      "stateMutability": "view",
      "type": "function",
      "constant": true
    },
    {
      "inputs": [
        {
          "internalType": "string",
          "name": "_name",
          "type": "string"
        },
        {
          "internalType": "uint256",
          "name": "_price",
          "type": "uint256"
        },
        {
          "internalType": "uint256",
          "name": "upvotes",
          "type": "uint256"
        },
        {
          "internalType": "string[5]",
          "name": "contributors",
          "type": "string[5]"
        }
      ],
      "name": "createProduct",
      "outputs": [],
      "stateMutability": "nonpayable",
      "type": "function"
    },
    {
      "inputs": [
        {
          "internalType": "uint256",
          "name": "_id",
          "type": "uint256"
        }
      ],
      "name": "purchaseProduct",
      "outputs": [],
      "stateMutability": "payable",
      "type": "function",
      "payable": true
    },
    {
      "inputs": [
        {
          "internalType": "uint256",
          "name": "_id",
          "type": "uint256"
        }
      ],
      "name": "purchaseStory",
      "outputs": [],
      "stateMutability": "payable",
      "type": "function",
      "payable": true
    }
  ],
  "bytecode": "0x6080604052600060015560006002556000600355600060045560006005553480156200002a57600080fd5b506040518060400160405280601081526020017f65787175697369746520636f7270736500000000000000000000000000000000815250600090805190602001906200007892919062000087565b5060006002819055506200019c565b828054620000959062000137565b90600052602060002090601f016020900481019282620000b9576000855562000105565b82601f10620000d457805160ff191683800117855562000105565b8280016001018555821562000105579182015b8281111562000104578251825591602001919060010190620000e7565b5b50905062000114919062000118565b5090565b5b808211156200013357600081600090555060010162000119565b5090565b600060028204905060018216806200015057607f821691505b602082108114156200016757620001666200016d565b5b50919050565b7f4e487b7100000000000000000000000000000000000000000000000000000000600052602260045260246000fd5b6145b180620001ac6000396000f3fe6080604052600436106101405760003560e01c806364f86ad6116100b6578063beba8bbe1161006f578063beba8bbe146104b9578063dc56028d146104f6578063e0f6ef8714610521578063ea081fa91461054c578063edb1dc9c14610575578063f5f3e5e61461059157610140565b806364f86ad61461037b5780636e2a2635146103b85780637acc0b20146103cf5780638edc4bfc146104115780639cafe9191461044e578063ab6d4fbe1461047757610140565b80633aeb0b8e116101085780633aeb0b8e146102435780633db804da1461026e5780634308cf35146102ab5780634e70b1dc146102e85780635e57966d146103135780635e8a29321461035057610140565b806306fdde0314610145578063120f7b6b146101705780631fb4a24b146101ad578063266001d3146101ea57806338e76a0314610227575b600080fd5b34801561015157600080fd5b5061015a6105bc565b6040516101679190613cf8565b60405180910390f35b34801561017c57600080fd5b50610197600480360381019061019291906135f1565b61064a565b6040516101a49190613c92565b60405180910390f35b3480156101b957600080fd5b506101d460048036038101906101cf919061379d565b610890565b6040516101e19190613c5c565b60405180910390f35b3480156101f657600080fd5b50610211600480360381019061020c919061369e565b6108c6565b60405161021e9190613cf8565b60405180910390f35b610241600480360381019061023c919061379d565b610b14565b005b34801561024f57600080fd5b50610258611222565b6040516102659190613e11565b60405180910390f35b34801561027a57600080fd5b506102956004803603810190610290919061379d565b611228565b6040516102a29190613c77565b60405180910390f35b3480156102b757600080fd5b506102d260048036038101906102cd919061379d565b611267565b6040516102df9190613cb4565b60405180910390f35b3480156102f457600080fd5b506102fd611350565b60405161030a9190613e11565b60405180910390f35b34801561031f57600080fd5b5061033a60048036038101906103359190613587565b611356565b6040516103479190613cf8565b60405180910390f35b34801561035c57600080fd5b506103656117b7565b6040516103729190613e11565b60405180910390f35b34801561038757600080fd5b506103a2600480360381019061039d919061365d565b6117bd565b6040516103af9190613cd6565b60405180910390f35b3480156103c457600080fd5b506103cd611a41565b005b3480156103db57600080fd5b506103f660048036038101906103f1919061379d565b611c98565b60405161040896959493929190613e2c565b60405180910390f35b34801561041d57600080fd5b50610438600480360381019061043391906135b0565b611d89565b6040516104459190613cf8565b60405180910390f35b34801561045a57600080fd5b506104756004803603810190610470919061370a565b611e4f565b005b34801561048357600080fd5b5061049e6004803603810190610499919061379d565b612038565b6040516104b096959493929190613f87565b60405180910390f35b3480156104c557600080fd5b506104e060048036038101906104db919061379d565b612191565b6040516104ed9190613cf8565b60405180910390f35b34801561050257600080fd5b5061050b612231565b6040516105189190613e11565b60405180910390f35b34801561052d57600080fd5b5061053661223b565b6040516105439190613e11565b60405180910390f35b34801561055857600080fd5b50610573600480360381019061056e919061379d565b612241565b005b61058f600480360381019061058a919061379d565b612ab4565b005b34801561059d57600080fd5b506105a6612ea8565b6040516105b39190613e11565b60405180910390f35b600080546105c9906143b4565b80601f01602080910402602001604051908101604052809291908181526020018280546105f5906143b4565b80156106425780601f1061061757610100808354040283529160200191610642565b820191906000526020600020905b81548152906001019060200180831161062557829003601f168201915b505050505081565b606060008251845161065c91906141e3565b905060008167ffffffffffffffff8111156106a0577f4e487b7100000000000000000000000000000000000000000000000000000000600052604160045260246000fd5b6040519080825280602002602001820160405280156106ce5781602001602082028036833780820191505090505b50905060005b85518110156107a457858181518110610716577f4e487b7100000000000000000000000000000000000000000000000000000000600052603260045260246000fd5b6020026020010151828281518110610757577f4e487b7100000000000000000000000000000000000000000000000000000000600052603260045260246000fd5b602002602001019073ffffffffffffffffffffffffffffffffffffffff16908173ffffffffffffffffffffffffffffffffffffffff1681525050808061079c90614400565b9150506106d4565b60005b8551811015610883578581815181106107e9577f4e487b7100000000000000000000000000000000000000000000000000000000600052603260045260246000fd5b60200260200101518383806107fd90614400565b945081518110610836577f4e487b7100000000000000000000000000000000000000000000000000000000600052603260045260246000fd5b602002602001019073ffffffffffffffffffffffffffffffffffffffff16908173ffffffffffffffffffffffffffffffffffffffff1681525050808061087b90614400565b9150506107a7565b5081935050505092915050565b600a81600b81106108a057600080fd5b016000915054906101000a900473ffffffffffffffffffffffffffffffffffffffff1681565b6060600083905060008390506000815183516108e291906141e3565b67ffffffffffffffff811115610921577f4e487b7100000000000000000000000000000000000000000000000000000000600052604160045260246000fd5b6040519080825280601f01601f1916602001820160405280156109535781602001600182028036833780820191505090505b5090506000805b8451811015610a2e5784818151811061099c577f4e487b7100000000000000000000000000000000000000000000000000000000600052603260045260246000fd5b602001015160f81c60f81b8383806109b390614400565b9450815181106109ec577f4e487b7100000000000000000000000000000000000000000000000000000000600052603260045260246000fd5b60200101907effffffffffffffffffffffffffffffffffffffffffffffffffffffffffffff1916908160001a9053508080610a2690614400565b91505061095a565b5060005b8351811015610b0657838181518110610a74577f4e487b7100000000000000000000000000000000000000000000000000000000600052603260045260246000fd5b602001015160f81c60f81b838380610a8b90614400565b945081518110610ac4577f4e487b7100000000000000000000000000000000000000000000000000000000600052603260045260246000fd5b60200101907effffffffffffffffffffffffffffffffffffffffffffffffffffffffffffff1916908160001a9053508080610afe90614400565b915050610a32565b508194505050505092915050565b6000600760008381526020019081526020016000206040518060e001604052908160008201548152602001600182018054610b4e906143b4565b80601f0160208091040260200160405190810160405280929190818152602001828054610b7a906143b4565b8015610bc75780601f10610b9c57610100808354040283529160200191610bc7565b820191906000526020600020905b815481529060010190602001808311610baa57829003601f168201915b50505050508152602001600282015481526020016003820160009054906101000a900473ffffffffffffffffffffffffffffffffffffffff1673ffffffffffffffffffffffffffffffffffffffff1673ffffffffffffffffffffffffffffffffffffffff1681526020016003820160149054906101000a900460ff161515151581526020016004820154815260200160058201600580602002604051908101604052809291906000905b82821015610d14578382018054610c87906143b4565b80601f0160208091040260200160405190810160405280929190818152602001828054610cb3906143b4565b8015610d005780601f10610cd557610100808354040283529160200191610d00565b820191906000526020600020905b815481529060010190602001808311610ce357829003601f168201915b505050505081526020019060010190610c71565b5050505081525050905060008160600151905060008260000151118015610d415750600154826000015111155b610d4a57600080fd5b8160400151341015610d5b57600080fd5b816080015115610da0576040517f08c379a0000000000000000000000000000000000000000000000000000000008152600401610d9790613df1565b60405180910390fd5b3373ffffffffffffffffffffffffffffffffffffffff168173ffffffffffffffffffffffffffffffffffffffff161415610e0f576040517f08c379a0000000000000000000000000000000000000000000000000000000008152600401610e0690613db1565b60405180910390fd5b8073ffffffffffffffffffffffffffffffffffffffff166108fc349081150290604051600060405180830381858888f19350505050158015610e55573d6000803e3d6000fd5b5060018260a001818151610e6991906141e3565b91508181525050610e7933611356565b8260c001518360a0015160058110610eba577f4e487b7100000000000000000000000000000000000000000000000000000000600052603260045260246000fd5b60200201819052508160076000858152602001908152602001600020600082015181600001556020820151816001019080519060200190610efc929190613060565b506040820151816002015560608201518160030160006101000a81548173ffffffffffffffffffffffffffffffffffffffff021916908373ffffffffffffffffffffffffffffffffffffffff16021790555060808201518160030160146101000a81548160ff02191690831515021790555060a0820151816004015560c082015181600501906005610f8f9291906130e6565b5090505060048260a00151106110e05760018260800190151590811515815250508160076000858152602001908152602001600020600082015181600001556020820151816001019080519060200190610fea929190613060565b506040820151816002015560608201518160030160006101000a81548173ffffffffffffffffffffffffffffffffffffffff021916908373ffffffffffffffffffffffffffffffffffffffff16021790555060808201518160030160146101000a81548160ff02191690831515021790555060a0820151816004015560c08201518160050190600561107d9291906130e6565b509050507f8188e44b6717f640d11be2fb980a4cffe0c626ea8ab72f1fe68e9f1f22dcea4d60015483602001518460400151856060015160018760a001518860c001516040516110d39796959493929190613e94565b60405180910390a161121d565b6000826080019015159081151581525050816007600085815260200190815260200160002060008201518160000155602082015181600101908051906020019061112b929190613060565b506040820151816002015560608201518160030160006101000a81548173ffffffffffffffffffffffffffffffffffffffff021916908373ffffffffffffffffffffffffffffffffffffffff16021790555060808201518160030160146101000a81548160ff02191690831515021790555060a0820151816004015560c0820151816005019060056111be9291906130e6565b509050507f8188e44b6717f640d11be2fb980a4cffe0c626ea8ab72f1fe68e9f1f22dcea4d60015483602001518460400151856060015160008760a001518860c001516040516112149796959493929190613e94565b60405180910390a15b505050565b60035481565b6006818154811061123857600080fd5b906000526020600020016000915054906101000a900473ffffffffffffffffffffffffffffffffffffffff1681565b61126f613139565b600060076000848152602001908152602001600020905080600501600580602002604051908101604052809291906000905b828210156113445783820180546112b7906143b4565b80601f01602080910402602001604051908101604052809291908181526020018280546112e3906143b4565b80156113305780601f1061130557610100808354040283529160200191611330565b820191906000526020600020905b81548152906001019060200180831161131357829003601f168201915b5050505050815260200190600101906112a1565b50505050915050919050565b60045481565b606060008273ffffffffffffffffffffffffffffffffffffffff1660001b905060006040518060400160405280601081526020017f303132333435363738396162636465660000000000000000000000000000000081525090506000602a67ffffffffffffffff8111156113f3577f4e487b7100000000000000000000000000000000000000000000000000000000600052604160045260246000fd5b6040519080825280601f01601f1916602001820160405280156114255781602001600182028036833780820191505090505b5090507f300000000000000000000000000000000000000000000000000000000000000081600081518110611483577f4e487b7100000000000000000000000000000000000000000000000000000000600052603260045260246000fd5b60200101907effffffffffffffffffffffffffffffffffffffffffffffffffffffffffffff1916908160001a9053507f78000000000000000000000000000000000000000000000000000000000000008160018151811061150d577f4e487b7100000000000000000000000000000000000000000000000000000000600052603260045260246000fd5b60200101907effffffffffffffffffffffffffffffffffffffffffffffffffffffffffffff1916908160001a90535060005b60148110156117ab5782600485600c8461155991906141e3565b60208110611590577f4e487b7100000000000000000000000000000000000000000000000000000000600052603260045260246000fd5b1a60f81b7effffffffffffffffffffffffffffffffffffffffffffffffffffffffffffff1916901c60f81c60ff16815181106115f5577f4e487b7100000000000000000000000000000000000000000000000000000000600052603260045260246000fd5b602001015160f81c60f81b8260028361160e919061426a565b600261161a91906141e3565b81518110611651577f4e487b7100000000000000000000000000000000000000000000000000000000600052603260045260246000fd5b60200101907effffffffffffffffffffffffffffffffffffffffffffffffffffffffffffff1916908160001a90535082600f60f81b85600c8461169491906141e3565b602081106116cb577f4e487b7100000000000000000000000000000000000000000000000000000000600052603260045260246000fd5b1a60f81b1660f81c60ff168151811061170d577f4e487b7100000000000000000000000000000000000000000000000000000000600052603260045260246000fd5b602001015160f81c60f81b82600283611726919061426a565b600361173291906141e3565b81518110611769577f4e487b7100000000000000000000000000000000000000000000000000000000600052603260045260246000fd5b60200101907effffffffffffffffffffffffffffffffffffffffffffffffffffffffffffff1916908160001a90535080806117a390614400565b91505061153f565b50809350505050919050565b60025481565b60606000805b835181101561185f57602060f81b84828151811061180a577f4e487b7100000000000000000000000000000000000000000000000000000000600052603260045260246000fd5b602001015160f81c60f81b7effffffffffffffffffffffffffffffffffffffffffffffffffffffffffffff1916141561184c57818061184890614400565b9250505b808061185790614400565b9150506117c3565b50600060018261186f91906141e3565b67ffffffffffffffff8111156118ae577f4e487b7100000000000000000000000000000000000000000000000000000000600052604160045260246000fd5b6040519080825280602002602001820160405280156118e157816020015b60608152602001906001900390816118cc5790505b50905060008060005b86518110156119e457602060f81b878281518110611931577f4e487b7100000000000000000000000000000000000000000000000000000000600052603260045260246000fd5b602001015160f81c60f81b7effffffffffffffffffffffffffffffffffffffffffffffffffffffffffffff191614156119d15761196f878483612eae565b8483815181106119a8577f4e487b7100000000000000000000000000000000000000000000000000000000600052603260045260246000fd5b60200260200101819052506001816119c091906141e3565b925081806119cd90614400565b9250505b80806119dc90614400565b9150506118ea565b506119f186838851612eae565b838281518110611a2a577f4e487b7100000000000000000000000000000000000000000000000000000000600052603260045260246000fd5b602002602001018190525082945050505050919050565b611a49613160565b60005b600254811015611c9457600760008281526020019081526020016000206040518060e001604052908160008201548152602001600182018054611a8e906143b4565b80601f0160208091040260200160405190810160405280929190818152602001828054611aba906143b4565b8015611b075780601f10611adc57610100808354040283529160200191611b07565b820191906000526020600020905b815481529060010190602001808311611aea57829003601f168201915b50505050508152602001600282015481526020016003820160009054906101000a900473ffffffffffffffffffffffffffffffffffffffff1673ffffffffffffffffffffffffffffffffffffffff1673ffffffffffffffffffffffffffffffffffffffff1681526020016003820160149054906101000a900460ff161515151581526020016004820154815260200160058201600580602002604051908101604052809291906000905b82821015611c54578382018054611bc7906143b4565b80601f0160208091040260200160405190810160405280929190818152602001828054611bf3906143b4565b8015611c405780601f10611c1557610100808354040283529160200191611c40565b820191906000526020600020905b815481529060010190602001808311611c2357829003601f168201915b505050505081526020019060010190611bb1565b5050505081525050915060405180602001604052806000815250826020018190525060008260a00181815250508080611c8c90614400565b915050611a4c565b5050565b6007602052806000526040600020600091509050806000015490806001018054611cc1906143b4565b80601f0160208091040260200160405190810160405280929190818152602001828054611ced906143b4565b8015611d3a5780601f10611d0f57610100808354040283529160200191611d3a565b820191906000526020600020905b815481529060010190602001808311611d1d57829003601f168201915b5050505050908060020154908060030160009054906101000a900473ffffffffffffffffffffffffffffffffffffffff16908060030160149054906101000a900460ff16908060040154905086565b6060600060405180602001604052806000815250905060006040518060200160405280600081525090506000600190505b84518111611e4457611e0b858281518110611dfe577f4e487b7100000000000000000000000000000000000000000000000000000000600052603260045260246000fd5b6020026020010151611356565b9250611e2f82611e2a85604051806020016040528060008152506108c6565b6108c6565b91508080611e3c90614400565b915050611dba565b508092505050919050565b6000845111611e5d57600080fd5b60008311611e6a57600080fd5b60016000815480929190611e7d90614400565b9190505550611e8b33611356565b818360058110611ec4577f4e487b7100000000000000000000000000000000000000000000000000000000600052603260045260246000fd5b60200201819052506040518060e0016040528060015481526020018581526020018481526020013373ffffffffffffffffffffffffffffffffffffffff16815260200160001515815260200183815260200182815250600760006001548152602001908152602001600020600082015181600001556020820151816001019080519060200190611f55929190613060565b506040820151816002015560608201518160030160006101000a81548173ffffffffffffffffffffffffffffffffffffffff021916908373ffffffffffffffffffffffffffffffffffffffff16021790555060808201518160030160146101000a81548160ff02191690831515021790555060a0820151816004015560c082015181600501906005611fe89291906130e6565b509050507fc82765ea43bf0e595f0a19d68b0c7767b21c3fdc9fce2e84cb952ef6dee2fe786001548585336000878760405161202a9796959493929190613e94565b60405180910390a150505050565b6008602052806000526040600020600091509050806000015490806001015490806002018054612067906143b4565b80601f0160208091040260200160405190810160405280929190818152602001828054612093906143b4565b80156120e05780601f106120b5576101008083540402835291602001916120e0565b820191906000526020600020905b8154815290600101906020018083116120c357829003601f168201915b5050505050908060030180546120f5906143b4565b80601f0160208091040260200160405190810160405280929190818152602001828054612121906143b4565b801561216e5780601f106121435761010080835404028352916020019161216e565b820191906000526020600020905b81548152906001019060200180831161215157829003601f168201915b5050505050908060040154908060050160009054906101000a900460ff16905086565b600960205280600052604060002060009150905080546121b0906143b4565b80601f01602080910402602001604051908101604052809291908181526020018280546121dc906143b4565b80156122295780601f106121fe57610100808354040283529160200191612229565b820191906000526020600020905b81548152906001019060200180831161220c57829003601f168201915b505050505081565b6000600254905090565b60015481565b60005b6002548110156122fb576000600a82600b811061228a577f4e487b7100000000000000000000000000000000000000000000000000000000600052603260045260246000fd5b0160009054906101000a900473ffffffffffffffffffffffffffffffffffffffff1690503373ffffffffffffffffffffffffffffffffffffffff168173ffffffffffffffffffffffffffffffffffffffff1614156122e757600080fd5b5080806122f390614400565b915050612244565b5033600a600254600b8110612339577f4e487b7100000000000000000000000000000000000000000000000000000000600052603260045260246000fd5b0160006101000a81548173ffffffffffffffffffffffffffffffffffffffff021916908373ffffffffffffffffffffffffffffffffffffffff1602179055506002600081548092919061238b90614400565b9190505550600a60025410612a78576123a2613160565b60006003819055506000600190505b60015481116126ec57600760008281526020019081526020016000206040518060e0016040529081600082015481526020016001820180546123f2906143b4565b80601f016020809104026020016040519081016040528092919081815260200182805461241e906143b4565b801561246b5780601f106124405761010080835404028352916020019161246b565b820191906000526020600020905b81548152906001019060200180831161244e57829003601f168201915b50505050508152602001600282015481526020016003820160009054906101000a900473ffffffffffffffffffffffffffffffffffffffff1673ffffffffffffffffffffffffffffffffffffffff1673ffffffffffffffffffffffffffffffffffffffff1681526020016003820160149054906101000a900460ff161515151581526020016004820154815260200160058201600580602002604051908101604052809291906000905b828210156125b857838201805461252b906143b4565b80601f0160208091040260200160405190810160405280929190818152602001828054612557906143b4565b80156125a45780601f10612579576101008083540402835291602001916125a4565b820191906000526020600020905b81548152906001019060200180831161258757829003601f168201915b505050505081526020019060010190612515565b5050505081525050915060048260a00151106126ce57600682606001519080600181540180825580915050600190039060005260206000200160009091909190916101000a81548173ffffffffffffffffffffffffffffffffffffffff021916908373ffffffffffffffffffffffffffffffffffffffff1602179055506003600081548092919061264890614400565b91905055508160200151600960006003548152602001908152602001600020908051906020019061267a929190613060565b507f32bc891e2cac71758fc1750c899669848735162664579c037c290c8cd9918bc060096000600354815260200190815260200160002060066040516126c1929190613d1a565b60405180910390a16126d9565b6126d6613160565b91505b80806126e490614400565b9150506123b1565b50600060405180602001604052806000815250905060006040518060400160405280600181526020017f200000000000000000000000000000000000000000000000000000000000000081525090506000600190505b600354811161280e576127f9836127f484600960008681526020019081526020016000208054612771906143b4565b80601f016020809104026020016040519081016040528092919081815260200182805461279d906143b4565b80156127ea5780601f106127bf576101008083540402835291602001916127ea565b820191906000526020600020905b8154815290600101906020018083116127cd57829003601f168201915b50505050506108c6565b6108c6565b9250808061280690614400565b915050612742565b50600060405180602001604052806000815250905060005b6006805490508110156128c7576128b2826128ad856128a860068681548110612878577f4e487b7100000000000000000000000000000000000000000000000000000000600052603260045260246000fd5b9060005260206000200160009054906101000a900473ffffffffffffffffffffffffffffffffffffffff16611356565b6108c6565b6108c6565b915080806128bf90614400565b915050612826565b50600560008154809291906128db90614400565b91905055506040518060e0016040528060055481526020016003548152602001848152602001828152602001868152602001600015158152602001600680548060200260200160405190810160405280929190818152602001828054801561299857602002820191906000526020600020905b8160009054906101000a900473ffffffffffffffffffffffffffffffffffffffff1673ffffffffffffffffffffffffffffffffffffffff168152602001906001019080831161294e575b5050505050815250600860006005548152602001908152602001600020600082015181600001556020820151816001015560408201518160020190805190602001906129e5929190613060565b506060820151816003019080519060200190612a02929190613060565b506080820151816004015560a08201518160050160006101000a81548160ff02191690831515021790555060c0820151816006019080519060200190612a499291906131bb565b50905050612a55611a41565b6000600281905550600060018190555060066000612a739190613245565b505050505b7fec859db5a3c1ca3ee301d012a70f0e287a104754cd2f264283bb84531f0eed54600254604051612aa99190613e11565b60405180910390a150565b600081118015612ac657506005548111155b612b05576040517f08c379a0000000000000000000000000000000000000000000000000000000008152600401612afc90613dd1565b60405180910390fd5b6008600082815260200190815260200160002060040154341015612b5e576040517f08c379a0000000000000000000000000000000000000000000000000000000008152600401612b5590613d91565b60405180910390fd5b6008600082815260200190815260200160002060050160009054906101000a900460ff1615612bc2576040517f08c379a0000000000000000000000000000000000000000000000000000000008152600401612bb990613d71565b60405180910390fd5b60016008600083815260200190815260200160002060050160006101000a81548160ff02191690831515021790555060003490506000600860008481526020019081526020016000206001015482612c1a9190614239565b9050600860008481526020019081526020016000206006016006908054612c42929190613266565b5060005b6008600085815260200190815260200160002060010154811015612d2857600060068281548110612ca0577f4e487b7100000000000000000000000000000000000000000000000000000000600052603260045260246000fd5b9060005260206000200160009054906101000a900473ffffffffffffffffffffffffffffffffffffffff1690508073ffffffffffffffffffffffffffffffffffffffff166108fc849081150290604051600060405180830381858888f19350505050158015612d13573d6000803e3d6000fd5b50508080612d2090614400565b915050612c46565b5060066000612d379190613245565b600860008481526020019081526020016000206006016000612d599190613245565b60086000848152602001908152602001600020600601339080600181540180825580915050600190039060005260206000200160009091909190916101000a81548173ffffffffffffffffffffffffffffffffffffffff021916908373ffffffffffffffffffffffffffffffffffffffff160217905550612dd933611356565b600860008581526020019081526020016000206003019080519060200190612e02929190613060565b507f9056f5e53bed7bb6a15348428f0049261c2b3a32242044179b3ae357e7445b51600860008581526020019081526020016000206000015460086000868152602001908152602001600020600201612e5a33611356565b60086000888152602001908152602001600020600401546001600860008a8152602001908152602001600020600601604051612e9b96959493929190613f11565b60405180910390a1505050565b60055481565b606060008490508051831115612ef9576040517f08c379a0000000000000000000000000000000000000000000000000000000008152600401612ef090613d51565b60405180910390fd5b60008484612f0791906142c4565b67ffffffffffffffff811115612f46577f4e487b7100000000000000000000000000000000000000000000000000000000600052604160045260246000fd5b6040519080825280601f01601f191660200182016040528015612f785781602001600182028036833780820191505090505b50905060008590505b8481101561305357828181518110612fc2577f4e487b7100000000000000000000000000000000000000000000000000000000600052603260045260246000fd5b602001015160f81c60f81b828783612fda91906142c4565b81518110613011577f4e487b7100000000000000000000000000000000000000000000000000000000600052603260045260246000fd5b60200101907effffffffffffffffffffffffffffffffffffffffffffffffffffffffffffff1916908160001a905350808061304b90614400565b915050612f81565b5080925050509392505050565b82805461306c906143b4565b90600052602060002090601f01602090048101928261308e57600085556130d5565b82601f106130a757805160ff19168380011785556130d5565b828001600101855582156130d5579182015b828111156130d45782518255916020019190600101906130b9565b5b5090506130e291906132b8565b5090565b8260058101928215613128579160200282015b82811115613127578251829080519060200190613117929190613060565b50916020019190600101906130f9565b5b50905061313591906132d5565b5090565b6040518060a001604052806005905b60608152602001906001900390816131485790505090565b6040518060e00160405280600081526020016060815260200160008152602001600073ffffffffffffffffffffffffffffffffffffffff168152602001600015158152602001600081526020016131b5613139565b81525090565b828054828255906000526020600020908101928215613234579160200282015b828111156132335782518260006101000a81548173ffffffffffffffffffffffffffffffffffffffff021916908373ffffffffffffffffffffffffffffffffffffffff160217905550916020019190600101906131db565b5b50905061324191906132b8565b5090565b508054600082559060005260206000209081019061326391906132b8565b50565b8280548282559060005260206000209081019282156132a75760005260206000209182015b828111156132a657825482559160010191906001019061328b565b5b5090506132b491906132b8565b5090565b5b808211156132d15760008160009055506001016132b9565b5090565b5b808211156132f557600081816132ec91906132f9565b506001016132d6565b5090565b508054613305906143b4565b6000825580601f106133175750613336565b601f01602090049060005260206000209081019061333591906132b8565b5b50565b600061334c61334784614027565b613ff6565b9050808382526020820190508285602086028201111561336b57600080fd5b60005b8581101561339b578161338188826134a3565b84526020840193506020830192505060018101905061336e565b5050509392505050565b60006133b86133b384614053565b613ff6565b905080838252602082019050828560208602820111156133d757600080fd5b60005b8581101561340757816133ed88826134b8565b8452602084019350602083019250506001810190506133da565b5050509392505050565b600061342461341f8461407f565b613ff6565b9050808260005b8581101561345b57813585016134418882613548565b84526020840193506020830192505060018101905061342b565b5050509392505050565b6000613478613473846140a5565b613ff6565b90508281526020810184848401111561349057600080fd5b61349b848285614372565b509392505050565b6000813590506134b281614536565b92915050565b6000813590506134c78161454d565b92915050565b600082601f8301126134de57600080fd5b81356134ee848260208601613339565b91505092915050565b600082601f83011261350857600080fd5b81356135188482602086016133a5565b91505092915050565b600082601f83011261353257600080fd5b600561353f848285613411565b91505092915050565b600082601f83011261355957600080fd5b8135613569848260208601613465565b91505092915050565b60008135905061358181614564565b92915050565b60006020828403121561359957600080fd5b60006135a7848285016134a3565b91505092915050565b6000602082840312156135c257600080fd5b600082013567ffffffffffffffff8111156135dc57600080fd5b6135e8848285016134cd565b91505092915050565b6000806040838503121561360457600080fd5b600083013567ffffffffffffffff81111561361e57600080fd5b61362a858286016134f7565b925050602083013567ffffffffffffffff81111561364757600080fd5b613653858286016134f7565b9150509250929050565b60006020828403121561366f57600080fd5b600082013567ffffffffffffffff81111561368957600080fd5b61369584828501613548565b91505092915050565b600080604083850312156136b157600080fd5b600083013567ffffffffffffffff8111156136cb57600080fd5b6136d785828601613548565b925050602083013567ffffffffffffffff8111156136f457600080fd5b61370085828601613548565b9150509250929050565b6000806000806080858703121561372057600080fd5b600085013567ffffffffffffffff81111561373a57600080fd5b61374687828801613548565b945050602061375787828801613572565b935050604061376887828801613572565b925050606085013567ffffffffffffffff81111561378557600080fd5b61379187828801613521565b91505092959194509250565b6000602082840312156137af57600080fd5b60006137bd84828501613572565b91505092915050565b60006137d283836137f2565b60208301905092915050565b60006137ea83836139db565b905092915050565b6137fb8161432a565b82525050565b61380a8161432a565b82525050565b61381981614318565b82525050565b600061382a82614129565b6138348185614194565b935061383f836140d5565b8060005b8381101561387057815161385788826137c6565b975061386283614160565b925050600181019050613843565b5085935050505092915050565b600061388882614134565b6138928185614194565b935061389d836140e5565b8060005b838110156138d5576138b282614505565b6138bc88826137c6565b97506138c78361416d565b9250506001810190506138a1565b5085935050505092915050565b60006138ed8261413f565b6138f781856141a5565b935083602082028501613909856140fa565b8060005b85811015613945578484038952815161392685826137de565b94506139318361417a565b925060208a0199505060018101905061390d565b50829750879550505050505092915050565b60006139628261414a565b61396c81856141b0565b93508360208202850161397e85614104565b8060005b858110156139ba578484038952815161399b85826137de565b94506139a683614187565b925060208a01995050600181019050613982565b50829750879550505050505092915050565b6139d58161433c565b82525050565b60006139e682614155565b6139f081856141c1565b9350613a00818560208601614381565b613a0981614518565b840191505092915050565b6000613a1f82614155565b613a2981856141d2565b9350613a39818560208601614381565b613a4281614518565b840191505092915050565b60008154613a5a816143b4565b613a6481866141d2565b94506001821660008114613a7f5760018114613a9157613ac4565b60ff1983168652602086019350613ac4565b613a9a85614114565b60005b83811015613abc57815481890152600182019150602081019050613a9d565b808801955050505b50505092915050565b6000613ada6010836141d2565b91507f496e76616c696420656e64496e646578000000000000000000000000000000006000830152602082019050919050565b6000613b1a6017836141d2565b91507f53746f727920616c7265616479207075726368617365640000000000000000006000830152602082019050919050565b6000613b5a6012836141d2565b91507f496e73756666696369656e742066756e647300000000000000000000000000006000830152602082019050919050565b6000613b9a600f836141d2565b91507f416c7265616479207570766f74656400000000000000000000000000000000006000830152602082019050919050565b6000613bda6012836141d2565b91507f496e76616c69642070726f6475637420494400000000000000000000000000006000830152602082019050919050565b6000613c1a601f836141d2565b91507f596f752063616e6e6f74207570766f746520796f75722073656e74656e6365006000830152602082019050919050565b613c5681614368565b82525050565b6000602082019050613c716000830184613810565b92915050565b6000602082019050613c8c6000830184613801565b92915050565b60006020820190508181036000830152613cac818461381f565b905092915050565b60006020820190508181036000830152613cce81846138e2565b905092915050565b60006020820190508181036000830152613cf08184613957565b905092915050565b60006020820190508181036000830152613d128184613a14565b905092915050565b60006040820190508181036000830152613d348185613a4d565b90508181036020830152613d48818461387d565b90509392505050565b60006020820190508181036000830152613d6a81613acd565b9050919050565b60006020820190508181036000830152613d8a81613b0d565b9050919050565b60006020820190508181036000830152613daa81613b4d565b9050919050565b60006020820190508181036000830152613dca81613b8d565b9050919050565b60006020820190508181036000830152613dea81613bcd565b9050919050565b60006020820190508181036000830152613e0a81613c0d565b9050919050565b6000602082019050613e266000830184613c4d565b92915050565b600060c082019050613e416000830189613c4d565b8181036020830152613e538188613a14565b9050613e626040830187613c4d565b613e6f6060830186613801565b613e7c60808301856139cc565b613e8960a0830184613c4d565b979650505050505050565b600060e082019050613ea9600083018a613c4d565b8181036020830152613ebb8189613a14565b9050613eca6040830188613c4d565b613ed76060830187613801565b613ee460808301866139cc565b613ef160a0830185613c4d565b81810360c0830152613f0381846138e2565b905098975050505050505050565b600060c082019050613f266000830189613c4d565b8181036020830152613f388188613a4d565b90508181036040830152613f4c8187613a14565b9050613f5b6060830186613c4d565b613f6860808301856139cc565b81810360a0830152613f7a818461387d565b9050979650505050505050565b600060c082019050613f9c6000830189613c4d565b613fa96020830188613c4d565b8181036040830152613fbb8187613a14565b90508181036060830152613fcf8186613a14565b9050613fde6080830185613c4d565b613feb60a08301846139cc565b979650505050505050565b6000604051905081810181811067ffffffffffffffff8211171561401d5761401c6144d6565b5b8060405250919050565b600067ffffffffffffffff821115614042576140416144d6565b5b602082029050602081019050919050565b600067ffffffffffffffff82111561406e5761406d6144d6565b5b602082029050602081019050919050565b600067ffffffffffffffff82111561409a576140996144d6565b5b602082029050919050565b600067ffffffffffffffff8211156140c0576140bf6144d6565b5b601f19601f8301169050602081019050919050565b6000819050602082019050919050565b60008190508160005260206000209050919050565b6000819050919050565b6000819050602082019050919050565b60008190508160005260206000209050919050565b600081519050919050565b600081549050919050565b600060059050919050565b600081519050919050565b600081519050919050565b6000602082019050919050565b6000600182019050919050565b6000602082019050919050565b6000602082019050919050565b600082825260208201905092915050565b600081905092915050565b600082825260208201905092915050565b600082825260208201905092915050565b600082825260208201905092915050565b60006141ee82614368565b91506141f983614368565b9250827fffffffffffffffffffffffffffffffffffffffffffffffffffffffffffffffff0382111561422e5761422d614449565b5b828201905092915050565b600061424482614368565b915061424f83614368565b92508261425f5761425e614478565b5b828204905092915050565b600061427582614368565b915061428083614368565b9250817fffffffffffffffffffffffffffffffffffffffffffffffffffffffffffffffff04831182151516156142b9576142b8614449565b5b828202905092915050565b60006142cf82614368565b91506142da83614368565b9250828210156142ed576142ec614449565b5b828203905092915050565b600073ffffffffffffffffffffffffffffffffffffffff82169050919050565b600061432382614348565b9050919050565b600061433582614348565b9050919050565b60008115159050919050565b600073ffffffffffffffffffffffffffffffffffffffff82169050919050565b6000819050919050565b82818337600083830152505050565b60005b8381101561439f578082015181840152602081019050614384565b838111156143ae576000848401525b50505050565b600060028204905060018216806143cc57607f821691505b602082108114156143e0576143df6144a7565b5b50919050565b60006143f96143f483614529565b6142f8565b9050919050565b600061440b82614368565b91507fffffffffffffffffffffffffffffffffffffffffffffffffffffffffffffffff82141561443e5761443d614449565b5b600182019050919050565b7f4e487b7100000000000000000000000000000000000000000000000000000000600052601160045260246000fd5b7f4e487b7100000000000000000000000000000000000000000000000000000000600052601260045260246000fd5b7f4e487b7100000000000000000000000000000000000000000000000000000000600052602260045260246000fd5b7f4e487b7100000000000000000000000000000000000000000000000000000000600052604160045260246000fd5b600061451182546143e6565b9050919050565b6000601f19601f8301169050919050565b60008160001c9050919050565b61453f81614318565b811461454a57600080fd5b50565b6145568161432a565b811461456157600080fd5b50565b61456d81614368565b811461457857600080fd5b5056fea26469706673582212205123f2575a2885eba9c1621e4f1c52b2ca2147314922b2eff3d0d4d0e88b59f064736f6c63430008000033",
  "immutableReferences": {},
  "source": "pragma solidity ^0.8.0;\r\n\r\n\r\n//TODO\r\n//Add another table with stories, authors, buy button\r\n//convert contributors to string array and get the size\r\n//get the buyer address\r\n//transfer the ownership\r\n//split the sale\r\n//display the buy button\r\ncontract Marketplace {\r\n\tstring public name;\r\n\tuint public productCount = 0;\r\n\tuint public vote_end = 0;\r\n\tuint public SentenceCount = 0;\r\n\tuint public num = 0;\r\n\tuint public historyProdCount = 0;\r\n\taddress payable [] public authors;\r\n\tmapping(uint => Product) public products;\r\n\tmapping(uint => CompleteStory) public products_historical;\r\n\t//link story in historical to the contributors\r\n\t//string public authors;\r\n\tmapping(uint => string) public story;\r\n\taddress[11] public voters_end;\r\n\tstruct Product {\r\n\t\tuint id;\r\n\t\tstring name;\r\n\t\tuint price;\r\n\t\taddress payable owner;\r\n\t\tbool purchased;\r\n\t\tuint upvotes;\r\n\t\tstring[5] contributors;\r\n\t}\r\n\t// struct Sentence {\r\n\t// \tstring name;\r\n\t// \t//address payable [] authors;\r\n\t// }\r\n\tstruct CompleteStory {\r\n\t\tuint id;\r\n\t\tuint sentCount;\r\n\t\tstring fullS;\r\n\t\tstring authors;\r\n\t\tuint price;\r\n\t\tbool purchased;\r\n\t\taddress payable [] owner;\r\n\t\t//address  payable [] authors;\r\n\t}\r\n\r\n\tevent StoryCreated(\r\n\t\tstring name,\r\n\t\taddress payable [] authors\t\r\n\t);\r\n\r\n\tevent StoryPurchased(\r\n\t\tuint id,\r\n\t\tstring fullS,\r\n\t\tstring authors,\r\n\t\tuint price,\r\n\t\tbool purchased,\r\n\t\taddress payable [] owner\r\n\t);\r\n\r\n\tevent ProductCreated(\r\n\t\tuint id,\r\n\t\tstring name,\r\n\t\tuint price,\r\n\t\taddress payable owner,\r\n\t\tbool purchased,\r\n\t\tuint upvotes,\r\n\t\tstring[5] contributors\t\r\n\t);\r\n\r\n\tevent upVote(\r\n\t\tuint vote\r\n\t);\r\n\r\n\tevent ProductPurchased(\r\n\t\tuint id,\r\n\t\tstring name,\r\n\t\tuint price,\r\n\t\taddress payable owner,\r\n\t\tbool purchased,\r\n\t\tuint upvotes,\r\n\t\tstring[5] contributors\r\n\t);\r\n\r\n\tstruct voteEnd{\r\n\t\tuint votes;\r\n\t}\r\n\t\r\n\t\r\n\tconstructor() {\r\n\t\tname = \"exquisite corpse\";\r\n\t\t//products_historical ='';\r\n\t\tvote_end = 0;\r\n\t}\r\n\r\n\tfunction getArr(uint _id) public view returns (string[5] memory) {\r\n\t\tProduct storage myProduct = products[_id];\r\n    \treturn myProduct.contributors;\r\n\t}\r\n\r\n\tfunction stringToArray(string memory str) public pure returns (string[] memory) {\r\n        // Count the number of spaces in the input string\r\n        uint spaceCount = 0;\r\n        for (uint i = 0; i < bytes(str).length; i++) {\r\n            if (bytes(str)[i] == 0x20) { // ASCII value of space is 0x20\r\n                spaceCount++;\r\n            }\r\n        }\r\n\r\n        // Create a new dynamic string array with the number of spaces + 1 elements\r\n        string[] memory stringArr = new string[](spaceCount + 1);\r\n        uint startIndex = 0;\r\n        uint arrayIndex = 0;\r\n\r\n        // Iterate over the input string and split it by space\r\n        for (uint i = 0; i < bytes(str).length; i++) {\r\n            if (bytes(str)[i] == 0x20) {\r\n                stringArr[arrayIndex] = substring(str, startIndex, i);\r\n                startIndex = i + 1;\r\n                arrayIndex++;\r\n            }\r\n        }\r\n\r\n        // Add the remaining part of the input string to the array\r\n        stringArr[arrayIndex] = substring(str, startIndex, bytes(str).length);\r\n\r\n        return stringArr;\r\n    }\r\n\r\n\tfunction substring(string memory str, uint startIndex, uint endIndex) internal pure returns (string memory) {\r\n        bytes memory strBytes = bytes(str);\r\n        require(endIndex <= strBytes.length, \"Invalid endIndex\");\r\n\r\n        bytes memory result = new bytes(endIndex - startIndex);\r\n        for (uint i = startIndex; i < endIndex; i++) {\r\n            result[i - startIndex] = strBytes[i];\r\n        }\r\n\r\n        return string(result);\r\n    }\r\n\t\r\n\r\n\r\n\tfunction stringToAddress(string memory _input) internal pure returns (address) {\r\n\t\tbytes32 hash = keccak256(bytes(_input));\r\n\t\taddress addr = address(uint160(uint256(hash)));\r\n\t\treturn addr;\r\n\t}\r\n\tfunction concatAddresses(address payable [] memory addresses1, address payable [] memory addresses2) public pure returns(address payable [] memory) {\r\n\t\tuint totalLength = addresses1.length + addresses2.length;\r\n\t\taddress payable [] memory concatenatedArray = new address payable [](totalLength);\r\n\t\t\r\n\t\tuint i;\r\n\t\tfor (i = 0; i < addresses1.length; i++) {\r\n\t\t\tconcatenatedArray[i] = addresses1[i];\r\n\t\t}\r\n\t\tfor (uint j = 0; j < addresses2.length; j++) {\r\n\t\t\tconcatenatedArray[i++] = addresses2[j];\r\n\t\t}\r\n\t\t\r\n\t\treturn concatenatedArray;\r\n\t}\r\n\tfunction concatenate(string memory a, string memory b) public pure returns (string memory) {\r\n        bytes memory aa = bytes(a);\r\n        bytes memory bb = bytes(b);\r\n        bytes memory result = new bytes(aa.length + bb.length);\r\n        uint k = 0;\r\n        for (uint i = 0; i < aa.length; i++) {\r\n            result[k++] = aa[i];\r\n        }\r\n        for (uint i = 0; i < bb.length; i++) {\r\n            result[k++] = bb[i];\r\n        }\r\n        return string(result);\r\n    }\r\n\tfunction toString(uint _i) internal pure returns (string memory _uintAsString) {\r\n        if (_i == 0) {\r\n            return \"0\";\r\n        }\r\n        uint j = _i;\r\n        uint len;\r\n        while (j != 0) {\r\n            len++;\r\n            j /= 10;\r\n        }\r\n        bytes memory bstr = new bytes(len);\r\n        uint k = len;\r\n        while (_i != 0) {\r\n            k = k-1;\r\n            uint8 temp = (48 + uint8(_i - _i / 10 * 10));\r\n            bytes1 b1 = bytes1(temp);\r\n            bstr[k] = b1;\r\n            _i /= 10;\r\n        }\r\n        return string(bstr);\r\n    }\r\n\tfunction addressToString(address _addr) public pure returns (string memory) {\r\n\t\tbytes32 value = bytes32(uint256(uint160(_addr)));\r\n\t\tbytes memory alphabet = \"0123456789abcdef\";\r\n\r\n\t\tbytes memory str = new bytes(42);\r\n\t\tstr[0] = '0';\r\n\t\tstr[1] = 'x';\r\n\t\tfor (uint i = 0; i < 20; i++) {\r\n\t\t\tstr[2+i*2] = alphabet[uint8(value[i + 12] >> 4)];\r\n\t\t\tstr[3+i*2] = alphabet[uint8(value[i + 12] & 0x0f)];\r\n\t\t}\r\n\t\treturn string(str);\r\n\t}\r\n\r\n\tfunction addressArraytoString(address [] memory addr) public returns (string memory)  {\r\n\t\tstring memory stringAddr1 = \"\";\r\n\t\tstring memory stringAddr2 = \"\";\r\n\t\tfor(uint i = 1; i <= addr.length; i++) {\r\n\t\t\tstringAddr1 = addressToString(addr[i]);\r\n\t\t\tstringAddr2 = concatenate(stringAddr2, concatenate(stringAddr1, \"\"));\r\n\t\t}\r\n\r\n\t\treturn stringAddr2;\r\n\t}\r\n\r\n\tfunction createVoteEnd(uint price) public {\r\n    //string storage senderString = toString(msg.sender);\r\n\t//check not similar voters\r\n    for (uint i = 0; i < vote_end; i++) {\r\n\t\taddress voterA = voters_end[i];\r\n        require( voterA != msg.sender);\r\n    }\r\n\t\tvoters_end[vote_end] = msg.sender;\r\n\t\tvote_end++;\r\n\r\n\t\t//transfer to past stories\r\n\t\tif(vote_end >=10){\r\n\t\t\tProduct memory _product;\r\n\t\t\tSentenceCount = 0;\r\n\t\t\t//address payable tempaddr;\r\n\t\t\tfor(uint i = 1; i <= productCount; i++){\r\n\t\t\t\t_product = products[i];\r\n\t\t\t\tif(_product.upvotes >= 4){\r\n\t\t\t\t\tauthors.push(_product.owner);\r\n\t\t\t\t\t//_sentence.name = _product.name;\r\n\t\t\t\t\tSentenceCount++;\r\n\t\t\t\t\tstory[SentenceCount]= _product.name;\r\n\t\t\t\t\t\r\n\t\t\t\t\t//make the first sentence have all the authors\r\n\t\t\t\t\temit StoryCreated(story[SentenceCount], authors);\r\n\t\t\t\t}\r\n\t\t\t\telse {\r\n\t\t\t\t\tdelete _product;\r\n\t\t\t\t\t\r\n\t\t\t\t}\r\n\r\n\t\t\t}\r\n\t\t\t// //concate all sentences in one string\r\n\t\t\tstring memory full_story = \"\";\r\n\t\t\tstring memory space = \" \";\r\n\t\t\t//string memory full_story;\r\n\t\t\tfor (uint j = 1; j <= SentenceCount; j++) {\r\n\t\t\t\tfull_story = concatenate(full_story, concatenate(space, story[j]));\r\n\t\t\t}\r\n\t\t\t//add the authors strings\r\n\t\t\tstring memory authstring = \"\";\r\n\t\t\tfor (uint j = 0; j < authors.length; j++) {\r\n\t\t\t\tauthstring =  concatenate(authstring, concatenate(space, addressToString(authors[j])));\r\n\t\t\t}\r\n\t\t\thistoryProdCount++; \r\n\t\t\tproducts_historical[historyProdCount] = CompleteStory(historyProdCount, SentenceCount, \r\n\t\t\tfull_story, authstring, price , false, authors);\r\n\t\t\tresetProducts();\r\n\t\t\tvote_end = 0;\r\n\t\t\tproductCount = 0;\r\n\t\t\tdelete authors;\r\n\t\t\r\n\t\t} \r\n\t\t\r\n\t\temit upVote(vote_end);\r\n\t}\r\n\r\n\tfunction getCurrentVote() public view returns (uint) {\r\n\t\t// portion where we plug in tufts account\r\n\t\t// address(_seller).transfer(msg.value);\r\n\t\treturn vote_end;\r\n\t}\r\n\t\r\n\tfunction resetProducts() public view{\r\n\t\tProduct memory _product;\r\n\t\tfor(uint i = 0; i < vote_end; i++){\r\n\t\t\t_product = products[i];\r\n\t\t\t_product.name = \"\";\r\n\t\t\t_product.upvotes = 0;\r\n\t\t}\r\n\t}\r\n\r\n\r\n\tfunction createProduct(string memory _name, uint _price, uint upvotes, string[5] memory contributors) public {\r\n\t\t// require a name\r\n\t\trequire(bytes(_name).length > 0);\r\n\t\t// require a valid price\r\n\t\trequire(_price > 0);\r\n\t\t// make sure params good\r\n\t\t// inc products count\r\n\t\tproductCount++;\r\n\t\t//add owner to contributors\r\n\t\tcontributors[upvotes] = addressToString(msg.sender);\r\n\t\t//address payable [] memory owner;\r\n\t\t//owner[1] = payable(msg.sender);\r\n\t\t// create the product\r\n\t\tproducts[productCount] = Product(productCount, _name, _price, payable(msg.sender), false, upvotes, contributors);\r\n\t\t// trigger an event\t\r\n\t\temit ProductCreated(productCount, _name, _price, payable(msg.sender), false, upvotes, contributors);\r\n\t}\r\n\r\n\tfunction purchaseProduct(uint _id) public payable{\r\n\t\t// fetch product\r\n\t\tProduct memory _product = products[_id];\t\r\n\t\t// fetch the owner\r\n\t\taddress payable _seller = _product.owner;\r\n\t\t\r\n\t\t// make sure the product has a valid id\r\n\t\trequire(_product.id > 0 && _product.id <= productCount);\r\n\t\t// make sure they sent enough ether\r\n\t\trequire(msg.value >= _product.price);\r\n\t\t// require product has not already been purchased\r\n\t\trequire(!_product.purchased, \"You cannot upvote your sentence\");\r\n\t\t// require that the buyer is not the seller\r\n\t\trequire(_seller != msg.sender, \"Already upvoted\");\r\n\t\t// require that the buyer is not a previous contributor (i.e already upvoted)\r\n\t\t\r\n\t\t\r\n\t\tpayable(_seller).transfer(msg.value);\r\n\t\t// mark as purchased\r\n\t\t// increment upvotes of product\r\n\t\t_product.upvotes += 1;\r\n\t\t//add purchaser to contributors\r\n\t\t_product.contributors[_product.upvotes] = addressToString(msg.sender);\r\n\t\t//update the product\r\n\t\tproducts[_id] = _product;\r\n\t\t\r\n\t\tif(_product.upvotes >= 4){\r\n\t\t\t_product.purchased = true;\r\n\t\t\tproducts[_id] = _product;\r\n\t\t\temit ProductPurchased(productCount, _product.name, _product.price, _product.owner, true, _product.upvotes, _product.contributors);\r\n\t\t}\r\n\t\telse {\r\n\t\t\t_product.purchased = false;\r\n\t\t\tproducts[_id] = _product;\r\n\t\t\temit ProductPurchased(productCount, _product.name, _product.price, _product.owner, false, _product.upvotes, _product.contributors);\r\n\t\t}\t\r\n\t}\r\n\r\n\r\n   function purchaseStory(uint _id) public payable {\r\n\t\t// Fetch the product\r\n\t\trequire(_id > 0 && _id <= historyProdCount, \"Invalid product ID\");\r\n\r\n\t\trequire(msg.value >= products_historical[_id].price, \"Insufficient funds\");\r\n\r\n\t\trequire(!products_historical[_id].purchased, \"Story already purchased\");\r\n\r\n\t\tproducts_historical[_id].purchased = true;\r\n\r\n\t\t// Transfer funds to sellers\r\n\t\tuint fullprice = msg.value;\r\n\t\tuint paidPrice = fullprice/products_historical[_id].sentCount;\r\n\t\tauthors = products_historical[_id].owner;\r\n\t\tfor (uint i = 0; i < products_historical[_id].sentCount; i++) {\r\n\t\t\taddress payable seller = authors[i];\r\n\t\t\tseller.transfer(paidPrice);\r\n\t\t}\r\n\r\n\t\t// Update product ownership\r\n\t\tdelete authors;\r\n\t\tdelete products_historical[_id].owner;\r\n\t\tproducts_historical[_id].owner.push(payable(msg.sender)); \r\n\t\tproducts_historical[_id].authors = addressToString(msg.sender);\r\n\t\t// Trigger an event\r\n\t\temit StoryPurchased(products_historical[_id].id,products_historical[_id].fullS, addressToString(msg.sender), products_historical[_id].price, true,  products_historical[_id].owner);\r\n\t}\r\n\r\n\r\n}\r\n",
  "sourcePath": "C:/Users/shahd/documents/blockchain/corpseNNN/src/contracts/Marketplace.sol",
  "compiler": {
    "name": "solc",
    "version": "0.8.0+commit.c7dfd78e.Emscripten.clang"
  },
  "schemaVersion": "3.3.3",
  "updatedAt": "2023-07-19T10:57:32.919Z",
  "networkType": "ethereum",
  "devdoc": {
    "kind": "dev",
    "methods": {},
    "version": 1
  },
  "userdoc": {
    "kind": "user",
    "methods": {},
    "version": 1
  }
}