{
  "contractName": "Marketplace",
  "abi": [
    {
      "inputs": [],
      "stateMutability": "nonpayable",
      "type": "constructor"
    },
    {
      "anonymous": false,
      "inputs": [
        {
          "indexed": false,
          "internalType": "uint256",
          "name": "id",
          "type": "uint256"
        },
        {
          "indexed": false,
          "internalType": "string",
          "name": "name",
          "type": "string"
        },
        {
          "indexed": false,
          "internalType": "uint256",
          "name": "price",
          "type": "uint256"
        },
        {
          "indexed": false,
          "internalType": "address payable",
          "name": "owner",
          "type": "address"
        },
        {
          "indexed": false,
          "internalType": "bool",
          "name": "purchased",
          "type": "bool"
        },
        {
          "indexed": false,
          "internalType": "uint256",
          "name": "upvotes",
          "type": "uint256"
        },
        {
          "indexed": false,
          "internalType": "string[3]",
          "name": "contributors",
          "type": "string[3]"
        }
      ],
      "name": "ProductCreated",
      "type": "event"
    },
    {
      "anonymous": false,
      "inputs": [
        {
          "indexed": false,
          "internalType": "uint256",
          "name": "id",
          "type": "uint256"
        },
        {
          "indexed": false,
          "internalType": "string",
          "name": "name",
          "type": "string"
        },
        {
          "indexed": false,
          "internalType": "uint256",
          "name": "price",
          "type": "uint256"
        },
        {
          "indexed": false,
          "internalType": "address payable",
          "name": "owner",
          "type": "address"
        },
        {
          "indexed": false,
          "internalType": "bool",
          "name": "purchased",
          "type": "bool"
        },
        {
          "indexed": false,
          "internalType": "uint256",
          "name": "upvotes",
          "type": "uint256"
        },
        {
          "indexed": false,
          "internalType": "string[3]",
          "name": "contributors",
          "type": "string[3]"
        }
      ],
      "name": "ProductPurchased",
      "type": "event"
    },
    {
      "anonymous": false,
      "inputs": [
        {
          "indexed": false,
          "internalType": "string",
          "name": "name",
          "type": "string"
        },
        {
          "indexed": false,
          "internalType": "address payable[]",
          "name": "authors",
          "type": "address[]"
        }
      ],
      "name": "StoryCreated",
      "type": "event"
    },
    {
      "anonymous": false,
      "inputs": [
        {
          "indexed": false,
          "internalType": "uint256",
          "name": "id",
          "type": "uint256"
        },
        {
          "indexed": false,
          "internalType": "string",
          "name": "fullS",
          "type": "string"
        },
        {
          "indexed": false,
          "internalType": "uint256",
          "name": "price",
          "type": "uint256"
        },
        {
          "indexed": false,
          "internalType": "bool",
          "name": "purchased",
          "type": "bool"
        },
        {
          "indexed": false,
          "internalType": "address payable[]",
          "name": "owner",
          "type": "address[]"
        }
      ],
      "name": "StoryPurchased",
      "type": "event"
    },
    {
      "anonymous": false,
      "inputs": [
        {
          "indexed": false,
          "internalType": "uint256",
          "name": "vote",
          "type": "uint256"
        }
      ],
      "name": "upVote",
      "type": "event"
    },
    {
      "inputs": [],
      "name": "SentenceCount",
      "outputs": [
        {
          "internalType": "uint256",
          "name": "",
          "type": "uint256"
        }
      ],
      "stateMutability": "view",
      "type": "function",
      "constant": true
    },
    {
      "inputs": [
        {
          "internalType": "uint256",
          "name": "",
          "type": "uint256"
        }
      ],
      "name": "authors",
      "outputs": [
        {
          "internalType": "address payable",
          "name": "",
          "type": "address"
        }
      ],
      "stateMutability": "view",
      "type": "function",
      "constant": true
    },
    {
      "inputs": [],
      "name": "historyProdCount",
      "outputs": [
        {
          "internalType": "uint256",
          "name": "",
          "type": "uint256"
        }
      ],
      "stateMutability": "view",
      "type": "function",
      "constant": true
    },
    {
      "inputs": [],
      "name": "name",
      "outputs": [
        {
          "internalType": "string",
          "name": "",
          "type": "string"
        }
      ],
      "stateMutability": "view",
      "type": "function",
      "constant": true
    },
    {
      "inputs": [],
      "name": "num",
      "outputs": [
        {
          "internalType": "uint256",
          "name": "",
          "type": "uint256"
        }
      ],
      "stateMutability": "view",
      "type": "function",
      "constant": true
    },
    {
      "inputs": [],
      "name": "productCount",
      "outputs": [
        {
          "internalType": "uint256",
          "name": "",
          "type": "uint256"
        }
      ],
      "stateMutability": "view",
      "type": "function",
      "constant": true
    },
    {
      "inputs": [
        {
          "internalType": "uint256",
          "name": "",
          "type": "uint256"
        }
      ],
      "name": "products",
      "outputs": [
        {
          "internalType": "uint256",
          "name": "id",
          "type": "uint256"
        },
        {
          "internalType": "string",
          "name": "name",
          "type": "string"
        },
        {
          "internalType": "uint256",
          "name": "price",
          "type": "uint256"
        },
        {
          "internalType": "address payable",
          "name": "owner",
          "type": "address"
        },
        {
          "internalType": "bool",
          "name": "purchased",
          "type": "bool"
        },
        {
          "internalType": "uint256",
          "name": "upvotes",
          "type": "uint256"
        }
      ],
      "stateMutability": "view",
      "type": "function",
      "constant": true
    },
    {
      "inputs": [
        {
          "internalType": "uint256",
          "name": "",
          "type": "uint256"
        }
      ],
      "name": "products_historical",
      "outputs": [
        {
          "internalType": "uint256",
          "name": "id",
          "type": "uint256"
        },
        {
          "internalType": "uint256",
          "name": "sentCount",
          "type": "uint256"
        },
        {
          "internalType": "string",
          "name": "fullS",
          "type": "string"
        },
        {
          "internalType": "uint256",
          "name": "price",
          "type": "uint256"
        },
        {
          "internalType": "bool",
          "name": "purchased",
          "type": "bool"
        }
      ],
      "stateMutability": "view",
      "type": "function",
      "constant": true
    },
    {
      "inputs": [
        {
          "internalType": "uint256",
          "name": "",
          "type": "uint256"
        }
      ],
      "name": "story",
      "outputs": [
        {
          "internalType": "string",
          "name": "",
          "type": "string"
        }
      ],
      "stateMutability": "view",
      "type": "function",
      "constant": true
    },
    {
      "inputs": [],
      "name": "vote_end",
      "outputs": [
        {
          "internalType": "uint256",
          "name": "",
          "type": "uint256"
        }
      ],
      "stateMutability": "view",
      "type": "function",
      "constant": true
    },
    {
      "inputs": [
        {
          "internalType": "uint256",
          "name": "",
          "type": "uint256"
        }
      ],
      "name": "voters_end",
      "outputs": [
        {
          "internalType": "address",
          "name": "",
          "type": "address"
        }
      ],
      "stateMutability": "view",
      "type": "function",
      "constant": true
    },
    {
      "inputs": [
        {
          "internalType": "uint256",
          "name": "_id",
          "type": "uint256"
        }
      ],
      "name": "getArr",
      "outputs": [
        {
          "internalType": "string[3]",
          "name": "",
          "type": "string[3]"
        }
      ],
      "stateMutability": "view",
      "type": "function",
      "constant": true
    },
    {
      "inputs": [
        {
          "internalType": "string",
          "name": "str",
          "type": "string"
        }
      ],
      "name": "stringToArray",
      "outputs": [
        {
          "internalType": "string[]",
          "name": "",
          "type": "string[]"
        }
      ],
      "stateMutability": "pure",
      "type": "function",
      "constant": true
    },
    {
      "inputs": [
        {
          "internalType": "address payable[]",
          "name": "addresses1",
          "type": "address[]"
        },
        {
          "internalType": "address payable[]",
          "name": "addresses2",
          "type": "address[]"
        }
      ],
      "name": "concatAddresses",
      "outputs": [
        {
          "internalType": "address payable[]",
          "name": "",
          "type": "address[]"
        }
      ],
      "stateMutability": "pure",
      "type": "function",
      "constant": true
    },
    {
      "inputs": [
        {
          "internalType": "string",
          "name": "a",
          "type": "string"
        },
        {
          "internalType": "string",
          "name": "b",
          "type": "string"
        }
      ],
      "name": "concatenate",
      "outputs": [
        {
          "internalType": "string",
          "name": "",
          "type": "string"
        }
      ],
      "stateMutability": "pure",
      "type": "function",
      "constant": true
    },
    {
      "inputs": [
        {
          "internalType": "address",
          "name": "_addr",
          "type": "address"
        }
      ],
      "name": "addressToString",
      "outputs": [
        {
          "internalType": "string",
          "name": "",
          "type": "string"
        }
      ],
      "stateMutability": "pure",
      "type": "function",
      "constant": true
    },
    {
      "inputs": [
        {
          "internalType": "address[]",
          "name": "addr",
          "type": "address[]"
        }
      ],
      "name": "addressArraytoString",
      "outputs": [
        {
          "internalType": "string",
          "name": "",
          "type": "string"
        }
      ],
      "stateMutability": "nonpayable",
      "type": "function"
    },
    {
      "inputs": [
        {
          "internalType": "uint256",
          "name": "price",
          "type": "uint256"
        }
      ],
      "name": "createVoteEnd",
      "outputs": [],
      "stateMutability": "nonpayable",
      "type": "function"
    },
    {
      "inputs": [],
      "name": "getCurrentVote",
      "outputs": [
        {
          "internalType": "uint256",
          "name": "",
          "type": "uint256"
        }
      ],
      "stateMutability": "view",
      "type": "function",
      "constant": true
    },
    {
      "inputs": [],
      "name": "resetProducts",
      "outputs": [],
      "stateMutability": "view",
      "type": "function",
      "constant": true
    },
    {
      "inputs": [
        {
          "internalType": "string",
          "name": "_name",
          "type": "string"
        },
        {
          "internalType": "uint256",
          "name": "_price",
          "type": "uint256"
        },
        {
          "internalType": "uint256",
          "name": "upvotes",
          "type": "uint256"
        },
        {
          "internalType": "string[3]",
          "name": "contributors",
          "type": "string[3]"
        }
      ],
      "name": "createProduct",
      "outputs": [],
      "stateMutability": "nonpayable",
      "type": "function"
    },
    {
      "inputs": [
        {
          "internalType": "uint256",
          "name": "_id",
          "type": "uint256"
        }
      ],
      "name": "purchaseProduct",
      "outputs": [],
      "stateMutability": "payable",
      "type": "function",
      "payable": true
    },
    {
      "inputs": [
        {
          "internalType": "uint256",
          "name": "_id",
          "type": "uint256"
        }
      ],
      "name": "purchaseStory",
      "outputs": [],
      "stateMutability": "payable",
      "type": "function",
      "payable": true
    }
  ],
  "bytecode": "0x6080604052600060015560006002556000600355600060045560006005553480156200002a57600080fd5b506040518060400160405280601081526020017f65787175697369746520636f7270736500000000000000000000000000000000815250600090805190602001906200007892919062000087565b5060006002819055506200019c565b828054620000959062000137565b90600052602060002090601f016020900481019282620000b9576000855562000105565b82601f10620000d457805160ff191683800117855562000105565b8280016001018555821562000105579182015b8281111562000104578251825591602001919060010190620000e7565b5b50905062000114919062000118565b5090565b5b808211156200013357600081600090555060010162000119565b5090565b600060028204905060018216806200015057607f821691505b602082108114156200016757620001666200016d565b5b50919050565b7f4e487b7100000000000000000000000000000000000000000000000000000000600052602260045260246000fd5b6143c980620001ac6000396000f3fe6080604052600436106101405760003560e01c806364f86ad6116100b6578063dc56028d1161006f578063dc56028d146104cc578063de6950e8146104f7578063e0f6ef8714610520578063ea081fa91461054b578063edb1dc9c14610574578063f5f3e5e61461059057610140565b806364f86ad61461037b5780636e2a2635146103b85780637acc0b20146103cf5780638edc4bfc14610411578063ab6d4fbe1461044e578063beba8bbe1461048f57610140565b80633aeb0b8e116101085780633aeb0b8e146102435780633db804da1461026e5780634308cf35146102ab5780634e70b1dc146102e85780635e57966d146103135780635e8a29321461035057610140565b806306fdde0314610145578063120f7b6b146101705780631fb4a24b146101ad578063266001d3146101ea57806338e76a0314610227575b600080fd5b34801561015157600080fd5b5061015a6105bb565b6040516101679190613b3a565b60405180910390f35b34801561017c57600080fd5b5061019760048036038101906101929190613433565b610649565b6040516101a49190613ad4565b60405180910390f35b3480156101b957600080fd5b506101d460048036038101906101cf91906135df565b61088f565b6040516101e19190613a9e565b60405180910390f35b3480156101f657600080fd5b50610211600480360381019061020c91906134e0565b6108c5565b60405161021e9190613b3a565b60405180910390f35b610241600480360381019061023c91906135df565b610b13565b005b34801561024f57600080fd5b50610258611221565b6040516102659190613c53565b60405180910390f35b34801561027a57600080fd5b50610295600480360381019061029091906135df565b611227565b6040516102a29190613ab9565b60405180910390f35b3480156102b757600080fd5b506102d260048036038101906102cd91906135df565b611266565b6040516102df9190613af6565b60405180910390f35b3480156102f457600080fd5b506102fd61134f565b60405161030a9190613c53565b60405180910390f35b34801561031f57600080fd5b5061033a600480360381019061033591906133c9565b611355565b6040516103479190613b3a565b60405180910390f35b34801561035c57600080fd5b506103656117b6565b6040516103729190613c53565b60405180910390f35b34801561038757600080fd5b506103a2600480360381019061039d919061349f565b6117bc565b6040516103af9190613b18565b60405180910390f35b3480156103c457600080fd5b506103cd611a40565b005b3480156103db57600080fd5b506103f660048036038101906103f191906135df565b611c97565b60405161040896959493929190613c6e565b60405180910390f35b34801561041d57600080fd5b50610438600480360381019061043391906133f2565b611d88565b6040516104459190613b3a565b60405180910390f35b34801561045a57600080fd5b50610475600480360381019061047091906135df565b611e4e565b604051610486959493929190613db4565b60405180910390f35b34801561049b57600080fd5b506104b660048036038101906104b191906135df565b611f19565b6040516104c39190613b3a565b60405180910390f35b3480156104d857600080fd5b506104e1611fb9565b6040516104ee9190613c53565b60405180910390f35b34801561050357600080fd5b5061051e6004803603810190610519919061354c565b611fc3565b005b34801561052c57600080fd5b506105356121ac565b6040516105429190613c53565b60405180910390f35b34801561055757600080fd5b50610572600480360381019061056d91906135df565b6121b2565b005b61058e600480360381019061058991906135df565b612948565b005b34801561059c57600080fd5b506105a5612cea565b6040516105b29190613c53565b60405180910390f35b600080546105c8906141cc565b80601f01602080910402602001604051908101604052809291908181526020018280546105f4906141cc565b80156106415780601f1061061657610100808354040283529160200191610641565b820191906000526020600020905b81548152906001019060200180831161062457829003601f168201915b505050505081565b606060008251845161065b9190613ffb565b905060008167ffffffffffffffff81111561069f577f4e487b7100000000000000000000000000000000000000000000000000000000600052604160045260246000fd5b6040519080825280602002602001820160405280156106cd5781602001602082028036833780820191505090505b50905060005b85518110156107a357858181518110610715577f4e487b7100000000000000000000000000000000000000000000000000000000600052603260045260246000fd5b6020026020010151828281518110610756577f4e487b7100000000000000000000000000000000000000000000000000000000600052603260045260246000fd5b602002602001019073ffffffffffffffffffffffffffffffffffffffff16908173ffffffffffffffffffffffffffffffffffffffff1681525050808061079b90614218565b9150506106d3565b60005b8551811015610882578581815181106107e8577f4e487b7100000000000000000000000000000000000000000000000000000000600052603260045260246000fd5b60200260200101518383806107fc90614218565b945081518110610835577f4e487b7100000000000000000000000000000000000000000000000000000000600052603260045260246000fd5b602002602001019073ffffffffffffffffffffffffffffffffffffffff16908173ffffffffffffffffffffffffffffffffffffffff1681525050808061087a90614218565b9150506107a6565b5081935050505092915050565b600a816003811061089f57600080fd5b016000915054906101000a900473ffffffffffffffffffffffffffffffffffffffff1681565b6060600083905060008390506000815183516108e19190613ffb565b67ffffffffffffffff811115610920577f4e487b7100000000000000000000000000000000000000000000000000000000600052604160045260246000fd5b6040519080825280601f01601f1916602001820160405280156109525781602001600182028036833780820191505090505b5090506000805b8451811015610a2d5784818151811061099b577f4e487b7100000000000000000000000000000000000000000000000000000000600052603260045260246000fd5b602001015160f81c60f81b8383806109b290614218565b9450815181106109eb577f4e487b7100000000000000000000000000000000000000000000000000000000600052603260045260246000fd5b60200101907effffffffffffffffffffffffffffffffffffffffffffffffffffffffffffff1916908160001a9053508080610a2590614218565b915050610959565b5060005b8351811015610b0557838181518110610a73577f4e487b7100000000000000000000000000000000000000000000000000000000600052603260045260246000fd5b602001015160f81c60f81b838380610a8a90614218565b945081518110610ac3577f4e487b7100000000000000000000000000000000000000000000000000000000600052603260045260246000fd5b60200101907effffffffffffffffffffffffffffffffffffffffffffffffffffffffffffff1916908160001a9053508080610afd90614218565b915050610a31565b508194505050505092915050565b6000600760008381526020019081526020016000206040518060e001604052908160008201548152602001600182018054610b4d906141cc565b80601f0160208091040260200160405190810160405280929190818152602001828054610b79906141cc565b8015610bc65780601f10610b9b57610100808354040283529160200191610bc6565b820191906000526020600020905b815481529060010190602001808311610ba957829003601f168201915b50505050508152602001600282015481526020016003820160009054906101000a900473ffffffffffffffffffffffffffffffffffffffff1673ffffffffffffffffffffffffffffffffffffffff1673ffffffffffffffffffffffffffffffffffffffff1681526020016003820160149054906101000a900460ff161515151581526020016004820154815260200160058201600380602002604051908101604052809291906000905b82821015610d13578382018054610c86906141cc565b80601f0160208091040260200160405190810160405280929190818152602001828054610cb2906141cc565b8015610cff5780601f10610cd457610100808354040283529160200191610cff565b820191906000526020600020905b815481529060010190602001808311610ce257829003601f168201915b505050505081526020019060010190610c70565b5050505081525050905060008160600151905060008260000151118015610d405750600154826000015111155b610d4957600080fd5b8160400151341015610d5a57600080fd5b816080015115610d9f576040517f08c379a0000000000000000000000000000000000000000000000000000000008152600401610d9690613c33565b60405180910390fd5b3373ffffffffffffffffffffffffffffffffffffffff168173ffffffffffffffffffffffffffffffffffffffff161415610e0e576040517f08c379a0000000000000000000000000000000000000000000000000000000008152600401610e0590613bf3565b60405180910390fd5b8073ffffffffffffffffffffffffffffffffffffffff166108fc349081150290604051600060405180830381858888f19350505050158015610e54573d6000803e3d6000fd5b5060018260a001818151610e689190613ffb565b91508181525050610e7833611355565b8260c001518360a0015160038110610eb9577f4e487b7100000000000000000000000000000000000000000000000000000000600052603260045260246000fd5b60200201819052508160076000858152602001908152602001600020600082015181600001556020820151816001019080519060200190610efb929190612ea2565b506040820151816002015560608201518160030160006101000a81548173ffffffffffffffffffffffffffffffffffffffff021916908373ffffffffffffffffffffffffffffffffffffffff16021790555060808201518160030160146101000a81548160ff02191690831515021790555060a0820151816004015560c082015181600501906003610f8e929190612f28565b5090505060028260a00151106110df5760018260800190151590811515815250508160076000858152602001908152602001600020600082015181600001556020820151816001019080519060200190610fe9929190612ea2565b506040820151816002015560608201518160030160006101000a81548173ffffffffffffffffffffffffffffffffffffffff021916908373ffffffffffffffffffffffffffffffffffffffff16021790555060808201518160030160146101000a81548160ff02191690831515021790555060a0820151816004015560c08201518160050190600361107c929190612f28565b509050507fcbe37aac5d4b7f4123ead5b25660f15fc35685375eec76ab442b278c9d26aec060015483602001518460400151856060015160018760a001518860c001516040516110d29796959493929190613cd6565b60405180910390a161121c565b6000826080019015159081151581525050816007600085815260200190815260200160002060008201518160000155602082015181600101908051906020019061112a929190612ea2565b506040820151816002015560608201518160030160006101000a81548173ffffffffffffffffffffffffffffffffffffffff021916908373ffffffffffffffffffffffffffffffffffffffff16021790555060808201518160030160146101000a81548160ff02191690831515021790555060a0820151816004015560c0820151816005019060036111bd929190612f28565b509050507fcbe37aac5d4b7f4123ead5b25660f15fc35685375eec76ab442b278c9d26aec060015483602001518460400151856060015160008760a001518860c001516040516112139796959493929190613cd6565b60405180910390a15b505050565b60035481565b6006818154811061123757600080fd5b906000526020600020016000915054906101000a900473ffffffffffffffffffffffffffffffffffffffff1681565b61126e612f7b565b600060076000848152602001908152602001600020905080600501600380602002604051908101604052809291906000905b828210156113435783820180546112b6906141cc565b80601f01602080910402602001604051908101604052809291908181526020018280546112e2906141cc565b801561132f5780601f106113045761010080835404028352916020019161132f565b820191906000526020600020905b81548152906001019060200180831161131257829003601f168201915b5050505050815260200190600101906112a0565b50505050915050919050565b60045481565b606060008273ffffffffffffffffffffffffffffffffffffffff1660001b905060006040518060400160405280601081526020017f303132333435363738396162636465660000000000000000000000000000000081525090506000602a67ffffffffffffffff8111156113f2577f4e487b7100000000000000000000000000000000000000000000000000000000600052604160045260246000fd5b6040519080825280601f01601f1916602001820160405280156114245781602001600182028036833780820191505090505b5090507f300000000000000000000000000000000000000000000000000000000000000081600081518110611482577f4e487b7100000000000000000000000000000000000000000000000000000000600052603260045260246000fd5b60200101907effffffffffffffffffffffffffffffffffffffffffffffffffffffffffffff1916908160001a9053507f78000000000000000000000000000000000000000000000000000000000000008160018151811061150c577f4e487b7100000000000000000000000000000000000000000000000000000000600052603260045260246000fd5b60200101907effffffffffffffffffffffffffffffffffffffffffffffffffffffffffffff1916908160001a90535060005b60148110156117aa5782600485600c846115589190613ffb565b6020811061158f577f4e487b7100000000000000000000000000000000000000000000000000000000600052603260045260246000fd5b1a60f81b7effffffffffffffffffffffffffffffffffffffffffffffffffffffffffffff1916901c60f81c60ff16815181106115f4577f4e487b7100000000000000000000000000000000000000000000000000000000600052603260045260246000fd5b602001015160f81c60f81b8260028361160d9190614082565b60026116199190613ffb565b81518110611650577f4e487b7100000000000000000000000000000000000000000000000000000000600052603260045260246000fd5b60200101907effffffffffffffffffffffffffffffffffffffffffffffffffffffffffffff1916908160001a90535082600f60f81b85600c846116939190613ffb565b602081106116ca577f4e487b7100000000000000000000000000000000000000000000000000000000600052603260045260246000fd5b1a60f81b1660f81c60ff168151811061170c577f4e487b7100000000000000000000000000000000000000000000000000000000600052603260045260246000fd5b602001015160f81c60f81b826002836117259190614082565b60036117319190613ffb565b81518110611768577f4e487b7100000000000000000000000000000000000000000000000000000000600052603260045260246000fd5b60200101907effffffffffffffffffffffffffffffffffffffffffffffffffffffffffffff1916908160001a90535080806117a290614218565b91505061153e565b50809350505050919050565b60025481565b60606000805b835181101561185e57602060f81b848281518110611809577f4e487b7100000000000000000000000000000000000000000000000000000000600052603260045260246000fd5b602001015160f81c60f81b7effffffffffffffffffffffffffffffffffffffffffffffffffffffffffffff1916141561184b57818061184790614218565b9250505b808061185690614218565b9150506117c2565b50600060018261186e9190613ffb565b67ffffffffffffffff8111156118ad577f4e487b7100000000000000000000000000000000000000000000000000000000600052604160045260246000fd5b6040519080825280602002602001820160405280156118e057816020015b60608152602001906001900390816118cb5790505b50905060008060005b86518110156119e357602060f81b878281518110611930577f4e487b7100000000000000000000000000000000000000000000000000000000600052603260045260246000fd5b602001015160f81c60f81b7effffffffffffffffffffffffffffffffffffffffffffffffffffffffffffff191614156119d05761196e878483612cf0565b8483815181106119a7577f4e487b7100000000000000000000000000000000000000000000000000000000600052603260045260246000fd5b60200260200101819052506001816119bf9190613ffb565b925081806119cc90614218565b9250505b80806119db90614218565b9150506118e9565b506119f086838851612cf0565b838281518110611a29577f4e487b7100000000000000000000000000000000000000000000000000000000600052603260045260246000fd5b602002602001018190525082945050505050919050565b611a48612fa2565b60005b600254811015611c9357600760008281526020019081526020016000206040518060e001604052908160008201548152602001600182018054611a8d906141cc565b80601f0160208091040260200160405190810160405280929190818152602001828054611ab9906141cc565b8015611b065780601f10611adb57610100808354040283529160200191611b06565b820191906000526020600020905b815481529060010190602001808311611ae957829003601f168201915b50505050508152602001600282015481526020016003820160009054906101000a900473ffffffffffffffffffffffffffffffffffffffff1673ffffffffffffffffffffffffffffffffffffffff1673ffffffffffffffffffffffffffffffffffffffff1681526020016003820160149054906101000a900460ff161515151581526020016004820154815260200160058201600380602002604051908101604052809291906000905b82821015611c53578382018054611bc6906141cc565b80601f0160208091040260200160405190810160405280929190818152602001828054611bf2906141cc565b8015611c3f5780601f10611c1457610100808354040283529160200191611c3f565b820191906000526020600020905b815481529060010190602001808311611c2257829003601f168201915b505050505081526020019060010190611bb0565b5050505081525050915060405180602001604052806000815250826020018190525060008260a00181815250508080611c8b90614218565b915050611a4b565b5050565b6007602052806000526040600020600091509050806000015490806001018054611cc0906141cc565b80601f0160208091040260200160405190810160405280929190818152602001828054611cec906141cc565b8015611d395780601f10611d0e57610100808354040283529160200191611d39565b820191906000526020600020905b815481529060010190602001808311611d1c57829003601f168201915b5050505050908060020154908060030160009054906101000a900473ffffffffffffffffffffffffffffffffffffffff16908060030160149054906101000a900460ff16908060040154905086565b6060600060405180602001604052806000815250905060006040518060200160405280600081525090506000600190505b84518111611e4357611e0a858281518110611dfd577f4e487b7100000000000000000000000000000000000000000000000000000000600052603260045260246000fd5b6020026020010151611355565b9250611e2e82611e2985604051806020016040528060008152506108c5565b6108c5565b91508080611e3b90614218565b915050611db9565b508092505050919050565b6008602052806000526040600020600091509050806000015490806001015490806002018054611e7d906141cc565b80601f0160208091040260200160405190810160405280929190818152602001828054611ea9906141cc565b8015611ef65780601f10611ecb57610100808354040283529160200191611ef6565b820191906000526020600020905b815481529060010190602001808311611ed957829003601f168201915b5050505050908060030154908060040160009054906101000a900460ff16905085565b60096020528060005260406000206000915090508054611f38906141cc565b80601f0160208091040260200160405190810160405280929190818152602001828054611f64906141cc565b8015611fb15780601f10611f8657610100808354040283529160200191611fb1565b820191906000526020600020905b815481529060010190602001808311611f9457829003601f168201915b505050505081565b6000600254905090565b6000845111611fd157600080fd5b60008311611fde57600080fd5b60016000815480929190611ff190614218565b9190505550611fff33611355565b818360038110612038577f4e487b7100000000000000000000000000000000000000000000000000000000600052603260045260246000fd5b60200201819052506040518060e0016040528060015481526020018581526020018481526020013373ffffffffffffffffffffffffffffffffffffffff168152602001600015158152602001838152602001828152506007600060015481526020019081526020016000206000820151816000015560208201518160010190805190602001906120c9929190612ea2565b506040820151816002015560608201518160030160006101000a81548173ffffffffffffffffffffffffffffffffffffffff021916908373ffffffffffffffffffffffffffffffffffffffff16021790555060808201518160030160146101000a81548160ff02191690831515021790555060a0820151816004015560c08201518160050190600361215c929190612f28565b509050507f724a7f3b7bc135399b5ba2a1305c52ce76299c03071123034f67acddc3becef16001548585336000878760405161219e9796959493929190613cd6565b60405180910390a150505050565b60015481565b60005b60025481101561226c576000600a82600381106121fb577f4e487b7100000000000000000000000000000000000000000000000000000000600052603260045260246000fd5b0160009054906101000a900473ffffffffffffffffffffffffffffffffffffffff1690503373ffffffffffffffffffffffffffffffffffffffff168173ffffffffffffffffffffffffffffffffffffffff16141561225857600080fd5b50808061226490614218565b9150506121b5565b5033600a600254600381106122aa577f4e487b7100000000000000000000000000000000000000000000000000000000600052603260045260246000fd5b0160006101000a81548173ffffffffffffffffffffffffffffffffffffffff021916908373ffffffffffffffffffffffffffffffffffffffff160217905550600260008154809291906122fc90614218565b919050555060016002541061290c57612313612fa2565b60006003819055506000600190505b600154811161265d57600760008281526020019081526020016000206040518060e001604052908160008201548152602001600182018054612363906141cc565b80601f016020809104026020016040519081016040528092919081815260200182805461238f906141cc565b80156123dc5780601f106123b1576101008083540402835291602001916123dc565b820191906000526020600020905b8154815290600101906020018083116123bf57829003601f168201915b50505050508152602001600282015481526020016003820160009054906101000a900473ffffffffffffffffffffffffffffffffffffffff1673ffffffffffffffffffffffffffffffffffffffff1673ffffffffffffffffffffffffffffffffffffffff1681526020016003820160149054906101000a900460ff161515151581526020016004820154815260200160058201600380602002604051908101604052809291906000905b8282101561252957838201805461249c906141cc565b80601f01602080910402602001604051908101604052809291908181526020018280546124c8906141cc565b80156125155780601f106124ea57610100808354040283529160200191612515565b820191906000526020600020905b8154815290600101906020018083116124f857829003601f168201915b505050505081526020019060010190612486565b5050505081525050915060028260a001511061263f57600682606001519080600181540180825580915050600190039060005260206000200160009091909190916101000a81548173ffffffffffffffffffffffffffffffffffffffff021916908373ffffffffffffffffffffffffffffffffffffffff160217905550600360008154809291906125b990614218565b9190505550816020015160096000600354815260200190815260200160002090805190602001906125eb929190612ea2565b507f32bc891e2cac71758fc1750c899669848735162664579c037c290c8cd9918bc06009600060035481526020019081526020016000206006604051612632929190613b5c565b60405180910390a161264a565b612647612fa2565b91505b808061265590614218565b915050612322565b50600060405180602001604052806000815250905060006040518060400160405280600181526020017f200000000000000000000000000000000000000000000000000000000000000081525090506000600190505b600354811161277f5761276a83612765846009600086815260200190815260200160002080546126e2906141cc565b80601f016020809104026020016040519081016040528092919081815260200182805461270e906141cc565b801561275b5780601f106127305761010080835404028352916020019161275b565b820191906000526020600020905b81548152906001019060200180831161273e57829003601f168201915b50505050506108c5565b6108c5565b9250808061277790614218565b9150506126b3565b506005600081548092919061279390614218565b91905055506040518060c0016040528060055481526020016003548152602001838152602001858152602001600015158152602001600680548060200260200160405190810160405280929190818152602001828054801561284a57602002820191906000526020600020905b8160009054906101000a900473ffffffffffffffffffffffffffffffffffffffff1673ffffffffffffffffffffffffffffffffffffffff1681526020019060010190808311612800575b505050505081525060086000600554815260200190815260200160002060008201518160000155602082015181600101556040820151816002019080519060200190612897929190612ea2565b506060820151816003015560808201518160040160006101000a81548160ff02191690831515021790555060a08201518160050190805190602001906128de929190612ffd565b509050506128ea611a40565b60006002819055506000600181905550600660006129089190613087565b5050505b7fec859db5a3c1ca3ee301d012a70f0e287a104754cd2f264283bb84531f0eed5460025460405161293d9190613c53565b60405180910390a150565b60008111801561295a57506005548111155b612999576040517f08c379a000000000000000000000000000000000000000000000000000000000815260040161299090613c13565b60405180910390fd5b60086000828152602001908152602001600020600301543410156129f2576040517f08c379a00000000000000000000000000000000000000000000000000000000081526004016129e990613bd3565b60405180910390fd5b6008600082815260200190815260200160002060040160009054906101000a900460ff1615612a56576040517f08c379a0000000000000000000000000000000000000000000000000000000008152600401612a4d90613bb3565b60405180910390fd5b60016008600083815260200190815260200160002060040160006101000a81548160ff02191690831515021790555060003490506000600282612a999190614051565b9050600860008481526020019081526020016000206005016006908054612ac19291906130a8565b5060005b6008600085815260200190815260200160002060010154811015612ba757600060068281548110612b1f577f4e487b7100000000000000000000000000000000000000000000000000000000600052603260045260246000fd5b9060005260206000200160009054906101000a900473ffffffffffffffffffffffffffffffffffffffff1690508073ffffffffffffffffffffffffffffffffffffffff166108fc849081150290604051600060405180830381858888f19350505050158015612b92573d6000803e3d6000fd5b50508080612b9f90614218565b915050612ac5565b5060066000612bb69190613087565b600860008481526020019081526020016000206005016000612bd89190613087565b60086000848152602001908152602001600020600501339080600181540180825580915050600190039060005260206000200160009091909190916101000a81548173ffffffffffffffffffffffffffffffffffffffff021916908373ffffffffffffffffffffffffffffffffffffffff1602179055507f5a899b003cb245b2cc1ea1490093f7fd093a9ee5e6648a3738d42ebe500409646008600085815260200190815260200160002060000154600860008681526020019081526020016000206002016008600087815260200190815260200160002060030154600160086000898152602001908152602001600020600501604051612cdd959493929190613d53565b60405180910390a1505050565b60055481565b606060008490508051831115612d3b576040517f08c379a0000000000000000000000000000000000000000000000000000000008152600401612d3290613b93565b60405180910390fd5b60008484612d4991906140dc565b67ffffffffffffffff811115612d88577f4e487b7100000000000000000000000000000000000000000000000000000000600052604160045260246000fd5b6040519080825280601f01601f191660200182016040528015612dba5781602001600182028036833780820191505090505b50905060008590505b84811015612e9557828181518110612e04577f4e487b7100000000000000000000000000000000000000000000000000000000600052603260045260246000fd5b602001015160f81c60f81b828783612e1c91906140dc565b81518110612e53577f4e487b7100000000000000000000000000000000000000000000000000000000600052603260045260246000fd5b60200101907effffffffffffffffffffffffffffffffffffffffffffffffffffffffffffff1916908160001a9053508080612e8d90614218565b915050612dc3565b5080925050509392505050565b828054612eae906141cc565b90600052602060002090601f016020900481019282612ed05760008555612f17565b82601f10612ee957805160ff1916838001178555612f17565b82800160010185558215612f17579182015b82811115612f16578251825591602001919060010190612efb565b5b509050612f2491906130fa565b5090565b8260038101928215612f6a579160200282015b82811115612f69578251829080519060200190612f59929190612ea2565b5091602001919060010190612f3b565b5b509050612f779190613117565b5090565b60405180606001604052806003905b6060815260200190600190039081612f8a5790505090565b6040518060e00160405280600081526020016060815260200160008152602001600073ffffffffffffffffffffffffffffffffffffffff16815260200160001515815260200160008152602001612ff7612f7b565b81525090565b828054828255906000526020600020908101928215613076579160200282015b828111156130755782518260006101000a81548173ffffffffffffffffffffffffffffffffffffffff021916908373ffffffffffffffffffffffffffffffffffffffff1602179055509160200191906001019061301d565b5b50905061308391906130fa565b5090565b50805460008255906000526020600020908101906130a591906130fa565b50565b8280548282559060005260206000209081019282156130e95760005260206000209182015b828111156130e85782548255916001019190600101906130cd565b5b5090506130f691906130fa565b5090565b5b808211156131135760008160009055506001016130fb565b5090565b5b80821115613137576000818161312e919061313b565b50600101613118565b5090565b508054613147906141cc565b6000825580601f106131595750613178565b601f01602090049060005260206000209081019061317791906130fa565b5b50565b600061318e61318984613e3f565b613e0e565b905080838252602082019050828560208602820111156131ad57600080fd5b60005b858110156131dd57816131c388826132e5565b8452602084019350602083019250506001810190506131b0565b5050509392505050565b60006131fa6131f584613e6b565b613e0e565b9050808382526020820190508285602086028201111561321957600080fd5b60005b85811015613249578161322f88826132fa565b84526020840193506020830192505060018101905061321c565b5050509392505050565b600061326661326184613e97565b613e0e565b9050808260005b8581101561329d5781358501613283888261338a565b84526020840193506020830192505060018101905061326d565b5050509392505050565b60006132ba6132b584613ebd565b613e0e565b9050828152602081018484840111156132d257600080fd5b6132dd84828561418a565b509392505050565b6000813590506132f48161434e565b92915050565b60008135905061330981614365565b92915050565b600082601f83011261332057600080fd5b813561333084826020860161317b565b91505092915050565b600082601f83011261334a57600080fd5b813561335a8482602086016131e7565b91505092915050565b600082601f83011261337457600080fd5b6003613381848285613253565b91505092915050565b600082601f83011261339b57600080fd5b81356133ab8482602086016132a7565b91505092915050565b6000813590506133c38161437c565b92915050565b6000602082840312156133db57600080fd5b60006133e9848285016132e5565b91505092915050565b60006020828403121561340457600080fd5b600082013567ffffffffffffffff81111561341e57600080fd5b61342a8482850161330f565b91505092915050565b6000806040838503121561344657600080fd5b600083013567ffffffffffffffff81111561346057600080fd5b61346c85828601613339565b925050602083013567ffffffffffffffff81111561348957600080fd5b61349585828601613339565b9150509250929050565b6000602082840312156134b157600080fd5b600082013567ffffffffffffffff8111156134cb57600080fd5b6134d78482850161338a565b91505092915050565b600080604083850312156134f357600080fd5b600083013567ffffffffffffffff81111561350d57600080fd5b6135198582860161338a565b925050602083013567ffffffffffffffff81111561353657600080fd5b6135428582860161338a565b9150509250929050565b6000806000806080858703121561356257600080fd5b600085013567ffffffffffffffff81111561357c57600080fd5b6135888782880161338a565b9450506020613599878288016133b4565b93505060406135aa878288016133b4565b925050606085013567ffffffffffffffff8111156135c757600080fd5b6135d387828801613363565b91505092959194509250565b6000602082840312156135f157600080fd5b60006135ff848285016133b4565b91505092915050565b60006136148383613634565b60208301905092915050565b600061362c838361381d565b905092915050565b61363d81614142565b82525050565b61364c81614142565b82525050565b61365b81614130565b82525050565b600061366c82613f41565b6136768185613fac565b935061368183613eed565b8060005b838110156136b25781516136998882613608565b97506136a483613f78565b925050600181019050613685565b5085935050505092915050565b60006136ca82613f4c565b6136d48185613fac565b93506136df83613efd565b8060005b83811015613717576136f48261431d565b6136fe8882613608565b975061370983613f85565b9250506001810190506136e3565b5085935050505092915050565b600061372f82613f57565b6137398185613fbd565b93508360208202850161374b85613f12565b8060005b8581101561378757848403895281516137688582613620565b945061377383613f92565b925060208a0199505060018101905061374f565b50829750879550505050505092915050565b60006137a482613f62565b6137ae8185613fc8565b9350836020820285016137c085613f1c565b8060005b858110156137fc57848403895281516137dd8582613620565b94506137e883613f9f565b925060208a019950506001810190506137c4565b50829750879550505050505092915050565b61381781614154565b82525050565b600061382882613f6d565b6138328185613fd9565b9350613842818560208601614199565b61384b81614330565b840191505092915050565b600061386182613f6d565b61386b8185613fea565b935061387b818560208601614199565b61388481614330565b840191505092915050565b6000815461389c816141cc565b6138a68186613fea565b945060018216600081146138c157600181146138d357613906565b60ff1983168652602086019350613906565b6138dc85613f2c565b60005b838110156138fe578154818901526001820191506020810190506138df565b808801955050505b50505092915050565b600061391c601083613fea565b91507f496e76616c696420656e64496e646578000000000000000000000000000000006000830152602082019050919050565b600061395c601783613fea565b91507f53746f727920616c7265616479207075726368617365640000000000000000006000830152602082019050919050565b600061399c601283613fea565b91507f496e73756666696369656e742066756e647300000000000000000000000000006000830152602082019050919050565b60006139dc600f83613fea565b91507f416c7265616479207570766f74656400000000000000000000000000000000006000830152602082019050919050565b6000613a1c601283613fea565b91507f496e76616c69642070726f6475637420494400000000000000000000000000006000830152602082019050919050565b6000613a5c601f83613fea565b91507f596f752063616e6e6f74207570766f746520796f75722073656e74656e6365006000830152602082019050919050565b613a9881614180565b82525050565b6000602082019050613ab36000830184613652565b92915050565b6000602082019050613ace6000830184613643565b92915050565b60006020820190508181036000830152613aee8184613661565b905092915050565b60006020820190508181036000830152613b108184613724565b905092915050565b60006020820190508181036000830152613b328184613799565b905092915050565b60006020820190508181036000830152613b548184613856565b905092915050565b60006040820190508181036000830152613b76818561388f565b90508181036020830152613b8a81846136bf565b90509392505050565b60006020820190508181036000830152613bac8161390f565b9050919050565b60006020820190508181036000830152613bcc8161394f565b9050919050565b60006020820190508181036000830152613bec8161398f565b9050919050565b60006020820190508181036000830152613c0c816139cf565b9050919050565b60006020820190508181036000830152613c2c81613a0f565b9050919050565b60006020820190508181036000830152613c4c81613a4f565b9050919050565b6000602082019050613c686000830184613a8f565b92915050565b600060c082019050613c836000830189613a8f565b8181036020830152613c958188613856565b9050613ca46040830187613a8f565b613cb16060830186613643565b613cbe608083018561380e565b613ccb60a0830184613a8f565b979650505050505050565b600060e082019050613ceb600083018a613a8f565b8181036020830152613cfd8189613856565b9050613d0c6040830188613a8f565b613d196060830187613643565b613d26608083018661380e565b613d3360a0830185613a8f565b81810360c0830152613d458184613724565b905098975050505050505050565b600060a082019050613d686000830188613a8f565b8181036020830152613d7a818761388f565b9050613d896040830186613a8f565b613d96606083018561380e565b8181036080830152613da881846136bf565b90509695505050505050565b600060a082019050613dc96000830188613a8f565b613dd66020830187613a8f565b8181036040830152613de88186613856565b9050613df76060830185613a8f565b613e04608083018461380e565b9695505050505050565b6000604051905081810181811067ffffffffffffffff82111715613e3557613e346142ee565b5b8060405250919050565b600067ffffffffffffffff821115613e5a57613e596142ee565b5b602082029050602081019050919050565b600067ffffffffffffffff821115613e8657613e856142ee565b5b602082029050602081019050919050565b600067ffffffffffffffff821115613eb257613eb16142ee565b5b602082029050919050565b600067ffffffffffffffff821115613ed857613ed76142ee565b5b601f19601f8301169050602081019050919050565b6000819050602082019050919050565b60008190508160005260206000209050919050565b6000819050919050565b6000819050602082019050919050565b60008190508160005260206000209050919050565b600081519050919050565b600081549050919050565b600060039050919050565b600081519050919050565b600081519050919050565b6000602082019050919050565b6000600182019050919050565b6000602082019050919050565b6000602082019050919050565b600082825260208201905092915050565b600081905092915050565b600082825260208201905092915050565b600082825260208201905092915050565b600082825260208201905092915050565b600061400682614180565b915061401183614180565b9250827fffffffffffffffffffffffffffffffffffffffffffffffffffffffffffffffff0382111561404657614045614261565b5b828201905092915050565b600061405c82614180565b915061406783614180565b92508261407757614076614290565b5b828204905092915050565b600061408d82614180565b915061409883614180565b9250817fffffffffffffffffffffffffffffffffffffffffffffffffffffffffffffffff04831182151516156140d1576140d0614261565b5b828202905092915050565b60006140e782614180565b91506140f283614180565b92508282101561410557614104614261565b5b828203905092915050565b600073ffffffffffffffffffffffffffffffffffffffff82169050919050565b600061413b82614160565b9050919050565b600061414d82614160565b9050919050565b60008115159050919050565b600073ffffffffffffffffffffffffffffffffffffffff82169050919050565b6000819050919050565b82818337600083830152505050565b60005b838110156141b757808201518184015260208101905061419c565b838111156141c6576000848401525b50505050565b600060028204905060018216806141e457607f821691505b602082108114156141f8576141f76142bf565b5b50919050565b600061421161420c83614341565b614110565b9050919050565b600061422382614180565b91507fffffffffffffffffffffffffffffffffffffffffffffffffffffffffffffffff82141561425657614255614261565b5b600182019050919050565b7f4e487b7100000000000000000000000000000000000000000000000000000000600052601160045260246000fd5b7f4e487b7100000000000000000000000000000000000000000000000000000000600052601260045260246000fd5b7f4e487b7100000000000000000000000000000000000000000000000000000000600052602260045260246000fd5b7f4e487b7100000000000000000000000000000000000000000000000000000000600052604160045260246000fd5b600061432982546141fe565b9050919050565b6000601f19601f8301169050919050565b60008160001c9050919050565b61435781614130565b811461436257600080fd5b50565b61436e81614142565b811461437957600080fd5b50565b61438581614180565b811461439057600080fd5b5056fea2646970667358221220a49797c06d36428edafd61040eaba5969d43d88692e8fae23dedaa44b835f8f064736f6c63430008000033",
  "immutableReferences": {},
  "source": "pragma solidity ^0.8.0;\r\n\r\n\r\n//TODO\r\n//Add another table with stories, authors, buy button\r\n//convert contributors to string array and get the size\r\n//get the buyer address\r\n//transfer the ownership\r\n//split the sale\r\n//display the buy button\r\ncontract Marketplace {\r\n\tstring public name;\r\n\tuint public productCount = 0;\r\n\tuint public vote_end = 0;\r\n\tuint public SentenceCount = 0;\r\n\tuint public num = 0;\r\n\tuint public historyProdCount = 0;\r\n\taddress payable [] public authors;\r\n\tmapping(uint => Product) public products;\r\n\tmapping(uint => CompleteStory) public products_historical;\r\n\t//link story in historical to the contributors\r\n\t//string public authors;\r\n\tmapping(uint => string) public story;\r\n\taddress[3] public voters_end;\r\n\tstruct Product {\r\n\t\tuint id;\r\n\t\tstring name;\r\n\t\tuint price;\r\n\t\taddress payable owner;\r\n\t\tbool purchased;\r\n\t\tuint upvotes;\r\n\t\tstring[3] contributors;\r\n\t}\r\n\t// struct Sentence {\r\n\t// \tstring name;\r\n\t// \t//address payable [] authors;\r\n\t// }\r\n\tstruct CompleteStory {\r\n\t\tuint id;\r\n\t\tuint sentCount;\r\n\t\tstring fullS;\r\n\t\tuint price;\r\n\t\tbool purchased;\r\n\t\taddress payable [] owner;\r\n\t\t//address  payable [] authors;\r\n\t}\r\n\r\n\tevent StoryCreated(\r\n\t\tstring name,\r\n\t\taddress payable [] authors\t\r\n\t);\r\n\r\n\tevent StoryPurchased(\r\n\t\tuint id,\r\n\t\tstring fullS,\r\n\t\tuint price,\r\n\t\tbool purchased,\r\n\t\taddress payable [] owner\r\n\t);\r\n\r\n\tevent ProductCreated(\r\n\t\tuint id,\r\n\t\tstring name,\r\n\t\tuint price,\r\n\t\taddress payable owner,\r\n\t\tbool purchased,\r\n\t\tuint upvotes,\r\n\t\tstring[3] contributors\t\r\n\t);\r\n\r\n\tevent upVote(\r\n\t\tuint vote\r\n\t);\r\n\r\n\tevent ProductPurchased(\r\n\t\tuint id,\r\n\t\tstring name,\r\n\t\tuint price,\r\n\t\taddress payable owner,\r\n\t\tbool purchased,\r\n\t\tuint upvotes,\r\n\t\tstring[3] contributors\r\n\t);\r\n\r\n\tstruct voteEnd{\r\n\t\tuint votes;\r\n\t}\r\n\t\r\n\t\r\n\tconstructor() {\r\n\t\tname = \"exquisite corpse\";\r\n\t\t//products_historical ='';\r\n\t\tvote_end = 0;\r\n\t}\r\n\r\n\tfunction getArr(uint _id) public view returns (string[3] memory) {\r\n\t\tProduct storage myProduct = products[_id];\r\n    \treturn myProduct.contributors;\r\n\t}\r\n\r\n\tfunction stringToArray(string memory str) public pure returns (string[] memory) {\r\n        // Count the number of spaces in the input string\r\n        uint spaceCount = 0;\r\n        for (uint i = 0; i < bytes(str).length; i++) {\r\n            if (bytes(str)[i] == 0x20) { // ASCII value of space is 0x20\r\n                spaceCount++;\r\n            }\r\n        }\r\n\r\n        // Create a new dynamic string array with the number of spaces + 1 elements\r\n        string[] memory stringArr = new string[](spaceCount + 1);\r\n        uint startIndex = 0;\r\n        uint arrayIndex = 0;\r\n\r\n        // Iterate over the input string and split it by space\r\n        for (uint i = 0; i < bytes(str).length; i++) {\r\n            if (bytes(str)[i] == 0x20) {\r\n                stringArr[arrayIndex] = substring(str, startIndex, i);\r\n                startIndex = i + 1;\r\n                arrayIndex++;\r\n            }\r\n        }\r\n\r\n        // Add the remaining part of the input string to the array\r\n        stringArr[arrayIndex] = substring(str, startIndex, bytes(str).length);\r\n\r\n        return stringArr;\r\n    }\r\n\r\n\tfunction substring(string memory str, uint startIndex, uint endIndex) internal pure returns (string memory) {\r\n        bytes memory strBytes = bytes(str);\r\n        require(endIndex <= strBytes.length, \"Invalid endIndex\");\r\n\r\n        bytes memory result = new bytes(endIndex - startIndex);\r\n        for (uint i = startIndex; i < endIndex; i++) {\r\n            result[i - startIndex] = strBytes[i];\r\n        }\r\n\r\n        return string(result);\r\n    }\r\n\t\r\n\r\n// \tfunction strConcat(string memory _a, string memory _b, string memory _c, string memory _d, string memory _e) internal pure returns (string memory){\r\n//     bytes memory _ba = bytes(_a);\r\n//     bytes memory _bb = bytes(_b);\r\n//     bytes memory _bc = bytes(_c);\r\n//     bytes memory _bd = bytes(_d);\r\n//     bytes memory _be = bytes(_e);\r\n//     string memory abcde = new string(_ba.length + _bb.length + _bc.length + _bd.length + _be.length);\r\n//     bytes memory babcde = bytes(abcde);\r\n//     uint k = 0;\r\n// \tuint i = 0;\r\n//     for (i = 0; i < _ba.length; i++) babcde[k++] = _ba[i];\r\n//     for (i = 0; i < _bb.length; i++) babcde[k++] = _bb[i];\r\n//     for (i = 0; i < _bc.length; i++) babcde[k++] = _bc[i];\r\n//     for (i = 0; i < _bd.length; i++) babcde[k++] = _bd[i];\r\n//     for (i = 0; i < _be.length; i++) babcde[k++] = _be[i];\r\n//     return string(babcde);\r\n// \t}\r\n\r\n// \tfunction strConcat(string memory _a, string memory _b) internal pure returns (string memory) {\r\n//     return strConcat(_a, _b, \"\", \"\", \"\");\r\n// }\r\n\r\n\t// function removeDuplicateWords(string memory input) public pure returns (string memory) {\r\n    //     string[] memory words = split(input, \" \");\r\n    //     string memory output;\r\n        \r\n    //     for(uint i = 0; i < words.length; i++) {\r\n    //         bool isDuplicate = false;\r\n            \r\n    //         for(uint j = i + 1; j < words.length; j++) {\r\n    //             if (keccak256(abi.encodePacked(words[i])) == keccak256(abi.encodePacked(words[j]))) {\r\n    //                 isDuplicate = true;\r\n    //                 break;\r\n    //             }\r\n    //         }\r\n            \r\n    //         if (!isDuplicate) {\r\n    //             output = string(abi.encodePacked(output, words[i], \" \"));\r\n    //         }\r\n    //     }\r\n        \r\n    //     return output;\r\n    // }\r\n    \r\n    // function split(string memory input, string memory delimiter) private pure returns (string[] memory) {\r\n    //     bytes memory inputBytes = bytes(input);\r\n    //     bytes memory delimiterBytes = bytes(delimiter);\r\n    //     uint count = 1;\r\n        \r\n    //     for(uint i = 0; i < inputBytes.length; i++) {\r\n    //         if (inputBytes[i] == delimiterBytes[0]) {\r\n    //             count++;\r\n    //         }\r\n    //     }\r\n        \r\n    //     string[] memory parts = new string[](count);\r\n    //     uint startIndex = 0;\r\n    //     count = 0;\r\n        \r\n    //     for(uint i = 0; i < inputBytes.length; i++) {\r\n    //         if (inputBytes[i] == delimiterBytes[0]) {\r\n    //             parts[count] = substring(input, startIndex, i);\r\n    //             startIndex = i + 1;\r\n    //             count++;\r\n    //         }\r\n    //     }\r\n        \r\n    //     parts[count] = substring(input, startIndex, inputBytes.length);\r\n        \r\n    //     return parts;\r\n    // }\r\n    \r\n    // function substring(string memory input, uint startIndex, uint endIndex) private pure returns (string memory) {\r\n    //     bytes memory inputBytes = bytes(input);\r\n    //     bytes memory result = new bytes(endIndex - startIndex);\r\n        \r\n    //     for(uint i = startIndex; i < endIndex; i++) {\r\n    //         result[i - startIndex] = inputBytes[i];\r\n    //     }\r\n        \r\n    //     return string(result);\r\n    // }\r\n\r\n\r\n//    function convertStringToAddresses(string memory inputString) external pure returns (address payable[] memory) {\r\n        \r\n//         // Calculate the number of addresses in the input string\r\n//         uint256 numOfAddresses = (bytes(inputString).length + 1) / 43;\r\n        \r\n//         // Initialize the addresses array\r\n//         address payable[] memory addresses = new address payable[](numOfAddresses);\r\n        \r\n//         // Split the string and convert each address separately\r\n//         bytes memory stringBytes = bytes(inputString);\r\n//         uint256 addressIndex = 0;\r\n        \r\n//         for (uint256 i = 0; i < stringBytes.length; i += 43) {\r\n//             bytes20 addressBytes;\r\n            \r\n//             // Extract the bytes of the address\r\n//             for (uint256 j = 0; j < 40; j++) {\r\n//                 addressBytes |= bytes20(uint8(stringBytes[i + j]) & 0xFF) >> (j * 8);\r\n//             }\r\n            \r\n//             // Convert the address bytes to payable address and store it in the array\r\n//             addresses[addressIndex] = payable(address(uint160(uint256(addressBytes))));\r\n            \r\n//             // Move to the next address in the array\r\n//             addressIndex++;\r\n//         }\r\n        \r\n//         return addresses;\r\n//     }\r\n\r\n\tfunction stringToAddress(string memory _input) internal pure returns (address) {\r\n\t\tbytes32 hash = keccak256(bytes(_input));\r\n\t\taddress addr = address(uint160(uint256(hash)));\r\n\t\treturn addr;\r\n\t}\r\n\tfunction concatAddresses(address payable [] memory addresses1, address payable [] memory addresses2) public pure returns(address payable [] memory) {\r\n\t\tuint totalLength = addresses1.length + addresses2.length;\r\n\t\taddress payable [] memory concatenatedArray = new address payable [](totalLength);\r\n\t\t\r\n\t\tuint i;\r\n\t\tfor (i = 0; i < addresses1.length; i++) {\r\n\t\t\tconcatenatedArray[i] = addresses1[i];\r\n\t\t}\r\n\t\tfor (uint j = 0; j < addresses2.length; j++) {\r\n\t\t\tconcatenatedArray[i++] = addresses2[j];\r\n\t\t}\r\n\t\t\r\n\t\treturn concatenatedArray;\r\n\t}\r\n\tfunction concatenate(string memory a, string memory b) public pure returns (string memory) {\r\n        bytes memory aa = bytes(a);\r\n        bytes memory bb = bytes(b);\r\n        bytes memory result = new bytes(aa.length + bb.length);\r\n        uint k = 0;\r\n        for (uint i = 0; i < aa.length; i++) {\r\n            result[k++] = aa[i];\r\n        }\r\n        for (uint i = 0; i < bb.length; i++) {\r\n            result[k++] = bb[i];\r\n        }\r\n        return string(result);\r\n    }\r\n\tfunction toString(uint _i) internal pure returns (string memory _uintAsString) {\r\n        if (_i == 0) {\r\n            return \"0\";\r\n        }\r\n        uint j = _i;\r\n        uint len;\r\n        while (j != 0) {\r\n            len++;\r\n            j /= 10;\r\n        }\r\n        bytes memory bstr = new bytes(len);\r\n        uint k = len;\r\n        while (_i != 0) {\r\n            k = k-1;\r\n            uint8 temp = (48 + uint8(_i - _i / 10 * 10));\r\n            bytes1 b1 = bytes1(temp);\r\n            bstr[k] = b1;\r\n            _i /= 10;\r\n        }\r\n        return string(bstr);\r\n    }\r\n\tfunction addressToString(address _addr) public pure returns (string memory) {\r\n\t\tbytes32 value = bytes32(uint256(uint160(_addr)));\r\n\t\tbytes memory alphabet = \"0123456789abcdef\";\r\n\r\n\t\tbytes memory str = new bytes(42);\r\n\t\tstr[0] = '0';\r\n\t\tstr[1] = 'x';\r\n\t\tfor (uint i = 0; i < 20; i++) {\r\n\t\t\tstr[2+i*2] = alphabet[uint8(value[i + 12] >> 4)];\r\n\t\t\tstr[3+i*2] = alphabet[uint8(value[i + 12] & 0x0f)];\r\n\t\t}\r\n\t\treturn string(str);\r\n\t}\r\n\r\n\tfunction addressArraytoString(address [] memory addr) public returns (string memory)  {\r\n\t\tstring memory stringAddr1 = \"\";\r\n\t\tstring memory stringAddr2 = \"\";\r\n\t\tfor(uint i = 1; i <= addr.length; i++) {\r\n\t\t\tstringAddr1 = addressToString(addr[i]);\r\n\t\t\tstringAddr2 = concatenate(stringAddr2, concatenate(stringAddr1, \"\"));\r\n\t\t}\r\n\r\n\t\treturn stringAddr2;\r\n\t}\r\n\r\n\tfunction createVoteEnd(uint price) public {\r\n    //string storage senderString = toString(msg.sender);\r\n\t//check not similar voters\r\n    for (uint i = 0; i < vote_end; i++) {\r\n\t\taddress voterA = voters_end[i];\r\n        require( voterA != msg.sender);\r\n    }\r\n\t\tvoters_end[vote_end] = msg.sender;\r\n\t\tvote_end++;\r\n\r\n\t\t//transfer to past stories\r\n\t\tif(vote_end >= 1){\r\n\t\t\tProduct memory _product;\r\n\t\t\tSentenceCount = 0;\r\n\t\t\t//address payable tempaddr;\r\n\t\t\tfor(uint i = 1; i <= productCount; i++){\r\n\t\t\t\t_product = products[i];\r\n\t\t\t\tif(_product.upvotes >= 2){\r\n\t\t\t\t\tauthors.push(_product.owner);\r\n\t\t\t\t\t//_sentence.name = _product.name;\r\n\t\t\t\t\tSentenceCount++;\r\n\t\t\t\t\tstory[SentenceCount]= _product.name;\r\n\t\t\t\t\t\r\n\t\t\t\t\t//make the first sentence have all the authors\r\n\t\t\t\t\temit StoryCreated(story[SentenceCount], authors);\r\n\t\t\t\t}\r\n\t\t\t\telse {\r\n\t\t\t\t\tdelete _product;\r\n\t\t\t\t\t\r\n\t\t\t\t}\r\n\r\n\t\t\t}\r\n\t\t\t// //store the authors in one address array\r\n\t\t\t//address payable [] memory store_authors;\r\n\t\t\t// if (SentenceCount == 1) {\r\n\t\t\t// \tstore_authors = story[1].authors;\r\n\t\t\t// }\r\n\t\t\t// if (SentenceCount == 2) {\r\n\t\t\t// \tstore_authors = concatAddresses(story[1].authors, story[2].authors);\r\n\t\t\t// }\r\n\t\t\t// if (SentenceCount > 2) {\r\n\t\t\t// \tstore_authors = story[1].authors;\r\n\t\t\t// \tfor(uint i = 2; i <= SentenceCount; i++) {\r\n\t\t\t// \t\tstore_authors = concatAddresses(store_authors , story[i].authors);\r\n\t\t\t// \t}\r\n\t\t\t// }\r\n\t\t\t// //concate all sentences in one string\r\n\t\t\tstring memory full_story = \"\";\r\n\t\t\tstring memory space = \" \";\r\n\t\t\t//string memory full_story;\r\n\t\t\tfor (uint j = 1; j <= SentenceCount; j++) {\r\n\t\t\t\tfull_story = concatenate(full_story, concatenate(space, story[j]));\r\n\t\t\t}\r\n\t\t\t//add the authors\r\n\t\t\thistoryProdCount++; \r\n\t\t\tproducts_historical[historyProdCount] = CompleteStory(historyProdCount, SentenceCount, \r\n\t\t\tfull_story, price , false, authors);\r\n\t\t\t// //products_historical = strConcat(products_historical, \"\\n\\n\");\r\n\t\t\tresetProducts();\r\n\t\t\tvote_end = 0;\r\n\t\t\tproductCount = 0;\r\n\t\t\tdelete authors;\r\n\t\t\r\n\t\t} \r\n\t\t\r\n\t\temit upVote(vote_end);\r\n\t}\r\n\r\n\tfunction getCurrentVote() public view returns (uint) {\r\n\t\t// portion where we plug in tufts account\r\n\t\t// address(_seller).transfer(msg.value);\r\n\t\treturn vote_end;\r\n\t}\r\n\t\r\n\t// function checkVotesLoad() public{\r\n\t// \tProduct memory _product;\r\n\t// \tfor(uint i = 0; i < vote_end; i++){\r\n\t// \t\t_product = products[i];\r\n\t// \t\tif(_product.upvotes >= 2){\r\n\t// \t\t\t\thistoryProdCount++;\r\n\t// \t\t\t\t_product = products[i];\r\n \t// \t\t\t\tproducts_historical[historyProdCount] = _product;\r\n\t// \t\t}\r\n\t// \t}\r\n\t// }\r\n\r\n\tfunction resetProducts() public view{\r\n\t\tProduct memory _product;\r\n\t\tfor(uint i = 0; i < vote_end; i++){\r\n\t\t\t_product = products[i];\r\n\t\t\t_product.name = \"\";\r\n\t\t\t_product.upvotes = 0;\r\n\t\t}\r\n\t}\r\n\r\n\r\n\tfunction createProduct(string memory _name, uint _price, uint upvotes, string[3] memory contributors) public {\r\n\t\t// require a name\r\n\t\trequire(bytes(_name).length > 0);\r\n\t\t// require a valid price\r\n\t\trequire(_price > 0);\r\n\t\t// make sure params good\r\n\t\t// inc products count\r\n\t\tproductCount++;\r\n\t\t//add owner to contributors\r\n\t\tcontributors[upvotes] = addressToString(msg.sender);\r\n\t\t//address payable [] memory owner;\r\n\t\t//owner[1] = payable(msg.sender);\r\n\t\t// create the product\r\n\t\tproducts[productCount] = Product(productCount, _name, _price, payable(msg.sender), false, upvotes, contributors);\r\n\t\t// trigger an event\t\r\n\t\temit ProductCreated(productCount, _name, _price, payable(msg.sender), false, upvotes, contributors);\r\n\t}\r\n\r\n\tfunction purchaseProduct(uint _id) public payable {\r\n\t\t// fetch product\r\n\t\tProduct memory _product = products[_id];\t\r\n\t\t// fetch the owner\r\n\t\taddress payable _seller = _product.owner;\r\n\t\t\r\n\t\t// make sure the product has a valid id\r\n\t\trequire(_product.id > 0 && _product.id <= productCount);\r\n\t\t// make sure they sent enough ether\r\n\t\trequire(msg.value >= _product.price);\r\n\t\t// require product has not already been purchased\r\n\t\trequire(!_product.purchased, \"You cannot upvote your sentence\");\r\n\t\t// require that the buyer is not the seller\r\n\t\trequire(_seller != msg.sender, \"Already upvoted\");\r\n\t\t// require that the buyer is not a previous contributor (i.e already upvoted)\r\n\t\t\r\n\r\n\t\t// // purchase it -> transfer ownership to buyer\r\n\t\t// if (_product.upvotes <= 0) {\r\n\t\t// \t_product.owner = payable(msg.sender);\r\n\t\t// }\r\n\t\t\r\n\t\tpayable(_seller).transfer(msg.value);\r\n\t\t// mark as purchased\r\n\t\t// increment upvotes of product\r\n\t\t_product.upvotes += 1;\r\n\t\t//add purchaser to contributors\r\n\t\t_product.contributors[_product.upvotes] = addressToString(msg.sender);\r\n\t\t//update the product\r\n\t\tproducts[_id] = _product;\r\n\t\t\r\n\t\t// products[_id] = Product(productCount,\r\n\t\t// _product.name, _product.price, \r\n\t\t// _product.owner, false, \r\n\t\t// _product.upvotes, \r\n\t\t// _product.contributors);\r\n\r\n\t\tif(_product.upvotes >= 2){\r\n\t\t\t_product.purchased = true;\r\n\t\t\t// products[_id] = Product(productCount,\r\n\t\t\t// _product.name, _product.price, \r\n\t\t\t// _product.owner, true, \r\n\t\t\t// _product.upvotes, \r\n\t\t\t// _product.contributors);\r\n\t\t\tproducts[_id] = _product;\r\n\t\t\temit ProductPurchased(productCount, _product.name, _product.price, _product.owner, true, _product.upvotes, _product.contributors);\r\n\t\t}\r\n\t\telse {\r\n\t\t\t_product.purchased = false;\r\n\t\t\tproducts[_id] = _product;\r\n\t\t\temit ProductPurchased(productCount, _product.name, _product.price, _product.owner, false, _product.upvotes, _product.contributors);\r\n\t\t\t//emit ProductCreated(productCount, _product.name, _product.price, _product.owner, false, _product.upvotes, _product.contributors);\r\n\t\t}\t\r\n\t}\r\n\r\n\r\n\r\n\r\n// function sellStory(string memory _name, uint _price,string memory authors) public {\r\n// \trequire(bytes(_name).length > 0);\r\n// \t\t// require a valid price\r\n// \trequire(_price > 0);\r\n\r\n// // // }\r\n// function createStory(string memory storyname, uint price) public {\r\n// \t\t// require a name\r\n// \t\trequire(bytes(name).length > 0);\r\n// \t\t// require a valid price\r\n// \t\trequire(price > 0);\r\n// \t\tstoryCount++;\r\n// \t\t// //add owner to contributors\r\n// \t\t// contributors[upvotes] = addressToString(msg.sender);\r\n// \t\t// create the product\r\n\t\t\r\n// \t\t//products_historical[storyCount].price = msg.sender;\r\n// \t\tproducts_historical[storyCount].purchased = false;\r\n// \t\t// trigger an event\t\r\n// \t\temit StoryCreatedwPrice(products_historical[storyCount].fullS, price, false);\r\n// }\r\n\r\n\r\n   function purchaseStory(uint _id) public payable {\r\n\t\t// Fetch the product\r\n\t\trequire(_id > 0 && _id <= historyProdCount, \"Invalid product ID\");\r\n\t\t//CompleteStory storage H_story = products_historical[_id];\r\n\t\trequire(msg.value >= products_historical[_id].price, \"Insufficient funds\");\r\n\r\n\t\trequire(!products_historical[_id].purchased, \"Story already purchased\");\r\n\r\n\t\tproducts_historical[_id].purchased = true;\r\n\r\n\t\t// Transfer funds to sellers\r\n\t\tuint price = msg.value;\r\n\t\tuint paidPrice = price/2;\r\n\t\tauthors = products_historical[_id].owner;\r\n\t\tfor (uint i = 0; i < products_historical[_id].sentCount; i++) {\r\n\t\t\taddress payable seller = authors[i];\r\n\t\t\tseller.transfer(paidPrice);\r\n\t\t}\r\n\r\n\t\t// Update product ownership\r\n\t\tdelete authors;\r\n\t\tdelete products_historical[_id].owner;\r\n\t\tproducts_historical[_id].owner.push(payable(msg.sender)); \r\n\r\n\t\t// Update product in mapping\r\n\t\t// products_historical[_id] = H_story;\r\n\r\n\t\t// Trigger an event\r\n\t\temit StoryPurchased(products_historical[_id].id,products_historical[_id].fullS, products_historical[_id].price, true,  products_historical[_id].owner);\r\n\t}\r\n\r\n\r\n}\r\n",
  "sourcePath": "C:/Users/shahd/documents/blockchain/corpseNNN/src/contracts/Marketplace.sol",
  "compiler": {
    "name": "solc",
    "version": "0.8.0+commit.c7dfd78e.Emscripten.clang"
  },
  "schemaVersion": "3.3.3",
  "updatedAt": "2023-07-10T13:29:14.406Z",
  "networkType": "ethereum",
  "devdoc": {
    "kind": "dev",
    "methods": {},
    "version": 1
  },
  "userdoc": {
    "kind": "user",
    "methods": {},
    "version": 1
  }
}