{
  "contractName": "Marketplace",
  "abi": [
    {
      "inputs": [],
      "stateMutability": "nonpayable",
      "type": "constructor"
    },
    {
      "anonymous": false,
      "inputs": [
        {
          "indexed": false,
          "internalType": "uint256",
          "name": "id",
          "type": "uint256"
        },
        {
          "indexed": false,
          "internalType": "string",
          "name": "name",
          "type": "string"
        },
        {
          "indexed": false,
          "internalType": "uint256",
          "name": "price",
          "type": "uint256"
        },
        {
          "indexed": false,
          "internalType": "address payable",
          "name": "owner",
          "type": "address"
        },
        {
          "indexed": false,
          "internalType": "bool",
          "name": "purchased",
          "type": "bool"
        },
        {
          "indexed": false,
          "internalType": "uint256",
          "name": "upvotes",
          "type": "uint256"
        },
        {
          "indexed": false,
          "internalType": "string[3]",
          "name": "contributors",
          "type": "string[3]"
        }
      ],
      "name": "ProductCreated",
      "type": "event"
    },
    {
      "anonymous": false,
      "inputs": [
        {
          "indexed": false,
          "internalType": "uint256",
          "name": "id",
          "type": "uint256"
        },
        {
          "indexed": false,
          "internalType": "string",
          "name": "name",
          "type": "string"
        },
        {
          "indexed": false,
          "internalType": "uint256",
          "name": "price",
          "type": "uint256"
        },
        {
          "indexed": false,
          "internalType": "address payable",
          "name": "owner",
          "type": "address"
        },
        {
          "indexed": false,
          "internalType": "bool",
          "name": "purchased",
          "type": "bool"
        },
        {
          "indexed": false,
          "internalType": "uint256",
          "name": "upvotes",
          "type": "uint256"
        },
        {
          "indexed": false,
          "internalType": "string[3]",
          "name": "contributors",
          "type": "string[3]"
        }
      ],
      "name": "ProductPurchased",
      "type": "event"
    },
    {
      "anonymous": false,
      "inputs": [
        {
          "indexed": false,
          "internalType": "string",
          "name": "name",
          "type": "string"
        },
        {
          "indexed": false,
          "internalType": "string[3]",
          "name": "authors",
          "type": "string[3]"
        }
      ],
      "name": "StoryCreated",
      "type": "event"
    },
    {
      "anonymous": false,
      "inputs": [
        {
          "indexed": false,
          "internalType": "uint256",
          "name": "id",
          "type": "uint256"
        },
        {
          "indexed": false,
          "internalType": "string",
          "name": "fullS",
          "type": "string"
        },
        {
          "indexed": false,
          "internalType": "uint256",
          "name": "price",
          "type": "uint256"
        },
        {
          "indexed": false,
          "internalType": "bool",
          "name": "purchased",
          "type": "bool"
        },
        {
          "indexed": false,
          "internalType": "address payable",
          "name": "owner",
          "type": "address"
        },
        {
          "indexed": false,
          "internalType": "string",
          "name": "authors",
          "type": "string"
        }
      ],
      "name": "StoryPurchased",
      "type": "event"
    },
    {
      "anonymous": false,
      "inputs": [
        {
          "indexed": false,
          "internalType": "uint256",
          "name": "vote",
          "type": "uint256"
        }
      ],
      "name": "upVote",
      "type": "event"
    },
    {
      "inputs": [],
      "name": "SentenceCount",
      "outputs": [
        {
          "internalType": "uint256",
          "name": "",
          "type": "uint256"
        }
      ],
      "stateMutability": "view",
      "type": "function",
      "constant": true
    },
    {
      "inputs": [],
      "name": "historyProdCount",
      "outputs": [
        {
          "internalType": "uint256",
          "name": "",
          "type": "uint256"
        }
      ],
      "stateMutability": "view",
      "type": "function",
      "constant": true
    },
    {
      "inputs": [],
      "name": "name",
      "outputs": [
        {
          "internalType": "string",
          "name": "",
          "type": "string"
        }
      ],
      "stateMutability": "view",
      "type": "function",
      "constant": true
    },
    {
      "inputs": [],
      "name": "num",
      "outputs": [
        {
          "internalType": "uint256",
          "name": "",
          "type": "uint256"
        }
      ],
      "stateMutability": "view",
      "type": "function",
      "constant": true
    },
    {
      "inputs": [],
      "name": "productCount",
      "outputs": [
        {
          "internalType": "uint256",
          "name": "",
          "type": "uint256"
        }
      ],
      "stateMutability": "view",
      "type": "function",
      "constant": true
    },
    {
      "inputs": [
        {
          "internalType": "uint256",
          "name": "",
          "type": "uint256"
        }
      ],
      "name": "products",
      "outputs": [
        {
          "internalType": "uint256",
          "name": "id",
          "type": "uint256"
        },
        {
          "internalType": "string",
          "name": "name",
          "type": "string"
        },
        {
          "internalType": "uint256",
          "name": "price",
          "type": "uint256"
        },
        {
          "internalType": "address payable",
          "name": "owner",
          "type": "address"
        },
        {
          "internalType": "bool",
          "name": "purchased",
          "type": "bool"
        },
        {
          "internalType": "uint256",
          "name": "upvotes",
          "type": "uint256"
        }
      ],
      "stateMutability": "view",
      "type": "function",
      "constant": true
    },
    {
      "inputs": [
        {
          "internalType": "uint256",
          "name": "",
          "type": "uint256"
        }
      ],
      "name": "products_historical",
      "outputs": [
        {
          "internalType": "uint256",
          "name": "id",
          "type": "uint256"
        },
        {
          "internalType": "string",
          "name": "fullS",
          "type": "string"
        },
        {
          "internalType": "uint256",
          "name": "price",
          "type": "uint256"
        },
        {
          "internalType": "bool",
          "name": "purchased",
          "type": "bool"
        },
        {
          "internalType": "address payable",
          "name": "owner",
          "type": "address"
        },
        {
          "internalType": "string",
          "name": "authors",
          "type": "string"
        }
      ],
      "stateMutability": "view",
      "type": "function",
      "constant": true
    },
    {
      "inputs": [
        {
          "internalType": "uint256",
          "name": "",
          "type": "uint256"
        }
      ],
      "name": "story",
      "outputs": [
        {
          "internalType": "string",
          "name": "name",
          "type": "string"
        }
      ],
      "stateMutability": "view",
      "type": "function",
      "constant": true
    },
    {
      "inputs": [],
      "name": "vote_end",
      "outputs": [
        {
          "internalType": "uint256",
          "name": "",
          "type": "uint256"
        }
      ],
      "stateMutability": "view",
      "type": "function",
      "constant": true
    },
    {
      "inputs": [
        {
          "internalType": "uint256",
          "name": "",
          "type": "uint256"
        }
      ],
      "name": "voters_end",
      "outputs": [
        {
          "internalType": "address",
          "name": "",
          "type": "address"
        }
      ],
      "stateMutability": "view",
      "type": "function",
      "constant": true
    },
    {
      "inputs": [
        {
          "internalType": "uint256",
          "name": "_id",
          "type": "uint256"
        }
      ],
      "name": "getArr",
      "outputs": [
        {
          "internalType": "string[3]",
          "name": "",
          "type": "string[3]"
        }
      ],
      "stateMutability": "view",
      "type": "function",
      "constant": true
    },
    {
      "inputs": [
        {
          "internalType": "string",
          "name": "input",
          "type": "string"
        }
      ],
      "name": "removeDuplicateWords",
      "outputs": [
        {
          "internalType": "string",
          "name": "",
          "type": "string"
        }
      ],
      "stateMutability": "pure",
      "type": "function",
      "constant": true
    },
    {
      "inputs": [
        {
          "internalType": "string",
          "name": "a",
          "type": "string"
        },
        {
          "internalType": "string",
          "name": "b",
          "type": "string"
        }
      ],
      "name": "concatenate",
      "outputs": [
        {
          "internalType": "string",
          "name": "",
          "type": "string"
        }
      ],
      "stateMutability": "pure",
      "type": "function",
      "constant": true
    },
    {
      "inputs": [
        {
          "internalType": "address",
          "name": "_addr",
          "type": "address"
        }
      ],
      "name": "addressToString",
      "outputs": [
        {
          "internalType": "string",
          "name": "",
          "type": "string"
        }
      ],
      "stateMutability": "pure",
      "type": "function",
      "constant": true
    },
    {
      "inputs": [
        {
          "internalType": "uint256",
          "name": "price",
          "type": "uint256"
        }
      ],
      "name": "createVoteEnd",
      "outputs": [],
      "stateMutability": "nonpayable",
      "type": "function"
    },
    {
      "inputs": [],
      "name": "getCurrentVote",
      "outputs": [
        {
          "internalType": "uint256",
          "name": "",
          "type": "uint256"
        }
      ],
      "stateMutability": "view",
      "type": "function",
      "constant": true
    },
    {
      "inputs": [],
      "name": "resetProducts",
      "outputs": [],
      "stateMutability": "view",
      "type": "function",
      "constant": true
    },
    {
      "inputs": [
        {
          "internalType": "string",
          "name": "_name",
          "type": "string"
        },
        {
          "internalType": "uint256",
          "name": "_price",
          "type": "uint256"
        },
        {
          "internalType": "uint256",
          "name": "upvotes",
          "type": "uint256"
        },
        {
          "internalType": "string[3]",
          "name": "contributors",
          "type": "string[3]"
        }
      ],
      "name": "createProduct",
      "outputs": [],
      "stateMutability": "nonpayable",
      "type": "function"
    },
    {
      "inputs": [
        {
          "internalType": "uint256",
          "name": "_id",
          "type": "uint256"
        }
      ],
      "name": "purchaseProduct",
      "outputs": [],
      "stateMutability": "payable",
      "type": "function",
      "payable": true
    },
    {
      "inputs": [
        {
          "internalType": "uint256",
          "name": "_id",
          "type": "uint256"
        }
      ],
      "name": "purchaseStory",
      "outputs": [],
      "stateMutability": "payable",
      "type": "function",
      "payable": true
    }
  ],
  "bytecode": "0x6080604052600060015560006002556000600355600060045560006005553480156200002a57600080fd5b506040518060400160405280601081526020017f65787175697369746520636f7270736500000000000000000000000000000000815250600090805190602001906200007892919062000087565b5060006002819055506200019c565b828054620000959062000137565b90600052602060002090601f016020900481019282620000b9576000855562000105565b82601f10620000d457805160ff191683800117855562000105565b8280016001018555821562000105579182015b8281111562000104578251825591602001919060010190620000e7565b5b50905062000114919062000118565b5090565b5b808211156200013357600081600090555060010162000119565b5090565b600060028204905060018216806200015057607f821691505b602082108114156200016757620001666200016d565b5b50919050565b7f4e487b7100000000000000000000000000000000000000000000000000000000600052602260045260246000fd5b613c7a80620001ac6000396000f3fe60806040526004361061011f5760003560e01c80637acc0b20116100a0578063de6950e811610064578063de6950e814610420578063e0f6ef8714610449578063ea081fa914610474578063edb1dc9c1461049d578063f5f3e5e6146104b95761011f565b80637acc0b20146102f757806396ddd53e14610339578063ab6d4fbe14610376578063beba8bbe146103b8578063dc56028d146103f55761011f565b80634308cf35116100e75780634308cf35146102105780634e70b1dc1461024d5780635e57966d146102785780635e8a2932146102b55780636e2a2635146102e05761011f565b806306fdde03146101245780631fb4a24b1461014f578063266001d31461018c57806338e76a03146101c95780633aeb0b8e146101e5575b600080fd5b34801561013057600080fd5b506101396104e4565b6040516101469190613689565b60405180910390f35b34801561015b57600080fd5b50610176600480360381019061017191906133b5565b610572565b604051610183919061364c565b60405180910390f35b34801561019857600080fd5b506101b360048036038101906101ae91906132b6565b6105a8565b6040516101c09190613689565b60405180910390f35b6101e360048036038101906101de91906133b5565b6107f6565b005b3480156101f157600080fd5b506101fa610ef9565b6040516102079190613722565b60405180910390f35b34801561021c57600080fd5b50610237600480360381019061023291906133b5565b610eff565b6040516102449190613667565b60405180910390f35b34801561025957600080fd5b50610262610fe8565b60405161026f9190613722565b60405180910390f35b34801561028457600080fd5b5061029f600480360381019061029a919061324c565b610fee565b6040516102ac9190613689565b60405180910390f35b3480156102c157600080fd5b506102ca61144f565b6040516102d79190613722565b60405180910390f35b3480156102ec57600080fd5b506102f5611455565b005b34801561030357600080fd5b5061031e600480360381019061031991906133b5565b6116ac565b6040516103309695949392919061373d565b60405180910390f35b34801561034557600080fd5b50610360600480360381019061035b9190613275565b61179d565b60405161036d9190613689565b60405180910390f35b34801561038257600080fd5b5061039d600480360381019061039891906133b5565b611986565b6040516103af96959493929190613822565b60405180910390f35b3480156103c457600080fd5b506103df60048036038101906103da91906133b5565b611aff565b6040516103ec9190613689565b60405180910390f35b34801561040157600080fd5b5061040a611ba5565b6040516104179190613722565b60405180910390f35b34801561042c57600080fd5b5061044760048036038101906104429190613322565b611baf565b005b34801561045557600080fd5b5061045e611d98565b60405161046b9190613722565b60405180910390f35b34801561048057600080fd5b5061049b600480360381019061049691906133b5565b611d9e565b005b6104b760048036038101906104b291906133b5565b6126a4565b005b3480156104c557600080fd5b506104ce612a80565b6040516104db9190613722565b60405180910390f35b600080546104f190613afd565b80601f016020809104026020016040519081016040528092919081815260200182805461051d90613afd565b801561056a5780601f1061053f5761010080835404028352916020019161056a565b820191906000526020600020905b81548152906001019060200180831161054d57829003601f168201915b505050505081565b6009816003811061058257600080fd5b016000915054906101000a900473ffffffffffffffffffffffffffffffffffffffff1681565b6060600083905060008390506000815183516105c4919061397d565b67ffffffffffffffff811115610603577f4e487b7100000000000000000000000000000000000000000000000000000000600052604160045260246000fd5b6040519080825280601f01601f1916602001820160405280156106355781602001600182028036833780820191505090505b5090506000805b84518110156107105784818151811061067e577f4e487b7100000000000000000000000000000000000000000000000000000000600052603260045260246000fd5b602001015160f81c60f81b83838061069590613b2f565b9450815181106106ce577f4e487b7100000000000000000000000000000000000000000000000000000000600052603260045260246000fd5b60200101907effffffffffffffffffffffffffffffffffffffffffffffffffffffffffffff1916908160001a905350808061070890613b2f565b91505061063c565b5060005b83518110156107e857838181518110610756577f4e487b7100000000000000000000000000000000000000000000000000000000600052603260045260246000fd5b602001015160f81c60f81b83838061076d90613b2f565b9450815181106107a6577f4e487b7100000000000000000000000000000000000000000000000000000000600052603260045260246000fd5b60200101907effffffffffffffffffffffffffffffffffffffffffffffffffffffffffffff1916908160001a90535080806107e090613b2f565b915050610714565b508194505050505092915050565b6000600660008381526020019081526020016000206040518060e00160405290816000820154815260200160018201805461083090613afd565b80601f016020809104026020016040519081016040528092919081815260200182805461085c90613afd565b80156108a95780601f1061087e576101008083540402835291602001916108a9565b820191906000526020600020905b81548152906001019060200180831161088c57829003601f168201915b50505050508152602001600282015481526020016003820160009054906101000a900473ffffffffffffffffffffffffffffffffffffffff1673ffffffffffffffffffffffffffffffffffffffff1673ffffffffffffffffffffffffffffffffffffffff1681526020016003820160149054906101000a900460ff161515151581526020016004820154815260200160058201600380602002604051908101604052809291906000905b828210156109f657838201805461096990613afd565b80601f016020809104026020016040519081016040528092919081815260200182805461099590613afd565b80156109e25780601f106109b7576101008083540402835291602001916109e2565b820191906000526020600020905b8154815290600101906020018083116109c557829003601f168201915b505050505081526020019060010190610953565b5050505081525050905060008160600151905060008260000151118015610a235750600154826000015111155b610a2c57600080fd5b8160400151341015610a3d57600080fd5b816080015115610a82576040517f08c379a0000000000000000000000000000000000000000000000000000000008152600401610a7990613702565b60405180910390fd5b3373ffffffffffffffffffffffffffffffffffffffff168173ffffffffffffffffffffffffffffffffffffffff161415610af1576040517f08c379a0000000000000000000000000000000000000000000000000000000008152600401610ae8906136e2565b60405180910390fd5b33826060019073ffffffffffffffffffffffffffffffffffffffff16908173ffffffffffffffffffffffffffffffffffffffff168152505060018260a001818151610b3c919061397d565b91508181525050610b508260600151610fee565b8260c001518360a0015160038110610b91577f4e487b7100000000000000000000000000000000000000000000000000000000600052603260045260246000fd5b60200201819052508160066000858152602001908152602001600020600082015181600001556020820151816001019080519060200190610bd3929190612f43565b506040820151816002015560608201518160030160006101000a81548173ffffffffffffffffffffffffffffffffffffffff021916908373ffffffffffffffffffffffffffffffffffffffff16021790555060808201518160030160146101000a81548160ff02191690831515021790555060a0820151816004015560c082015181600501906003610c66929190612fc9565b5090505060028260a0015110610db75760018260800190151590811515815250508160066000858152602001908152602001600020600082015181600001556020820151816001019080519060200190610cc1929190612f43565b506040820151816002015560608201518160030160006101000a81548173ffffffffffffffffffffffffffffffffffffffff021916908373ffffffffffffffffffffffffffffffffffffffff16021790555060808201518160030160146101000a81548160ff02191690831515021790555060a0820151816004015560c082015181600501906003610d54929190612fc9565b509050507fcbe37aac5d4b7f4123ead5b25660f15fc35685375eec76ab442b278c9d26aec060015483602001518460400151856060015160018760a001518860c00151604051610daa97969594939291906137a5565b60405180910390a1610ef4565b60008260800190151590811515815250508160066000858152602001908152602001600020600082015181600001556020820151816001019080519060200190610e02929190612f43565b506040820151816002015560608201518160030160006101000a81548173ffffffffffffffffffffffffffffffffffffffff021916908373ffffffffffffffffffffffffffffffffffffffff16021790555060808201518160030160146101000a81548160ff02191690831515021790555060a0820151816004015560c082015181600501906003610e95929190612fc9565b509050507fcbe37aac5d4b7f4123ead5b25660f15fc35685375eec76ab442b278c9d26aec060015483602001518460400151856060015160008760a001518860c00151604051610eeb97969594939291906137a5565b60405180910390a15b505050565b60035481565b610f0761301c565b600060066000848152602001908152602001600020905080600501600380602002604051908101604052809291906000905b82821015610fdc578382018054610f4f90613afd565b80601f0160208091040260200160405190810160405280929190818152602001828054610f7b90613afd565b8015610fc85780601f10610f9d57610100808354040283529160200191610fc8565b820191906000526020600020905b815481529060010190602001808311610fab57829003601f168201915b505050505081526020019060010190610f39565b50505050915050919050565b60045481565b606060008273ffffffffffffffffffffffffffffffffffffffff1660001b905060006040518060400160405280601081526020017f303132333435363738396162636465660000000000000000000000000000000081525090506000602a67ffffffffffffffff81111561108b577f4e487b7100000000000000000000000000000000000000000000000000000000600052604160045260246000fd5b6040519080825280601f01601f1916602001820160405280156110bd5781602001600182028036833780820191505090505b5090507f30000000000000000000000000000000000000000000000000000000000000008160008151811061111b577f4e487b7100000000000000000000000000000000000000000000000000000000600052603260045260246000fd5b60200101907effffffffffffffffffffffffffffffffffffffffffffffffffffffffffffff1916908160001a9053507f7800000000000000000000000000000000000000000000000000000000000000816001815181106111a5577f4e487b7100000000000000000000000000000000000000000000000000000000600052603260045260246000fd5b60200101907effffffffffffffffffffffffffffffffffffffffffffffffffffffffffffff1916908160001a90535060005b60148110156114435782600485600c846111f1919061397d565b60208110611228577f4e487b7100000000000000000000000000000000000000000000000000000000600052603260045260246000fd5b1a60f81b7effffffffffffffffffffffffffffffffffffffffffffffffffffffffffffff1916901c60f81c60ff168151811061128d577f4e487b7100000000000000000000000000000000000000000000000000000000600052603260045260246000fd5b602001015160f81c60f81b826002836112a691906139d3565b60026112b2919061397d565b815181106112e9577f4e487b7100000000000000000000000000000000000000000000000000000000600052603260045260246000fd5b60200101907effffffffffffffffffffffffffffffffffffffffffffffffffffffffffffff1916908160001a90535082600f60f81b85600c8461132c919061397d565b60208110611363577f4e487b7100000000000000000000000000000000000000000000000000000000600052603260045260246000fd5b1a60f81b1660f81c60ff16815181106113a5577f4e487b7100000000000000000000000000000000000000000000000000000000600052603260045260246000fd5b602001015160f81c60f81b826002836113be91906139d3565b60036113ca919061397d565b81518110611401577f4e487b7100000000000000000000000000000000000000000000000000000000600052603260045260246000fd5b60200101907effffffffffffffffffffffffffffffffffffffffffffffffffffffffffffff1916908160001a905350808061143b90613b2f565b9150506111d7565b50809350505050919050565b60025481565b61145d613043565b60005b6002548110156116a857600660008281526020019081526020016000206040518060e0016040529081600082015481526020016001820180546114a290613afd565b80601f01602080910402602001604051908101604052809291908181526020018280546114ce90613afd565b801561151b5780601f106114f05761010080835404028352916020019161151b565b820191906000526020600020905b8154815290600101906020018083116114fe57829003601f168201915b50505050508152602001600282015481526020016003820160009054906101000a900473ffffffffffffffffffffffffffffffffffffffff1673ffffffffffffffffffffffffffffffffffffffff1673ffffffffffffffffffffffffffffffffffffffff1681526020016003820160149054906101000a900460ff161515151581526020016004820154815260200160058201600380602002604051908101604052809291906000905b828210156116685783820180546115db90613afd565b80601f016020809104026020016040519081016040528092919081815260200182805461160790613afd565b80156116545780601f1061162957610100808354040283529160200191611654565b820191906000526020600020905b81548152906001019060200180831161163757829003601f168201915b5050505050815260200190600101906115c5565b5050505081525050915060405180602001604052806000815250826020018190525060008260a001818152505080806116a090613b2f565b915050611460565b5050565b60066020528060005260406000206000915090508060000154908060010180546116d590613afd565b80601f016020809104026020016040519081016040528092919081815260200182805461170190613afd565b801561174e5780601f106117235761010080835404028352916020019161174e565b820191906000526020600020905b81548152906001019060200180831161173157829003601f168201915b5050505050908060020154908060030160009054906101000a900473ffffffffffffffffffffffffffffffffffffffff16908060030160149054906101000a900460ff16908060040154905086565b606060006117e0836040518060400160405280600181526020017f2000000000000000000000000000000000000000000000000000000000000000815250612a86565b9050606060005b825181101561197b57600080600183611800919061397d565b90505b84518110156118fc57848181518110611845577f4e487b7100000000000000000000000000000000000000000000000000000000600052603260045260246000fd5b602002602001015160405160200161185d9190613606565b604051602081830303815290604052805190602001208584815181106118ac577f4e487b7100000000000000000000000000000000000000000000000000000000600052603260045260246000fd5b60200260200101516040516020016118c49190613606565b6040516020818303038152906040528051906020012014156118e957600191506118fc565b80806118f490613b2f565b915050611803565b5080611967578284838151811061193c577f4e487b7100000000000000000000000000000000000000000000000000000000600052603260045260246000fd5b602002602001015160405160200161195592919061361d565b60405160208183030381529060405292505b50808061197390613b2f565b9150506117e7565b508092505050919050565b60076020528060005260406000206000915090508060000154908060010180546119af90613afd565b80601f01602080910402602001604051908101604052809291908181526020018280546119db90613afd565b8015611a285780601f106119fd57610100808354040283529160200191611a28565b820191906000526020600020905b815481529060010190602001808311611a0b57829003601f168201915b5050505050908060020154908060030160009054906101000a900460ff16908060030160019054906101000a900473ffffffffffffffffffffffffffffffffffffffff1690806004018054611a7c90613afd565b80601f0160208091040260200160405190810160405280929190818152602001828054611aa890613afd565b8015611af55780601f10611aca57610100808354040283529160200191611af5565b820191906000526020600020905b815481529060010190602001808311611ad857829003601f168201915b5050505050905086565b6008602052806000526040600020600091509050806000018054611b2290613afd565b80601f0160208091040260200160405190810160405280929190818152602001828054611b4e90613afd565b8015611b9b5780601f10611b7057610100808354040283529160200191611b9b565b820191906000526020600020905b815481529060010190602001808311611b7e57829003601f168201915b5050505050905081565b6000600254905090565b6000845111611bbd57600080fd5b60008311611bca57600080fd5b60016000815480929190611bdd90613b2f565b9190505550611beb33610fee565b818360038110611c24577f4e487b7100000000000000000000000000000000000000000000000000000000600052603260045260246000fd5b60200201819052506040518060e0016040528060015481526020018581526020018481526020013373ffffffffffffffffffffffffffffffffffffffff16815260200160001515815260200183815260200182815250600660006001548152602001908152602001600020600082015181600001556020820151816001019080519060200190611cb5929190612f43565b506040820151816002015560608201518160030160006101000a81548173ffffffffffffffffffffffffffffffffffffffff021916908373ffffffffffffffffffffffffffffffffffffffff16021790555060808201518160030160146101000a81548160ff02191690831515021790555060a0820151816004015560c082015181600501906003611d48929190612fc9565b509050507f724a7f3b7bc135399b5ba2a1305c52ce76299c03071123034f67acddc3becef160015485853360008787604051611d8a97969594939291906137a5565b60405180910390a150505050565b60015481565b60005b600254811015611e5857600060098260038110611de7577f4e487b7100000000000000000000000000000000000000000000000000000000600052603260045260246000fd5b0160009054906101000a900473ffffffffffffffffffffffffffffffffffffffff1690503373ffffffffffffffffffffffffffffffffffffffff168173ffffffffffffffffffffffffffffffffffffffff161415611e4457600080fd5b508080611e5090613b2f565b915050611da1565b5033600960025460038110611e96577f4e487b7100000000000000000000000000000000000000000000000000000000600052603260045260246000fd5b0160006101000a81548173ffffffffffffffffffffffffffffffffffffffff021916908373ffffffffffffffffffffffffffffffffffffffff16021790555060026000815480929190611ee890613b2f565b9190505550611ef561309e565b60016002541061266757611f07613043565b60006003819055506000600190505b600154811161221757600660008281526020019081526020016000206040518060e001604052908160008201548152602001600182018054611f5790613afd565b80601f0160208091040260200160405190810160405280929190818152602001828054611f8390613afd565b8015611fd05780601f10611fa557610100808354040283529160200191611fd0565b820191906000526020600020905b815481529060010190602001808311611fb357829003601f168201915b50505050508152602001600282015481526020016003820160009054906101000a900473ffffffffffffffffffffffffffffffffffffffff1673ffffffffffffffffffffffffffffffffffffffff1673ffffffffffffffffffffffffffffffffffffffff1681526020016003820160149054906101000a900460ff161515151581526020016004820154815260200160058201600380602002604051908101604052809291906000905b8282101561211d57838201805461209090613afd565b80601f01602080910402602001604051908101604052809291908181526020018280546120bc90613afd565b80156121095780601f106120de57610100808354040283529160200191612109565b820191906000526020600020905b8154815290600101906020018083116120ec57829003601f168201915b50505050508152602001906001019061207a565b5050505081525050915060028260a00151106121f957816020015183600001819052508160c0015183602001819052506003600081548092919061216090613b2f565b9190505550826008600060035481526020019081526020016000206000820151816000019080519060200190612197929190612f43565b506020820151816001019060036121af929190612fc9565b509050507f797fcd15847b5f626aa2d0cd1724efae5dd87d749b6ebeef9949df672b422aeb836000015184602001516040516121ec9291906136ab565b60405180910390a1612204565b612201613043565b91505b808061220f90613b2f565b915050611f16565b50600060405180602001604052806000815250905061223461301c565b6000600190505b60035481116123d45760086000828152602001908152602001600020600101600380602002604051908101604052809291906000905b8282101561231457838201805461228790613afd565b80601f01602080910402602001604051908101604052809291908181526020018280546122b390613afd565b80156123005780601f106122d557610100808354040283529160200191612300565b820191906000526020600020905b8154815290600101906020018083116122e357829003601f168201915b505050505081526020019060010190612271565b50505050915060005b60038110156123c0576123ab846123a66040518060400160405280600181526020017f200000000000000000000000000000000000000000000000000000000000000081525086856003811061239c577f4e487b7100000000000000000000000000000000000000000000000000000000600052603260045260246000fd5b60200201516105a8565b6105a8565b935080806123b890613b2f565b91505061231d565b5080806123cc90613b2f565b91505061223b565b50600060405180602001604052806000815250905060006040518060400160405280600181526020017f200000000000000000000000000000000000000000000000000000000000000081525090506000600190505b60035481116124f9576124e4836124df8460086000868152602001908152602001600020600001805461245c90613afd565b80601f016020809104026020016040519081016040528092919081815260200182805461248890613afd565b80156124d55780601f106124aa576101008083540402835291602001916124d5565b820191906000526020600020905b8154815290600101906020018083116124b857829003601f168201915b50505050506105a8565b6105a8565b925080806124f190613b2f565b91505061242a565b506005600081548092919061250d90613b2f565b919050555060007359c5505100f8107e9b59ae0b7977c10d27a0476e90506040518060c0016040528060055481526020018481526020018981526020016000151581526020018273ffffffffffffffffffffffffffffffffffffffff1681526020016125788761179d565b8152506007600060055481526020019081526020016000206000820151816000015560208201518160010190805190602001906125b6929190612f43565b506040820151816002015560608201518160030160006101000a81548160ff02191690831515021790555060808201518160030160016101000a81548173ffffffffffffffffffffffffffffffffffffffff021916908373ffffffffffffffffffffffffffffffffffffffff16021790555060a0820151816004019080519060200190612644929190612f43565b50905050612650611455565b600060028190555060006001819055505050505050505b7fec859db5a3c1ca3ee301d012a70f0e287a104754cd2f264283bb84531f0eed546002546040516126989190613722565b60405180910390a15050565b6000600760008381526020019081526020016000206040518060c0016040529081600082015481526020016001820180546126de90613afd565b80601f016020809104026020016040519081016040528092919081815260200182805461270a90613afd565b80156127575780601f1061272c57610100808354040283529160200191612757565b820191906000526020600020905b81548152906001019060200180831161273a57829003601f168201915b50505050508152602001600282015481526020016003820160009054906101000a900460ff161515151581526020016003820160019054906101000a900473ffffffffffffffffffffffffffffffffffffffff1673ffffffffffffffffffffffffffffffffffffffff1673ffffffffffffffffffffffffffffffffffffffff1681526020016004820180546127eb90613afd565b80601f016020809104026020016040519081016040528092919081815260200182805461281790613afd565b80156128645780601f1061283957610100808354040283529160200191612864565b820191906000526020600020905b81548152906001019060200180831161284757829003601f168201915b50505050508152505090506000339050816040015134101561288557600080fd5b81606001511561289457600080fd5b3373ffffffffffffffffffffffffffffffffffffffff168173ffffffffffffffffffffffffffffffffffffffff1614156128cd57600080fd5b60018260600190151590811515815250508073ffffffffffffffffffffffffffffffffffffffff166108fc349081150290604051600060405180830381858888f19350505050158015612924573d6000803e3d6000fd5b5033826080019073ffffffffffffffffffffffffffffffffffffffff16908173ffffffffffffffffffffffffffffffffffffffff16815250508160076000858152602001908152602001600020600082015181600001556020820151816001019080519060200190612997929190612f43565b506040820151816002015560608201518160030160006101000a81548160ff02191690831515021790555060808201518160030160016101000a81548173ffffffffffffffffffffffffffffffffffffffff021916908373ffffffffffffffffffffffffffffffffffffffff16021790555060a0820151816004019080519060200190612a25929190612f43565b509050507f47877993bedd6b076bf8f45878e093bf562cae6a9a4c718ad7771e241d28d3058383602001518460400151600186608001518760a00151604051612a7396959493929190613822565b60405180910390a1505050565b60055481565b60606000839050600083905060006001905060005b8351811015612b995782600081518110612ade577f4e487b7100000000000000000000000000000000000000000000000000000000600052603260045260246000fd5b602001015160f81c60f81b7effffffffffffffffffffffffffffffffffffffffffffffffffffffffffffff1916848281518110612b44577f4e487b7100000000000000000000000000000000000000000000000000000000600052603260045260246000fd5b602001015160f81c60f81b7effffffffffffffffffffffffffffffffffffffffffffffffffffffffffffff19161415612b86578180612b8290613b2f565b9250505b8080612b9190613b2f565b915050612a9b565b5060008167ffffffffffffffff811115612bdc577f4e487b7100000000000000000000000000000000000000000000000000000000600052604160045260246000fd5b604051908082528060200260200182016040528015612c0f57816020015b6060815260200190600190039081612bfa5790505b509050600080925060005b8551811015612d765784600081518110612c5d577f4e487b7100000000000000000000000000000000000000000000000000000000600052603260045260246000fd5b602001015160f81c60f81b7effffffffffffffffffffffffffffffffffffffffffffffffffffffffffffff1916868281518110612cc3577f4e487b7100000000000000000000000000000000000000000000000000000000600052603260045260246000fd5b602001015160f81c60f81b7effffffffffffffffffffffffffffffffffffffffffffffffffffffffffffff19161415612d6357612d01898383612dd5565b838581518110612d3a577f4e487b7100000000000000000000000000000000000000000000000000000000600052603260045260246000fd5b6020026020010181905250600181612d52919061397d565b91508380612d5f90613b2f565b9450505b8080612d6e90613b2f565b915050612c1a565b50612d8388828751612dd5565b828481518110612dbc577f4e487b7100000000000000000000000000000000000000000000000000000000600052603260045260246000fd5b6020026020010181905250819550505050505092915050565b6060600084905060008484612dea9190613a2d565b67ffffffffffffffff811115612e29577f4e487b7100000000000000000000000000000000000000000000000000000000600052604160045260246000fd5b6040519080825280601f01601f191660200182016040528015612e5b5781602001600182028036833780820191505090505b50905060008590505b84811015612f3657828181518110612ea5577f4e487b7100000000000000000000000000000000000000000000000000000000600052603260045260246000fd5b602001015160f81c60f81b828783612ebd9190613a2d565b81518110612ef4577f4e487b7100000000000000000000000000000000000000000000000000000000600052603260045260246000fd5b60200101907effffffffffffffffffffffffffffffffffffffffffffffffffffffffffffff1916908160001a9053508080612f2e90613b2f565b915050612e64565b5080925050509392505050565b828054612f4f90613afd565b90600052602060002090601f016020900481019282612f715760008555612fb8565b82601f10612f8a57805160ff1916838001178555612fb8565b82800160010185558215612fb8579182015b82811115612fb7578251825591602001919060010190612f9c565b5b509050612fc591906130be565b5090565b826003810192821561300b579160200282015b8281111561300a578251829080519060200190612ffa929190612f43565b5091602001919060010190612fdc565b5b50905061301891906130db565b5090565b60405180606001604052806003905b606081526020019060019003908161302b5790505090565b6040518060e00160405280600081526020016060815260200160008152602001600073ffffffffffffffffffffffffffffffffffffffff1681526020016000151581526020016000815260200161309861301c565b81525090565b6040518060400160405280606081526020016130b861301c565b81525090565b5b808211156130d75760008160009055506001016130bf565b5090565b5b808211156130fb57600081816130f291906130ff565b506001016130dc565b5090565b50805461310b90613afd565b6000825580601f1061311d575061313c565b601f01602090049060005260206000209081019061313b91906130be565b5b50565b600061315261314d846138c2565b613891565b9050808260005b85811015613189578135850161316f888261320d565b845260208401935060208301925050600181019050613159565b5050509392505050565b60006131a66131a1846138e8565b613891565b9050828152602081018484840111156131be57600080fd5b6131c9848285613abb565b509392505050565b6000813590506131e081613c16565b92915050565b600082601f8301126131f757600080fd5b600361320484828561313f565b91505092915050565b600082601f83011261321e57600080fd5b813561322e848260208601613193565b91505092915050565b60008135905061324681613c2d565b92915050565b60006020828403121561325e57600080fd5b600061326c848285016131d1565b91505092915050565b60006020828403121561328757600080fd5b600082013567ffffffffffffffff8111156132a157600080fd5b6132ad8482850161320d565b91505092915050565b600080604083850312156132c957600080fd5b600083013567ffffffffffffffff8111156132e357600080fd5b6132ef8582860161320d565b925050602083013567ffffffffffffffff81111561330c57600080fd5b6133188582860161320d565b9150509250929050565b6000806000806080858703121561333857600080fd5b600085013567ffffffffffffffff81111561335257600080fd5b61335e8782880161320d565b945050602061336f87828801613237565b935050604061338087828801613237565b925050606085013567ffffffffffffffff81111561339d57600080fd5b6133a9878288016131e6565b91505092959194509250565b6000602082840312156133c757600080fd5b60006133d584828501613237565b91505092915050565b60006133ea8383613494565b905092915050565b6133fb81613a73565b82525050565b61340a81613a61565b82525050565b600061341b82613922565b6134258185613945565b93508360208202850161343785613918565b8060005b85811015613473578484038952815161345485826133de565b945061345f83613938565b925060208a0199505060018101905061343b565b50829750879550505050505092915050565b61348e81613a85565b82525050565b600061349f8261392d565b6134a98185613950565b93506134b9818560208601613aca565b6134c281613c05565b840191505092915050565b60006134d88261392d565b6134e28185613961565b93506134f2818560208601613aca565b6134fb81613c05565b840191505092915050565b60006135118261392d565b61351b8185613972565b935061352b818560208601613aca565b80840191505092915050565b6000613544600183613972565b91507f20000000000000000000000000000000000000000000000000000000000000006000830152600182019050919050565b6000613584600f83613961565b91507f416c7265616479207570766f74656400000000000000000000000000000000006000830152602082019050919050565b60006135c4601f83613961565b91507f596f752063616e6e6f74207570766f746520796f75722073656e74656e6365006000830152602082019050919050565b61360081613ab1565b82525050565b60006136128284613506565b915081905092915050565b60006136298285613506565b91506136358284613506565b915061364082613537565b91508190509392505050565b60006020820190506136616000830184613401565b92915050565b600060208201905081810360008301526136818184613410565b905092915050565b600060208201905081810360008301526136a381846134cd565b905092915050565b600060408201905081810360008301526136c581856134cd565b905081810360208301526136d98184613410565b90509392505050565b600060208201905081810360008301526136fb81613577565b9050919050565b6000602082019050818103600083015261371b816135b7565b9050919050565b600060208201905061373760008301846135f7565b92915050565b600060c08201905061375260008301896135f7565b818103602083015261376481886134cd565b905061377360408301876135f7565b61378060608301866133f2565b61378d6080830185613485565b61379a60a08301846135f7565b979650505050505050565b600060e0820190506137ba600083018a6135f7565b81810360208301526137cc81896134cd565b90506137db60408301886135f7565b6137e860608301876133f2565b6137f56080830186613485565b61380260a08301856135f7565b81810360c08301526138148184613410565b905098975050505050505050565b600060c08201905061383760008301896135f7565b818103602083015261384981886134cd565b905061385860408301876135f7565b6138656060830186613485565b61387260808301856133f2565b81810360a083015261388481846134cd565b9050979650505050505050565b6000604051905081810181811067ffffffffffffffff821117156138b8576138b7613bd6565b5b8060405250919050565b600067ffffffffffffffff8211156138dd576138dc613bd6565b5b602082029050919050565b600067ffffffffffffffff82111561390357613902613bd6565b5b601f19601f8301169050602081019050919050565b6000819050919050565b600060039050919050565b600081519050919050565b6000602082019050919050565b600081905092915050565b600082825260208201905092915050565b600082825260208201905092915050565b600081905092915050565b600061398882613ab1565b915061399383613ab1565b9250827fffffffffffffffffffffffffffffffffffffffffffffffffffffffffffffffff038211156139c8576139c7613b78565b5b828201905092915050565b60006139de82613ab1565b91506139e983613ab1565b9250817fffffffffffffffffffffffffffffffffffffffffffffffffffffffffffffffff0483118215151615613a2257613a21613b78565b5b828202905092915050565b6000613a3882613ab1565b9150613a4383613ab1565b925082821015613a5657613a55613b78565b5b828203905092915050565b6000613a6c82613a91565b9050919050565b6000613a7e82613a91565b9050919050565b60008115159050919050565b600073ffffffffffffffffffffffffffffffffffffffff82169050919050565b6000819050919050565b82818337600083830152505050565b60005b83811015613ae8578082015181840152602081019050613acd565b83811115613af7576000848401525b50505050565b60006002820490506001821680613b1557607f821691505b60208210811415613b2957613b28613ba7565b5b50919050565b6000613b3a82613ab1565b91507fffffffffffffffffffffffffffffffffffffffffffffffffffffffffffffffff821415613b6d57613b6c613b78565b5b600182019050919050565b7f4e487b7100000000000000000000000000000000000000000000000000000000600052601160045260246000fd5b7f4e487b7100000000000000000000000000000000000000000000000000000000600052602260045260246000fd5b7f4e487b7100000000000000000000000000000000000000000000000000000000600052604160045260246000fd5b6000601f19601f8301169050919050565b613c1f81613a61565b8114613c2a57600080fd5b50565b613c3681613ab1565b8114613c4157600080fd5b5056fea2646970667358221220b19113cacc7f469d64b1f864615c1335edae7659ec55285571d27da76aa79d2864736f6c63430008000033",
  "immutableReferences": {},
  "source": "pragma solidity ^0.8.0;\r\n\r\n\r\n//TODO\r\n//Add another table with stories, authors, buy button\r\n//convert contributors to string array and get the size\r\n//get the buyer address\r\n//transfer the ownership\r\n//split the sale\r\n//display the buy button\r\ncontract Marketplace {\r\n\tstring public name;\r\n\tuint public productCount = 0;\r\n\tuint public vote_end = 0;\r\n\tuint public SentenceCount = 0;\r\n\tuint public num = 0;\r\n\tuint public historyProdCount = 0;\r\n\tmapping(uint => Product) public products;\r\n\tmapping(uint => CompleteStory) public products_historical;\r\n\t//link story in historical to the contributors\r\n\t//string public authors;\r\n\tmapping(uint => Sentence) public story;\r\n\taddress[3] public voters_end;\r\n\tstruct Product {\r\n\t\tuint id;\r\n\t\tstring name;\r\n\t\tuint price;\r\n\t\taddress payable owner;\r\n\t\tbool purchased;\r\n\t\tuint upvotes;\r\n\t\tstring[3] contributors;\r\n\t}\r\n\tstruct Sentence {\r\n\t\tstring name;\r\n\t\tstring [3] authors;\r\n\t}\r\n\tstruct CompleteStory {\r\n\t\tuint id;\r\n\t\tstring fullS;\r\n\t\tuint price;\r\n\t\tbool purchased;\r\n\t\taddress payable owner;\r\n\t\tstring authors;\r\n\t}\r\n\r\n\tevent StoryCreated(\r\n\t\tstring name,\r\n\t\tstring[3] authors\t\r\n\t);\r\n\r\n\tevent StoryPurchased(\r\n\t\tuint id,\r\n\t\tstring fullS,\r\n\t\tuint price,\r\n\t\tbool purchased,\r\n\t\taddress payable owner,\r\n\t\tstring authors\r\n\t);\r\n\r\n\tevent ProductCreated(\r\n\t\tuint id,\r\n\t\tstring name,\r\n\t\tuint price,\r\n\t\taddress payable owner,\r\n\t\tbool purchased,\r\n\t\tuint upvotes,\r\n\t\tstring[3] contributors\t\r\n\t);\r\n\r\n\tevent upVote(\r\n\t\tuint vote\r\n\t);\r\n\r\n\tevent ProductPurchased(\r\n\t\tuint id,\r\n\t\tstring name,\r\n\t\tuint price,\r\n\t\taddress payable owner,\r\n\t\tbool purchased,\r\n\t\tuint upvotes,\r\n\t\tstring[3] contributors\r\n\t);\r\n\r\n\tstruct voteEnd{\r\n\t\tuint votes;\r\n\t}\r\n\t\r\n\r\n\tconstructor() {\r\n\t\tname = \"exquisite corpse\";\r\n\t\t//products_historical ='';\r\n\t\tvote_end = 0;\r\n\t}\r\n\r\n\tfunction getArr(uint _id) public view returns (string[3] memory) {\r\n\t\tProduct storage myProduct = products[_id];\r\n    \treturn myProduct.contributors;\r\n\t}\r\n\r\n// \tfunction strConcat(string memory _a, string memory _b, string memory _c, string memory _d, string memory _e) internal pure returns (string memory){\r\n//     bytes memory _ba = bytes(_a);\r\n//     bytes memory _bb = bytes(_b);\r\n//     bytes memory _bc = bytes(_c);\r\n//     bytes memory _bd = bytes(_d);\r\n//     bytes memory _be = bytes(_e);\r\n//     string memory abcde = new string(_ba.length + _bb.length + _bc.length + _bd.length + _be.length);\r\n//     bytes memory babcde = bytes(abcde);\r\n//     uint k = 0;\r\n// \tuint i = 0;\r\n//     for (i = 0; i < _ba.length; i++) babcde[k++] = _ba[i];\r\n//     for (i = 0; i < _bb.length; i++) babcde[k++] = _bb[i];\r\n//     for (i = 0; i < _bc.length; i++) babcde[k++] = _bc[i];\r\n//     for (i = 0; i < _bd.length; i++) babcde[k++] = _bd[i];\r\n//     for (i = 0; i < _be.length; i++) babcde[k++] = _be[i];\r\n//     return string(babcde);\r\n// \t}\r\n\r\n// \tfunction strConcat(string memory _a, string memory _b) internal pure returns (string memory) {\r\n//     return strConcat(_a, _b, \"\", \"\", \"\");\r\n// }\r\n\r\n\tfunction removeDuplicateWords(string memory input) public pure returns (string memory) {\r\n        string[] memory words = split(input, \" \");\r\n        string memory output;\r\n        \r\n        for(uint i = 0; i < words.length; i++) {\r\n            bool isDuplicate = false;\r\n            \r\n            for(uint j = i + 1; j < words.length; j++) {\r\n                if (keccak256(abi.encodePacked(words[i])) == keccak256(abi.encodePacked(words[j]))) {\r\n                    isDuplicate = true;\r\n                    break;\r\n                }\r\n            }\r\n            \r\n            if (!isDuplicate) {\r\n                output = string(abi.encodePacked(output, words[i], \" \"));\r\n            }\r\n        }\r\n        \r\n        return output;\r\n    }\r\n    \r\n    function split(string memory input, string memory delimiter) private pure returns (string[] memory) {\r\n        bytes memory inputBytes = bytes(input);\r\n        bytes memory delimiterBytes = bytes(delimiter);\r\n        uint count = 1;\r\n        \r\n        for(uint i = 0; i < inputBytes.length; i++) {\r\n            if (inputBytes[i] == delimiterBytes[0]) {\r\n                count++;\r\n            }\r\n        }\r\n        \r\n        string[] memory parts = new string[](count);\r\n        uint startIndex = 0;\r\n        count = 0;\r\n        \r\n        for(uint i = 0; i < inputBytes.length; i++) {\r\n            if (inputBytes[i] == delimiterBytes[0]) {\r\n                parts[count] = substring(input, startIndex, i);\r\n                startIndex = i + 1;\r\n                count++;\r\n            }\r\n        }\r\n        \r\n        parts[count] = substring(input, startIndex, inputBytes.length);\r\n        \r\n        return parts;\r\n    }\r\n    \r\n    function substring(string memory input, uint startIndex, uint endIndex) private pure returns (string memory) {\r\n        bytes memory inputBytes = bytes(input);\r\n        bytes memory result = new bytes(endIndex - startIndex);\r\n        \r\n        for(uint i = startIndex; i < endIndex; i++) {\r\n            result[i - startIndex] = inputBytes[i];\r\n        }\r\n        \r\n        return string(result);\r\n    }\r\n\r\n\r\n\r\n\r\n\tfunction concatenate(string memory a, string memory b) public pure returns (string memory) {\r\n        bytes memory aa = bytes(a);\r\n        bytes memory bb = bytes(b);\r\n        bytes memory result = new bytes(aa.length + bb.length);\r\n        uint k = 0;\r\n        for (uint i = 0; i < aa.length; i++) {\r\n            result[k++] = aa[i];\r\n        }\r\n        for (uint i = 0; i < bb.length; i++) {\r\n            result[k++] = bb[i];\r\n        }\r\n        return string(result);\r\n    }\r\n\tfunction toString(uint _i) internal pure returns (string memory _uintAsString) {\r\n        if (_i == 0) {\r\n            return \"0\";\r\n        }\r\n        uint j = _i;\r\n        uint len;\r\n        while (j != 0) {\r\n            len++;\r\n            j /= 10;\r\n        }\r\n        bytes memory bstr = new bytes(len);\r\n        uint k = len;\r\n        while (_i != 0) {\r\n            k = k-1;\r\n            uint8 temp = (48 + uint8(_i - _i / 10 * 10));\r\n            bytes1 b1 = bytes1(temp);\r\n            bstr[k] = b1;\r\n            _i /= 10;\r\n        }\r\n        return string(bstr);\r\n    }\r\n\tfunction addressToString(address _addr) public pure returns (string memory) {\r\n\t\tbytes32 value = bytes32(uint256(uint160(_addr)));\r\n\t\tbytes memory alphabet = \"0123456789abcdef\";\r\n\r\n\t\tbytes memory str = new bytes(42);\r\n\t\tstr[0] = '0';\r\n\t\tstr[1] = 'x';\r\n\t\tfor (uint i = 0; i < 20; i++) {\r\n\t\t\tstr[2+i*2] = alphabet[uint8(value[i + 12] >> 4)];\r\n\t\t\tstr[3+i*2] = alphabet[uint8(value[i + 12] & 0x0f)];\r\n\t\t}\r\n\t\treturn string(str);\r\n\t}\r\n\r\n\tfunction createVoteEnd(uint price) public {\r\n    //string storage senderString = toString(msg.sender);\r\n\t//check not similar voters\r\n    for (uint i = 0; i < vote_end; i++) {\r\n\t\taddress voterA = voters_end[i];\r\n        require( voterA != msg.sender);\r\n    }\r\n\t\tvoters_end[vote_end] = msg.sender;\r\n\t\tvote_end++;\r\n\t\tSentence memory _sentence;\r\n\t\t//transfer to past stories\r\n\t\tif(vote_end >= 1){\r\n\t\t\tProduct memory _product;\r\n\t\t\tSentenceCount = 0;\r\n\t\t\tfor(uint i = 1; i <= productCount; i++){\r\n\t\t\t\t_product = products[i];\r\n\t\t\t\tif(_product.upvotes >= 2){\r\n\t\t\t\t\t//move products as sentences in the story\r\n\t\t\t\t\t_sentence.name = _product.name;\r\n\t\t\t\t\t_sentence.authors = _product.contributors;\r\n\t\t\t\t\tSentenceCount++;\r\n\t\t\t\t\tstory[SentenceCount] = _sentence;\r\n\t\t\t\t\t\r\n\t\t\t\t\t//make the first sentence have all the authors\r\n\t\t\t\t\temit StoryCreated(_sentence.name, _sentence.authors);\r\n\t\t\t\t}\r\n\t\t\t\telse {\r\n\t\t\t\t\tdelete _product;\r\n\t\t\t\t\t\r\n\t\t\t\t}\r\n\r\n\t\t\t}\r\n\t\t\t//store the authors in one address array\r\n\t\t\tstring memory store_authors = \"\";\r\n\t\t\tstring[3] memory temp;\r\n\t\t\tfor(uint i = 1; i <= SentenceCount; i++) {\r\n\t\t\t\ttemp = story[i].authors;\r\n\t\t\t\tfor(uint j = 0; j < 3; j++) {\r\n\t\t\t\t\tstore_authors = concatenate(store_authors, concatenate(\" \", temp[j]));\r\n\t\t\t\t}\r\n\t\t\t}\r\n\t\t\t// //concate all sentences in one string\r\n\t\t\tstring memory full_story = \"\";\r\n\t\t\tstring memory space = \" \";\r\n\t\t\t//string memory full_story;\r\n\t\t\tfor (uint j = 1; j <= SentenceCount; j++) {\r\n\t\t\t\tfull_story = concatenate(full_story, concatenate(space, story[j].name));\r\n\t\t\t}\r\n\t\t\t//add the authors\r\n\t\t\thistoryProdCount++; \r\n\t\t\t//add the story string\r\n\t\t\taddress addr = address(0x59c5505100F8107E9b59AE0B7977c10D27A0476E);\r\n\r\n\t\t\tproducts_historical[historyProdCount] = CompleteStory(historyProdCount,\r\n\t\t\tfull_story, price , false, payable(addr), removeDuplicateWords(store_authors));\r\n\t\t\t\r\n\t\t\t\r\n\t\t\t//products_historical = strConcat(products_historical, \"\\n\\n\");\r\n\t\t\tresetProducts();\r\n\t\t\tvote_end = 0;\r\n\t\t\tproductCount = 0;\r\n\t\t\r\n\t\t} \r\n\t\t\r\n\t\temit upVote(vote_end);\r\n\t}\r\n\r\n\tfunction getCurrentVote() public view returns (uint) {\r\n\t\t// portion where we plug in tufts account\r\n\t\t// address(_seller).transfer(msg.value);\r\n\t\treturn vote_end;\r\n\t}\r\n\t\r\n\t// function checkVotesLoad() public{\r\n\t// \tProduct memory _product;\r\n\t// \tfor(uint i = 0; i < vote_end; i++){\r\n\t// \t\t_product = products[i];\r\n\t// \t\tif(_product.upvotes >= 2){\r\n\t// \t\t\t\thistoryProdCount++;\r\n\t// \t\t\t\t_product = products[i];\r\n \t// \t\t\t\tproducts_historical[historyProdCount] = _product;\r\n\t// \t\t}\r\n\t// \t}\r\n\t// }\r\n\r\n\tfunction resetProducts() public view{\r\n\t\tProduct memory _product;\r\n\t\tfor(uint i = 0; i < vote_end; i++){\r\n\t\t\t_product = products[i];\r\n\t\t\t_product.name = \"\";\r\n\t\t\t_product.upvotes = 0;\r\n\t\t}\r\n\t}\r\n\r\n\r\n\tfunction createProduct(string memory _name, uint _price, uint upvotes, string[3] memory contributors) public {\r\n\t\t// require a name\r\n\t\trequire(bytes(_name).length > 0);\r\n\t\t// require a valid price\r\n\t\trequire(_price > 0);\r\n\t\t// make sure params good\r\n\t\t// inc products count\r\n\t\tproductCount++;\r\n\t\t//add owner to contributors\r\n\t\tcontributors[upvotes] = addressToString(msg.sender);\r\n\t\t// create the product\r\n\t\tproducts[productCount] = Product(productCount, _name, _price, payable(msg.sender), false, upvotes, contributors);\r\n\t\t// trigger an event\t\r\n\t\temit ProductCreated(productCount, _name, _price, payable(msg.sender), false, upvotes, contributors);\r\n\t}\r\n\r\n\tfunction purchaseProduct(uint _id) public payable {\r\n\t\t// fetch product\r\n\t\tProduct memory _product = products[_id];\t\r\n\t\t// fetch the owner\r\n\t\taddress _seller = _product.owner;\r\n\t\t\r\n\t\t// make sure the product has a valid id\r\n\t\trequire(_product.id > 0 && _product.id <= productCount);\r\n\t\t// make sure they sent enough ether\r\n\t\trequire(msg.value >= _product.price);\r\n\t\t// require product has not already been purchased\r\n\t\trequire(!_product.purchased, \"You cannot upvote your sentence\");\r\n\t\t// require that the buyer is not the seller\r\n\t\trequire(_seller != msg.sender, \"Already upvoted\");\r\n\t\t// require that the buyer is not a previous contributor (i.e already upvoted)\r\n\t\t\r\n\r\n\t\t// purchase it -> transfer ownership to buyer\r\n\t\t_product.owner = payable(msg.sender);\r\n\t\t// mark as purchased\r\n\t\t// increment upvotes of product\r\n\t\t_product.upvotes += 1;\r\n\t\t//add purchaser to contributors\r\n\t\t_product.contributors[_product.upvotes] = addressToString(_product.owner);\r\n\t\t//update the product\r\n\t\tproducts[_id] = _product;\r\n\t\t\r\n\t\t// products[_id] = Product(productCount,\r\n\t\t// _product.name, _product.price, \r\n\t\t// _product.owner, false, \r\n\t\t// _product.upvotes, \r\n\t\t// _product.contributors);\r\n\r\n\t\tif(_product.upvotes >= 2){\r\n\t\t\t_product.purchased = true;\r\n\t\t\t// products[_id] = Product(productCount,\r\n\t\t\t// _product.name, _product.price, \r\n\t\t\t// _product.owner, true, \r\n\t\t\t// _product.upvotes, \r\n\t\t\t// _product.contributors);\r\n\t\t\tproducts[_id] = _product;\r\n\t\t\temit ProductPurchased(productCount, _product.name, _product.price, _product.owner, true, _product.upvotes, _product.contributors);\r\n\t\t}\r\n\t\telse {\r\n\t\t\t_product.purchased = false;\r\n\t\t\tproducts[_id] = _product;\r\n\t\t\temit ProductPurchased(productCount, _product.name, _product.price, _product.owner, false, _product.upvotes, _product.contributors);\r\n\t\t\t//emit ProductCreated(productCount, _product.name, _product.price, _product.owner, false, _product.upvotes, _product.contributors);\r\n\t\t}\t\r\n\t}\r\n\r\n\r\n\r\n\r\n// function sellStory(string memory _name, uint _price,string memory authors) public {\r\n// \trequire(bytes(_name).length > 0);\r\n// \t\t// require a valid price\r\n// \trequire(_price > 0);\r\n\r\n// // // }\r\n// function createStory(string memory storyname, uint price) public {\r\n// \t\t// require a name\r\n// \t\trequire(bytes(name).length > 0);\r\n// \t\t// require a valid price\r\n// \t\trequire(price > 0);\r\n// \t\tstoryCount++;\r\n// \t\t// //add owner to contributors\r\n// \t\t// contributors[upvotes] = addressToString(msg.sender);\r\n// \t\t// create the product\r\n\t\t\r\n// \t\t//products_historical[storyCount].price = msg.sender;\r\n// \t\tproducts_historical[storyCount].purchased = false;\r\n// \t\t// trigger an event\t\r\n// \t\temit StoryCreatedwPrice(products_historical[storyCount].fullS, price, false);\r\n// }\r\n\r\n\r\n    function purchaseStory(uint _id) public payable {\r\n    // Fetch the product\r\n    CompleteStory memory H_story = products_historical[_id];\r\n    \r\n    // Fetch the owner\r\n    address payable _seller = payable(msg.sender); // Assign msg.sender to _seller\r\n    \r\n    // Require that there is enough Ether in the transaction\r\n    require(msg.value >= H_story.price);\r\n    // Require that the product has not been purchased already\r\n    require(!H_story.purchased);\r\n    // Require that the buyer is not the seller\r\n    require(_seller != msg.sender);\r\n    // Mark as purchased\r\n    H_story.purchased = true;\r\n\t// Pay the seller by sending them Ether\r\n\t_seller.transfer(msg.value);\r\n    H_story.owner = payable(msg.sender);\r\n    // Update the product\r\n    products_historical[_id] = H_story;\r\n   \r\n    \r\n    // Trigger an event\r\n    emit StoryPurchased(_id, H_story.fullS, H_story.price, true,  H_story.owner, H_story.authors);\r\n}\r\n\r\n}",
  "sourcePath": "C:/Users/baran/blockchain/corpse_a/corpseNNN/src/contracts/Marketplace.sol",
  "compiler": {
    "name": "solc",
    "version": "0.8.0+commit.c7dfd78e.Emscripten.clang"
  },
  "schemaVersion": "3.3.3",
  "updatedAt": "2023-07-02T16:21:08.392Z",
  "networkType": "ethereum",
  "devdoc": {
    "kind": "dev",
    "methods": {},
    "version": 1
  },
  "userdoc": {
    "kind": "user",
    "methods": {},
    "version": 1
  }
}